{
	"data": {
		"bytecode": {
			"linkReferences": {},
			"object": "6080604052348015600e575f5ffd5b50335f5f6101000a81548173ffffffffffffffffffffffffffffffffffffffff021916908373ffffffffffffffffffffffffffffffffffffffff160217905550610ff88061005b5f395ff3fe608060405234801561000f575f5ffd5b506004361061004a575f3560e01c80633252f9be1461004e578063471a48cd1461006a578063bd5295f61461009e578063dd31cea9146100ba575b5f5ffd5b610068600480360381019061006391906107c3565b6100d6565b005b610084600480360381019061007f9190610827565b61025b565b604051610095959493929190610944565b60405180910390f35b6100b860048036038101906100b39190610ac8565b610486565b005b6100d460048036038101906100cf9190610b22565b610523565b005b5f5f9054906101000a900473ffffffffffffffffffffffffffffffffffffffff1673ffffffffffffffffffffffffffffffffffffffff163373ffffffffffffffffffffffffffffffffffffffff1614610164576040517f08c379a000000000000000000000000000000000000000000000000000000000815260040161015b90610bff565b60405180910390fd5b8060015f8261ffff1661ffff1681526020019081526020015f2060010160079054906101000a900460ff166101ce576040517f08c379a00000000000000000000000000000000000000000000000000000000081526004016101c590610c67565b60405180910390fd5b5f60015f8461ffff1661ffff1681526020019081526020015f20905085816001015f6101000a81548161ffff021916908361ffff160217905550848160010160026101000a81548161ffff021916908361ffff160217905550838160010160046101000a81548160ff0219169083600281111561024e5761024d6108d1565b5b0217905550505050505050565b60605f5f5f5f5f5f9054906101000a900473ffffffffffffffffffffffffffffffffffffffff1673ffffffffffffffffffffffffffffffffffffffff163373ffffffffffffffffffffffffffffffffffffffff16146102ef576040517f08c379a00000000000000000000000000000000000000000000000000000000081526004016102e690610bff565b60405180910390fd5b5f60015f8861ffff1661ffff1681526020019081526020015f206040518060c00160405290815f8201805461032390610cb2565b80601f016020809104026020016040519081016040528092919081815260200182805461034f90610cb2565b801561039a5780601f106103715761010080835404028352916020019161039a565b820191905f5260205f20905b81548152906001019060200180831161037d57829003601f168201915b50505050508152602001600182015f9054906101000a900461ffff1661ffff1661ffff1681526020016001820160029054906101000a900461ffff1661ffff1661ffff1681526020016001820160049054906101000a900460ff166002811115610407576104066108d1565b5b6002811115610419576104186108d1565b5b81526020016001820160059054906101000a900461ffff1661ffff1661ffff1681526020016001820160079054906101000a900460ff1615151515815250509050805f01518160200151826040015183606001518460800151955095509550955095505091939590929450565b8060015f8261ffff1661ffff1681526020019081526020015f2060010160079054906101000a900460ff166104f0576040517f08c379a00000000000000000000000000000000000000000000000000000000081526004016104e790610c67565b60405180910390fd5b5f60015f8461ffff1661ffff1681526020019081526020015f20905083815f01908161051c9190610e8b565b5050505050565b5f5f9054906101000a900473ffffffffffffffffffffffffffffffffffffffff1673ffffffffffffffffffffffffffffffffffffffff163373ffffffffffffffffffffffffffffffffffffffff16146105b1576040517f08c379a00000000000000000000000000000000000000000000000000000000081526004016105a890610bff565b60405180910390fd5b60015f8261ffff1661ffff1681526020019081526020015f2060010160079054906101000a900460ff161561061b576040517f08c379a000000000000000000000000000000000000000000000000000000000815260040161061290610fa4565b60405180910390fd5b6040518060c001604052808681526020018561ffff1681526020018461ffff168152602001836002811115610653576106526108d1565b5b81526020018261ffff1681526020016001151581525060015f8361ffff1661ffff1681526020019081526020015f205f820151815f0190816106959190610e8b565b506020820151816001015f6101000a81548161ffff021916908361ffff16021790555060408201518160010160026101000a81548161ffff021916908361ffff16021790555060608201518160010160046101000a81548160ff02191690836002811115610706576107056108d1565b5b021790555060808201518160010160056101000a81548161ffff021916908361ffff16021790555060a08201518160010160076101000a81548160ff0219169083151502179055509050505050505050565b5f604051905090565b5f5ffd5b5f5ffd5b5f61ffff82169050919050565b61077f81610769565b8114610789575f5ffd5b50565b5f8135905061079a81610776565b92915050565b600381106107ac575f5ffd5b50565b5f813590506107bd816107a0565b92915050565b5f5f5f5f608085870312156107db576107da610761565b5b5f6107e88782880161078c565b94505060206107f98782880161078c565b935050604061080a878288016107af565b925050606061081b8782880161078c565b91505092959194509250565b5f6020828403121561083c5761083b610761565b5b5f6108498482850161078c565b91505092915050565b5f81519050919050565b5f82825260208201905092915050565b8281835e5f83830152505050565b5f601f19601f8301169050919050565b5f61089482610852565b61089e818561085c565b93506108ae81856020860161086c565b6108b78161087a565b840191505092915050565b6108cb81610769565b82525050565b7f4e487b71000000000000000000000000000000000000000000000000000000005f52602160045260245ffd5b6003811061090f5761090e6108d1565b5b50565b5f81905061091f826108fe565b919050565b5f61092e82610912565b9050919050565b61093e81610924565b82525050565b5f60a0820190508181035f83015261095c818861088a565b905061096b60208301876108c2565b61097860408301866108c2565b6109856060830185610935565b61099260808301846108c2565b9695505050505050565b5f5ffd5b5f5ffd5b7f4e487b71000000000000000000000000000000000000000000000000000000005f52604160045260245ffd5b6109da8261087a565b810181811067ffffffffffffffff821117156109f9576109f86109a4565b5b80604052505050565b5f610a0b610758565b9050610a1782826109d1565b919050565b5f67ffffffffffffffff821115610a3657610a356109a4565b5b610a3f8261087a565b9050602081019050919050565b828183375f83830152505050565b5f610a6c610a6784610a1c565b610a02565b905082815260208101848484011115610a8857610a876109a0565b5b610a93848285610a4c565b509392505050565b5f82601f830112610aaf57610aae61099c565b5b8135610abf848260208601610a5a565b91505092915050565b5f5f60408385031215610ade57610add610761565b5b5f83013567ffffffffffffffff811115610afb57610afa610765565b5b610b0785828601610a9b565b9250506020610b188582860161078c565b9150509250929050565b5f5f5f5f5f60a08688031215610b3b57610b3a610761565b5b5f86013567ffffffffffffffff811115610b5857610b57610765565b5b610b6488828901610a9b565b9550506020610b758882890161078c565b9450506040610b868882890161078c565b9350506060610b97888289016107af565b9250506080610ba88882890161078c565b9150509295509295909350565b7f756e617574686f72697a656420616363657373200000000000000000000000005f82015250565b5f610be960148361085c565b9150610bf482610bb5565b602082019050919050565b5f6020820190508181035f830152610c1681610bdd565b9050919050565b7f726f6c6c6e6f20646f6573206e6f7420657869737400000000000000000000005f82015250565b5f610c5160158361085c565b9150610c5c82610c1d565b602082019050919050565b5f6020820190508181035f830152610c7e81610c45565b9050919050565b7f4e487b71000000000000000000000000000000000000000000000000000000005f52602260045260245ffd5b5f6002820490506001821680610cc957607f821691505b602082108103610cdc57610cdb610c85565b5b50919050565b5f819050815f5260205f209050919050565b5f6020601f8301049050919050565b5f82821b905092915050565b5f60088302610d3e7fffffffffffffffffffffffffffffffffffffffffffffffffffffffffffffffff82610d03565b610d488683610d03565b95508019841693508086168417925050509392505050565b5f819050919050565b5f819050919050565b5f610d8c610d87610d8284610d60565b610d69565b610d60565b9050919050565b5f819050919050565b610da583610d72565b610db9610db182610d93565b848454610d0f565b825550505050565b5f5f905090565b610dd0610dc1565b610ddb818484610d9c565b505050565b5b81811015610dfe57610df35f82610dc8565b600181019050610de1565b5050565b601f821115610e4357610e1481610ce2565b610e1d84610cf4565b81016020851015610e2c578190505b610e40610e3885610cf4565b830182610de0565b50505b505050565b5f82821c905092915050565b5f610e635f1984600802610e48565b1980831691505092915050565b5f610e7b8383610e54565b9150826002028217905092915050565b610e9482610852565b67ffffffffffffffff811115610ead57610eac6109a4565b5b610eb78254610cb2565b610ec2828285610e02565b5f60209050601f831160018114610ef3575f8415610ee1578287015190505b610eeb8582610e70565b865550610f52565b601f198416610f0186610ce2565b5f5b82811015610f2857848901518255600182019150602085019450602081019050610f03565b86831015610f455784890151610f41601f891682610e54565b8355505b6001600288020188555050505b505050505050565b7f526f6c6c206e756d62657220697320616c7265616479206578697374730000005f82015250565b5f610f8e601d8361085c565b9150610f9982610f5a565b602082019050919050565b5f6020820190508181035f830152610fbb81610f82565b905091905056fea2646970667358221220238c05095951bc61114ab7c711002c59d7964939a5223adafc390d01e8f6ff8264736f6c634300081c0033",
			"opcodes": "PUSH1 0x80 PUSH1 0x40 MSTORE CALLVALUE DUP1 ISZERO PUSH1 0xE JUMPI PUSH0 PUSH0 REVERT JUMPDEST POP CALLER PUSH0 PUSH0 PUSH2 0x100 EXP DUP2 SLOAD DUP2 PUSH20 0xFFFFFFFFFFFFFFFFFFFFFFFFFFFFFFFFFFFFFFFF MUL NOT AND SWAP1 DUP4 PUSH20 0xFFFFFFFFFFFFFFFFFFFFFFFFFFFFFFFFFFFFFFFF AND MUL OR SWAP1 SSTORE POP PUSH2 0xFF8 DUP1 PUSH2 0x5B PUSH0 CODECOPY PUSH0 RETURN INVALID PUSH1 0x80 PUSH1 0x40 MSTORE CALLVALUE DUP1 ISZERO PUSH2 0xF JUMPI PUSH0 PUSH0 REVERT JUMPDEST POP PUSH1 0x4 CALLDATASIZE LT PUSH2 0x4A JUMPI PUSH0 CALLDATALOAD PUSH1 0xE0 SHR DUP1 PUSH4 0x3252F9BE EQ PUSH2 0x4E JUMPI DUP1 PUSH4 0x471A48CD EQ PUSH2 0x6A JUMPI DUP1 PUSH4 0xBD5295F6 EQ PUSH2 0x9E JUMPI DUP1 PUSH4 0xDD31CEA9 EQ PUSH2 0xBA JUMPI JUMPDEST PUSH0 PUSH0 REVERT JUMPDEST PUSH2 0x68 PUSH1 0x4 DUP1 CALLDATASIZE SUB DUP2 ADD SWAP1 PUSH2 0x63 SWAP2 SWAP1 PUSH2 0x7C3 JUMP JUMPDEST PUSH2 0xD6 JUMP JUMPDEST STOP JUMPDEST PUSH2 0x84 PUSH1 0x4 DUP1 CALLDATASIZE SUB DUP2 ADD SWAP1 PUSH2 0x7F SWAP2 SWAP1 PUSH2 0x827 JUMP JUMPDEST PUSH2 0x25B JUMP JUMPDEST PUSH1 0x40 MLOAD PUSH2 0x95 SWAP6 SWAP5 SWAP4 SWAP3 SWAP2 SWAP1 PUSH2 0x944 JUMP JUMPDEST PUSH1 0x40 MLOAD DUP1 SWAP2 SUB SWAP1 RETURN JUMPDEST PUSH2 0xB8 PUSH1 0x4 DUP1 CALLDATASIZE SUB DUP2 ADD SWAP1 PUSH2 0xB3 SWAP2 SWAP1 PUSH2 0xAC8 JUMP JUMPDEST PUSH2 0x486 JUMP JUMPDEST STOP JUMPDEST PUSH2 0xD4 PUSH1 0x4 DUP1 CALLDATASIZE SUB DUP2 ADD SWAP1 PUSH2 0xCF SWAP2 SWAP1 PUSH2 0xB22 JUMP JUMPDEST PUSH2 0x523 JUMP JUMPDEST STOP JUMPDEST PUSH0 PUSH0 SWAP1 SLOAD SWAP1 PUSH2 0x100 EXP SWAP1 DIV PUSH20 0xFFFFFFFFFFFFFFFFFFFFFFFFFFFFFFFFFFFFFFFF AND PUSH20 0xFFFFFFFFFFFFFFFFFFFFFFFFFFFFFFFFFFFFFFFF AND CALLER PUSH20 0xFFFFFFFFFFFFFFFFFFFFFFFFFFFFFFFFFFFFFFFF AND EQ PUSH2 0x164 JUMPI PUSH1 0x40 MLOAD PUSH32 0x8C379A000000000000000000000000000000000000000000000000000000000 DUP2 MSTORE PUSH1 0x4 ADD PUSH2 0x15B SWAP1 PUSH2 0xBFF JUMP JUMPDEST PUSH1 0x40 MLOAD DUP1 SWAP2 SUB SWAP1 REVERT JUMPDEST DUP1 PUSH1 0x1 PUSH0 DUP3 PUSH2 0xFFFF AND PUSH2 0xFFFF AND DUP2 MSTORE PUSH1 0x20 ADD SWAP1 DUP2 MSTORE PUSH1 0x20 ADD PUSH0 KECCAK256 PUSH1 0x1 ADD PUSH1 0x7 SWAP1 SLOAD SWAP1 PUSH2 0x100 EXP SWAP1 DIV PUSH1 0xFF AND PUSH2 0x1CE JUMPI PUSH1 0x40 MLOAD PUSH32 0x8C379A000000000000000000000000000000000000000000000000000000000 DUP2 MSTORE PUSH1 0x4 ADD PUSH2 0x1C5 SWAP1 PUSH2 0xC67 JUMP JUMPDEST PUSH1 0x40 MLOAD DUP1 SWAP2 SUB SWAP1 REVERT JUMPDEST PUSH0 PUSH1 0x1 PUSH0 DUP5 PUSH2 0xFFFF AND PUSH2 0xFFFF AND DUP2 MSTORE PUSH1 0x20 ADD SWAP1 DUP2 MSTORE PUSH1 0x20 ADD PUSH0 KECCAK256 SWAP1 POP DUP6 DUP2 PUSH1 0x1 ADD PUSH0 PUSH2 0x100 EXP DUP2 SLOAD DUP2 PUSH2 0xFFFF MUL NOT AND SWAP1 DUP4 PUSH2 0xFFFF AND MUL OR SWAP1 SSTORE POP DUP5 DUP2 PUSH1 0x1 ADD PUSH1 0x2 PUSH2 0x100 EXP DUP2 SLOAD DUP2 PUSH2 0xFFFF MUL NOT AND SWAP1 DUP4 PUSH2 0xFFFF AND MUL OR SWAP1 SSTORE POP DUP4 DUP2 PUSH1 0x1 ADD PUSH1 0x4 PUSH2 0x100 EXP DUP2 SLOAD DUP2 PUSH1 0xFF MUL NOT AND SWAP1 DUP4 PUSH1 0x2 DUP2 GT ISZERO PUSH2 0x24E JUMPI PUSH2 0x24D PUSH2 0x8D1 JUMP JUMPDEST JUMPDEST MUL OR SWAP1 SSTORE POP POP POP POP POP POP POP JUMP JUMPDEST PUSH1 0x60 PUSH0 PUSH0 PUSH0 PUSH0 PUSH0 PUSH0 SWAP1 SLOAD SWAP1 PUSH2 0x100 EXP SWAP1 DIV PUSH20 0xFFFFFFFFFFFFFFFFFFFFFFFFFFFFFFFFFFFFFFFF AND PUSH20 0xFFFFFFFFFFFFFFFFFFFFFFFFFFFFFFFFFFFFFFFF AND CALLER PUSH20 0xFFFFFFFFFFFFFFFFFFFFFFFFFFFFFFFFFFFFFFFF AND EQ PUSH2 0x2EF JUMPI PUSH1 0x40 MLOAD PUSH32 0x8C379A000000000000000000000000000000000000000000000000000000000 DUP2 MSTORE PUSH1 0x4 ADD PUSH2 0x2E6 SWAP1 PUSH2 0xBFF JUMP JUMPDEST PUSH1 0x40 MLOAD DUP1 SWAP2 SUB SWAP1 REVERT JUMPDEST PUSH0 PUSH1 0x1 PUSH0 DUP9 PUSH2 0xFFFF AND PUSH2 0xFFFF AND DUP2 MSTORE PUSH1 0x20 ADD SWAP1 DUP2 MSTORE PUSH1 0x20 ADD PUSH0 KECCAK256 PUSH1 0x40 MLOAD DUP1 PUSH1 0xC0 ADD PUSH1 0x40 MSTORE SWAP1 DUP2 PUSH0 DUP3 ADD DUP1 SLOAD PUSH2 0x323 SWAP1 PUSH2 0xCB2 JUMP JUMPDEST DUP1 PUSH1 0x1F ADD PUSH1 0x20 DUP1 SWAP2 DIV MUL PUSH1 0x20 ADD PUSH1 0x40 MLOAD SWAP1 DUP2 ADD PUSH1 0x40 MSTORE DUP1 SWAP3 SWAP2 SWAP1 DUP2 DUP2 MSTORE PUSH1 0x20 ADD DUP3 DUP1 SLOAD PUSH2 0x34F SWAP1 PUSH2 0xCB2 JUMP JUMPDEST DUP1 ISZERO PUSH2 0x39A JUMPI DUP1 PUSH1 0x1F LT PUSH2 0x371 JUMPI PUSH2 0x100 DUP1 DUP4 SLOAD DIV MUL DUP4 MSTORE SWAP2 PUSH1 0x20 ADD SWAP2 PUSH2 0x39A JUMP JUMPDEST DUP3 ADD SWAP2 SWAP1 PUSH0 MSTORE PUSH1 0x20 PUSH0 KECCAK256 SWAP1 JUMPDEST DUP2 SLOAD DUP2 MSTORE SWAP1 PUSH1 0x1 ADD SWAP1 PUSH1 0x20 ADD DUP1 DUP4 GT PUSH2 0x37D JUMPI DUP3 SWAP1 SUB PUSH1 0x1F AND DUP3 ADD SWAP2 JUMPDEST POP POP POP POP POP DUP2 MSTORE PUSH1 0x20 ADD PUSH1 0x1 DUP3 ADD PUSH0 SWAP1 SLOAD SWAP1 PUSH2 0x100 EXP SWAP1 DIV PUSH2 0xFFFF AND PUSH2 0xFFFF AND PUSH2 0xFFFF AND DUP2 MSTORE PUSH1 0x20 ADD PUSH1 0x1 DUP3 ADD PUSH1 0x2 SWAP1 SLOAD SWAP1 PUSH2 0x100 EXP SWAP1 DIV PUSH2 0xFFFF AND PUSH2 0xFFFF AND PUSH2 0xFFFF AND DUP2 MSTORE PUSH1 0x20 ADD PUSH1 0x1 DUP3 ADD PUSH1 0x4 SWAP1 SLOAD SWAP1 PUSH2 0x100 EXP SWAP1 DIV PUSH1 0xFF AND PUSH1 0x2 DUP2 GT ISZERO PUSH2 0x407 JUMPI PUSH2 0x406 PUSH2 0x8D1 JUMP JUMPDEST JUMPDEST PUSH1 0x2 DUP2 GT ISZERO PUSH2 0x419 JUMPI PUSH2 0x418 PUSH2 0x8D1 JUMP JUMPDEST JUMPDEST DUP2 MSTORE PUSH1 0x20 ADD PUSH1 0x1 DUP3 ADD PUSH1 0x5 SWAP1 SLOAD SWAP1 PUSH2 0x100 EXP SWAP1 DIV PUSH2 0xFFFF AND PUSH2 0xFFFF AND PUSH2 0xFFFF AND DUP2 MSTORE PUSH1 0x20 ADD PUSH1 0x1 DUP3 ADD PUSH1 0x7 SWAP1 SLOAD SWAP1 PUSH2 0x100 EXP SWAP1 DIV PUSH1 0xFF AND ISZERO ISZERO ISZERO ISZERO DUP2 MSTORE POP POP SWAP1 POP DUP1 PUSH0 ADD MLOAD DUP2 PUSH1 0x20 ADD MLOAD DUP3 PUSH1 0x40 ADD MLOAD DUP4 PUSH1 0x60 ADD MLOAD DUP5 PUSH1 0x80 ADD MLOAD SWAP6 POP SWAP6 POP SWAP6 POP SWAP6 POP SWAP6 POP POP SWAP2 SWAP4 SWAP6 SWAP1 SWAP3 SWAP5 POP JUMP JUMPDEST DUP1 PUSH1 0x1 PUSH0 DUP3 PUSH2 0xFFFF AND PUSH2 0xFFFF AND DUP2 MSTORE PUSH1 0x20 ADD SWAP1 DUP2 MSTORE PUSH1 0x20 ADD PUSH0 KECCAK256 PUSH1 0x1 ADD PUSH1 0x7 SWAP1 SLOAD SWAP1 PUSH2 0x100 EXP SWAP1 DIV PUSH1 0xFF AND PUSH2 0x4F0 JUMPI PUSH1 0x40 MLOAD PUSH32 0x8C379A000000000000000000000000000000000000000000000000000000000 DUP2 MSTORE PUSH1 0x4 ADD PUSH2 0x4E7 SWAP1 PUSH2 0xC67 JUMP JUMPDEST PUSH1 0x40 MLOAD DUP1 SWAP2 SUB SWAP1 REVERT JUMPDEST PUSH0 PUSH1 0x1 PUSH0 DUP5 PUSH2 0xFFFF AND PUSH2 0xFFFF AND DUP2 MSTORE PUSH1 0x20 ADD SWAP1 DUP2 MSTORE PUSH1 0x20 ADD PUSH0 KECCAK256 SWAP1 POP DUP4 DUP2 PUSH0 ADD SWAP1 DUP2 PUSH2 0x51C SWAP2 SWAP1 PUSH2 0xE8B JUMP JUMPDEST POP POP POP POP POP JUMP JUMPDEST PUSH0 PUSH0 SWAP1 SLOAD SWAP1 PUSH2 0x100 EXP SWAP1 DIV PUSH20 0xFFFFFFFFFFFFFFFFFFFFFFFFFFFFFFFFFFFFFFFF AND PUSH20 0xFFFFFFFFFFFFFFFFFFFFFFFFFFFFFFFFFFFFFFFF AND CALLER PUSH20 0xFFFFFFFFFFFFFFFFFFFFFFFFFFFFFFFFFFFFFFFF AND EQ PUSH2 0x5B1 JUMPI PUSH1 0x40 MLOAD PUSH32 0x8C379A000000000000000000000000000000000000000000000000000000000 DUP2 MSTORE PUSH1 0x4 ADD PUSH2 0x5A8 SWAP1 PUSH2 0xBFF JUMP JUMPDEST PUSH1 0x40 MLOAD DUP1 SWAP2 SUB SWAP1 REVERT JUMPDEST PUSH1 0x1 PUSH0 DUP3 PUSH2 0xFFFF AND PUSH2 0xFFFF AND DUP2 MSTORE PUSH1 0x20 ADD SWAP1 DUP2 MSTORE PUSH1 0x20 ADD PUSH0 KECCAK256 PUSH1 0x1 ADD PUSH1 0x7 SWAP1 SLOAD SWAP1 PUSH2 0x100 EXP SWAP1 DIV PUSH1 0xFF AND ISZERO PUSH2 0x61B JUMPI PUSH1 0x40 MLOAD PUSH32 0x8C379A000000000000000000000000000000000000000000000000000000000 DUP2 MSTORE PUSH1 0x4 ADD PUSH2 0x612 SWAP1 PUSH2 0xFA4 JUMP JUMPDEST PUSH1 0x40 MLOAD DUP1 SWAP2 SUB SWAP1 REVERT JUMPDEST PUSH1 0x40 MLOAD DUP1 PUSH1 0xC0 ADD PUSH1 0x40 MSTORE DUP1 DUP7 DUP2 MSTORE PUSH1 0x20 ADD DUP6 PUSH2 0xFFFF AND DUP2 MSTORE PUSH1 0x20 ADD DUP5 PUSH2 0xFFFF AND DUP2 MSTORE PUSH1 0x20 ADD DUP4 PUSH1 0x2 DUP2 GT ISZERO PUSH2 0x653 JUMPI PUSH2 0x652 PUSH2 0x8D1 JUMP JUMPDEST JUMPDEST DUP2 MSTORE PUSH1 0x20 ADD DUP3 PUSH2 0xFFFF AND DUP2 MSTORE PUSH1 0x20 ADD PUSH1 0x1 ISZERO ISZERO DUP2 MSTORE POP PUSH1 0x1 PUSH0 DUP4 PUSH2 0xFFFF AND PUSH2 0xFFFF AND DUP2 MSTORE PUSH1 0x20 ADD SWAP1 DUP2 MSTORE PUSH1 0x20 ADD PUSH0 KECCAK256 PUSH0 DUP3 ADD MLOAD DUP2 PUSH0 ADD SWAP1 DUP2 PUSH2 0x695 SWAP2 SWAP1 PUSH2 0xE8B JUMP JUMPDEST POP PUSH1 0x20 DUP3 ADD MLOAD DUP2 PUSH1 0x1 ADD PUSH0 PUSH2 0x100 EXP DUP2 SLOAD DUP2 PUSH2 0xFFFF MUL NOT AND SWAP1 DUP4 PUSH2 0xFFFF AND MUL OR SWAP1 SSTORE POP PUSH1 0x40 DUP3 ADD MLOAD DUP2 PUSH1 0x1 ADD PUSH1 0x2 PUSH2 0x100 EXP DUP2 SLOAD DUP2 PUSH2 0xFFFF MUL NOT AND SWAP1 DUP4 PUSH2 0xFFFF AND MUL OR SWAP1 SSTORE POP PUSH1 0x60 DUP3 ADD MLOAD DUP2 PUSH1 0x1 ADD PUSH1 0x4 PUSH2 0x100 EXP DUP2 SLOAD DUP2 PUSH1 0xFF MUL NOT AND SWAP1 DUP4 PUSH1 0x2 DUP2 GT ISZERO PUSH2 0x706 JUMPI PUSH2 0x705 PUSH2 0x8D1 JUMP JUMPDEST JUMPDEST MUL OR SWAP1 SSTORE POP PUSH1 0x80 DUP3 ADD MLOAD DUP2 PUSH1 0x1 ADD PUSH1 0x5 PUSH2 0x100 EXP DUP2 SLOAD DUP2 PUSH2 0xFFFF MUL NOT AND SWAP1 DUP4 PUSH2 0xFFFF AND MUL OR SWAP1 SSTORE POP PUSH1 0xA0 DUP3 ADD MLOAD DUP2 PUSH1 0x1 ADD PUSH1 0x7 PUSH2 0x100 EXP DUP2 SLOAD DUP2 PUSH1 0xFF MUL NOT AND SWAP1 DUP4 ISZERO ISZERO MUL OR SWAP1 SSTORE POP SWAP1 POP POP POP POP POP POP POP JUMP JUMPDEST PUSH0 PUSH1 0x40 MLOAD SWAP1 POP SWAP1 JUMP JUMPDEST PUSH0 PUSH0 REVERT JUMPDEST PUSH0 PUSH0 REVERT JUMPDEST PUSH0 PUSH2 0xFFFF DUP3 AND SWAP1 POP SWAP2 SWAP1 POP JUMP JUMPDEST PUSH2 0x77F DUP2 PUSH2 0x769 JUMP JUMPDEST DUP2 EQ PUSH2 0x789 JUMPI PUSH0 PUSH0 REVERT JUMPDEST POP JUMP JUMPDEST PUSH0 DUP2 CALLDATALOAD SWAP1 POP PUSH2 0x79A DUP2 PUSH2 0x776 JUMP JUMPDEST SWAP3 SWAP2 POP POP JUMP JUMPDEST PUSH1 0x3 DUP2 LT PUSH2 0x7AC JUMPI PUSH0 PUSH0 REVERT JUMPDEST POP JUMP JUMPDEST PUSH0 DUP2 CALLDATALOAD SWAP1 POP PUSH2 0x7BD DUP2 PUSH2 0x7A0 JUMP JUMPDEST SWAP3 SWAP2 POP POP JUMP JUMPDEST PUSH0 PUSH0 PUSH0 PUSH0 PUSH1 0x80 DUP6 DUP8 SUB SLT ISZERO PUSH2 0x7DB JUMPI PUSH2 0x7DA PUSH2 0x761 JUMP JUMPDEST JUMPDEST PUSH0 PUSH2 0x7E8 DUP8 DUP3 DUP9 ADD PUSH2 0x78C JUMP JUMPDEST SWAP5 POP POP PUSH1 0x20 PUSH2 0x7F9 DUP8 DUP3 DUP9 ADD PUSH2 0x78C JUMP JUMPDEST SWAP4 POP POP PUSH1 0x40 PUSH2 0x80A DUP8 DUP3 DUP9 ADD PUSH2 0x7AF JUMP JUMPDEST SWAP3 POP POP PUSH1 0x60 PUSH2 0x81B DUP8 DUP3 DUP9 ADD PUSH2 0x78C JUMP JUMPDEST SWAP2 POP POP SWAP3 SWAP6 SWAP2 SWAP5 POP SWAP3 POP JUMP JUMPDEST PUSH0 PUSH1 0x20 DUP3 DUP5 SUB SLT ISZERO PUSH2 0x83C JUMPI PUSH2 0x83B PUSH2 0x761 JUMP JUMPDEST JUMPDEST PUSH0 PUSH2 0x849 DUP5 DUP3 DUP6 ADD PUSH2 0x78C JUMP JUMPDEST SWAP2 POP POP SWAP3 SWAP2 POP POP JUMP JUMPDEST PUSH0 DUP2 MLOAD SWAP1 POP SWAP2 SWAP1 POP JUMP JUMPDEST PUSH0 DUP3 DUP3 MSTORE PUSH1 0x20 DUP3 ADD SWAP1 POP SWAP3 SWAP2 POP POP JUMP JUMPDEST DUP3 DUP2 DUP4 MCOPY PUSH0 DUP4 DUP4 ADD MSTORE POP POP POP JUMP JUMPDEST PUSH0 PUSH1 0x1F NOT PUSH1 0x1F DUP4 ADD AND SWAP1 POP SWAP2 SWAP1 POP JUMP JUMPDEST PUSH0 PUSH2 0x894 DUP3 PUSH2 0x852 JUMP JUMPDEST PUSH2 0x89E DUP2 DUP6 PUSH2 0x85C JUMP JUMPDEST SWAP4 POP PUSH2 0x8AE DUP2 DUP6 PUSH1 0x20 DUP7 ADD PUSH2 0x86C JUMP JUMPDEST PUSH2 0x8B7 DUP2 PUSH2 0x87A JUMP JUMPDEST DUP5 ADD SWAP2 POP POP SWAP3 SWAP2 POP POP JUMP JUMPDEST PUSH2 0x8CB DUP2 PUSH2 0x769 JUMP JUMPDEST DUP3 MSTORE POP POP JUMP JUMPDEST PUSH32 0x4E487B7100000000000000000000000000000000000000000000000000000000 PUSH0 MSTORE PUSH1 0x21 PUSH1 0x4 MSTORE PUSH1 0x24 PUSH0 REVERT JUMPDEST PUSH1 0x3 DUP2 LT PUSH2 0x90F JUMPI PUSH2 0x90E PUSH2 0x8D1 JUMP JUMPDEST JUMPDEST POP JUMP JUMPDEST PUSH0 DUP2 SWAP1 POP PUSH2 0x91F DUP3 PUSH2 0x8FE JUMP JUMPDEST SWAP2 SWAP1 POP JUMP JUMPDEST PUSH0 PUSH2 0x92E DUP3 PUSH2 0x912 JUMP JUMPDEST SWAP1 POP SWAP2 SWAP1 POP JUMP JUMPDEST PUSH2 0x93E DUP2 PUSH2 0x924 JUMP JUMPDEST DUP3 MSTORE POP POP JUMP JUMPDEST PUSH0 PUSH1 0xA0 DUP3 ADD SWAP1 POP DUP2 DUP2 SUB PUSH0 DUP4 ADD MSTORE PUSH2 0x95C DUP2 DUP9 PUSH2 0x88A JUMP JUMPDEST SWAP1 POP PUSH2 0x96B PUSH1 0x20 DUP4 ADD DUP8 PUSH2 0x8C2 JUMP JUMPDEST PUSH2 0x978 PUSH1 0x40 DUP4 ADD DUP7 PUSH2 0x8C2 JUMP JUMPDEST PUSH2 0x985 PUSH1 0x60 DUP4 ADD DUP6 PUSH2 0x935 JUMP JUMPDEST PUSH2 0x992 PUSH1 0x80 DUP4 ADD DUP5 PUSH2 0x8C2 JUMP JUMPDEST SWAP7 SWAP6 POP POP POP POP POP POP JUMP JUMPDEST PUSH0 PUSH0 REVERT JUMPDEST PUSH0 PUSH0 REVERT JUMPDEST PUSH32 0x4E487B7100000000000000000000000000000000000000000000000000000000 PUSH0 MSTORE PUSH1 0x41 PUSH1 0x4 MSTORE PUSH1 0x24 PUSH0 REVERT JUMPDEST PUSH2 0x9DA DUP3 PUSH2 0x87A JUMP JUMPDEST DUP2 ADD DUP2 DUP2 LT PUSH8 0xFFFFFFFFFFFFFFFF DUP3 GT OR ISZERO PUSH2 0x9F9 JUMPI PUSH2 0x9F8 PUSH2 0x9A4 JUMP JUMPDEST JUMPDEST DUP1 PUSH1 0x40 MSTORE POP POP POP JUMP JUMPDEST PUSH0 PUSH2 0xA0B PUSH2 0x758 JUMP JUMPDEST SWAP1 POP PUSH2 0xA17 DUP3 DUP3 PUSH2 0x9D1 JUMP JUMPDEST SWAP2 SWAP1 POP JUMP JUMPDEST PUSH0 PUSH8 0xFFFFFFFFFFFFFFFF DUP3 GT ISZERO PUSH2 0xA36 JUMPI PUSH2 0xA35 PUSH2 0x9A4 JUMP JUMPDEST JUMPDEST PUSH2 0xA3F DUP3 PUSH2 0x87A JUMP JUMPDEST SWAP1 POP PUSH1 0x20 DUP2 ADD SWAP1 POP SWAP2 SWAP1 POP JUMP JUMPDEST DUP3 DUP2 DUP4 CALLDATACOPY PUSH0 DUP4 DUP4 ADD MSTORE POP POP POP JUMP JUMPDEST PUSH0 PUSH2 0xA6C PUSH2 0xA67 DUP5 PUSH2 0xA1C JUMP JUMPDEST PUSH2 0xA02 JUMP JUMPDEST SWAP1 POP DUP3 DUP2 MSTORE PUSH1 0x20 DUP2 ADD DUP5 DUP5 DUP5 ADD GT ISZERO PUSH2 0xA88 JUMPI PUSH2 0xA87 PUSH2 0x9A0 JUMP JUMPDEST JUMPDEST PUSH2 0xA93 DUP5 DUP3 DUP6 PUSH2 0xA4C JUMP JUMPDEST POP SWAP4 SWAP3 POP POP POP JUMP JUMPDEST PUSH0 DUP3 PUSH1 0x1F DUP4 ADD SLT PUSH2 0xAAF JUMPI PUSH2 0xAAE PUSH2 0x99C JUMP JUMPDEST JUMPDEST DUP2 CALLDATALOAD PUSH2 0xABF DUP5 DUP3 PUSH1 0x20 DUP7 ADD PUSH2 0xA5A JUMP JUMPDEST SWAP2 POP POP SWAP3 SWAP2 POP POP JUMP JUMPDEST PUSH0 PUSH0 PUSH1 0x40 DUP4 DUP6 SUB SLT ISZERO PUSH2 0xADE JUMPI PUSH2 0xADD PUSH2 0x761 JUMP JUMPDEST JUMPDEST PUSH0 DUP4 ADD CALLDATALOAD PUSH8 0xFFFFFFFFFFFFFFFF DUP2 GT ISZERO PUSH2 0xAFB JUMPI PUSH2 0xAFA PUSH2 0x765 JUMP JUMPDEST JUMPDEST PUSH2 0xB07 DUP6 DUP3 DUP7 ADD PUSH2 0xA9B JUMP JUMPDEST SWAP3 POP POP PUSH1 0x20 PUSH2 0xB18 DUP6 DUP3 DUP7 ADD PUSH2 0x78C JUMP JUMPDEST SWAP2 POP POP SWAP3 POP SWAP3 SWAP1 POP JUMP JUMPDEST PUSH0 PUSH0 PUSH0 PUSH0 PUSH0 PUSH1 0xA0 DUP7 DUP9 SUB SLT ISZERO PUSH2 0xB3B JUMPI PUSH2 0xB3A PUSH2 0x761 JUMP JUMPDEST JUMPDEST PUSH0 DUP7 ADD CALLDATALOAD PUSH8 0xFFFFFFFFFFFFFFFF DUP2 GT ISZERO PUSH2 0xB58 JUMPI PUSH2 0xB57 PUSH2 0x765 JUMP JUMPDEST JUMPDEST PUSH2 0xB64 DUP9 DUP3 DUP10 ADD PUSH2 0xA9B JUMP JUMPDEST SWAP6 POP POP PUSH1 0x20 PUSH2 0xB75 DUP9 DUP3 DUP10 ADD PUSH2 0x78C JUMP JUMPDEST SWAP5 POP POP PUSH1 0x40 PUSH2 0xB86 DUP9 DUP3 DUP10 ADD PUSH2 0x78C JUMP JUMPDEST SWAP4 POP POP PUSH1 0x60 PUSH2 0xB97 DUP9 DUP3 DUP10 ADD PUSH2 0x7AF JUMP JUMPDEST SWAP3 POP POP PUSH1 0x80 PUSH2 0xBA8 DUP9 DUP3 DUP10 ADD PUSH2 0x78C JUMP JUMPDEST SWAP2 POP POP SWAP3 SWAP6 POP SWAP3 SWAP6 SWAP1 SWAP4 POP JUMP JUMPDEST PUSH32 0x756E617574686F72697A65642061636365737320000000000000000000000000 PUSH0 DUP3 ADD MSTORE POP JUMP JUMPDEST PUSH0 PUSH2 0xBE9 PUSH1 0x14 DUP4 PUSH2 0x85C JUMP JUMPDEST SWAP2 POP PUSH2 0xBF4 DUP3 PUSH2 0xBB5 JUMP JUMPDEST PUSH1 0x20 DUP3 ADD SWAP1 POP SWAP2 SWAP1 POP JUMP JUMPDEST PUSH0 PUSH1 0x20 DUP3 ADD SWAP1 POP DUP2 DUP2 SUB PUSH0 DUP4 ADD MSTORE PUSH2 0xC16 DUP2 PUSH2 0xBDD JUMP JUMPDEST SWAP1 POP SWAP2 SWAP1 POP JUMP JUMPDEST PUSH32 0x726F6C6C6E6F20646F6573206E6F742065786973740000000000000000000000 PUSH0 DUP3 ADD MSTORE POP JUMP JUMPDEST PUSH0 PUSH2 0xC51 PUSH1 0x15 DUP4 PUSH2 0x85C JUMP JUMPDEST SWAP2 POP PUSH2 0xC5C DUP3 PUSH2 0xC1D JUMP JUMPDEST PUSH1 0x20 DUP3 ADD SWAP1 POP SWAP2 SWAP1 POP JUMP JUMPDEST PUSH0 PUSH1 0x20 DUP3 ADD SWAP1 POP DUP2 DUP2 SUB PUSH0 DUP4 ADD MSTORE PUSH2 0xC7E DUP2 PUSH2 0xC45 JUMP JUMPDEST SWAP1 POP SWAP2 SWAP1 POP JUMP JUMPDEST PUSH32 0x4E487B7100000000000000000000000000000000000000000000000000000000 PUSH0 MSTORE PUSH1 0x22 PUSH1 0x4 MSTORE PUSH1 0x24 PUSH0 REVERT JUMPDEST PUSH0 PUSH1 0x2 DUP3 DIV SWAP1 POP PUSH1 0x1 DUP3 AND DUP1 PUSH2 0xCC9 JUMPI PUSH1 0x7F DUP3 AND SWAP2 POP JUMPDEST PUSH1 0x20 DUP3 LT DUP2 SUB PUSH2 0xCDC JUMPI PUSH2 0xCDB PUSH2 0xC85 JUMP JUMPDEST JUMPDEST POP SWAP2 SWAP1 POP JUMP JUMPDEST PUSH0 DUP2 SWAP1 POP DUP2 PUSH0 MSTORE PUSH1 0x20 PUSH0 KECCAK256 SWAP1 POP SWAP2 SWAP1 POP JUMP JUMPDEST PUSH0 PUSH1 0x20 PUSH1 0x1F DUP4 ADD DIV SWAP1 POP SWAP2 SWAP1 POP JUMP JUMPDEST PUSH0 DUP3 DUP3 SHL SWAP1 POP SWAP3 SWAP2 POP POP JUMP JUMPDEST PUSH0 PUSH1 0x8 DUP4 MUL PUSH2 0xD3E PUSH32 0xFFFFFFFFFFFFFFFFFFFFFFFFFFFFFFFFFFFFFFFFFFFFFFFFFFFFFFFFFFFFFFFF DUP3 PUSH2 0xD03 JUMP JUMPDEST PUSH2 0xD48 DUP7 DUP4 PUSH2 0xD03 JUMP JUMPDEST SWAP6 POP DUP1 NOT DUP5 AND SWAP4 POP DUP1 DUP7 AND DUP5 OR SWAP3 POP POP POP SWAP4 SWAP3 POP POP POP JUMP JUMPDEST PUSH0 DUP2 SWAP1 POP SWAP2 SWAP1 POP JUMP JUMPDEST PUSH0 DUP2 SWAP1 POP SWAP2 SWAP1 POP JUMP JUMPDEST PUSH0 PUSH2 0xD8C PUSH2 0xD87 PUSH2 0xD82 DUP5 PUSH2 0xD60 JUMP JUMPDEST PUSH2 0xD69 JUMP JUMPDEST PUSH2 0xD60 JUMP JUMPDEST SWAP1 POP SWAP2 SWAP1 POP JUMP JUMPDEST PUSH0 DUP2 SWAP1 POP SWAP2 SWAP1 POP JUMP JUMPDEST PUSH2 0xDA5 DUP4 PUSH2 0xD72 JUMP JUMPDEST PUSH2 0xDB9 PUSH2 0xDB1 DUP3 PUSH2 0xD93 JUMP JUMPDEST DUP5 DUP5 SLOAD PUSH2 0xD0F JUMP JUMPDEST DUP3 SSTORE POP POP POP POP JUMP JUMPDEST PUSH0 PUSH0 SWAP1 POP SWAP1 JUMP JUMPDEST PUSH2 0xDD0 PUSH2 0xDC1 JUMP JUMPDEST PUSH2 0xDDB DUP2 DUP5 DUP5 PUSH2 0xD9C JUMP JUMPDEST POP POP POP JUMP JUMPDEST JUMPDEST DUP2 DUP2 LT ISZERO PUSH2 0xDFE JUMPI PUSH2 0xDF3 PUSH0 DUP3 PUSH2 0xDC8 JUMP JUMPDEST PUSH1 0x1 DUP2 ADD SWAP1 POP PUSH2 0xDE1 JUMP JUMPDEST POP POP JUMP JUMPDEST PUSH1 0x1F DUP3 GT ISZERO PUSH2 0xE43 JUMPI PUSH2 0xE14 DUP2 PUSH2 0xCE2 JUMP JUMPDEST PUSH2 0xE1D DUP5 PUSH2 0xCF4 JUMP JUMPDEST DUP2 ADD PUSH1 0x20 DUP6 LT ISZERO PUSH2 0xE2C JUMPI DUP2 SWAP1 POP JUMPDEST PUSH2 0xE40 PUSH2 0xE38 DUP6 PUSH2 0xCF4 JUMP JUMPDEST DUP4 ADD DUP3 PUSH2 0xDE0 JUMP JUMPDEST POP POP JUMPDEST POP POP POP JUMP JUMPDEST PUSH0 DUP3 DUP3 SHR SWAP1 POP SWAP3 SWAP2 POP POP JUMP JUMPDEST PUSH0 PUSH2 0xE63 PUSH0 NOT DUP5 PUSH1 0x8 MUL PUSH2 0xE48 JUMP JUMPDEST NOT DUP1 DUP4 AND SWAP2 POP POP SWAP3 SWAP2 POP POP JUMP JUMPDEST PUSH0 PUSH2 0xE7B DUP4 DUP4 PUSH2 0xE54 JUMP JUMPDEST SWAP2 POP DUP3 PUSH1 0x2 MUL DUP3 OR SWAP1 POP SWAP3 SWAP2 POP POP JUMP JUMPDEST PUSH2 0xE94 DUP3 PUSH2 0x852 JUMP JUMPDEST PUSH8 0xFFFFFFFFFFFFFFFF DUP2 GT ISZERO PUSH2 0xEAD JUMPI PUSH2 0xEAC PUSH2 0x9A4 JUMP JUMPDEST JUMPDEST PUSH2 0xEB7 DUP3 SLOAD PUSH2 0xCB2 JUMP JUMPDEST PUSH2 0xEC2 DUP3 DUP3 DUP6 PUSH2 0xE02 JUMP JUMPDEST PUSH0 PUSH1 0x20 SWAP1 POP PUSH1 0x1F DUP4 GT PUSH1 0x1 DUP2 EQ PUSH2 0xEF3 JUMPI PUSH0 DUP5 ISZERO PUSH2 0xEE1 JUMPI DUP3 DUP8 ADD MLOAD SWAP1 POP JUMPDEST PUSH2 0xEEB DUP6 DUP3 PUSH2 0xE70 JUMP JUMPDEST DUP7 SSTORE POP PUSH2 0xF52 JUMP JUMPDEST PUSH1 0x1F NOT DUP5 AND PUSH2 0xF01 DUP7 PUSH2 0xCE2 JUMP JUMPDEST PUSH0 JUMPDEST DUP3 DUP2 LT ISZERO PUSH2 0xF28 JUMPI DUP5 DUP10 ADD MLOAD DUP3 SSTORE PUSH1 0x1 DUP3 ADD SWAP2 POP PUSH1 0x20 DUP6 ADD SWAP5 POP PUSH1 0x20 DUP2 ADD SWAP1 POP PUSH2 0xF03 JUMP JUMPDEST DUP7 DUP4 LT ISZERO PUSH2 0xF45 JUMPI DUP5 DUP10 ADD MLOAD PUSH2 0xF41 PUSH1 0x1F DUP10 AND DUP3 PUSH2 0xE54 JUMP JUMPDEST DUP4 SSTORE POP JUMPDEST PUSH1 0x1 PUSH1 0x2 DUP9 MUL ADD DUP9 SSTORE POP POP POP JUMPDEST POP POP POP POP POP POP JUMP JUMPDEST PUSH32 0x526F6C6C206E756D62657220697320616C726561647920657869737473000000 PUSH0 DUP3 ADD MSTORE POP JUMP JUMPDEST PUSH0 PUSH2 0xF8E PUSH1 0x1D DUP4 PUSH2 0x85C JUMP JUMPDEST SWAP2 POP PUSH2 0xF99 DUP3 PUSH2 0xF5A JUMP JUMPDEST PUSH1 0x20 DUP3 ADD SWAP1 POP SWAP2 SWAP1 POP JUMP JUMPDEST PUSH0 PUSH1 0x20 DUP3 ADD SWAP1 POP DUP2 DUP2 SUB PUSH0 DUP4 ADD MSTORE PUSH2 0xFBB DUP2 PUSH2 0xF82 JUMP JUMPDEST SWAP1 POP SWAP2 SWAP1 POP JUMP INVALID LOG2 PUSH5 0x6970667358 0x22 SLT KECCAK256 0x23 DUP13 SDIV MULMOD MSIZE MLOAD 0xBC PUSH2 0x114A 0xB7 0xC7 GT STOP 0x2C MSIZE 0xD7 SWAP7 BLOBHASH CODECOPY 0xA5 0x22 GASPRICE 0xDA 0xFC CODECOPY 0xD ADD 0xE8 0xF6 SELFDESTRUCT DUP3 PUSH5 0x736F6C6343 STOP ADDMOD SHR STOP CALLER "
		},
		"gasEstimates": {
			"creation": {
				"codeDepositCost": "817600",
				"executionCost": "25113",
				"totalCost": "842713"
			},
			"external": {
				"addstud(string,uint16,uint16,uint8,uint16)": "infinite",
				"editstud(uint16,uint16,uint8,uint16)": "infinite",
				"editstudname(string,uint16)": "infinite",
				"getstud(uint16)": "infinite"
			}
		},
		"methodIdentifiers": {
			"addstud(string,uint16,uint16,uint8,uint16)": "dd31cea9",
			"editstud(uint16,uint16,uint8,uint16)": "3252f9be",
			"editstudname(string,uint16)": "bd5295f6",
			"getstud(uint16)": "471a48cd"
		}
	},
	"abi": [
		{
			"inputs": [],
			"stateMutability": "nonpayable",
			"type": "constructor"
		},
		{
			"inputs": [
				{
					"internalType": "string",
					"name": "_name",
					"type": "string"
				},
				{
					"internalType": "uint16",
					"name": "_sem",
					"type": "uint16"
				},
				{
					"internalType": "uint16",
					"name": "_CGPA",
					"type": "uint16"
				},
				{
					"internalType": "enum STUDENTS.Dept",
					"name": "_dep",
					"type": "uint8"
				},
				{
					"internalType": "uint16",
					"name": "_rollno",
					"type": "uint16"
				}
			],
			"name": "addstud",
			"outputs": [],
			"stateMutability": "nonpayable",
			"type": "function"
		},
		{
			"inputs": [
				{
					"internalType": "uint16",
					"name": "_sem",
					"type": "uint16"
				},
				{
					"internalType": "uint16",
					"name": "_CGPA",
					"type": "uint16"
				},
				{
					"internalType": "enum STUDENTS.Dept",
					"name": "_dep",
					"type": "uint8"
				},
				{
					"internalType": "uint16",
					"name": "_rollno",
					"type": "uint16"
				}
			],
			"name": "editstud",
			"outputs": [],
			"stateMutability": "nonpayable",
			"type": "function"
		},
		{
			"inputs": [
				{
					"internalType": "string",
					"name": "_name",
					"type": "string"
				},
				{
					"internalType": "uint16",
					"name": "_rollno",
					"type": "uint16"
				}
			],
			"name": "editstudname",
			"outputs": [],
			"stateMutability": "nonpayable",
			"type": "function"
		},
		{
			"inputs": [
				{
					"internalType": "uint16",
					"name": "_rollno",
					"type": "uint16"
				}
			],
			"name": "getstud",
			"outputs": [
				{
					"internalType": "string",
					"name": "name",
					"type": "string"
				},
				{
					"internalType": "uint16",
					"name": "sem",
					"type": "uint16"
				},
				{
					"internalType": "uint16",
					"name": "CGPA",
					"type": "uint16"
				},
				{
					"internalType": "enum STUDENTS.Dept",
					"name": "dep",
					"type": "uint8"
				},
				{
					"internalType": "uint16",
					"name": "rollno",
					"type": "uint16"
				}
			],
			"stateMutability": "view",
			"type": "function"
		}
	]
}