{
	"MyBook.sol": {
		"MyBook": {
			"abi": [
				{
					"inputs": [],
					"name": "BuyBook",
					"outputs": [],
					"stateMutability": "payable",
					"type": "function"
				},
				{
					"inputs": [
						{
							"internalType": "uint256",
							"name": "eval",
							"type": "uint256"
						}
					],
					"name": "ethTowei",
					"outputs": [
						{
							"internalType": "uint256",
							"name": "",
							"type": "uint256"
						}
					],
					"stateMutability": "pure",
					"type": "function"
				},
				{
					"inputs": [],
					"name": "getBook",
					"outputs": [
						{
							"internalType": "string",
							"name": "",
							"type": "string"
						},
						{
							"internalType": "uint16",
							"name": "",
							"type": "uint16"
						}
					],
					"stateMutability": "view",
					"type": "function"
				},
				{
					"inputs": [],
					"name": "owner",
					"outputs": [
						{
							"internalType": "address",
							"name": "",
							"type": "address"
						}
					],
					"stateMutability": "view",
					"type": "function"
				},
				{
					"inputs": [
						{
							"internalType": "string",
							"name": "_title",
							"type": "string"
						},
						{
							"internalType": "uint16",
							"name": "_price",
							"type": "uint16"
						}
					],
					"name": "setBook",
					"outputs": [],
					"stateMutability": "nonpayable",
					"type": "function"
				},
				{
					"inputs": [],
					"name": "sold",
					"outputs": [
						{
							"internalType": "bool",
							"name": "",
							"type": "bool"
						}
					],
					"stateMutability": "view",
					"type": "function"
				}
			],
			"devdoc": {
				"kind": "dev",
				"methods": {},
				"version": 1
			},
			"evm": {
				"assembly": "    /* \"MyBook.sol\":55:827  contract MyBook{... */\n  mstore(0x40, 0x80)\n  callvalue\n  dup1\n  iszero\n  tag_1\n  jumpi\n  revert(0x00, 0x00)\ntag_1:\n  pop\n  dataSize(sub_0)\n  dup1\n  dataOffset(sub_0)\n  0x00\n  codecopy\n  0x00\n  return\nstop\n\nsub_0: assembly {\n        /* \"MyBook.sol\":55:827  contract MyBook{... */\n      mstore(0x40, 0x80)\n      jumpi(tag_1, lt(calldatasize, 0x04))\n      shr(0xe0, calldataload(0x00))\n      dup1\n      0x02c7e7af\n      eq\n      tag_2\n      jumpi\n      dup1\n      0x3b0c197e\n      eq\n      tag_3\n      jumpi\n      dup1\n      0x82497e61\n      eq\n      tag_4\n      jumpi\n      dup1\n      0x8da5cb5b\n      eq\n      tag_5\n      jumpi\n      dup1\n      0xc0c6da47\n      eq\n      tag_6\n      jumpi\n      dup1\n      0xd1f3bf1d\n      eq\n      tag_7\n      jumpi\n    tag_1:\n      revert(0x00, 0x00)\n        /* \"MyBook.sol\":140:156  bool public sold */\n    tag_2:\n      callvalue\n      dup1\n      iszero\n      tag_8\n      jumpi\n      revert(0x00, 0x00)\n    tag_8:\n      pop\n      tag_9\n      tag_10\n      jump\t// in\n    tag_9:\n      mload(0x40)\n      tag_11\n      swap2\n      swap1\n      tag_12\n      jump\t// in\n    tag_11:\n      mload(0x40)\n      dup1\n      swap2\n      sub\n      swap1\n      return\n        /* \"MyBook.sol\":163:261  function getBook() public view returns(string memory ,uint16){... */\n    tag_3:\n      callvalue\n      dup1\n      iszero\n      tag_13\n      jumpi\n      revert(0x00, 0x00)\n    tag_13:\n      pop\n      tag_14\n      tag_15\n      jump\t// in\n    tag_14:\n      mload(0x40)\n      tag_16\n      swap3\n      swap2\n      swap1\n      tag_17\n      jump\t// in\n    tag_16:\n      mload(0x40)\n      dup1\n      swap2\n      sub\n      swap1\n      return\n        /* \"MyBook.sol\":270:429  function setBook(string memory _title, uint16 _price) public{... */\n    tag_4:\n      callvalue\n      dup1\n      iszero\n      tag_18\n      jumpi\n      revert(0x00, 0x00)\n    tag_18:\n      pop\n      tag_19\n      0x04\n      dup1\n      calldatasize\n      sub\n      dup2\n      add\n      swap1\n      tag_20\n      swap2\n      swap1\n      tag_21\n      jump\t// in\n    tag_20:\n      tag_22\n      jump\t// in\n    tag_19:\n      stop\n        /* \"MyBook.sol\":114:134  address public owner */\n    tag_5:\n      callvalue\n      dup1\n      iszero\n      tag_23\n      jumpi\n      revert(0x00, 0x00)\n    tag_23:\n      pop\n      tag_24\n      tag_25\n      jump\t// in\n    tag_24:\n      mload(0x40)\n      tag_26\n      swap2\n      swap1\n      tag_27\n      jump\t// in\n    tag_26:\n      mload(0x40)\n      dup1\n      swap2\n      sub\n      swap1\n      return\n        /* \"MyBook.sol\":545:820  function BuyBook()public payable{... */\n    tag_6:\n      tag_28\n      tag_29\n      jump\t// in\n    tag_28:\n      stop\n        /* \"MyBook.sol\":435:539  function ethTowei(uint eval) public pure returns(uint){... */\n    tag_7:\n      callvalue\n      dup1\n      iszero\n      tag_30\n      jumpi\n      revert(0x00, 0x00)\n    tag_30:\n      pop\n      tag_31\n      0x04\n      dup1\n      calldatasize\n      sub\n      dup2\n      add\n      swap1\n      tag_32\n      swap2\n      swap1\n      tag_33\n      jump\t// in\n    tag_32:\n      tag_34\n      jump\t// in\n    tag_31:\n      mload(0x40)\n      tag_35\n      swap2\n      swap1\n      tag_36\n      jump\t// in\n    tag_35:\n      mload(0x40)\n      dup1\n      swap2\n      sub\n      swap1\n      return\n        /* \"MyBook.sol\":140:156  bool public sold */\n    tag_10:\n      0x01\n      0x16\n      swap1\n      sload\n      swap1\n      0x0100\n      exp\n      swap1\n      div\n      0xff\n      and\n      dup2\n      jump\t// out\n        /* \"MyBook.sol\":163:261  function getBook() public view returns(string memory ,uint16){... */\n    tag_15:\n        /* \"MyBook.sol\":202:215  string memory */\n      0x60\n        /* \"MyBook.sol\":217:223  uint16 */\n      0x00\n        /* \"MyBook.sol\":242:247  title */\n      0x00\n        /* \"MyBook.sol\":248:253  price */\n      0x01\n      0x00\n      swap1\n      sload\n      swap1\n      0x0100\n      exp\n      swap1\n      div\n      0xffff\n      and\n        /* \"MyBook.sol\":234:254  return (title,price) */\n      dup2\n      dup1\n      sload\n      tag_38\n      swap1\n      tag_39\n      jump\t// in\n    tag_38:\n      dup1\n      0x1f\n      add\n      0x20\n      dup1\n      swap2\n      div\n      mul\n      0x20\n      add\n      mload(0x40)\n      swap1\n      dup2\n      add\n      0x40\n      mstore\n      dup1\n      swap3\n      swap2\n      swap1\n      dup2\n      dup2\n      mstore\n      0x20\n      add\n      dup3\n      dup1\n      sload\n      tag_40\n      swap1\n      tag_39\n      jump\t// in\n    tag_40:\n      dup1\n      iszero\n      tag_41\n      jumpi\n      dup1\n      0x1f\n      lt\n      tag_42\n      jumpi\n      0x0100\n      dup1\n      dup4\n      sload\n      div\n      mul\n      dup4\n      mstore\n      swap2\n      0x20\n      add\n      swap2\n      jump(tag_41)\n    tag_42:\n      dup3\n      add\n      swap2\n      swap1\n      0x00\n      mstore\n      keccak256(0x00, 0x20)\n      swap1\n    tag_43:\n      dup2\n      sload\n      dup2\n      mstore\n      swap1\n      0x01\n      add\n      swap1\n      0x20\n      add\n      dup1\n      dup4\n      gt\n      tag_43\n      jumpi\n      dup3\n      swap1\n      sub\n      0x1f\n      and\n      dup3\n      add\n      swap2\n    tag_41:\n      pop\n      pop\n      pop\n      pop\n      pop\n      swap2\n      pop\n      swap2\n      pop\n      swap2\n      pop\n        /* \"MyBook.sol\":163:261  function getBook() public view returns(string memory ,uint16){... */\n      swap1\n      swap2\n      jump\t// out\n        /* \"MyBook.sol\":270:429  function setBook(string memory _title, uint16 _price) public{... */\n    tag_22:\n        /* \"MyBook.sol\":347:353  _title */\n      dup2\n        /* \"MyBook.sol\":340:345  title */\n      0x00\n        /* \"MyBook.sol\":340:353  title =_title */\n      swap1\n      dup2\n      tag_45\n      swap2\n      swap1\n      tag_46\n      jump\t// in\n    tag_45:\n      pop\n        /* \"MyBook.sol\":370:376  _price */\n      dup1\n        /* \"MyBook.sol\":363:368  price */\n      0x01\n      0x00\n        /* \"MyBook.sol\":363:376  price= _price */\n      0x0100\n      exp\n      dup2\n      sload\n      dup2\n      0xffff\n      mul\n      not\n      and\n      swap1\n      dup4\n      0xffff\n      and\n      mul\n      or\n      swap1\n      sstore\n      pop\n        /* \"MyBook.sol\":392:402  msg.sender */\n      caller\n        /* \"MyBook.sol\":386:391  owner */\n      0x01\n      0x02\n        /* \"MyBook.sol\":386:402  owner=msg.sender */\n      0x0100\n      exp\n      dup2\n      sload\n      dup2\n      0xffffffffffffffffffffffffffffffffffffffff\n      mul\n      not\n      and\n      swap1\n      dup4\n      0xffffffffffffffffffffffffffffffffffffffff\n      and\n      mul\n      or\n      swap1\n      sstore\n      pop\n        /* \"MyBook.sol\":417:422  false */\n      0x00\n        /* \"MyBook.sol\":412:416  sold */\n      0x01\n      0x16\n        /* \"MyBook.sol\":412:422  sold=false */\n      0x0100\n      exp\n      dup2\n      sload\n      dup2\n      0xff\n      mul\n      not\n      and\n      swap1\n      dup4\n      iszero\n      iszero\n      mul\n      or\n      swap1\n      sstore\n      pop\n        /* \"MyBook.sol\":270:429  function setBook(string memory _title, uint16 _price) public{... */\n      pop\n      pop\n      jump\t// out\n        /* \"MyBook.sol\":114:134  address public owner */\n    tag_25:\n      0x01\n      0x02\n      swap1\n      sload\n      swap1\n      0x0100\n      exp\n      swap1\n      div\n      0xffffffffffffffffffffffffffffffffffffffff\n      and\n      dup2\n      jump\t// out\n        /* \"MyBook.sol\":545:820  function BuyBook()public payable{... */\n    tag_29:\n        /* \"MyBook.sol\":603:618  ethTowei(price) */\n      tag_48\n        /* \"MyBook.sol\":612:617  price */\n      0x01\n      0x00\n      swap1\n      sload\n      swap1\n      0x0100\n      exp\n      swap1\n      div\n      0xffff\n      and\n        /* \"MyBook.sol\":603:618  ethTowei(price) */\n      0xffff\n      and\n        /* \"MyBook.sol\":603:611  ethTowei */\n      tag_34\n        /* \"MyBook.sol\":603:618  ethTowei(price) */\n      jump\t// in\n    tag_48:\n        /* \"MyBook.sol\":590:599  msg.value */\n      callvalue\n        /* \"MyBook.sol\":590:618  msg.value >= ethTowei(price) */\n      lt\n        /* \"MyBook.sol\":587:811  if(msg.value >= ethTowei(price))... */\n      tag_49\n      jumpi\n        /* \"MyBook.sol\":638:646  uint bal */\n      0x00\n        /* \"MyBook.sol\":660:675  ethTowei(price) */\n      tag_50\n        /* \"MyBook.sol\":669:674  price */\n      0x01\n      0x00\n      swap1\n      sload\n      swap1\n      0x0100\n      exp\n      swap1\n      div\n      0xffff\n      and\n        /* \"MyBook.sol\":660:675  ethTowei(price) */\n      0xffff\n      and\n        /* \"MyBook.sol\":660:668  ethTowei */\n      tag_34\n        /* \"MyBook.sol\":660:675  ethTowei(price) */\n      jump\t// in\n    tag_50:\n        /* \"MyBook.sol\":649:658  msg.value */\n      callvalue\n        /* \"MyBook.sol\":649:675  msg.value- ethTowei(price) */\n      tag_51\n      swap2\n      swap1\n      tag_52\n      jump\t// in\n    tag_51:\n        /* \"MyBook.sol\":638:675  uint bal = msg.value- ethTowei(price) */\n      swap1\n      pop\n        /* \"MyBook.sol\":693:694  0 */\n      0x00\n        /* \"MyBook.sol\":689:692  bal */\n      dup2\n        /* \"MyBook.sol\":689:694  bal>0 */\n      gt\n        /* \"MyBook.sol\":686:742  if(bal>0)... */\n      iszero\n      tag_53\n      jumpi\n        /* \"MyBook.sol\":717:727  msg.sender */\n      caller\n        /* \"MyBook.sol\":708:737  payable (msg.sender).transfer */\n      0xffffffffffffffffffffffffffffffffffffffff\n      and\n        /* \"MyBook.sol\":708:742  payable (msg.sender).transfer(bal) */\n      0x08fc\n        /* \"MyBook.sol\":738:741  bal */\n      dup3\n        /* \"MyBook.sol\":708:742  payable (msg.sender).transfer(bal) */\n      swap1\n      dup2\n      iszero\n      mul\n      swap1\n      mload(0x40)\n      0x00\n      mload(0x40)\n      dup1\n      dup4\n      sub\n      dup2\n      dup6\n      dup9\n      dup9\n      call\n      swap4\n      pop\n      pop\n      pop\n      pop\n      iszero\n      dup1\n      iszero\n      tag_55\n      jumpi\n      returndatacopy(0x00, 0x00, returndatasize)\n      revert(0x00, returndatasize)\n    tag_55:\n      pop\n        /* \"MyBook.sol\":686:742  if(bal>0)... */\n    tag_53:\n        /* \"MyBook.sol\":764:774  msg.sender */\n      caller\n        /* \"MyBook.sol\":756:761  owner */\n      0x01\n      0x02\n        /* \"MyBook.sol\":756:774  owner = msg.sender */\n      0x0100\n      exp\n      dup2\n      sload\n      dup2\n      0xffffffffffffffffffffffffffffffffffffffff\n      mul\n      not\n      and\n      swap1\n      dup4\n      0xffffffffffffffffffffffffffffffffffffffff\n      and\n      mul\n      or\n      swap1\n      sstore\n      pop\n        /* \"MyBook.sol\":795:799  true */\n      0x01\n        /* \"MyBook.sol\":788:792  sold */\n      dup1\n      0x16\n        /* \"MyBook.sol\":788:799  sold = true */\n      0x0100\n      exp\n      dup2\n      sload\n      dup2\n      0xff\n      mul\n      not\n      and\n      swap1\n      dup4\n      iszero\n      iszero\n      mul\n      or\n      swap1\n      sstore\n      pop\n        /* \"MyBook.sol\":627:811  {... */\n      pop\n        /* \"MyBook.sol\":587:811  if(msg.value >= ethTowei(price))... */\n    tag_49:\n        /* \"MyBook.sol\":545:820  function BuyBook()public payable{... */\n      jump\t// out\n        /* \"MyBook.sol\":435:539  function ethTowei(uint eval) public pure returns(uint){... */\n    tag_34:\n        /* \"MyBook.sol\":484:488  uint */\n      0x00\n        /* \"MyBook.sol\":511:530  1000000000000000000 */\n      0x0de0b6b3a7640000\n        /* \"MyBook.sol\":506:510  eval */\n      dup3\n        /* \"MyBook.sol\":506:530  eval*1000000000000000000 */\n      tag_57\n      swap2\n      swap1\n      tag_58\n      jump\t// in\n    tag_57:\n        /* \"MyBook.sol\":499:531  return(eval*1000000000000000000) */\n      swap1\n      pop\n        /* \"MyBook.sol\":435:539  function ethTowei(uint eval) public pure returns(uint){... */\n      swap2\n      swap1\n      pop\n      jump\t// out\n        /* \"#utility.yul\":7:97   */\n    tag_59:\n        /* \"#utility.yul\":41:48   */\n      0x00\n        /* \"#utility.yul\":84:89   */\n      dup2\n        /* \"#utility.yul\":77:90   */\n      iszero\n        /* \"#utility.yul\":70:91   */\n      iszero\n        /* \"#utility.yul\":59:91   */\n      swap1\n      pop\n        /* \"#utility.yul\":7:97   */\n      swap2\n      swap1\n      pop\n      jump\t// out\n        /* \"#utility.yul\":103:212   */\n    tag_60:\n        /* \"#utility.yul\":184:205   */\n      tag_109\n        /* \"#utility.yul\":199:204   */\n      dup2\n        /* \"#utility.yul\":184:205   */\n      tag_59\n      jump\t// in\n    tag_109:\n        /* \"#utility.yul\":179:182   */\n      dup3\n        /* \"#utility.yul\":172:206   */\n      mstore\n        /* \"#utility.yul\":103:212   */\n      pop\n      pop\n      jump\t// out\n        /* \"#utility.yul\":218:428   */\n    tag_12:\n        /* \"#utility.yul\":305:309   */\n      0x00\n        /* \"#utility.yul\":343:345   */\n      0x20\n        /* \"#utility.yul\":332:341   */\n      dup3\n        /* \"#utility.yul\":328:346   */\n      add\n        /* \"#utility.yul\":320:346   */\n      swap1\n      pop\n        /* \"#utility.yul\":356:421   */\n      tag_111\n        /* \"#utility.yul\":418:419   */\n      0x00\n        /* \"#utility.yul\":407:416   */\n      dup4\n        /* \"#utility.yul\":403:420   */\n      add\n        /* \"#utility.yul\":394:400   */\n      dup5\n        /* \"#utility.yul\":356:421   */\n      tag_60\n      jump\t// in\n    tag_111:\n        /* \"#utility.yul\":218:428   */\n      swap3\n      swap2\n      pop\n      pop\n      jump\t// out\n        /* \"#utility.yul\":434:533   */\n    tag_61:\n        /* \"#utility.yul\":486:492   */\n      0x00\n        /* \"#utility.yul\":520:525   */\n      dup2\n        /* \"#utility.yul\":514:526   */\n      mload\n        /* \"#utility.yul\":504:526   */\n      swap1\n      pop\n        /* \"#utility.yul\":434:533   */\n      swap2\n      swap1\n      pop\n      jump\t// out\n        /* \"#utility.yul\":539:708   */\n    tag_62:\n        /* \"#utility.yul\":623:634   */\n      0x00\n        /* \"#utility.yul\":657:663   */\n      dup3\n        /* \"#utility.yul\":652:655   */\n      dup3\n        /* \"#utility.yul\":645:664   */\n      mstore\n        /* \"#utility.yul\":697:701   */\n      0x20\n        /* \"#utility.yul\":692:695   */\n      dup3\n        /* \"#utility.yul\":688:702   */\n      add\n        /* \"#utility.yul\":673:702   */\n      swap1\n      pop\n        /* \"#utility.yul\":539:708   */\n      swap3\n      swap2\n      pop\n      pop\n      jump\t// out\n        /* \"#utility.yul\":714:853   */\n    tag_63:\n        /* \"#utility.yul\":803:809   */\n      dup3\n        /* \"#utility.yul\":798:801   */\n      dup2\n        /* \"#utility.yul\":793:796   */\n      dup4\n        /* \"#utility.yul\":787:810   */\n      mcopy\n        /* \"#utility.yul\":844:845   */\n      0x00\n        /* \"#utility.yul\":835:841   */\n      dup4\n        /* \"#utility.yul\":830:833   */\n      dup4\n        /* \"#utility.yul\":826:842   */\n      add\n        /* \"#utility.yul\":819:846   */\n      mstore\n        /* \"#utility.yul\":714:853   */\n      pop\n      pop\n      pop\n      jump\t// out\n        /* \"#utility.yul\":859:961   */\n    tag_64:\n        /* \"#utility.yul\":900:906   */\n      0x00\n        /* \"#utility.yul\":951:953   */\n      0x1f\n        /* \"#utility.yul\":947:954   */\n      not\n        /* \"#utility.yul\":942:944   */\n      0x1f\n        /* \"#utility.yul\":935:940   */\n      dup4\n        /* \"#utility.yul\":931:945   */\n      add\n        /* \"#utility.yul\":927:955   */\n      and\n        /* \"#utility.yul\":917:955   */\n      swap1\n      pop\n        /* \"#utility.yul\":859:961   */\n      swap2\n      swap1\n      pop\n      jump\t// out\n        /* \"#utility.yul\":967:1344   */\n    tag_65:\n        /* \"#utility.yul\":1055:1058   */\n      0x00\n        /* \"#utility.yul\":1083:1122   */\n      tag_117\n        /* \"#utility.yul\":1116:1121   */\n      dup3\n        /* \"#utility.yul\":1083:1122   */\n      tag_61\n      jump\t// in\n    tag_117:\n        /* \"#utility.yul\":1138:1209   */\n      tag_118\n        /* \"#utility.yul\":1202:1208   */\n      dup2\n        /* \"#utility.yul\":1197:1200   */\n      dup6\n        /* \"#utility.yul\":1138:1209   */\n      tag_62\n      jump\t// in\n    tag_118:\n        /* \"#utility.yul\":1131:1209   */\n      swap4\n      pop\n        /* \"#utility.yul\":1218:1283   */\n      tag_119\n        /* \"#utility.yul\":1276:1282   */\n      dup2\n        /* \"#utility.yul\":1271:1274   */\n      dup6\n        /* \"#utility.yul\":1264:1268   */\n      0x20\n        /* \"#utility.yul\":1257:1262   */\n      dup7\n        /* \"#utility.yul\":1253:1269   */\n      add\n        /* \"#utility.yul\":1218:1283   */\n      tag_63\n      jump\t// in\n    tag_119:\n        /* \"#utility.yul\":1308:1337   */\n      tag_120\n        /* \"#utility.yul\":1330:1336   */\n      dup2\n        /* \"#utility.yul\":1308:1337   */\n      tag_64\n      jump\t// in\n    tag_120:\n        /* \"#utility.yul\":1303:1306   */\n      dup5\n        /* \"#utility.yul\":1299:1338   */\n      add\n        /* \"#utility.yul\":1292:1338   */\n      swap2\n      pop\n        /* \"#utility.yul\":1059:1344   */\n      pop\n        /* \"#utility.yul\":967:1344   */\n      swap3\n      swap2\n      pop\n      pop\n      jump\t// out\n        /* \"#utility.yul\":1350:1439   */\n    tag_66:\n        /* \"#utility.yul\":1386:1393   */\n      0x00\n        /* \"#utility.yul\":1426:1432   */\n      0xffff\n        /* \"#utility.yul\":1419:1424   */\n      dup3\n        /* \"#utility.yul\":1415:1433   */\n      and\n        /* \"#utility.yul\":1404:1433   */\n      swap1\n      pop\n        /* \"#utility.yul\":1350:1439   */\n      swap2\n      swap1\n      pop\n      jump\t// out\n        /* \"#utility.yul\":1445:1560   */\n    tag_67:\n        /* \"#utility.yul\":1530:1553   */\n      tag_123\n        /* \"#utility.yul\":1547:1552   */\n      dup2\n        /* \"#utility.yul\":1530:1553   */\n      tag_66\n      jump\t// in\n    tag_123:\n        /* \"#utility.yul\":1525:1528   */\n      dup3\n        /* \"#utility.yul\":1518:1554   */\n      mstore\n        /* \"#utility.yul\":1445:1560   */\n      pop\n      pop\n      jump\t// out\n        /* \"#utility.yul\":1566:1985   */\n    tag_17:\n        /* \"#utility.yul\":1705:1709   */\n      0x00\n        /* \"#utility.yul\":1743:1745   */\n      0x40\n        /* \"#utility.yul\":1732:1741   */\n      dup3\n        /* \"#utility.yul\":1728:1746   */\n      add\n        /* \"#utility.yul\":1720:1746   */\n      swap1\n      pop\n        /* \"#utility.yul\":1792:1801   */\n      dup2\n        /* \"#utility.yul\":1786:1790   */\n      dup2\n        /* \"#utility.yul\":1782:1802   */\n      sub\n        /* \"#utility.yul\":1778:1779   */\n      0x00\n        /* \"#utility.yul\":1767:1776   */\n      dup4\n        /* \"#utility.yul\":1763:1780   */\n      add\n        /* \"#utility.yul\":1756:1803   */\n      mstore\n        /* \"#utility.yul\":1820:1898   */\n      tag_125\n        /* \"#utility.yul\":1893:1897   */\n      dup2\n        /* \"#utility.yul\":1884:1890   */\n      dup6\n        /* \"#utility.yul\":1820:1898   */\n      tag_65\n      jump\t// in\n    tag_125:\n        /* \"#utility.yul\":1812:1898   */\n      swap1\n      pop\n        /* \"#utility.yul\":1908:1978   */\n      tag_126\n        /* \"#utility.yul\":1974:1976   */\n      0x20\n        /* \"#utility.yul\":1963:1972   */\n      dup4\n        /* \"#utility.yul\":1959:1977   */\n      add\n        /* \"#utility.yul\":1950:1956   */\n      dup5\n        /* \"#utility.yul\":1908:1978   */\n      tag_67\n      jump\t// in\n    tag_126:\n        /* \"#utility.yul\":1566:1985   */\n      swap4\n      swap3\n      pop\n      pop\n      pop\n      jump\t// out\n        /* \"#utility.yul\":1991:2066   */\n    tag_68:\n        /* \"#utility.yul\":2024:2030   */\n      0x00\n        /* \"#utility.yul\":2057:2059   */\n      0x40\n        /* \"#utility.yul\":2051:2060   */\n      mload\n        /* \"#utility.yul\":2041:2060   */\n      swap1\n      pop\n        /* \"#utility.yul\":1991:2066   */\n      swap1\n      jump\t// out\n        /* \"#utility.yul\":2072:2189   */\n    tag_69:\n        /* \"#utility.yul\":2181:2182   */\n      0x00\n        /* \"#utility.yul\":2178:2179   */\n      0x00\n        /* \"#utility.yul\":2171:2183   */\n      revert\n        /* \"#utility.yul\":2195:2312   */\n    tag_70:\n        /* \"#utility.yul\":2304:2305   */\n      0x00\n        /* \"#utility.yul\":2301:2302   */\n      0x00\n        /* \"#utility.yul\":2294:2306   */\n      revert\n        /* \"#utility.yul\":2318:2435   */\n    tag_71:\n        /* \"#utility.yul\":2427:2428   */\n      0x00\n        /* \"#utility.yul\":2424:2425   */\n      0x00\n        /* \"#utility.yul\":2417:2429   */\n      revert\n        /* \"#utility.yul\":2441:2558   */\n    tag_72:\n        /* \"#utility.yul\":2550:2551   */\n      0x00\n        /* \"#utility.yul\":2547:2548   */\n      0x00\n        /* \"#utility.yul\":2540:2552   */\n      revert\n        /* \"#utility.yul\":2564:2744   */\n    tag_73:\n        /* \"#utility.yul\":2612:2689   */\n      0x4e487b7100000000000000000000000000000000000000000000000000000000\n        /* \"#utility.yul\":2609:2610   */\n      0x00\n        /* \"#utility.yul\":2602:2690   */\n      mstore\n        /* \"#utility.yul\":2709:2713   */\n      0x41\n        /* \"#utility.yul\":2706:2707   */\n      0x04\n        /* \"#utility.yul\":2699:2714   */\n      mstore\n        /* \"#utility.yul\":2733:2737   */\n      0x24\n        /* \"#utility.yul\":2730:2731   */\n      0x00\n        /* \"#utility.yul\":2723:2738   */\n      revert\n        /* \"#utility.yul\":2750:3031   */\n    tag_74:\n        /* \"#utility.yul\":2833:2860   */\n      tag_134\n        /* \"#utility.yul\":2855:2859   */\n      dup3\n        /* \"#utility.yul\":2833:2860   */\n      tag_64\n      jump\t// in\n    tag_134:\n        /* \"#utility.yul\":2825:2831   */\n      dup2\n        /* \"#utility.yul\":2821:2861   */\n      add\n        /* \"#utility.yul\":2963:2969   */\n      dup2\n        /* \"#utility.yul\":2951:2961   */\n      dup2\n        /* \"#utility.yul\":2948:2970   */\n      lt\n        /* \"#utility.yul\":2927:2945   */\n      0xffffffffffffffff\n        /* \"#utility.yul\":2915:2925   */\n      dup3\n        /* \"#utility.yul\":2912:2946   */\n      gt\n        /* \"#utility.yul\":2909:2971   */\n      or\n        /* \"#utility.yul\":2906:2994   */\n      iszero\n      tag_135\n      jumpi\n        /* \"#utility.yul\":2974:2992   */\n      tag_136\n      tag_73\n      jump\t// in\n    tag_136:\n        /* \"#utility.yul\":2906:2994   */\n    tag_135:\n        /* \"#utility.yul\":3014:3024   */\n      dup1\n        /* \"#utility.yul\":3010:3012   */\n      0x40\n        /* \"#utility.yul\":3003:3025   */\n      mstore\n        /* \"#utility.yul\":2793:3031   */\n      pop\n        /* \"#utility.yul\":2750:3031   */\n      pop\n      pop\n      jump\t// out\n        /* \"#utility.yul\":3037:3166   */\n    tag_75:\n        /* \"#utility.yul\":3071:3077   */\n      0x00\n        /* \"#utility.yul\":3098:3118   */\n      tag_138\n      tag_68\n      jump\t// in\n    tag_138:\n        /* \"#utility.yul\":3088:3118   */\n      swap1\n      pop\n        /* \"#utility.yul\":3127:3160   */\n      tag_139\n        /* \"#utility.yul\":3155:3159   */\n      dup3\n        /* \"#utility.yul\":3147:3153   */\n      dup3\n        /* \"#utility.yul\":3127:3160   */\n      tag_74\n      jump\t// in\n    tag_139:\n        /* \"#utility.yul\":3037:3166   */\n      swap2\n      swap1\n      pop\n      jump\t// out\n        /* \"#utility.yul\":3172:3480   */\n    tag_76:\n        /* \"#utility.yul\":3234:3238   */\n      0x00\n        /* \"#utility.yul\":3324:3342   */\n      0xffffffffffffffff\n        /* \"#utility.yul\":3316:3322   */\n      dup3\n        /* \"#utility.yul\":3313:3343   */\n      gt\n        /* \"#utility.yul\":3310:3366   */\n      iszero\n      tag_141\n      jumpi\n        /* \"#utility.yul\":3346:3364   */\n      tag_142\n      tag_73\n      jump\t// in\n    tag_142:\n        /* \"#utility.yul\":3310:3366   */\n    tag_141:\n        /* \"#utility.yul\":3384:3413   */\n      tag_143\n        /* \"#utility.yul\":3406:3412   */\n      dup3\n        /* \"#utility.yul\":3384:3413   */\n      tag_64\n      jump\t// in\n    tag_143:\n        /* \"#utility.yul\":3376:3413   */\n      swap1\n      pop\n        /* \"#utility.yul\":3468:3472   */\n      0x20\n        /* \"#utility.yul\":3462:3466   */\n      dup2\n        /* \"#utility.yul\":3458:3473   */\n      add\n        /* \"#utility.yul\":3450:3473   */\n      swap1\n      pop\n        /* \"#utility.yul\":3172:3480   */\n      swap2\n      swap1\n      pop\n      jump\t// out\n        /* \"#utility.yul\":3486:3634   */\n    tag_77:\n        /* \"#utility.yul\":3584:3590   */\n      dup3\n        /* \"#utility.yul\":3579:3582   */\n      dup2\n        /* \"#utility.yul\":3574:3577   */\n      dup4\n        /* \"#utility.yul\":3561:3591   */\n      calldatacopy\n        /* \"#utility.yul\":3625:3626   */\n      0x00\n        /* \"#utility.yul\":3616:3622   */\n      dup4\n        /* \"#utility.yul\":3611:3614   */\n      dup4\n        /* \"#utility.yul\":3607:3623   */\n      add\n        /* \"#utility.yul\":3600:3627   */\n      mstore\n        /* \"#utility.yul\":3486:3634   */\n      pop\n      pop\n      pop\n      jump\t// out\n        /* \"#utility.yul\":3640:4065   */\n    tag_78:\n        /* \"#utility.yul\":3718:3723   */\n      0x00\n        /* \"#utility.yul\":3743:3809   */\n      tag_146\n        /* \"#utility.yul\":3759:3808   */\n      tag_147\n        /* \"#utility.yul\":3801:3807   */\n      dup5\n        /* \"#utility.yul\":3759:3808   */\n      tag_76\n      jump\t// in\n    tag_147:\n        /* \"#utility.yul\":3743:3809   */\n      tag_75\n      jump\t// in\n    tag_146:\n        /* \"#utility.yul\":3734:3809   */\n      swap1\n      pop\n        /* \"#utility.yul\":3832:3838   */\n      dup3\n        /* \"#utility.yul\":3825:3830   */\n      dup2\n        /* \"#utility.yul\":3818:3839   */\n      mstore\n        /* \"#utility.yul\":3870:3874   */\n      0x20\n        /* \"#utility.yul\":3863:3868   */\n      dup2\n        /* \"#utility.yul\":3859:3875   */\n      add\n        /* \"#utility.yul\":3908:3911   */\n      dup5\n        /* \"#utility.yul\":3899:3905   */\n      dup5\n        /* \"#utility.yul\":3894:3897   */\n      dup5\n        /* \"#utility.yul\":3890:3906   */\n      add\n        /* \"#utility.yul\":3887:3912   */\n      gt\n        /* \"#utility.yul\":3884:3996   */\n      iszero\n      tag_148\n      jumpi\n        /* \"#utility.yul\":3915:3994   */\n      tag_149\n      tag_72\n      jump\t// in\n    tag_149:\n        /* \"#utility.yul\":3884:3996   */\n    tag_148:\n        /* \"#utility.yul\":4005:4059   */\n      tag_150\n        /* \"#utility.yul\":4052:4058   */\n      dup5\n        /* \"#utility.yul\":4047:4050   */\n      dup3\n        /* \"#utility.yul\":4042:4045   */\n      dup6\n        /* \"#utility.yul\":4005:4059   */\n      tag_77\n      jump\t// in\n    tag_150:\n        /* \"#utility.yul\":3724:4065   */\n      pop\n        /* \"#utility.yul\":3640:4065   */\n      swap4\n      swap3\n      pop\n      pop\n      pop\n      jump\t// out\n        /* \"#utility.yul\":4085:4425   */\n    tag_79:\n        /* \"#utility.yul\":4141:4146   */\n      0x00\n        /* \"#utility.yul\":4190:4193   */\n      dup3\n        /* \"#utility.yul\":4183:4187   */\n      0x1f\n        /* \"#utility.yul\":4175:4181   */\n      dup4\n        /* \"#utility.yul\":4171:4188   */\n      add\n        /* \"#utility.yul\":4167:4194   */\n      slt\n        /* \"#utility.yul\":4157:4279   */\n      tag_152\n      jumpi\n        /* \"#utility.yul\":4198:4277   */\n      tag_153\n      tag_71\n      jump\t// in\n    tag_153:\n        /* \"#utility.yul\":4157:4279   */\n    tag_152:\n        /* \"#utility.yul\":4315:4321   */\n      dup2\n        /* \"#utility.yul\":4302:4322   */\n      calldataload\n        /* \"#utility.yul\":4340:4419   */\n      tag_154\n        /* \"#utility.yul\":4415:4418   */\n      dup5\n        /* \"#utility.yul\":4407:4413   */\n      dup3\n        /* \"#utility.yul\":4400:4404   */\n      0x20\n        /* \"#utility.yul\":4392:4398   */\n      dup7\n        /* \"#utility.yul\":4388:4405   */\n      add\n        /* \"#utility.yul\":4340:4419   */\n      tag_78\n      jump\t// in\n    tag_154:\n        /* \"#utility.yul\":4331:4419   */\n      swap2\n      pop\n        /* \"#utility.yul\":4147:4425   */\n      pop\n        /* \"#utility.yul\":4085:4425   */\n      swap3\n      swap2\n      pop\n      pop\n      jump\t// out\n        /* \"#utility.yul\":4431:4551   */\n    tag_80:\n        /* \"#utility.yul\":4503:4526   */\n      tag_156\n        /* \"#utility.yul\":4520:4525   */\n      dup2\n        /* \"#utility.yul\":4503:4526   */\n      tag_66\n      jump\t// in\n    tag_156:\n        /* \"#utility.yul\":4496:4501   */\n      dup2\n        /* \"#utility.yul\":4493:4527   */\n      eq\n        /* \"#utility.yul\":4483:4545   */\n      tag_157\n      jumpi\n        /* \"#utility.yul\":4541:4542   */\n      0x00\n        /* \"#utility.yul\":4538:4539   */\n      0x00\n        /* \"#utility.yul\":4531:4543   */\n      revert\n        /* \"#utility.yul\":4483:4545   */\n    tag_157:\n        /* \"#utility.yul\":4431:4551   */\n      pop\n      jump\t// out\n        /* \"#utility.yul\":4557:4694   */\n    tag_81:\n        /* \"#utility.yul\":4602:4607   */\n      0x00\n        /* \"#utility.yul\":4640:4646   */\n      dup2\n        /* \"#utility.yul\":4627:4647   */\n      calldataload\n        /* \"#utility.yul\":4618:4647   */\n      swap1\n      pop\n        /* \"#utility.yul\":4656:4688   */\n      tag_159\n        /* \"#utility.yul\":4682:4687   */\n      dup2\n        /* \"#utility.yul\":4656:4688   */\n      tag_80\n      jump\t// in\n    tag_159:\n        /* \"#utility.yul\":4557:4694   */\n      swap3\n      swap2\n      pop\n      pop\n      jump\t// out\n        /* \"#utility.yul\":4700:5352   */\n    tag_21:\n        /* \"#utility.yul\":4777:4783   */\n      0x00\n        /* \"#utility.yul\":4785:4791   */\n      0x00\n        /* \"#utility.yul\":4834:4836   */\n      0x40\n        /* \"#utility.yul\":4822:4831   */\n      dup4\n        /* \"#utility.yul\":4813:4820   */\n      dup6\n        /* \"#utility.yul\":4809:4832   */\n      sub\n        /* \"#utility.yul\":4805:4837   */\n      slt\n        /* \"#utility.yul\":4802:4921   */\n      iszero\n      tag_161\n      jumpi\n        /* \"#utility.yul\":4840:4919   */\n      tag_162\n      tag_69\n      jump\t// in\n    tag_162:\n        /* \"#utility.yul\":4802:4921   */\n    tag_161:\n        /* \"#utility.yul\":4988:4989   */\n      0x00\n        /* \"#utility.yul\":4977:4986   */\n      dup4\n        /* \"#utility.yul\":4973:4990   */\n      add\n        /* \"#utility.yul\":4960:4991   */\n      calldataload\n        /* \"#utility.yul\":5018:5036   */\n      0xffffffffffffffff\n        /* \"#utility.yul\":5010:5016   */\n      dup2\n        /* \"#utility.yul\":5007:5037   */\n      gt\n        /* \"#utility.yul\":5004:5121   */\n      iszero\n      tag_163\n      jumpi\n        /* \"#utility.yul\":5040:5119   */\n      tag_164\n      tag_70\n      jump\t// in\n    tag_164:\n        /* \"#utility.yul\":5004:5121   */\n    tag_163:\n        /* \"#utility.yul\":5145:5208   */\n      tag_165\n        /* \"#utility.yul\":5200:5207   */\n      dup6\n        /* \"#utility.yul\":5191:5197   */\n      dup3\n        /* \"#utility.yul\":5180:5189   */\n      dup7\n        /* \"#utility.yul\":5176:5198   */\n      add\n        /* \"#utility.yul\":5145:5208   */\n      tag_79\n      jump\t// in\n    tag_165:\n        /* \"#utility.yul\":5135:5208   */\n      swap3\n      pop\n        /* \"#utility.yul\":4931:5218   */\n      pop\n        /* \"#utility.yul\":5257:5259   */\n      0x20\n        /* \"#utility.yul\":5283:5335   */\n      tag_166\n        /* \"#utility.yul\":5327:5334   */\n      dup6\n        /* \"#utility.yul\":5318:5324   */\n      dup3\n        /* \"#utility.yul\":5307:5316   */\n      dup7\n        /* \"#utility.yul\":5303:5325   */\n      add\n        /* \"#utility.yul\":5283:5335   */\n      tag_81\n      jump\t// in\n    tag_166:\n        /* \"#utility.yul\":5273:5335   */\n      swap2\n      pop\n        /* \"#utility.yul\":5228:5345   */\n      pop\n        /* \"#utility.yul\":4700:5352   */\n      swap3\n      pop\n      swap3\n      swap1\n      pop\n      jump\t// out\n        /* \"#utility.yul\":5358:5484   */\n    tag_82:\n        /* \"#utility.yul\":5395:5402   */\n      0x00\n        /* \"#utility.yul\":5435:5477   */\n      0xffffffffffffffffffffffffffffffffffffffff\n        /* \"#utility.yul\":5428:5433   */\n      dup3\n        /* \"#utility.yul\":5424:5478   */\n      and\n        /* \"#utility.yul\":5413:5478   */\n      swap1\n      pop\n        /* \"#utility.yul\":5358:5484   */\n      swap2\n      swap1\n      pop\n      jump\t// out\n        /* \"#utility.yul\":5490:5586   */\n    tag_83:\n        /* \"#utility.yul\":5527:5534   */\n      0x00\n        /* \"#utility.yul\":5556:5580   */\n      tag_169\n        /* \"#utility.yul\":5574:5579   */\n      dup3\n        /* \"#utility.yul\":5556:5580   */\n      tag_82\n      jump\t// in\n    tag_169:\n        /* \"#utility.yul\":5545:5580   */\n      swap1\n      pop\n        /* \"#utility.yul\":5490:5586   */\n      swap2\n      swap1\n      pop\n      jump\t// out\n        /* \"#utility.yul\":5592:5710   */\n    tag_84:\n        /* \"#utility.yul\":5679:5703   */\n      tag_171\n        /* \"#utility.yul\":5697:5702   */\n      dup2\n        /* \"#utility.yul\":5679:5703   */\n      tag_83\n      jump\t// in\n    tag_171:\n        /* \"#utility.yul\":5674:5677   */\n      dup3\n        /* \"#utility.yul\":5667:5704   */\n      mstore\n        /* \"#utility.yul\":5592:5710   */\n      pop\n      pop\n      jump\t// out\n        /* \"#utility.yul\":5716:5938   */\n    tag_27:\n        /* \"#utility.yul\":5809:5813   */\n      0x00\n        /* \"#utility.yul\":5847:5849   */\n      0x20\n        /* \"#utility.yul\":5836:5845   */\n      dup3\n        /* \"#utility.yul\":5832:5850   */\n      add\n        /* \"#utility.yul\":5824:5850   */\n      swap1\n      pop\n        /* \"#utility.yul\":5860:5931   */\n      tag_173\n        /* \"#utility.yul\":5928:5929   */\n      0x00\n        /* \"#utility.yul\":5917:5926   */\n      dup4\n        /* \"#utility.yul\":5913:5930   */\n      add\n        /* \"#utility.yul\":5904:5910   */\n      dup5\n        /* \"#utility.yul\":5860:5931   */\n      tag_84\n      jump\t// in\n    tag_173:\n        /* \"#utility.yul\":5716:5938   */\n      swap3\n      swap2\n      pop\n      pop\n      jump\t// out\n        /* \"#utility.yul\":5944:6021   */\n    tag_85:\n        /* \"#utility.yul\":5981:5988   */\n      0x00\n        /* \"#utility.yul\":6010:6015   */\n      dup2\n        /* \"#utility.yul\":5999:6015   */\n      swap1\n      pop\n        /* \"#utility.yul\":5944:6021   */\n      swap2\n      swap1\n      pop\n      jump\t// out\n        /* \"#utility.yul\":6027:6149   */\n    tag_86:\n        /* \"#utility.yul\":6100:6124   */\n      tag_176\n        /* \"#utility.yul\":6118:6123   */\n      dup2\n        /* \"#utility.yul\":6100:6124   */\n      tag_85\n      jump\t// in\n    tag_176:\n        /* \"#utility.yul\":6093:6098   */\n      dup2\n        /* \"#utility.yul\":6090:6125   */\n      eq\n        /* \"#utility.yul\":6080:6143   */\n      tag_177\n      jumpi\n        /* \"#utility.yul\":6139:6140   */\n      0x00\n        /* \"#utility.yul\":6136:6137   */\n      0x00\n        /* \"#utility.yul\":6129:6141   */\n      revert\n        /* \"#utility.yul\":6080:6143   */\n    tag_177:\n        /* \"#utility.yul\":6027:6149   */\n      pop\n      jump\t// out\n        /* \"#utility.yul\":6155:6294   */\n    tag_87:\n        /* \"#utility.yul\":6201:6206   */\n      0x00\n        /* \"#utility.yul\":6239:6245   */\n      dup2\n        /* \"#utility.yul\":6226:6246   */\n      calldataload\n        /* \"#utility.yul\":6217:6246   */\n      swap1\n      pop\n        /* \"#utility.yul\":6255:6288   */\n      tag_179\n        /* \"#utility.yul\":6282:6287   */\n      dup2\n        /* \"#utility.yul\":6255:6288   */\n      tag_86\n      jump\t// in\n    tag_179:\n        /* \"#utility.yul\":6155:6294   */\n      swap3\n      swap2\n      pop\n      pop\n      jump\t// out\n        /* \"#utility.yul\":6300:6629   */\n    tag_33:\n        /* \"#utility.yul\":6359:6365   */\n      0x00\n        /* \"#utility.yul\":6408:6410   */\n      0x20\n        /* \"#utility.yul\":6396:6405   */\n      dup3\n        /* \"#utility.yul\":6387:6394   */\n      dup5\n        /* \"#utility.yul\":6383:6406   */\n      sub\n        /* \"#utility.yul\":6379:6411   */\n      slt\n        /* \"#utility.yul\":6376:6495   */\n      iszero\n      tag_181\n      jumpi\n        /* \"#utility.yul\":6414:6493   */\n      tag_182\n      tag_69\n      jump\t// in\n    tag_182:\n        /* \"#utility.yul\":6376:6495   */\n    tag_181:\n        /* \"#utility.yul\":6534:6535   */\n      0x00\n        /* \"#utility.yul\":6559:6612   */\n      tag_183\n        /* \"#utility.yul\":6604:6611   */\n      dup5\n        /* \"#utility.yul\":6595:6601   */\n      dup3\n        /* \"#utility.yul\":6584:6593   */\n      dup6\n        /* \"#utility.yul\":6580:6602   */\n      add\n        /* \"#utility.yul\":6559:6612   */\n      tag_87\n      jump\t// in\n    tag_183:\n        /* \"#utility.yul\":6549:6612   */\n      swap2\n      pop\n        /* \"#utility.yul\":6505:6622   */\n      pop\n        /* \"#utility.yul\":6300:6629   */\n      swap3\n      swap2\n      pop\n      pop\n      jump\t// out\n        /* \"#utility.yul\":6635:6753   */\n    tag_88:\n        /* \"#utility.yul\":6722:6746   */\n      tag_185\n        /* \"#utility.yul\":6740:6745   */\n      dup2\n        /* \"#utility.yul\":6722:6746   */\n      tag_85\n      jump\t// in\n    tag_185:\n        /* \"#utility.yul\":6717:6720   */\n      dup3\n        /* \"#utility.yul\":6710:6747   */\n      mstore\n        /* \"#utility.yul\":6635:6753   */\n      pop\n      pop\n      jump\t// out\n        /* \"#utility.yul\":6759:6981   */\n    tag_36:\n        /* \"#utility.yul\":6852:6856   */\n      0x00\n        /* \"#utility.yul\":6890:6892   */\n      0x20\n        /* \"#utility.yul\":6879:6888   */\n      dup3\n        /* \"#utility.yul\":6875:6893   */\n      add\n        /* \"#utility.yul\":6867:6893   */\n      swap1\n      pop\n        /* \"#utility.yul\":6903:6974   */\n      tag_187\n        /* \"#utility.yul\":6971:6972   */\n      0x00\n        /* \"#utility.yul\":6960:6969   */\n      dup4\n        /* \"#utility.yul\":6956:6973   */\n      add\n        /* \"#utility.yul\":6947:6953   */\n      dup5\n        /* \"#utility.yul\":6903:6974   */\n      tag_88\n      jump\t// in\n    tag_187:\n        /* \"#utility.yul\":6759:6981   */\n      swap3\n      swap2\n      pop\n      pop\n      jump\t// out\n        /* \"#utility.yul\":6987:7167   */\n    tag_89:\n        /* \"#utility.yul\":7035:7112   */\n      0x4e487b7100000000000000000000000000000000000000000000000000000000\n        /* \"#utility.yul\":7032:7033   */\n      0x00\n        /* \"#utility.yul\":7025:7113   */\n      mstore\n        /* \"#utility.yul\":7132:7136   */\n      0x22\n        /* \"#utility.yul\":7129:7130   */\n      0x04\n        /* \"#utility.yul\":7122:7137   */\n      mstore\n        /* \"#utility.yul\":7156:7160   */\n      0x24\n        /* \"#utility.yul\":7153:7154   */\n      0x00\n        /* \"#utility.yul\":7146:7161   */\n      revert\n        /* \"#utility.yul\":7173:7493   */\n    tag_39:\n        /* \"#utility.yul\":7217:7223   */\n      0x00\n        /* \"#utility.yul\":7254:7255   */\n      0x02\n        /* \"#utility.yul\":7248:7252   */\n      dup3\n        /* \"#utility.yul\":7244:7256   */\n      div\n        /* \"#utility.yul\":7234:7256   */\n      swap1\n      pop\n        /* \"#utility.yul\":7301:7302   */\n      0x01\n        /* \"#utility.yul\":7295:7299   */\n      dup3\n        /* \"#utility.yul\":7291:7303   */\n      and\n        /* \"#utility.yul\":7322:7340   */\n      dup1\n        /* \"#utility.yul\":7312:7393   */\n      tag_190\n      jumpi\n        /* \"#utility.yul\":7378:7382   */\n      0x7f\n        /* \"#utility.yul\":7370:7376   */\n      dup3\n        /* \"#utility.yul\":7366:7383   */\n      and\n        /* \"#utility.yul\":7356:7383   */\n      swap2\n      pop\n        /* \"#utility.yul\":7312:7393   */\n    tag_190:\n        /* \"#utility.yul\":7440:7442   */\n      0x20\n        /* \"#utility.yul\":7432:7438   */\n      dup3\n        /* \"#utility.yul\":7429:7443   */\n      lt\n        /* \"#utility.yul\":7409:7427   */\n      dup2\n        /* \"#utility.yul\":7406:7444   */\n      sub\n        /* \"#utility.yul\":7403:7487   */\n      tag_191\n      jumpi\n        /* \"#utility.yul\":7459:7477   */\n      tag_192\n      tag_89\n      jump\t// in\n    tag_192:\n        /* \"#utility.yul\":7403:7487   */\n    tag_191:\n        /* \"#utility.yul\":7224:7493   */\n      pop\n        /* \"#utility.yul\":7173:7493   */\n      swap2\n      swap1\n      pop\n      jump\t// out\n        /* \"#utility.yul\":7499:7640   */\n    tag_90:\n        /* \"#utility.yul\":7548:7552   */\n      0x00\n        /* \"#utility.yul\":7571:7574   */\n      dup2\n        /* \"#utility.yul\":7563:7574   */\n      swap1\n      pop\n        /* \"#utility.yul\":7594:7597   */\n      dup2\n        /* \"#utility.yul\":7591:7592   */\n      0x00\n        /* \"#utility.yul\":7584:7598   */\n      mstore\n        /* \"#utility.yul\":7628:7632   */\n      0x20\n        /* \"#utility.yul\":7625:7626   */\n      0x00\n        /* \"#utility.yul\":7615:7633   */\n      keccak256\n        /* \"#utility.yul\":7607:7633   */\n      swap1\n      pop\n        /* \"#utility.yul\":7499:7640   */\n      swap2\n      swap1\n      pop\n      jump\t// out\n        /* \"#utility.yul\":7646:7739   */\n    tag_91:\n        /* \"#utility.yul\":7683:7689   */\n      0x00\n        /* \"#utility.yul\":7730:7732   */\n      0x20\n        /* \"#utility.yul\":7725:7727   */\n      0x1f\n        /* \"#utility.yul\":7718:7723   */\n      dup4\n        /* \"#utility.yul\":7714:7728   */\n      add\n        /* \"#utility.yul\":7710:7733   */\n      div\n        /* \"#utility.yul\":7700:7733   */\n      swap1\n      pop\n        /* \"#utility.yul\":7646:7739   */\n      swap2\n      swap1\n      pop\n      jump\t// out\n        /* \"#utility.yul\":7745:7852   */\n    tag_92:\n        /* \"#utility.yul\":7789:7797   */\n      0x00\n        /* \"#utility.yul\":7839:7844   */\n      dup3\n        /* \"#utility.yul\":7833:7837   */\n      dup3\n        /* \"#utility.yul\":7829:7845   */\n      shl\n        /* \"#utility.yul\":7808:7845   */\n      swap1\n      pop\n        /* \"#utility.yul\":7745:7852   */\n      swap3\n      swap2\n      pop\n      pop\n      jump\t// out\n        /* \"#utility.yul\":7858:8251   */\n    tag_93:\n        /* \"#utility.yul\":7927:7933   */\n      0x00\n        /* \"#utility.yul\":7977:7978   */\n      0x08\n        /* \"#utility.yul\":7965:7975   */\n      dup4\n        /* \"#utility.yul\":7961:7979   */\n      mul\n        /* \"#utility.yul\":8000:8097   */\n      tag_197\n        /* \"#utility.yul\":8030:8096   */\n      0xffffffffffffffffffffffffffffffffffffffffffffffffffffffffffffffff\n        /* \"#utility.yul\":8019:8028   */\n      dup3\n        /* \"#utility.yul\":8000:8097   */\n      tag_92\n      jump\t// in\n    tag_197:\n        /* \"#utility.yul\":8118:8157   */\n      tag_198\n        /* \"#utility.yul\":8148:8156   */\n      dup7\n        /* \"#utility.yul\":8137:8146   */\n      dup4\n        /* \"#utility.yul\":8118:8157   */\n      tag_92\n      jump\t// in\n    tag_198:\n        /* \"#utility.yul\":8106:8157   */\n      swap6\n      pop\n        /* \"#utility.yul\":8190:8194   */\n      dup1\n        /* \"#utility.yul\":8186:8195   */\n      not\n        /* \"#utility.yul\":8179:8184   */\n      dup5\n        /* \"#utility.yul\":8175:8196   */\n      and\n        /* \"#utility.yul\":8166:8196   */\n      swap4\n      pop\n        /* \"#utility.yul\":8239:8243   */\n      dup1\n        /* \"#utility.yul\":8229:8237   */\n      dup7\n        /* \"#utility.yul\":8225:8244   */\n      and\n        /* \"#utility.yul\":8218:8223   */\n      dup5\n        /* \"#utility.yul\":8215:8245   */\n      or\n        /* \"#utility.yul\":8205:8245   */\n      swap3\n      pop\n        /* \"#utility.yul\":7934:8251   */\n      pop\n      pop\n        /* \"#utility.yul\":7858:8251   */\n      swap4\n      swap3\n      pop\n      pop\n      pop\n      jump\t// out\n        /* \"#utility.yul\":8257:8317   */\n    tag_94:\n        /* \"#utility.yul\":8285:8288   */\n      0x00\n        /* \"#utility.yul\":8306:8311   */\n      dup2\n        /* \"#utility.yul\":8299:8311   */\n      swap1\n      pop\n        /* \"#utility.yul\":8257:8317   */\n      swap2\n      swap1\n      pop\n      jump\t// out\n        /* \"#utility.yul\":8323:8465   */\n    tag_95:\n        /* \"#utility.yul\":8373:8382   */\n      0x00\n        /* \"#utility.yul\":8406:8459   */\n      tag_201\n        /* \"#utility.yul\":8424:8458   */\n      tag_202\n        /* \"#utility.yul\":8433:8457   */\n      tag_203\n        /* \"#utility.yul\":8451:8456   */\n      dup5\n        /* \"#utility.yul\":8433:8457   */\n      tag_85\n      jump\t// in\n    tag_203:\n        /* \"#utility.yul\":8424:8458   */\n      tag_94\n      jump\t// in\n    tag_202:\n        /* \"#utility.yul\":8406:8459   */\n      tag_85\n      jump\t// in\n    tag_201:\n        /* \"#utility.yul\":8393:8459   */\n      swap1\n      pop\n        /* \"#utility.yul\":8323:8465   */\n      swap2\n      swap1\n      pop\n      jump\t// out\n        /* \"#utility.yul\":8471:8546   */\n    tag_96:\n        /* \"#utility.yul\":8514:8517   */\n      0x00\n        /* \"#utility.yul\":8535:8540   */\n      dup2\n        /* \"#utility.yul\":8528:8540   */\n      swap1\n      pop\n        /* \"#utility.yul\":8471:8546   */\n      swap2\n      swap1\n      pop\n      jump\t// out\n        /* \"#utility.yul\":8552:8821   */\n    tag_97:\n        /* \"#utility.yul\":8662:8701   */\n      tag_206\n        /* \"#utility.yul\":8693:8700   */\n      dup4\n        /* \"#utility.yul\":8662:8701   */\n      tag_95\n      jump\t// in\n    tag_206:\n        /* \"#utility.yul\":8723:8814   */\n      tag_207\n        /* \"#utility.yul\":8772:8813   */\n      tag_208\n        /* \"#utility.yul\":8796:8812   */\n      dup3\n        /* \"#utility.yul\":8772:8813   */\n      tag_96\n      jump\t// in\n    tag_208:\n        /* \"#utility.yul\":8764:8770   */\n      dup5\n        /* \"#utility.yul\":8757:8761   */\n      dup5\n        /* \"#utility.yul\":8751:8762   */\n      sload\n        /* \"#utility.yul\":8723:8814   */\n      tag_93\n      jump\t// in\n    tag_207:\n        /* \"#utility.yul\":8717:8721   */\n      dup3\n        /* \"#utility.yul\":8710:8815   */\n      sstore\n        /* \"#utility.yul\":8628:8821   */\n      pop\n        /* \"#utility.yul\":8552:8821   */\n      pop\n      pop\n      pop\n      jump\t// out\n        /* \"#utility.yul\":8827:8900   */\n    tag_98:\n        /* \"#utility.yul\":8872:8875   */\n      0x00\n        /* \"#utility.yul\":8893:8894   */\n      0x00\n        /* \"#utility.yul\":8886:8894   */\n      swap1\n      pop\n        /* \"#utility.yul\":8827:8900   */\n      swap1\n      jump\t// out\n        /* \"#utility.yul\":8906:9095   */\n    tag_99:\n        /* \"#utility.yul\":8983:9015   */\n      tag_211\n      tag_98\n      jump\t// in\n    tag_211:\n        /* \"#utility.yul\":9024:9089   */\n      tag_212\n        /* \"#utility.yul\":9082:9088   */\n      dup2\n        /* \"#utility.yul\":9074:9080   */\n      dup5\n        /* \"#utility.yul\":9068:9072   */\n      dup5\n        /* \"#utility.yul\":9024:9089   */\n      tag_97\n      jump\t// in\n    tag_212:\n        /* \"#utility.yul\":8959:9095   */\n      pop\n        /* \"#utility.yul\":8906:9095   */\n      pop\n      pop\n      jump\t// out\n        /* \"#utility.yul\":9101:9287   */\n    tag_100:\n        /* \"#utility.yul\":9161:9281   */\n    tag_214:\n        /* \"#utility.yul\":9178:9181   */\n      dup2\n        /* \"#utility.yul\":9171:9176   */\n      dup2\n        /* \"#utility.yul\":9168:9182   */\n      lt\n        /* \"#utility.yul\":9161:9281   */\n      iszero\n      tag_216\n      jumpi\n        /* \"#utility.yul\":9232:9271   */\n      tag_217\n        /* \"#utility.yul\":9269:9270   */\n      0x00\n        /* \"#utility.yul\":9262:9267   */\n      dup3\n        /* \"#utility.yul\":9232:9271   */\n      tag_99\n      jump\t// in\n    tag_217:\n        /* \"#utility.yul\":9205:9206   */\n      0x01\n        /* \"#utility.yul\":9198:9203   */\n      dup2\n        /* \"#utility.yul\":9194:9207   */\n      add\n        /* \"#utility.yul\":9185:9207   */\n      swap1\n      pop\n        /* \"#utility.yul\":9161:9281   */\n      jump(tag_214)\n    tag_216:\n        /* \"#utility.yul\":9101:9287   */\n      pop\n      pop\n      jump\t// out\n        /* \"#utility.yul\":9293:9836   */\n    tag_101:\n        /* \"#utility.yul\":9394:9396   */\n      0x1f\n        /* \"#utility.yul\":9389:9392   */\n      dup3\n        /* \"#utility.yul\":9386:9397   */\n      gt\n        /* \"#utility.yul\":9383:9829   */\n      iszero\n      tag_219\n      jumpi\n        /* \"#utility.yul\":9428:9466   */\n      tag_220\n        /* \"#utility.yul\":9460:9465   */\n      dup2\n        /* \"#utility.yul\":9428:9466   */\n      tag_90\n      jump\t// in\n    tag_220:\n        /* \"#utility.yul\":9512:9541   */\n      tag_221\n        /* \"#utility.yul\":9530:9540   */\n      dup5\n        /* \"#utility.yul\":9512:9541   */\n      tag_91\n      jump\t// in\n    tag_221:\n        /* \"#utility.yul\":9502:9510   */\n      dup2\n        /* \"#utility.yul\":9498:9542   */\n      add\n        /* \"#utility.yul\":9695:9697   */\n      0x20\n        /* \"#utility.yul\":9683:9693   */\n      dup6\n        /* \"#utility.yul\":9680:9698   */\n      lt\n        /* \"#utility.yul\":9677:9726   */\n      iszero\n      tag_222\n      jumpi\n        /* \"#utility.yul\":9716:9724   */\n      dup2\n        /* \"#utility.yul\":9701:9724   */\n      swap1\n      pop\n        /* \"#utility.yul\":9677:9726   */\n    tag_222:\n        /* \"#utility.yul\":9739:9819   */\n      tag_223\n        /* \"#utility.yul\":9795:9817   */\n      tag_224\n        /* \"#utility.yul\":9813:9816   */\n      dup6\n        /* \"#utility.yul\":9795:9817   */\n      tag_91\n      jump\t// in\n    tag_224:\n        /* \"#utility.yul\":9785:9793   */\n      dup4\n        /* \"#utility.yul\":9781:9818   */\n      add\n        /* \"#utility.yul\":9768:9779   */\n      dup3\n        /* \"#utility.yul\":9739:9819   */\n      tag_100\n      jump\t// in\n    tag_223:\n        /* \"#utility.yul\":9398:9829   */\n      pop\n      pop\n        /* \"#utility.yul\":9383:9829   */\n    tag_219:\n        /* \"#utility.yul\":9293:9836   */\n      pop\n      pop\n      pop\n      jump\t// out\n        /* \"#utility.yul\":9842:9959   */\n    tag_102:\n        /* \"#utility.yul\":9896:9904   */\n      0x00\n        /* \"#utility.yul\":9946:9951   */\n      dup3\n        /* \"#utility.yul\":9940:9944   */\n      dup3\n        /* \"#utility.yul\":9936:9952   */\n      shr\n        /* \"#utility.yul\":9915:9952   */\n      swap1\n      pop\n        /* \"#utility.yul\":9842:9959   */\n      swap3\n      swap2\n      pop\n      pop\n      jump\t// out\n        /* \"#utility.yul\":9965:10134   */\n    tag_103:\n        /* \"#utility.yul\":10009:10015   */\n      0x00\n        /* \"#utility.yul\":10042:10093   */\n      tag_227\n        /* \"#utility.yul\":10090:10091   */\n      0x00\n        /* \"#utility.yul\":10086:10092   */\n      not\n        /* \"#utility.yul\":10078:10083   */\n      dup5\n        /* \"#utility.yul\":10075:10076   */\n      0x08\n        /* \"#utility.yul\":10071:10084   */\n      mul\n        /* \"#utility.yul\":10042:10093   */\n      tag_102\n      jump\t// in\n    tag_227:\n        /* \"#utility.yul\":10038:10094   */\n      not\n        /* \"#utility.yul\":10123:10127   */\n      dup1\n        /* \"#utility.yul\":10117:10121   */\n      dup4\n        /* \"#utility.yul\":10113:10128   */\n      and\n        /* \"#utility.yul\":10103:10128   */\n      swap2\n      pop\n        /* \"#utility.yul\":10016:10134   */\n      pop\n        /* \"#utility.yul\":9965:10134   */\n      swap3\n      swap2\n      pop\n      pop\n      jump\t// out\n        /* \"#utility.yul\":10139:10434   */\n    tag_104:\n        /* \"#utility.yul\":10215:10219   */\n      0x00\n        /* \"#utility.yul\":10361:10390   */\n      tag_229\n        /* \"#utility.yul\":10386:10389   */\n      dup4\n        /* \"#utility.yul\":10380:10384   */\n      dup4\n        /* \"#utility.yul\":10361:10390   */\n      tag_103\n      jump\t// in\n    tag_229:\n        /* \"#utility.yul\":10353:10390   */\n      swap2\n      pop\n        /* \"#utility.yul\":10423:10426   */\n      dup3\n        /* \"#utility.yul\":10420:10421   */\n      0x02\n        /* \"#utility.yul\":10416:10427   */\n      mul\n        /* \"#utility.yul\":10410:10414   */\n      dup3\n        /* \"#utility.yul\":10407:10428   */\n      or\n        /* \"#utility.yul\":10399:10428   */\n      swap1\n      pop\n        /* \"#utility.yul\":10139:10434   */\n      swap3\n      swap2\n      pop\n      pop\n      jump\t// out\n        /* \"#utility.yul\":10439:11834   */\n    tag_46:\n        /* \"#utility.yul\":10556:10593   */\n      tag_231\n        /* \"#utility.yul\":10589:10592   */\n      dup3\n        /* \"#utility.yul\":10556:10593   */\n      tag_61\n      jump\t// in\n    tag_231:\n        /* \"#utility.yul\":10658:10676   */\n      0xffffffffffffffff\n        /* \"#utility.yul\":10650:10656   */\n      dup2\n        /* \"#utility.yul\":10647:10677   */\n      gt\n        /* \"#utility.yul\":10644:10700   */\n      iszero\n      tag_232\n      jumpi\n        /* \"#utility.yul\":10680:10698   */\n      tag_233\n      tag_73\n      jump\t// in\n    tag_233:\n        /* \"#utility.yul\":10644:10700   */\n    tag_232:\n        /* \"#utility.yul\":10724:10762   */\n      tag_234\n        /* \"#utility.yul\":10756:10760   */\n      dup3\n        /* \"#utility.yul\":10750:10761   */\n      sload\n        /* \"#utility.yul\":10724:10762   */\n      tag_39\n      jump\t// in\n    tag_234:\n        /* \"#utility.yul\":10809:10876   */\n      tag_235\n        /* \"#utility.yul\":10869:10875   */\n      dup3\n        /* \"#utility.yul\":10861:10867   */\n      dup3\n        /* \"#utility.yul\":10855:10859   */\n      dup6\n        /* \"#utility.yul\":10809:10876   */\n      tag_101\n      jump\t// in\n    tag_235:\n        /* \"#utility.yul\":10903:10904   */\n      0x00\n        /* \"#utility.yul\":10927:10931   */\n      0x20\n        /* \"#utility.yul\":10914:10931   */\n      swap1\n      pop\n        /* \"#utility.yul\":10959:10961   */\n      0x1f\n        /* \"#utility.yul\":10951:10957   */\n      dup4\n        /* \"#utility.yul\":10948:10962   */\n      gt\n        /* \"#utility.yul\":10976:10977   */\n      0x01\n        /* \"#utility.yul\":10971:11589   */\n      dup2\n      eq\n      tag_237\n      jumpi\n        /* \"#utility.yul\":11633:11634   */\n      0x00\n        /* \"#utility.yul\":11650:11656   */\n      dup5\n        /* \"#utility.yul\":11647:11724   */\n      iszero\n      tag_238\n      jumpi\n        /* \"#utility.yul\":11699:11708   */\n      dup3\n        /* \"#utility.yul\":11694:11697   */\n      dup8\n        /* \"#utility.yul\":11690:11709   */\n      add\n        /* \"#utility.yul\":11684:11710   */\n      mload\n        /* \"#utility.yul\":11675:11710   */\n      swap1\n      pop\n        /* \"#utility.yul\":11647:11724   */\n    tag_238:\n        /* \"#utility.yul\":11750:11817   */\n      tag_239\n        /* \"#utility.yul\":11810:11816   */\n      dup6\n        /* \"#utility.yul\":11803:11808   */\n      dup3\n        /* \"#utility.yul\":11750:11817   */\n      tag_104\n      jump\t// in\n    tag_239:\n        /* \"#utility.yul\":11744:11748   */\n      dup7\n        /* \"#utility.yul\":11737:11818   */\n      sstore\n        /* \"#utility.yul\":11606:11828   */\n      pop\n        /* \"#utility.yul\":10941:11828   */\n      jump(tag_236)\n        /* \"#utility.yul\":10971:11589   */\n    tag_237:\n        /* \"#utility.yul\":11023:11027   */\n      0x1f\n        /* \"#utility.yul\":11019:11028   */\n      not\n        /* \"#utility.yul\":11011:11017   */\n      dup5\n        /* \"#utility.yul\":11007:11029   */\n      and\n        /* \"#utility.yul\":11057:11094   */\n      tag_240\n        /* \"#utility.yul\":11089:11093   */\n      dup7\n        /* \"#utility.yul\":11057:11094   */\n      tag_90\n      jump\t// in\n    tag_240:\n        /* \"#utility.yul\":11116:11117   */\n      0x00\n        /* \"#utility.yul\":11130:11338   */\n    tag_241:\n        /* \"#utility.yul\":11144:11151   */\n      dup3\n        /* \"#utility.yul\":11141:11142   */\n      dup2\n        /* \"#utility.yul\":11138:11152   */\n      lt\n        /* \"#utility.yul\":11130:11338   */\n      iszero\n      tag_243\n      jumpi\n        /* \"#utility.yul\":11223:11232   */\n      dup5\n        /* \"#utility.yul\":11218:11221   */\n      dup10\n        /* \"#utility.yul\":11214:11233   */\n      add\n        /* \"#utility.yul\":11208:11234   */\n      mload\n        /* \"#utility.yul\":11200:11206   */\n      dup3\n        /* \"#utility.yul\":11193:11235   */\n      sstore\n        /* \"#utility.yul\":11274:11275   */\n      0x01\n        /* \"#utility.yul\":11266:11272   */\n      dup3\n        /* \"#utility.yul\":11262:11276   */\n      add\n        /* \"#utility.yul\":11252:11276   */\n      swap2\n      pop\n        /* \"#utility.yul\":11321:11323   */\n      0x20\n        /* \"#utility.yul\":11310:11319   */\n      dup6\n        /* \"#utility.yul\":11306:11324   */\n      add\n        /* \"#utility.yul\":11293:11324   */\n      swap5\n      pop\n        /* \"#utility.yul\":11167:11171   */\n      0x20\n        /* \"#utility.yul\":11164:11165   */\n      dup2\n        /* \"#utility.yul\":11160:11172   */\n      add\n        /* \"#utility.yul\":11155:11172   */\n      swap1\n      pop\n        /* \"#utility.yul\":11130:11338   */\n      jump(tag_241)\n    tag_243:\n        /* \"#utility.yul\":11366:11372   */\n      dup7\n        /* \"#utility.yul\":11357:11364   */\n      dup4\n        /* \"#utility.yul\":11354:11373   */\n      lt\n        /* \"#utility.yul\":11351:11530   */\n      iszero\n      tag_244\n      jumpi\n        /* \"#utility.yul\":11424:11433   */\n      dup5\n        /* \"#utility.yul\":11419:11422   */\n      dup10\n        /* \"#utility.yul\":11415:11434   */\n      add\n        /* \"#utility.yul\":11409:11435   */\n      mload\n        /* \"#utility.yul\":11467:11515   */\n      tag_245\n        /* \"#utility.yul\":11509:11513   */\n      0x1f\n        /* \"#utility.yul\":11501:11507   */\n      dup10\n        /* \"#utility.yul\":11497:11514   */\n      and\n        /* \"#utility.yul\":11486:11495   */\n      dup3\n        /* \"#utility.yul\":11467:11515   */\n      tag_103\n      jump\t// in\n    tag_245:\n        /* \"#utility.yul\":11459:11465   */\n      dup4\n        /* \"#utility.yul\":11452:11516   */\n      sstore\n        /* \"#utility.yul\":11374:11530   */\n      pop\n        /* \"#utility.yul\":11351:11530   */\n    tag_244:\n        /* \"#utility.yul\":11576:11577   */\n      0x01\n        /* \"#utility.yul\":11572:11573   */\n      0x02\n        /* \"#utility.yul\":11564:11570   */\n      dup9\n        /* \"#utility.yul\":11560:11574   */\n      mul\n        /* \"#utility.yul\":11556:11578   */\n      add\n        /* \"#utility.yul\":11550:11554   */\n      dup9\n        /* \"#utility.yul\":11543:11579   */\n      sstore\n        /* \"#utility.yul\":10978:11589   */\n      pop\n      pop\n      pop\n        /* \"#utility.yul\":10941:11828   */\n    tag_236:\n      pop\n        /* \"#utility.yul\":10531:11834   */\n      pop\n      pop\n      pop\n        /* \"#utility.yul\":10439:11834   */\n      pop\n      pop\n      jump\t// out\n        /* \"#utility.yul\":11840:12020   */\n    tag_105:\n        /* \"#utility.yul\":11888:11965   */\n      0x4e487b7100000000000000000000000000000000000000000000000000000000\n        /* \"#utility.yul\":11885:11886   */\n      0x00\n        /* \"#utility.yul\":11878:11966   */\n      mstore\n        /* \"#utility.yul\":11985:11989   */\n      0x11\n        /* \"#utility.yul\":11982:11983   */\n      0x04\n        /* \"#utility.yul\":11975:11990   */\n      mstore\n        /* \"#utility.yul\":12009:12013   */\n      0x24\n        /* \"#utility.yul\":12006:12007   */\n      0x00\n        /* \"#utility.yul\":11999:12014   */\n      revert\n        /* \"#utility.yul\":12026:12220   */\n    tag_52:\n        /* \"#utility.yul\":12066:12070   */\n      0x00\n        /* \"#utility.yul\":12086:12106   */\n      tag_248\n        /* \"#utility.yul\":12104:12105   */\n      dup3\n        /* \"#utility.yul\":12086:12106   */\n      tag_85\n      jump\t// in\n    tag_248:\n        /* \"#utility.yul\":12081:12106   */\n      swap2\n      pop\n        /* \"#utility.yul\":12120:12140   */\n      tag_249\n        /* \"#utility.yul\":12138:12139   */\n      dup4\n        /* \"#utility.yul\":12120:12140   */\n      tag_85\n      jump\t// in\n    tag_249:\n        /* \"#utility.yul\":12115:12140   */\n      swap3\n      pop\n        /* \"#utility.yul\":12164:12165   */\n      dup3\n        /* \"#utility.yul\":12161:12162   */\n      dup3\n        /* \"#utility.yul\":12157:12166   */\n      sub\n        /* \"#utility.yul\":12149:12166   */\n      swap1\n      pop\n        /* \"#utility.yul\":12188:12189   */\n      dup2\n        /* \"#utility.yul\":12182:12186   */\n      dup2\n        /* \"#utility.yul\":12179:12190   */\n      gt\n        /* \"#utility.yul\":12176:12213   */\n      iszero\n      tag_250\n      jumpi\n        /* \"#utility.yul\":12193:12211   */\n      tag_251\n      tag_105\n      jump\t// in\n    tag_251:\n        /* \"#utility.yul\":12176:12213   */\n    tag_250:\n        /* \"#utility.yul\":12026:12220   */\n      swap3\n      swap2\n      pop\n      pop\n      jump\t// out\n        /* \"#utility.yul\":12226:12636   */\n    tag_58:\n        /* \"#utility.yul\":12266:12273   */\n      0x00\n        /* \"#utility.yul\":12289:12309   */\n      tag_253\n        /* \"#utility.yul\":12307:12308   */\n      dup3\n        /* \"#utility.yul\":12289:12309   */\n      tag_85\n      jump\t// in\n    tag_253:\n        /* \"#utility.yul\":12284:12309   */\n      swap2\n      pop\n        /* \"#utility.yul\":12323:12343   */\n      tag_254\n        /* \"#utility.yul\":12341:12342   */\n      dup4\n        /* \"#utility.yul\":12323:12343   */\n      tag_85\n      jump\t// in\n    tag_254:\n        /* \"#utility.yul\":12318:12343   */\n      swap3\n      pop\n        /* \"#utility.yul\":12378:12379   */\n      dup3\n        /* \"#utility.yul\":12375:12376   */\n      dup3\n        /* \"#utility.yul\":12371:12380   */\n      mul\n        /* \"#utility.yul\":12400:12430   */\n      tag_255\n        /* \"#utility.yul\":12418:12429   */\n      dup2\n        /* \"#utility.yul\":12400:12430   */\n      tag_85\n      jump\t// in\n    tag_255:\n        /* \"#utility.yul\":12389:12430   */\n      swap2\n      pop\n        /* \"#utility.yul\":12579:12580   */\n      dup3\n        /* \"#utility.yul\":12570:12577   */\n      dup3\n        /* \"#utility.yul\":12566:12581   */\n      div\n        /* \"#utility.yul\":12563:12564   */\n      dup5\n        /* \"#utility.yul\":12560:12582   */\n      eq\n        /* \"#utility.yul\":12540:12541   */\n      dup4\n        /* \"#utility.yul\":12533:12542   */\n      iszero\n        /* \"#utility.yul\":12513:12596   */\n      or\n        /* \"#utility.yul\":12490:12629   */\n      tag_256\n      jumpi\n        /* \"#utility.yul\":12609:12627   */\n      tag_257\n      tag_105\n      jump\t// in\n    tag_257:\n        /* \"#utility.yul\":12490:12629   */\n    tag_256:\n        /* \"#utility.yul\":12274:12636   */\n      pop\n        /* \"#utility.yul\":12226:12636   */\n      swap3\n      swap2\n      pop\n      pop\n      jump\t// out\n\n    auxdata: 0xa2646970667358221220b6792d3bbe9d93fc06c24402f5a852487660c99c10319e1a1bf48aceb1f1821264736f6c634300081c0033\n}\n",
				"bytecode": {
					"linkReferences": {},
					"object": "6080604052348015600e575f5ffd5b50610af18061001c5f395ff3fe608060405260043610610054575f3560e01c806302c7e7af146100585780633b0c197e1461008257806382497e61146100ad5780638da5cb5b146100d5578063c0c6da47146100ff578063d1f3bf1d14610109575b5f5ffd5b348015610063575f5ffd5b5061006c610145565b60405161007991906103dc565b60405180910390f35b34801561008d575f5ffd5b50610096610158565b6040516100a4929190610481565b60405180910390f35b3480156100b8575f5ffd5b506100d360048036038101906100ce9190610616565b6101fe565b005b3480156100e0575f5ffd5b506100e9610288565b6040516100f691906106af565b60405180910390f35b6101076102ae565b005b348015610114575f5ffd5b5061012f600480360381019061012a91906106fb565b6103a6565b60405161013c9190610735565b60405180910390f35b600160169054906101000a900460ff1681565b60605f5f60015f9054906101000a900461ffff168180546101789061077b565b80601f01602080910402602001604051908101604052809291908181526020018280546101a49061077b565b80156101ef5780601f106101c6576101008083540402835291602001916101ef565b820191905f5260205f20905b8154815290600101906020018083116101d257829003601f168201915b50505050509150915091509091565b815f908161020c919061094b565b508060015f6101000a81548161ffff021916908361ffff16021790555033600160026101000a81548173ffffffffffffffffffffffffffffffffffffffff021916908373ffffffffffffffffffffffffffffffffffffffff1602179055505f600160166101000a81548160ff0219169083151502179055505050565b600160029054906101000a900473ffffffffffffffffffffffffffffffffffffffff1681565b6102ca60015f9054906101000a900461ffff1661ffff166103a6565b34106103a4575f6102ed60015f9054906101000a900461ffff1661ffff166103a6565b346102f89190610a47565b90505f811115610347573373ffffffffffffffffffffffffffffffffffffffff166108fc8290811502906040515f60405180830381858888f19350505050158015610345573d5f5f3e3d5ffd5b505b33600160026101000a81548173ffffffffffffffffffffffffffffffffffffffff021916908373ffffffffffffffffffffffffffffffffffffffff16021790555060018060166101000a81548160ff021916908315150217905550505b565b5f670de0b6b3a7640000826103bb9190610a7a565b9050919050565b5f8115159050919050565b6103d6816103c2565b82525050565b5f6020820190506103ef5f8301846103cd565b92915050565b5f81519050919050565b5f82825260208201905092915050565b8281835e5f83830152505050565b5f601f19601f8301169050919050565b5f610437826103f5565b61044181856103ff565b935061045181856020860161040f565b61045a8161041d565b840191505092915050565b5f61ffff82169050919050565b61047b81610465565b82525050565b5f6040820190508181035f830152610499818561042d565b90506104a86020830184610472565b9392505050565b5f604051905090565b5f5ffd5b5f5ffd5b5f5ffd5b5f5ffd5b7f4e487b71000000000000000000000000000000000000000000000000000000005f52604160045260245ffd5b6104fe8261041d565b810181811067ffffffffffffffff8211171561051d5761051c6104c8565b5b80604052505050565b5f61052f6104af565b905061053b82826104f5565b919050565b5f67ffffffffffffffff82111561055a576105596104c8565b5b6105638261041d565b9050602081019050919050565b828183375f83830152505050565b5f61059061058b84610540565b610526565b9050828152602081018484840111156105ac576105ab6104c4565b5b6105b7848285610570565b509392505050565b5f82601f8301126105d3576105d26104c0565b5b81356105e384826020860161057e565b91505092915050565b6105f581610465565b81146105ff575f5ffd5b50565b5f81359050610610816105ec565b92915050565b5f5f6040838503121561062c5761062b6104b8565b5b5f83013567ffffffffffffffff811115610649576106486104bc565b5b610655858286016105bf565b925050602061066685828601610602565b9150509250929050565b5f73ffffffffffffffffffffffffffffffffffffffff82169050919050565b5f61069982610670565b9050919050565b6106a98161068f565b82525050565b5f6020820190506106c25f8301846106a0565b92915050565b5f819050919050565b6106da816106c8565b81146106e4575f5ffd5b50565b5f813590506106f5816106d1565b92915050565b5f602082840312156107105761070f6104b8565b5b5f61071d848285016106e7565b91505092915050565b61072f816106c8565b82525050565b5f6020820190506107485f830184610726565b92915050565b7f4e487b71000000000000000000000000000000000000000000000000000000005f52602260045260245ffd5b5f600282049050600182168061079257607f821691505b6020821081036107a5576107a461074e565b5b50919050565b5f819050815f5260205f209050919050565b5f6020601f8301049050919050565b5f82821b905092915050565b5f600883026108077fffffffffffffffffffffffffffffffffffffffffffffffffffffffffffffffff826107cc565b61081186836107cc565b95508019841693508086168417925050509392505050565b5f819050919050565b5f61084c610847610842846106c8565b610829565b6106c8565b9050919050565b5f819050919050565b61086583610832565b61087961087182610853565b8484546107d8565b825550505050565b5f5f905090565b610890610881565b61089b81848461085c565b505050565b5b818110156108be576108b35f82610888565b6001810190506108a1565b5050565b601f821115610903576108d4816107ab565b6108dd846107bd565b810160208510156108ec578190505b6109006108f8856107bd565b8301826108a0565b50505b505050565b5f82821c905092915050565b5f6109235f1984600802610908565b1980831691505092915050565b5f61093b8383610914565b9150826002028217905092915050565b610954826103f5565b67ffffffffffffffff81111561096d5761096c6104c8565b5b610977825461077b565b6109828282856108c2565b5f60209050601f8311600181146109b3575f84156109a1578287015190505b6109ab8582610930565b865550610a12565b601f1984166109c1866107ab565b5f5b828110156109e8578489015182556001820191506020850194506020810190506109c3565b86831015610a055784890151610a01601f891682610914565b8355505b6001600288020188555050505b505050505050565b7f4e487b71000000000000000000000000000000000000000000000000000000005f52601160045260245ffd5b5f610a51826106c8565b9150610a5c836106c8565b9250828203905081811115610a7457610a73610a1a565b5b92915050565b5f610a84826106c8565b9150610a8f836106c8565b9250828202610a9d816106c8565b91508282048414831517610ab457610ab3610a1a565b5b509291505056fea2646970667358221220b6792d3bbe9d93fc06c24402f5a852487660c99c10319e1a1bf48aceb1f1821264736f6c634300081c0033",
					"opcodes": "PUSH1 0x80 PUSH1 0x40 MSTORE CALLVALUE DUP1 ISZERO PUSH1 0xE JUMPI PUSH0 PUSH0 REVERT JUMPDEST POP PUSH2 0xAF1 DUP1 PUSH2 0x1C PUSH0 CODECOPY PUSH0 RETURN INVALID PUSH1 0x80 PUSH1 0x40 MSTORE PUSH1 0x4 CALLDATASIZE LT PUSH2 0x54 JUMPI PUSH0 CALLDATALOAD PUSH1 0xE0 SHR DUP1 PUSH4 0x2C7E7AF EQ PUSH2 0x58 JUMPI DUP1 PUSH4 0x3B0C197E EQ PUSH2 0x82 JUMPI DUP1 PUSH4 0x82497E61 EQ PUSH2 0xAD JUMPI DUP1 PUSH4 0x8DA5CB5B EQ PUSH2 0xD5 JUMPI DUP1 PUSH4 0xC0C6DA47 EQ PUSH2 0xFF JUMPI DUP1 PUSH4 0xD1F3BF1D EQ PUSH2 0x109 JUMPI JUMPDEST PUSH0 PUSH0 REVERT JUMPDEST CALLVALUE DUP1 ISZERO PUSH2 0x63 JUMPI PUSH0 PUSH0 REVERT JUMPDEST POP PUSH2 0x6C PUSH2 0x145 JUMP JUMPDEST PUSH1 0x40 MLOAD PUSH2 0x79 SWAP2 SWAP1 PUSH2 0x3DC JUMP JUMPDEST PUSH1 0x40 MLOAD DUP1 SWAP2 SUB SWAP1 RETURN JUMPDEST CALLVALUE DUP1 ISZERO PUSH2 0x8D JUMPI PUSH0 PUSH0 REVERT JUMPDEST POP PUSH2 0x96 PUSH2 0x158 JUMP JUMPDEST PUSH1 0x40 MLOAD PUSH2 0xA4 SWAP3 SWAP2 SWAP1 PUSH2 0x481 JUMP JUMPDEST PUSH1 0x40 MLOAD DUP1 SWAP2 SUB SWAP1 RETURN JUMPDEST CALLVALUE DUP1 ISZERO PUSH2 0xB8 JUMPI PUSH0 PUSH0 REVERT JUMPDEST POP PUSH2 0xD3 PUSH1 0x4 DUP1 CALLDATASIZE SUB DUP2 ADD SWAP1 PUSH2 0xCE SWAP2 SWAP1 PUSH2 0x616 JUMP JUMPDEST PUSH2 0x1FE JUMP JUMPDEST STOP JUMPDEST CALLVALUE DUP1 ISZERO PUSH2 0xE0 JUMPI PUSH0 PUSH0 REVERT JUMPDEST POP PUSH2 0xE9 PUSH2 0x288 JUMP JUMPDEST PUSH1 0x40 MLOAD PUSH2 0xF6 SWAP2 SWAP1 PUSH2 0x6AF JUMP JUMPDEST PUSH1 0x40 MLOAD DUP1 SWAP2 SUB SWAP1 RETURN JUMPDEST PUSH2 0x107 PUSH2 0x2AE JUMP JUMPDEST STOP JUMPDEST CALLVALUE DUP1 ISZERO PUSH2 0x114 JUMPI PUSH0 PUSH0 REVERT JUMPDEST POP PUSH2 0x12F PUSH1 0x4 DUP1 CALLDATASIZE SUB DUP2 ADD SWAP1 PUSH2 0x12A SWAP2 SWAP1 PUSH2 0x6FB JUMP JUMPDEST PUSH2 0x3A6 JUMP JUMPDEST PUSH1 0x40 MLOAD PUSH2 0x13C SWAP2 SWAP1 PUSH2 0x735 JUMP JUMPDEST PUSH1 0x40 MLOAD DUP1 SWAP2 SUB SWAP1 RETURN JUMPDEST PUSH1 0x1 PUSH1 0x16 SWAP1 SLOAD SWAP1 PUSH2 0x100 EXP SWAP1 DIV PUSH1 0xFF AND DUP2 JUMP JUMPDEST PUSH1 0x60 PUSH0 PUSH0 PUSH1 0x1 PUSH0 SWAP1 SLOAD SWAP1 PUSH2 0x100 EXP SWAP1 DIV PUSH2 0xFFFF AND DUP2 DUP1 SLOAD PUSH2 0x178 SWAP1 PUSH2 0x77B JUMP JUMPDEST DUP1 PUSH1 0x1F ADD PUSH1 0x20 DUP1 SWAP2 DIV MUL PUSH1 0x20 ADD PUSH1 0x40 MLOAD SWAP1 DUP2 ADD PUSH1 0x40 MSTORE DUP1 SWAP3 SWAP2 SWAP1 DUP2 DUP2 MSTORE PUSH1 0x20 ADD DUP3 DUP1 SLOAD PUSH2 0x1A4 SWAP1 PUSH2 0x77B JUMP JUMPDEST DUP1 ISZERO PUSH2 0x1EF JUMPI DUP1 PUSH1 0x1F LT PUSH2 0x1C6 JUMPI PUSH2 0x100 DUP1 DUP4 SLOAD DIV MUL DUP4 MSTORE SWAP2 PUSH1 0x20 ADD SWAP2 PUSH2 0x1EF JUMP JUMPDEST DUP3 ADD SWAP2 SWAP1 PUSH0 MSTORE PUSH1 0x20 PUSH0 KECCAK256 SWAP1 JUMPDEST DUP2 SLOAD DUP2 MSTORE SWAP1 PUSH1 0x1 ADD SWAP1 PUSH1 0x20 ADD DUP1 DUP4 GT PUSH2 0x1D2 JUMPI DUP3 SWAP1 SUB PUSH1 0x1F AND DUP3 ADD SWAP2 JUMPDEST POP POP POP POP POP SWAP2 POP SWAP2 POP SWAP2 POP SWAP1 SWAP2 JUMP JUMPDEST DUP2 PUSH0 SWAP1 DUP2 PUSH2 0x20C SWAP2 SWAP1 PUSH2 0x94B JUMP JUMPDEST POP DUP1 PUSH1 0x1 PUSH0 PUSH2 0x100 EXP DUP2 SLOAD DUP2 PUSH2 0xFFFF MUL NOT AND SWAP1 DUP4 PUSH2 0xFFFF AND MUL OR SWAP1 SSTORE POP CALLER PUSH1 0x1 PUSH1 0x2 PUSH2 0x100 EXP DUP2 SLOAD DUP2 PUSH20 0xFFFFFFFFFFFFFFFFFFFFFFFFFFFFFFFFFFFFFFFF MUL NOT AND SWAP1 DUP4 PUSH20 0xFFFFFFFFFFFFFFFFFFFFFFFFFFFFFFFFFFFFFFFF AND MUL OR SWAP1 SSTORE POP PUSH0 PUSH1 0x1 PUSH1 0x16 PUSH2 0x100 EXP DUP2 SLOAD DUP2 PUSH1 0xFF MUL NOT AND SWAP1 DUP4 ISZERO ISZERO MUL OR SWAP1 SSTORE POP POP POP JUMP JUMPDEST PUSH1 0x1 PUSH1 0x2 SWAP1 SLOAD SWAP1 PUSH2 0x100 EXP SWAP1 DIV PUSH20 0xFFFFFFFFFFFFFFFFFFFFFFFFFFFFFFFFFFFFFFFF AND DUP2 JUMP JUMPDEST PUSH2 0x2CA PUSH1 0x1 PUSH0 SWAP1 SLOAD SWAP1 PUSH2 0x100 EXP SWAP1 DIV PUSH2 0xFFFF AND PUSH2 0xFFFF AND PUSH2 0x3A6 JUMP JUMPDEST CALLVALUE LT PUSH2 0x3A4 JUMPI PUSH0 PUSH2 0x2ED PUSH1 0x1 PUSH0 SWAP1 SLOAD SWAP1 PUSH2 0x100 EXP SWAP1 DIV PUSH2 0xFFFF AND PUSH2 0xFFFF AND PUSH2 0x3A6 JUMP JUMPDEST CALLVALUE PUSH2 0x2F8 SWAP2 SWAP1 PUSH2 0xA47 JUMP JUMPDEST SWAP1 POP PUSH0 DUP2 GT ISZERO PUSH2 0x347 JUMPI CALLER PUSH20 0xFFFFFFFFFFFFFFFFFFFFFFFFFFFFFFFFFFFFFFFF AND PUSH2 0x8FC DUP3 SWAP1 DUP2 ISZERO MUL SWAP1 PUSH1 0x40 MLOAD PUSH0 PUSH1 0x40 MLOAD DUP1 DUP4 SUB DUP2 DUP6 DUP9 DUP9 CALL SWAP4 POP POP POP POP ISZERO DUP1 ISZERO PUSH2 0x345 JUMPI RETURNDATASIZE PUSH0 PUSH0 RETURNDATACOPY RETURNDATASIZE PUSH0 REVERT JUMPDEST POP JUMPDEST CALLER PUSH1 0x1 PUSH1 0x2 PUSH2 0x100 EXP DUP2 SLOAD DUP2 PUSH20 0xFFFFFFFFFFFFFFFFFFFFFFFFFFFFFFFFFFFFFFFF MUL NOT AND SWAP1 DUP4 PUSH20 0xFFFFFFFFFFFFFFFFFFFFFFFFFFFFFFFFFFFFFFFF AND MUL OR SWAP1 SSTORE POP PUSH1 0x1 DUP1 PUSH1 0x16 PUSH2 0x100 EXP DUP2 SLOAD DUP2 PUSH1 0xFF MUL NOT AND SWAP1 DUP4 ISZERO ISZERO MUL OR SWAP1 SSTORE POP POP JUMPDEST JUMP JUMPDEST PUSH0 PUSH8 0xDE0B6B3A7640000 DUP3 PUSH2 0x3BB SWAP2 SWAP1 PUSH2 0xA7A JUMP JUMPDEST SWAP1 POP SWAP2 SWAP1 POP JUMP JUMPDEST PUSH0 DUP2 ISZERO ISZERO SWAP1 POP SWAP2 SWAP1 POP JUMP JUMPDEST PUSH2 0x3D6 DUP2 PUSH2 0x3C2 JUMP JUMPDEST DUP3 MSTORE POP POP JUMP JUMPDEST PUSH0 PUSH1 0x20 DUP3 ADD SWAP1 POP PUSH2 0x3EF PUSH0 DUP4 ADD DUP5 PUSH2 0x3CD JUMP JUMPDEST SWAP3 SWAP2 POP POP JUMP JUMPDEST PUSH0 DUP2 MLOAD SWAP1 POP SWAP2 SWAP1 POP JUMP JUMPDEST PUSH0 DUP3 DUP3 MSTORE PUSH1 0x20 DUP3 ADD SWAP1 POP SWAP3 SWAP2 POP POP JUMP JUMPDEST DUP3 DUP2 DUP4 MCOPY PUSH0 DUP4 DUP4 ADD MSTORE POP POP POP JUMP JUMPDEST PUSH0 PUSH1 0x1F NOT PUSH1 0x1F DUP4 ADD AND SWAP1 POP SWAP2 SWAP1 POP JUMP JUMPDEST PUSH0 PUSH2 0x437 DUP3 PUSH2 0x3F5 JUMP JUMPDEST PUSH2 0x441 DUP2 DUP6 PUSH2 0x3FF JUMP JUMPDEST SWAP4 POP PUSH2 0x451 DUP2 DUP6 PUSH1 0x20 DUP7 ADD PUSH2 0x40F JUMP JUMPDEST PUSH2 0x45A DUP2 PUSH2 0x41D JUMP JUMPDEST DUP5 ADD SWAP2 POP POP SWAP3 SWAP2 POP POP JUMP JUMPDEST PUSH0 PUSH2 0xFFFF DUP3 AND SWAP1 POP SWAP2 SWAP1 POP JUMP JUMPDEST PUSH2 0x47B DUP2 PUSH2 0x465 JUMP JUMPDEST DUP3 MSTORE POP POP JUMP JUMPDEST PUSH0 PUSH1 0x40 DUP3 ADD SWAP1 POP DUP2 DUP2 SUB PUSH0 DUP4 ADD MSTORE PUSH2 0x499 DUP2 DUP6 PUSH2 0x42D JUMP JUMPDEST SWAP1 POP PUSH2 0x4A8 PUSH1 0x20 DUP4 ADD DUP5 PUSH2 0x472 JUMP JUMPDEST SWAP4 SWAP3 POP POP POP JUMP JUMPDEST PUSH0 PUSH1 0x40 MLOAD SWAP1 POP SWAP1 JUMP JUMPDEST PUSH0 PUSH0 REVERT JUMPDEST PUSH0 PUSH0 REVERT JUMPDEST PUSH0 PUSH0 REVERT JUMPDEST PUSH0 PUSH0 REVERT JUMPDEST PUSH32 0x4E487B7100000000000000000000000000000000000000000000000000000000 PUSH0 MSTORE PUSH1 0x41 PUSH1 0x4 MSTORE PUSH1 0x24 PUSH0 REVERT JUMPDEST PUSH2 0x4FE DUP3 PUSH2 0x41D JUMP JUMPDEST DUP2 ADD DUP2 DUP2 LT PUSH8 0xFFFFFFFFFFFFFFFF DUP3 GT OR ISZERO PUSH2 0x51D JUMPI PUSH2 0x51C PUSH2 0x4C8 JUMP JUMPDEST JUMPDEST DUP1 PUSH1 0x40 MSTORE POP POP POP JUMP JUMPDEST PUSH0 PUSH2 0x52F PUSH2 0x4AF JUMP JUMPDEST SWAP1 POP PUSH2 0x53B DUP3 DUP3 PUSH2 0x4F5 JUMP JUMPDEST SWAP2 SWAP1 POP JUMP JUMPDEST PUSH0 PUSH8 0xFFFFFFFFFFFFFFFF DUP3 GT ISZERO PUSH2 0x55A JUMPI PUSH2 0x559 PUSH2 0x4C8 JUMP JUMPDEST JUMPDEST PUSH2 0x563 DUP3 PUSH2 0x41D JUMP JUMPDEST SWAP1 POP PUSH1 0x20 DUP2 ADD SWAP1 POP SWAP2 SWAP1 POP JUMP JUMPDEST DUP3 DUP2 DUP4 CALLDATACOPY PUSH0 DUP4 DUP4 ADD MSTORE POP POP POP JUMP JUMPDEST PUSH0 PUSH2 0x590 PUSH2 0x58B DUP5 PUSH2 0x540 JUMP JUMPDEST PUSH2 0x526 JUMP JUMPDEST SWAP1 POP DUP3 DUP2 MSTORE PUSH1 0x20 DUP2 ADD DUP5 DUP5 DUP5 ADD GT ISZERO PUSH2 0x5AC JUMPI PUSH2 0x5AB PUSH2 0x4C4 JUMP JUMPDEST JUMPDEST PUSH2 0x5B7 DUP5 DUP3 DUP6 PUSH2 0x570 JUMP JUMPDEST POP SWAP4 SWAP3 POP POP POP JUMP JUMPDEST PUSH0 DUP3 PUSH1 0x1F DUP4 ADD SLT PUSH2 0x5D3 JUMPI PUSH2 0x5D2 PUSH2 0x4C0 JUMP JUMPDEST JUMPDEST DUP2 CALLDATALOAD PUSH2 0x5E3 DUP5 DUP3 PUSH1 0x20 DUP7 ADD PUSH2 0x57E JUMP JUMPDEST SWAP2 POP POP SWAP3 SWAP2 POP POP JUMP JUMPDEST PUSH2 0x5F5 DUP2 PUSH2 0x465 JUMP JUMPDEST DUP2 EQ PUSH2 0x5FF JUMPI PUSH0 PUSH0 REVERT JUMPDEST POP JUMP JUMPDEST PUSH0 DUP2 CALLDATALOAD SWAP1 POP PUSH2 0x610 DUP2 PUSH2 0x5EC JUMP JUMPDEST SWAP3 SWAP2 POP POP JUMP JUMPDEST PUSH0 PUSH0 PUSH1 0x40 DUP4 DUP6 SUB SLT ISZERO PUSH2 0x62C JUMPI PUSH2 0x62B PUSH2 0x4B8 JUMP JUMPDEST JUMPDEST PUSH0 DUP4 ADD CALLDATALOAD PUSH8 0xFFFFFFFFFFFFFFFF DUP2 GT ISZERO PUSH2 0x649 JUMPI PUSH2 0x648 PUSH2 0x4BC JUMP JUMPDEST JUMPDEST PUSH2 0x655 DUP6 DUP3 DUP7 ADD PUSH2 0x5BF JUMP JUMPDEST SWAP3 POP POP PUSH1 0x20 PUSH2 0x666 DUP6 DUP3 DUP7 ADD PUSH2 0x602 JUMP JUMPDEST SWAP2 POP POP SWAP3 POP SWAP3 SWAP1 POP JUMP JUMPDEST PUSH0 PUSH20 0xFFFFFFFFFFFFFFFFFFFFFFFFFFFFFFFFFFFFFFFF DUP3 AND SWAP1 POP SWAP2 SWAP1 POP JUMP JUMPDEST PUSH0 PUSH2 0x699 DUP3 PUSH2 0x670 JUMP JUMPDEST SWAP1 POP SWAP2 SWAP1 POP JUMP JUMPDEST PUSH2 0x6A9 DUP2 PUSH2 0x68F JUMP JUMPDEST DUP3 MSTORE POP POP JUMP JUMPDEST PUSH0 PUSH1 0x20 DUP3 ADD SWAP1 POP PUSH2 0x6C2 PUSH0 DUP4 ADD DUP5 PUSH2 0x6A0 JUMP JUMPDEST SWAP3 SWAP2 POP POP JUMP JUMPDEST PUSH0 DUP2 SWAP1 POP SWAP2 SWAP1 POP JUMP JUMPDEST PUSH2 0x6DA DUP2 PUSH2 0x6C8 JUMP JUMPDEST DUP2 EQ PUSH2 0x6E4 JUMPI PUSH0 PUSH0 REVERT JUMPDEST POP JUMP JUMPDEST PUSH0 DUP2 CALLDATALOAD SWAP1 POP PUSH2 0x6F5 DUP2 PUSH2 0x6D1 JUMP JUMPDEST SWAP3 SWAP2 POP POP JUMP JUMPDEST PUSH0 PUSH1 0x20 DUP3 DUP5 SUB SLT ISZERO PUSH2 0x710 JUMPI PUSH2 0x70F PUSH2 0x4B8 JUMP JUMPDEST JUMPDEST PUSH0 PUSH2 0x71D DUP5 DUP3 DUP6 ADD PUSH2 0x6E7 JUMP JUMPDEST SWAP2 POP POP SWAP3 SWAP2 POP POP JUMP JUMPDEST PUSH2 0x72F DUP2 PUSH2 0x6C8 JUMP JUMPDEST DUP3 MSTORE POP POP JUMP JUMPDEST PUSH0 PUSH1 0x20 DUP3 ADD SWAP1 POP PUSH2 0x748 PUSH0 DUP4 ADD DUP5 PUSH2 0x726 JUMP JUMPDEST SWAP3 SWAP2 POP POP JUMP JUMPDEST PUSH32 0x4E487B7100000000000000000000000000000000000000000000000000000000 PUSH0 MSTORE PUSH1 0x22 PUSH1 0x4 MSTORE PUSH1 0x24 PUSH0 REVERT JUMPDEST PUSH0 PUSH1 0x2 DUP3 DIV SWAP1 POP PUSH1 0x1 DUP3 AND DUP1 PUSH2 0x792 JUMPI PUSH1 0x7F DUP3 AND SWAP2 POP JUMPDEST PUSH1 0x20 DUP3 LT DUP2 SUB PUSH2 0x7A5 JUMPI PUSH2 0x7A4 PUSH2 0x74E JUMP JUMPDEST JUMPDEST POP SWAP2 SWAP1 POP JUMP JUMPDEST PUSH0 DUP2 SWAP1 POP DUP2 PUSH0 MSTORE PUSH1 0x20 PUSH0 KECCAK256 SWAP1 POP SWAP2 SWAP1 POP JUMP JUMPDEST PUSH0 PUSH1 0x20 PUSH1 0x1F DUP4 ADD DIV SWAP1 POP SWAP2 SWAP1 POP JUMP JUMPDEST PUSH0 DUP3 DUP3 SHL SWAP1 POP SWAP3 SWAP2 POP POP JUMP JUMPDEST PUSH0 PUSH1 0x8 DUP4 MUL PUSH2 0x807 PUSH32 0xFFFFFFFFFFFFFFFFFFFFFFFFFFFFFFFFFFFFFFFFFFFFFFFFFFFFFFFFFFFFFFFF DUP3 PUSH2 0x7CC JUMP JUMPDEST PUSH2 0x811 DUP7 DUP4 PUSH2 0x7CC JUMP JUMPDEST SWAP6 POP DUP1 NOT DUP5 AND SWAP4 POP DUP1 DUP7 AND DUP5 OR SWAP3 POP POP POP SWAP4 SWAP3 POP POP POP JUMP JUMPDEST PUSH0 DUP2 SWAP1 POP SWAP2 SWAP1 POP JUMP JUMPDEST PUSH0 PUSH2 0x84C PUSH2 0x847 PUSH2 0x842 DUP5 PUSH2 0x6C8 JUMP JUMPDEST PUSH2 0x829 JUMP JUMPDEST PUSH2 0x6C8 JUMP JUMPDEST SWAP1 POP SWAP2 SWAP1 POP JUMP JUMPDEST PUSH0 DUP2 SWAP1 POP SWAP2 SWAP1 POP JUMP JUMPDEST PUSH2 0x865 DUP4 PUSH2 0x832 JUMP JUMPDEST PUSH2 0x879 PUSH2 0x871 DUP3 PUSH2 0x853 JUMP JUMPDEST DUP5 DUP5 SLOAD PUSH2 0x7D8 JUMP JUMPDEST DUP3 SSTORE POP POP POP POP JUMP JUMPDEST PUSH0 PUSH0 SWAP1 POP SWAP1 JUMP JUMPDEST PUSH2 0x890 PUSH2 0x881 JUMP JUMPDEST PUSH2 0x89B DUP2 DUP5 DUP5 PUSH2 0x85C JUMP JUMPDEST POP POP POP JUMP JUMPDEST JUMPDEST DUP2 DUP2 LT ISZERO PUSH2 0x8BE JUMPI PUSH2 0x8B3 PUSH0 DUP3 PUSH2 0x888 JUMP JUMPDEST PUSH1 0x1 DUP2 ADD SWAP1 POP PUSH2 0x8A1 JUMP JUMPDEST POP POP JUMP JUMPDEST PUSH1 0x1F DUP3 GT ISZERO PUSH2 0x903 JUMPI PUSH2 0x8D4 DUP2 PUSH2 0x7AB JUMP JUMPDEST PUSH2 0x8DD DUP5 PUSH2 0x7BD JUMP JUMPDEST DUP2 ADD PUSH1 0x20 DUP6 LT ISZERO PUSH2 0x8EC JUMPI DUP2 SWAP1 POP JUMPDEST PUSH2 0x900 PUSH2 0x8F8 DUP6 PUSH2 0x7BD JUMP JUMPDEST DUP4 ADD DUP3 PUSH2 0x8A0 JUMP JUMPDEST POP POP JUMPDEST POP POP POP JUMP JUMPDEST PUSH0 DUP3 DUP3 SHR SWAP1 POP SWAP3 SWAP2 POP POP JUMP JUMPDEST PUSH0 PUSH2 0x923 PUSH0 NOT DUP5 PUSH1 0x8 MUL PUSH2 0x908 JUMP JUMPDEST NOT DUP1 DUP4 AND SWAP2 POP POP SWAP3 SWAP2 POP POP JUMP JUMPDEST PUSH0 PUSH2 0x93B DUP4 DUP4 PUSH2 0x914 JUMP JUMPDEST SWAP2 POP DUP3 PUSH1 0x2 MUL DUP3 OR SWAP1 POP SWAP3 SWAP2 POP POP JUMP JUMPDEST PUSH2 0x954 DUP3 PUSH2 0x3F5 JUMP JUMPDEST PUSH8 0xFFFFFFFFFFFFFFFF DUP2 GT ISZERO PUSH2 0x96D JUMPI PUSH2 0x96C PUSH2 0x4C8 JUMP JUMPDEST JUMPDEST PUSH2 0x977 DUP3 SLOAD PUSH2 0x77B JUMP JUMPDEST PUSH2 0x982 DUP3 DUP3 DUP6 PUSH2 0x8C2 JUMP JUMPDEST PUSH0 PUSH1 0x20 SWAP1 POP PUSH1 0x1F DUP4 GT PUSH1 0x1 DUP2 EQ PUSH2 0x9B3 JUMPI PUSH0 DUP5 ISZERO PUSH2 0x9A1 JUMPI DUP3 DUP8 ADD MLOAD SWAP1 POP JUMPDEST PUSH2 0x9AB DUP6 DUP3 PUSH2 0x930 JUMP JUMPDEST DUP7 SSTORE POP PUSH2 0xA12 JUMP JUMPDEST PUSH1 0x1F NOT DUP5 AND PUSH2 0x9C1 DUP7 PUSH2 0x7AB JUMP JUMPDEST PUSH0 JUMPDEST DUP3 DUP2 LT ISZERO PUSH2 0x9E8 JUMPI DUP5 DUP10 ADD MLOAD DUP3 SSTORE PUSH1 0x1 DUP3 ADD SWAP2 POP PUSH1 0x20 DUP6 ADD SWAP5 POP PUSH1 0x20 DUP2 ADD SWAP1 POP PUSH2 0x9C3 JUMP JUMPDEST DUP7 DUP4 LT ISZERO PUSH2 0xA05 JUMPI DUP5 DUP10 ADD MLOAD PUSH2 0xA01 PUSH1 0x1F DUP10 AND DUP3 PUSH2 0x914 JUMP JUMPDEST DUP4 SSTORE POP JUMPDEST PUSH1 0x1 PUSH1 0x2 DUP9 MUL ADD DUP9 SSTORE POP POP POP JUMPDEST POP POP POP POP POP POP JUMP JUMPDEST PUSH32 0x4E487B7100000000000000000000000000000000000000000000000000000000 PUSH0 MSTORE PUSH1 0x11 PUSH1 0x4 MSTORE PUSH1 0x24 PUSH0 REVERT JUMPDEST PUSH0 PUSH2 0xA51 DUP3 PUSH2 0x6C8 JUMP JUMPDEST SWAP2 POP PUSH2 0xA5C DUP4 PUSH2 0x6C8 JUMP JUMPDEST SWAP3 POP DUP3 DUP3 SUB SWAP1 POP DUP2 DUP2 GT ISZERO PUSH2 0xA74 JUMPI PUSH2 0xA73 PUSH2 0xA1A JUMP JUMPDEST JUMPDEST SWAP3 SWAP2 POP POP JUMP JUMPDEST PUSH0 PUSH2 0xA84 DUP3 PUSH2 0x6C8 JUMP JUMPDEST SWAP2 POP PUSH2 0xA8F DUP4 PUSH2 0x6C8 JUMP JUMPDEST SWAP3 POP DUP3 DUP3 MUL PUSH2 0xA9D DUP2 PUSH2 0x6C8 JUMP JUMPDEST SWAP2 POP DUP3 DUP3 DIV DUP5 EQ DUP4 ISZERO OR PUSH2 0xAB4 JUMPI PUSH2 0xAB3 PUSH2 0xA1A JUMP JUMPDEST JUMPDEST POP SWAP3 SWAP2 POP POP JUMP INVALID LOG2 PUSH5 0x6970667358 0x22 SLT KECCAK256 0xB6 PUSH26 0x2D3BBE9D93FC06C24402F5A852487660C99C10319E1A1BF48ACE 0xB1 CALL DUP3 SLT PUSH5 0x736F6C6343 STOP ADDMOD SHR STOP CALLER "
				},
				"gasEstimates": {
					"creation": {
						"codeDepositCost": "560200",
						"executionCost": "592",
						"totalCost": "560792"
					},
					"external": {
						"BuyBook()": "infinite",
						"ethTowei(uint256)": "infinite",
						"getBook()": "infinite",
						"owner()": "2603",
						"setBook(string,uint16)": "infinite",
						"sold()": "2495"
					}
				},
				"methodIdentifiers": {
					"BuyBook()": "c0c6da47",
					"ethTowei(uint256)": "d1f3bf1d",
					"getBook()": "3b0c197e",
					"owner()": "8da5cb5b",
					"setBook(string,uint16)": "82497e61",
					"sold()": "02c7e7af"
				}
			},
			"storageLayout": {
				"storage": [
					{
						"astId": 3,
						"contract": "MyBook.sol:MyBook",
						"label": "title",
						"offset": 0,
						"slot": "0",
						"type": "t_string_storage"
					},
					{
						"astId": 5,
						"contract": "MyBook.sol:MyBook",
						"label": "price",
						"offset": 0,
						"slot": "1",
						"type": "t_uint16"
					},
					{
						"astId": 7,
						"contract": "MyBook.sol:MyBook",
						"label": "owner",
						"offset": 2,
						"slot": "1",
						"type": "t_address"
					},
					{
						"astId": 9,
						"contract": "MyBook.sol:MyBook",
						"label": "sold",
						"offset": 22,
						"slot": "1",
						"type": "t_bool"
					}
				],
				"types": {
					"t_address": {
						"encoding": "inplace",
						"label": "address",
						"numberOfBytes": "20"
					},
					"t_bool": {
						"encoding": "inplace",
						"label": "bool",
						"numberOfBytes": "1"
					},
					"t_string_storage": {
						"encoding": "bytes",
						"label": "string",
						"numberOfBytes": "32"
					},
					"t_uint16": {
						"encoding": "inplace",
						"label": "uint16",
						"numberOfBytes": "2"
					}
				}
			},
			"userdoc": {
				"kind": "user",
				"methods": {},
				"version": 1
			}
		}
	}
}