{
	"data": {
		"bytecode": {
			"linkReferences": {},
			"object": "6080604052348015600e575f5ffd5b50610e478061001c5f395ff3fe608060405260043610610049575f3560e01c806305a8da721461004d578063294225551461007a5780633b0c197e146100a2578063c0f24ce2146100cf578063d1f3bf1d146100d9575b5f5ffd5b348015610058575f5ffd5b50610061610115565b60405161007194939291906106e1565b60405180910390f35b348015610085575f5ffd5b506100a0600480360381019061009b91906108bc565b610203565b005b3480156100ad575f5ffd5b506100b66102bc565b6040516100c694939291906106e1565b60405180910390f35b6100d76103b7565b005b3480156100e4575f5ffd5b506100ff60048036038101906100fa919061095b565b6105fa565b60405161010c9190610995565b60405180910390f35b5f805f018054610124906109db565b80601f0160208091040260200160405190810160405280929190818152602001828054610150906109db565b801561019b5780601f106101725761010080835404028352916020019161019b565b820191905f5260205f20905b81548152906001019060200180831161017e57829003601f168201915b505050505090806001015f9054906101000a900461ffff16908060010160029054906101000a900473ffffffffffffffffffffffffffffffffffffffff1690806002015f9054906101000a900473ffffffffffffffffffffffffffffffffffffffff16905084565b825f5f0190816102139190610bab565b50815f6001015f6101000a81548161ffff021916908361ffff160217905550805f6002015f6101000a81548173ffffffffffffffffffffffffffffffffffffffff021916908373ffffffffffffffffffffffffffffffffffffffff1602179055505f5f60010160026101000a81548173ffffffffffffffffffffffffffffffffffffffff021916908373ffffffffffffffffffffffffffffffffffffffff160217905550505050565b60605f5f5f5f5f015f6001015f9054906101000a900461ffff165f60010160029054906101000a900473ffffffffffffffffffffffffffffffffffffffff165f6002015f9054906101000a900473ffffffffffffffffffffffffffffffffffffffff1683805461032b906109db565b80601f0160208091040260200160405190810160405280929190818152602001828054610357906109db565b80156103a25780601f10610379576101008083540402835291602001916103a2565b820191905f5260205f20905b81548152906001019060200180831161038557829003601f168201915b50505050509350935093509350935090919293565b5f6103d65f6001015f9054906101000a900461ffff1661ffff166105fa565b90508034101561045f573373ffffffffffffffffffffffffffffffffffffffff166108fc3490811502906040515f60405180830381858888f19350505050158015610423573d5f5f3e3d5ffd5b506040517f08c379a000000000000000000000000000000000000000000000000000000000815260040161045690610cea565b60405180910390fd5b5f73ffffffffffffffffffffffffffffffffffffffff165f6002015f9054906101000a900473ffffffffffffffffffffffffffffffffffffffff1673ffffffffffffffffffffffffffffffffffffffff16036104f0576040517f08c379a00000000000000000000000000000000000000000000000000000000081526004016104e790610d52565b60405180910390fd5b5f6002015f9054906101000a900473ffffffffffffffffffffffffffffffffffffffff1673ffffffffffffffffffffffffffffffffffffffff166108fc8290811502906040515f60405180830381858888f19350505050158015610556573d5f5f3e3d5ffd5b50335f60010160026101000a81548173ffffffffffffffffffffffffffffffffffffffff021916908373ffffffffffffffffffffffffffffffffffffffff160217905550803411156105f7575f81346105af9190610d9d565b90503373ffffffffffffffffffffffffffffffffffffffff166108fc8290811502906040515f60405180830381858888f193505050501580156105f4573d5f5f3e3d5ffd5b50505b50565b5f670de0b6b3a76400008261060f9190610dd0565b9050919050565b5f81519050919050565b5f82825260208201905092915050565b8281835e5f83830152505050565b5f601f19601f8301169050919050565b5f61065882610616565b6106628185610620565b9350610672818560208601610630565b61067b8161063e565b840191505092915050565b5f61ffff82169050919050565b61069c81610686565b82525050565b5f73ffffffffffffffffffffffffffffffffffffffff82169050919050565b5f6106cb826106a2565b9050919050565b6106db816106c1565b82525050565b5f6080820190508181035f8301526106f9818761064e565b90506107086020830186610693565b61071560408301856106d2565b61072260608301846106d2565b95945050505050565b5f604051905090565b5f5ffd5b5f5ffd5b5f5ffd5b5f5ffd5b7f4e487b71000000000000000000000000000000000000000000000000000000005f52604160045260245ffd5b61077a8261063e565b810181811067ffffffffffffffff8211171561079957610798610744565b5b80604052505050565b5f6107ab61072b565b90506107b78282610771565b919050565b5f67ffffffffffffffff8211156107d6576107d5610744565b5b6107df8261063e565b9050602081019050919050565b828183375f83830152505050565b5f61080c610807846107bc565b6107a2565b90508281526020810184848401111561082857610827610740565b5b6108338482856107ec565b509392505050565b5f82601f83011261084f5761084e61073c565b5b813561085f8482602086016107fa565b91505092915050565b61087181610686565b811461087b575f5ffd5b50565b5f8135905061088c81610868565b92915050565b61089b816106c1565b81146108a5575f5ffd5b50565b5f813590506108b681610892565b92915050565b5f5f5f606084860312156108d3576108d2610734565b5b5f84013567ffffffffffffffff8111156108f0576108ef610738565b5b6108fc8682870161083b565b935050602061090d8682870161087e565b925050604061091e868287016108a8565b9150509250925092565b5f819050919050565b61093a81610928565b8114610944575f5ffd5b50565b5f8135905061095581610931565b92915050565b5f602082840312156109705761096f610734565b5b5f61097d84828501610947565b91505092915050565b61098f81610928565b82525050565b5f6020820190506109a85f830184610986565b92915050565b7f4e487b71000000000000000000000000000000000000000000000000000000005f52602260045260245ffd5b5f60028204905060018216806109f257607f821691505b602082108103610a0557610a046109ae565b5b50919050565b5f819050815f5260205f209050919050565b5f6020601f8301049050919050565b5f82821b905092915050565b5f60088302610a677fffffffffffffffffffffffffffffffffffffffffffffffffffffffffffffffff82610a2c565b610a718683610a2c565b95508019841693508086168417925050509392505050565b5f819050919050565b5f610aac610aa7610aa284610928565b610a89565b610928565b9050919050565b5f819050919050565b610ac583610a92565b610ad9610ad182610ab3565b848454610a38565b825550505050565b5f5f905090565b610af0610ae1565b610afb818484610abc565b505050565b5b81811015610b1e57610b135f82610ae8565b600181019050610b01565b5050565b601f821115610b6357610b3481610a0b565b610b3d84610a1d565b81016020851015610b4c578190505b610b60610b5885610a1d565b830182610b00565b50505b505050565b5f82821c905092915050565b5f610b835f1984600802610b68565b1980831691505092915050565b5f610b9b8383610b74565b9150826002028217905092915050565b610bb482610616565b67ffffffffffffffff811115610bcd57610bcc610744565b5b610bd782546109db565b610be2828285610b22565b5f60209050601f831160018114610c13575f8415610c01578287015190505b610c0b8582610b90565b865550610c72565b601f198416610c2186610a0b565b5f5b82811015610c4857848901518255600182019150602085019450602081019050610c23565b86831015610c655784890151610c61601f891682610b74565b8355505b6001600288020188555050505b505050505050565b7f496e73756666696369656e742066756e64733a20416d6f756e7420726566756e5f8201527f6465640000000000000000000000000000000000000000000000000000000000602082015250565b5f610cd4602383610620565b9150610cdf82610c7a565b604082019050919050565b5f6020820190508181035f830152610d0181610cc8565b9050919050565b7f53656c6c65722061646472657373206973206e6f7420736574000000000000005f82015250565b5f610d3c601983610620565b9150610d4782610d08565b602082019050919050565b5f6020820190508181035f830152610d6981610d30565b9050919050565b7f4e487b71000000000000000000000000000000000000000000000000000000005f52601160045260245ffd5b5f610da782610928565b9150610db283610928565b9250828203905081811115610dca57610dc9610d70565b5b92915050565b5f610dda82610928565b9150610de583610928565b9250828202610df381610928565b91508282048414831517610e0a57610e09610d70565b5b509291505056fea26469706673582212208cc5d06caec2321f5fe998a2f4f667e82709194fb333c412bf48dc787c2e7db964736f6c634300081c0033",
			"opcodes": "PUSH1 0x80 PUSH1 0x40 MSTORE CALLVALUE DUP1 ISZERO PUSH1 0xE JUMPI PUSH0 PUSH0 REVERT JUMPDEST POP PUSH2 0xE47 DUP1 PUSH2 0x1C PUSH0 CODECOPY PUSH0 RETURN INVALID PUSH1 0x80 PUSH1 0x40 MSTORE PUSH1 0x4 CALLDATASIZE LT PUSH2 0x49 JUMPI PUSH0 CALLDATALOAD PUSH1 0xE0 SHR DUP1 PUSH4 0x5A8DA72 EQ PUSH2 0x4D JUMPI DUP1 PUSH4 0x29422555 EQ PUSH2 0x7A JUMPI DUP1 PUSH4 0x3B0C197E EQ PUSH2 0xA2 JUMPI DUP1 PUSH4 0xC0F24CE2 EQ PUSH2 0xCF JUMPI DUP1 PUSH4 0xD1F3BF1D EQ PUSH2 0xD9 JUMPI JUMPDEST PUSH0 PUSH0 REVERT JUMPDEST CALLVALUE DUP1 ISZERO PUSH2 0x58 JUMPI PUSH0 PUSH0 REVERT JUMPDEST POP PUSH2 0x61 PUSH2 0x115 JUMP JUMPDEST PUSH1 0x40 MLOAD PUSH2 0x71 SWAP5 SWAP4 SWAP3 SWAP2 SWAP1 PUSH2 0x6E1 JUMP JUMPDEST PUSH1 0x40 MLOAD DUP1 SWAP2 SUB SWAP1 RETURN JUMPDEST CALLVALUE DUP1 ISZERO PUSH2 0x85 JUMPI PUSH0 PUSH0 REVERT JUMPDEST POP PUSH2 0xA0 PUSH1 0x4 DUP1 CALLDATASIZE SUB DUP2 ADD SWAP1 PUSH2 0x9B SWAP2 SWAP1 PUSH2 0x8BC JUMP JUMPDEST PUSH2 0x203 JUMP JUMPDEST STOP JUMPDEST CALLVALUE DUP1 ISZERO PUSH2 0xAD JUMPI PUSH0 PUSH0 REVERT JUMPDEST POP PUSH2 0xB6 PUSH2 0x2BC JUMP JUMPDEST PUSH1 0x40 MLOAD PUSH2 0xC6 SWAP5 SWAP4 SWAP3 SWAP2 SWAP1 PUSH2 0x6E1 JUMP JUMPDEST PUSH1 0x40 MLOAD DUP1 SWAP2 SUB SWAP1 RETURN JUMPDEST PUSH2 0xD7 PUSH2 0x3B7 JUMP JUMPDEST STOP JUMPDEST CALLVALUE DUP1 ISZERO PUSH2 0xE4 JUMPI PUSH0 PUSH0 REVERT JUMPDEST POP PUSH2 0xFF PUSH1 0x4 DUP1 CALLDATASIZE SUB DUP2 ADD SWAP1 PUSH2 0xFA SWAP2 SWAP1 PUSH2 0x95B JUMP JUMPDEST PUSH2 0x5FA JUMP JUMPDEST PUSH1 0x40 MLOAD PUSH2 0x10C SWAP2 SWAP1 PUSH2 0x995 JUMP JUMPDEST PUSH1 0x40 MLOAD DUP1 SWAP2 SUB SWAP1 RETURN JUMPDEST PUSH0 DUP1 PUSH0 ADD DUP1 SLOAD PUSH2 0x124 SWAP1 PUSH2 0x9DB JUMP JUMPDEST DUP1 PUSH1 0x1F ADD PUSH1 0x20 DUP1 SWAP2 DIV MUL PUSH1 0x20 ADD PUSH1 0x40 MLOAD SWAP1 DUP2 ADD PUSH1 0x40 MSTORE DUP1 SWAP3 SWAP2 SWAP1 DUP2 DUP2 MSTORE PUSH1 0x20 ADD DUP3 DUP1 SLOAD PUSH2 0x150 SWAP1 PUSH2 0x9DB JUMP JUMPDEST DUP1 ISZERO PUSH2 0x19B JUMPI DUP1 PUSH1 0x1F LT PUSH2 0x172 JUMPI PUSH2 0x100 DUP1 DUP4 SLOAD DIV MUL DUP4 MSTORE SWAP2 PUSH1 0x20 ADD SWAP2 PUSH2 0x19B JUMP JUMPDEST DUP3 ADD SWAP2 SWAP1 PUSH0 MSTORE PUSH1 0x20 PUSH0 KECCAK256 SWAP1 JUMPDEST DUP2 SLOAD DUP2 MSTORE SWAP1 PUSH1 0x1 ADD SWAP1 PUSH1 0x20 ADD DUP1 DUP4 GT PUSH2 0x17E JUMPI DUP3 SWAP1 SUB PUSH1 0x1F AND DUP3 ADD SWAP2 JUMPDEST POP POP POP POP POP SWAP1 DUP1 PUSH1 0x1 ADD PUSH0 SWAP1 SLOAD SWAP1 PUSH2 0x100 EXP SWAP1 DIV PUSH2 0xFFFF AND SWAP1 DUP1 PUSH1 0x1 ADD PUSH1 0x2 SWAP1 SLOAD SWAP1 PUSH2 0x100 EXP SWAP1 DIV PUSH20 0xFFFFFFFFFFFFFFFFFFFFFFFFFFFFFFFFFFFFFFFF AND SWAP1 DUP1 PUSH1 0x2 ADD PUSH0 SWAP1 SLOAD SWAP1 PUSH2 0x100 EXP SWAP1 DIV PUSH20 0xFFFFFFFFFFFFFFFFFFFFFFFFFFFFFFFFFFFFFFFF AND SWAP1 POP DUP5 JUMP JUMPDEST DUP3 PUSH0 PUSH0 ADD SWAP1 DUP2 PUSH2 0x213 SWAP2 SWAP1 PUSH2 0xBAB JUMP JUMPDEST POP DUP2 PUSH0 PUSH1 0x1 ADD PUSH0 PUSH2 0x100 EXP DUP2 SLOAD DUP2 PUSH2 0xFFFF MUL NOT AND SWAP1 DUP4 PUSH2 0xFFFF AND MUL OR SWAP1 SSTORE POP DUP1 PUSH0 PUSH1 0x2 ADD PUSH0 PUSH2 0x100 EXP DUP2 SLOAD DUP2 PUSH20 0xFFFFFFFFFFFFFFFFFFFFFFFFFFFFFFFFFFFFFFFF MUL NOT AND SWAP1 DUP4 PUSH20 0xFFFFFFFFFFFFFFFFFFFFFFFFFFFFFFFFFFFFFFFF AND MUL OR SWAP1 SSTORE POP PUSH0 PUSH0 PUSH1 0x1 ADD PUSH1 0x2 PUSH2 0x100 EXP DUP2 SLOAD DUP2 PUSH20 0xFFFFFFFFFFFFFFFFFFFFFFFFFFFFFFFFFFFFFFFF MUL NOT AND SWAP1 DUP4 PUSH20 0xFFFFFFFFFFFFFFFFFFFFFFFFFFFFFFFFFFFFFFFF AND MUL OR SWAP1 SSTORE POP POP POP POP JUMP JUMPDEST PUSH1 0x60 PUSH0 PUSH0 PUSH0 PUSH0 PUSH0 ADD PUSH0 PUSH1 0x1 ADD PUSH0 SWAP1 SLOAD SWAP1 PUSH2 0x100 EXP SWAP1 DIV PUSH2 0xFFFF AND PUSH0 PUSH1 0x1 ADD PUSH1 0x2 SWAP1 SLOAD SWAP1 PUSH2 0x100 EXP SWAP1 DIV PUSH20 0xFFFFFFFFFFFFFFFFFFFFFFFFFFFFFFFFFFFFFFFF AND PUSH0 PUSH1 0x2 ADD PUSH0 SWAP1 SLOAD SWAP1 PUSH2 0x100 EXP SWAP1 DIV PUSH20 0xFFFFFFFFFFFFFFFFFFFFFFFFFFFFFFFFFFFFFFFF AND DUP4 DUP1 SLOAD PUSH2 0x32B SWAP1 PUSH2 0x9DB JUMP JUMPDEST DUP1 PUSH1 0x1F ADD PUSH1 0x20 DUP1 SWAP2 DIV MUL PUSH1 0x20 ADD PUSH1 0x40 MLOAD SWAP1 DUP2 ADD PUSH1 0x40 MSTORE DUP1 SWAP3 SWAP2 SWAP1 DUP2 DUP2 MSTORE PUSH1 0x20 ADD DUP3 DUP1 SLOAD PUSH2 0x357 SWAP1 PUSH2 0x9DB JUMP JUMPDEST DUP1 ISZERO PUSH2 0x3A2 JUMPI DUP1 PUSH1 0x1F LT PUSH2 0x379 JUMPI PUSH2 0x100 DUP1 DUP4 SLOAD DIV MUL DUP4 MSTORE SWAP2 PUSH1 0x20 ADD SWAP2 PUSH2 0x3A2 JUMP JUMPDEST DUP3 ADD SWAP2 SWAP1 PUSH0 MSTORE PUSH1 0x20 PUSH0 KECCAK256 SWAP1 JUMPDEST DUP2 SLOAD DUP2 MSTORE SWAP1 PUSH1 0x1 ADD SWAP1 PUSH1 0x20 ADD DUP1 DUP4 GT PUSH2 0x385 JUMPI DUP3 SWAP1 SUB PUSH1 0x1F AND DUP3 ADD SWAP2 JUMPDEST POP POP POP POP POP SWAP4 POP SWAP4 POP SWAP4 POP SWAP4 POP SWAP4 POP SWAP1 SWAP2 SWAP3 SWAP4 JUMP JUMPDEST PUSH0 PUSH2 0x3D6 PUSH0 PUSH1 0x1 ADD PUSH0 SWAP1 SLOAD SWAP1 PUSH2 0x100 EXP SWAP1 DIV PUSH2 0xFFFF AND PUSH2 0xFFFF AND PUSH2 0x5FA JUMP JUMPDEST SWAP1 POP DUP1 CALLVALUE LT ISZERO PUSH2 0x45F JUMPI CALLER PUSH20 0xFFFFFFFFFFFFFFFFFFFFFFFFFFFFFFFFFFFFFFFF AND PUSH2 0x8FC CALLVALUE SWAP1 DUP2 ISZERO MUL SWAP1 PUSH1 0x40 MLOAD PUSH0 PUSH1 0x40 MLOAD DUP1 DUP4 SUB DUP2 DUP6 DUP9 DUP9 CALL SWAP4 POP POP POP POP ISZERO DUP1 ISZERO PUSH2 0x423 JUMPI RETURNDATASIZE PUSH0 PUSH0 RETURNDATACOPY RETURNDATASIZE PUSH0 REVERT JUMPDEST POP PUSH1 0x40 MLOAD PUSH32 0x8C379A000000000000000000000000000000000000000000000000000000000 DUP2 MSTORE PUSH1 0x4 ADD PUSH2 0x456 SWAP1 PUSH2 0xCEA JUMP JUMPDEST PUSH1 0x40 MLOAD DUP1 SWAP2 SUB SWAP1 REVERT JUMPDEST PUSH0 PUSH20 0xFFFFFFFFFFFFFFFFFFFFFFFFFFFFFFFFFFFFFFFF AND PUSH0 PUSH1 0x2 ADD PUSH0 SWAP1 SLOAD SWAP1 PUSH2 0x100 EXP SWAP1 DIV PUSH20 0xFFFFFFFFFFFFFFFFFFFFFFFFFFFFFFFFFFFFFFFF AND PUSH20 0xFFFFFFFFFFFFFFFFFFFFFFFFFFFFFFFFFFFFFFFF AND SUB PUSH2 0x4F0 JUMPI PUSH1 0x40 MLOAD PUSH32 0x8C379A000000000000000000000000000000000000000000000000000000000 DUP2 MSTORE PUSH1 0x4 ADD PUSH2 0x4E7 SWAP1 PUSH2 0xD52 JUMP JUMPDEST PUSH1 0x40 MLOAD DUP1 SWAP2 SUB SWAP1 REVERT JUMPDEST PUSH0 PUSH1 0x2 ADD PUSH0 SWAP1 SLOAD SWAP1 PUSH2 0x100 EXP SWAP1 DIV PUSH20 0xFFFFFFFFFFFFFFFFFFFFFFFFFFFFFFFFFFFFFFFF AND PUSH20 0xFFFFFFFFFFFFFFFFFFFFFFFFFFFFFFFFFFFFFFFF AND PUSH2 0x8FC DUP3 SWAP1 DUP2 ISZERO MUL SWAP1 PUSH1 0x40 MLOAD PUSH0 PUSH1 0x40 MLOAD DUP1 DUP4 SUB DUP2 DUP6 DUP9 DUP9 CALL SWAP4 POP POP POP POP ISZERO DUP1 ISZERO PUSH2 0x556 JUMPI RETURNDATASIZE PUSH0 PUSH0 RETURNDATACOPY RETURNDATASIZE PUSH0 REVERT JUMPDEST POP CALLER PUSH0 PUSH1 0x1 ADD PUSH1 0x2 PUSH2 0x100 EXP DUP2 SLOAD DUP2 PUSH20 0xFFFFFFFFFFFFFFFFFFFFFFFFFFFFFFFFFFFFFFFF MUL NOT AND SWAP1 DUP4 PUSH20 0xFFFFFFFFFFFFFFFFFFFFFFFFFFFFFFFFFFFFFFFF AND MUL OR SWAP1 SSTORE POP DUP1 CALLVALUE GT ISZERO PUSH2 0x5F7 JUMPI PUSH0 DUP2 CALLVALUE PUSH2 0x5AF SWAP2 SWAP1 PUSH2 0xD9D JUMP JUMPDEST SWAP1 POP CALLER PUSH20 0xFFFFFFFFFFFFFFFFFFFFFFFFFFFFFFFFFFFFFFFF AND PUSH2 0x8FC DUP3 SWAP1 DUP2 ISZERO MUL SWAP1 PUSH1 0x40 MLOAD PUSH0 PUSH1 0x40 MLOAD DUP1 DUP4 SUB DUP2 DUP6 DUP9 DUP9 CALL SWAP4 POP POP POP POP ISZERO DUP1 ISZERO PUSH2 0x5F4 JUMPI RETURNDATASIZE PUSH0 PUSH0 RETURNDATACOPY RETURNDATASIZE PUSH0 REVERT JUMPDEST POP POP JUMPDEST POP JUMP JUMPDEST PUSH0 PUSH8 0xDE0B6B3A7640000 DUP3 PUSH2 0x60F SWAP2 SWAP1 PUSH2 0xDD0 JUMP JUMPDEST SWAP1 POP SWAP2 SWAP1 POP JUMP JUMPDEST PUSH0 DUP2 MLOAD SWAP1 POP SWAP2 SWAP1 POP JUMP JUMPDEST PUSH0 DUP3 DUP3 MSTORE PUSH1 0x20 DUP3 ADD SWAP1 POP SWAP3 SWAP2 POP POP JUMP JUMPDEST DUP3 DUP2 DUP4 MCOPY PUSH0 DUP4 DUP4 ADD MSTORE POP POP POP JUMP JUMPDEST PUSH0 PUSH1 0x1F NOT PUSH1 0x1F DUP4 ADD AND SWAP1 POP SWAP2 SWAP1 POP JUMP JUMPDEST PUSH0 PUSH2 0x658 DUP3 PUSH2 0x616 JUMP JUMPDEST PUSH2 0x662 DUP2 DUP6 PUSH2 0x620 JUMP JUMPDEST SWAP4 POP PUSH2 0x672 DUP2 DUP6 PUSH1 0x20 DUP7 ADD PUSH2 0x630 JUMP JUMPDEST PUSH2 0x67B DUP2 PUSH2 0x63E JUMP JUMPDEST DUP5 ADD SWAP2 POP POP SWAP3 SWAP2 POP POP JUMP JUMPDEST PUSH0 PUSH2 0xFFFF DUP3 AND SWAP1 POP SWAP2 SWAP1 POP JUMP JUMPDEST PUSH2 0x69C DUP2 PUSH2 0x686 JUMP JUMPDEST DUP3 MSTORE POP POP JUMP JUMPDEST PUSH0 PUSH20 0xFFFFFFFFFFFFFFFFFFFFFFFFFFFFFFFFFFFFFFFF DUP3 AND SWAP1 POP SWAP2 SWAP1 POP JUMP JUMPDEST PUSH0 PUSH2 0x6CB DUP3 PUSH2 0x6A2 JUMP JUMPDEST SWAP1 POP SWAP2 SWAP1 POP JUMP JUMPDEST PUSH2 0x6DB DUP2 PUSH2 0x6C1 JUMP JUMPDEST DUP3 MSTORE POP POP JUMP JUMPDEST PUSH0 PUSH1 0x80 DUP3 ADD SWAP1 POP DUP2 DUP2 SUB PUSH0 DUP4 ADD MSTORE PUSH2 0x6F9 DUP2 DUP8 PUSH2 0x64E JUMP JUMPDEST SWAP1 POP PUSH2 0x708 PUSH1 0x20 DUP4 ADD DUP7 PUSH2 0x693 JUMP JUMPDEST PUSH2 0x715 PUSH1 0x40 DUP4 ADD DUP6 PUSH2 0x6D2 JUMP JUMPDEST PUSH2 0x722 PUSH1 0x60 DUP4 ADD DUP5 PUSH2 0x6D2 JUMP JUMPDEST SWAP6 SWAP5 POP POP POP POP POP JUMP JUMPDEST PUSH0 PUSH1 0x40 MLOAD SWAP1 POP SWAP1 JUMP JUMPDEST PUSH0 PUSH0 REVERT JUMPDEST PUSH0 PUSH0 REVERT JUMPDEST PUSH0 PUSH0 REVERT JUMPDEST PUSH0 PUSH0 REVERT JUMPDEST PUSH32 0x4E487B7100000000000000000000000000000000000000000000000000000000 PUSH0 MSTORE PUSH1 0x41 PUSH1 0x4 MSTORE PUSH1 0x24 PUSH0 REVERT JUMPDEST PUSH2 0x77A DUP3 PUSH2 0x63E JUMP JUMPDEST DUP2 ADD DUP2 DUP2 LT PUSH8 0xFFFFFFFFFFFFFFFF DUP3 GT OR ISZERO PUSH2 0x799 JUMPI PUSH2 0x798 PUSH2 0x744 JUMP JUMPDEST JUMPDEST DUP1 PUSH1 0x40 MSTORE POP POP POP JUMP JUMPDEST PUSH0 PUSH2 0x7AB PUSH2 0x72B JUMP JUMPDEST SWAP1 POP PUSH2 0x7B7 DUP3 DUP3 PUSH2 0x771 JUMP JUMPDEST SWAP2 SWAP1 POP JUMP JUMPDEST PUSH0 PUSH8 0xFFFFFFFFFFFFFFFF DUP3 GT ISZERO PUSH2 0x7D6 JUMPI PUSH2 0x7D5 PUSH2 0x744 JUMP JUMPDEST JUMPDEST PUSH2 0x7DF DUP3 PUSH2 0x63E JUMP JUMPDEST SWAP1 POP PUSH1 0x20 DUP2 ADD SWAP1 POP SWAP2 SWAP1 POP JUMP JUMPDEST DUP3 DUP2 DUP4 CALLDATACOPY PUSH0 DUP4 DUP4 ADD MSTORE POP POP POP JUMP JUMPDEST PUSH0 PUSH2 0x80C PUSH2 0x807 DUP5 PUSH2 0x7BC JUMP JUMPDEST PUSH2 0x7A2 JUMP JUMPDEST SWAP1 POP DUP3 DUP2 MSTORE PUSH1 0x20 DUP2 ADD DUP5 DUP5 DUP5 ADD GT ISZERO PUSH2 0x828 JUMPI PUSH2 0x827 PUSH2 0x740 JUMP JUMPDEST JUMPDEST PUSH2 0x833 DUP5 DUP3 DUP6 PUSH2 0x7EC JUMP JUMPDEST POP SWAP4 SWAP3 POP POP POP JUMP JUMPDEST PUSH0 DUP3 PUSH1 0x1F DUP4 ADD SLT PUSH2 0x84F JUMPI PUSH2 0x84E PUSH2 0x73C JUMP JUMPDEST JUMPDEST DUP2 CALLDATALOAD PUSH2 0x85F DUP5 DUP3 PUSH1 0x20 DUP7 ADD PUSH2 0x7FA JUMP JUMPDEST SWAP2 POP POP SWAP3 SWAP2 POP POP JUMP JUMPDEST PUSH2 0x871 DUP2 PUSH2 0x686 JUMP JUMPDEST DUP2 EQ PUSH2 0x87B JUMPI PUSH0 PUSH0 REVERT JUMPDEST POP JUMP JUMPDEST PUSH0 DUP2 CALLDATALOAD SWAP1 POP PUSH2 0x88C DUP2 PUSH2 0x868 JUMP JUMPDEST SWAP3 SWAP2 POP POP JUMP JUMPDEST PUSH2 0x89B DUP2 PUSH2 0x6C1 JUMP JUMPDEST DUP2 EQ PUSH2 0x8A5 JUMPI PUSH0 PUSH0 REVERT JUMPDEST POP JUMP JUMPDEST PUSH0 DUP2 CALLDATALOAD SWAP1 POP PUSH2 0x8B6 DUP2 PUSH2 0x892 JUMP JUMPDEST SWAP3 SWAP2 POP POP JUMP JUMPDEST PUSH0 PUSH0 PUSH0 PUSH1 0x60 DUP5 DUP7 SUB SLT ISZERO PUSH2 0x8D3 JUMPI PUSH2 0x8D2 PUSH2 0x734 JUMP JUMPDEST JUMPDEST PUSH0 DUP5 ADD CALLDATALOAD PUSH8 0xFFFFFFFFFFFFFFFF DUP2 GT ISZERO PUSH2 0x8F0 JUMPI PUSH2 0x8EF PUSH2 0x738 JUMP JUMPDEST JUMPDEST PUSH2 0x8FC DUP7 DUP3 DUP8 ADD PUSH2 0x83B JUMP JUMPDEST SWAP4 POP POP PUSH1 0x20 PUSH2 0x90D DUP7 DUP3 DUP8 ADD PUSH2 0x87E JUMP JUMPDEST SWAP3 POP POP PUSH1 0x40 PUSH2 0x91E DUP7 DUP3 DUP8 ADD PUSH2 0x8A8 JUMP JUMPDEST SWAP2 POP POP SWAP3 POP SWAP3 POP SWAP3 JUMP JUMPDEST PUSH0 DUP2 SWAP1 POP SWAP2 SWAP1 POP JUMP JUMPDEST PUSH2 0x93A DUP2 PUSH2 0x928 JUMP JUMPDEST DUP2 EQ PUSH2 0x944 JUMPI PUSH0 PUSH0 REVERT JUMPDEST POP JUMP JUMPDEST PUSH0 DUP2 CALLDATALOAD SWAP1 POP PUSH2 0x955 DUP2 PUSH2 0x931 JUMP JUMPDEST SWAP3 SWAP2 POP POP JUMP JUMPDEST PUSH0 PUSH1 0x20 DUP3 DUP5 SUB SLT ISZERO PUSH2 0x970 JUMPI PUSH2 0x96F PUSH2 0x734 JUMP JUMPDEST JUMPDEST PUSH0 PUSH2 0x97D DUP5 DUP3 DUP6 ADD PUSH2 0x947 JUMP JUMPDEST SWAP2 POP POP SWAP3 SWAP2 POP POP JUMP JUMPDEST PUSH2 0x98F DUP2 PUSH2 0x928 JUMP JUMPDEST DUP3 MSTORE POP POP JUMP JUMPDEST PUSH0 PUSH1 0x20 DUP3 ADD SWAP1 POP PUSH2 0x9A8 PUSH0 DUP4 ADD DUP5 PUSH2 0x986 JUMP JUMPDEST SWAP3 SWAP2 POP POP JUMP JUMPDEST PUSH32 0x4E487B7100000000000000000000000000000000000000000000000000000000 PUSH0 MSTORE PUSH1 0x22 PUSH1 0x4 MSTORE PUSH1 0x24 PUSH0 REVERT JUMPDEST PUSH0 PUSH1 0x2 DUP3 DIV SWAP1 POP PUSH1 0x1 DUP3 AND DUP1 PUSH2 0x9F2 JUMPI PUSH1 0x7F DUP3 AND SWAP2 POP JUMPDEST PUSH1 0x20 DUP3 LT DUP2 SUB PUSH2 0xA05 JUMPI PUSH2 0xA04 PUSH2 0x9AE JUMP JUMPDEST JUMPDEST POP SWAP2 SWAP1 POP JUMP JUMPDEST PUSH0 DUP2 SWAP1 POP DUP2 PUSH0 MSTORE PUSH1 0x20 PUSH0 KECCAK256 SWAP1 POP SWAP2 SWAP1 POP JUMP JUMPDEST PUSH0 PUSH1 0x20 PUSH1 0x1F DUP4 ADD DIV SWAP1 POP SWAP2 SWAP1 POP JUMP JUMPDEST PUSH0 DUP3 DUP3 SHL SWAP1 POP SWAP3 SWAP2 POP POP JUMP JUMPDEST PUSH0 PUSH1 0x8 DUP4 MUL PUSH2 0xA67 PUSH32 0xFFFFFFFFFFFFFFFFFFFFFFFFFFFFFFFFFFFFFFFFFFFFFFFFFFFFFFFFFFFFFFFF DUP3 PUSH2 0xA2C JUMP JUMPDEST PUSH2 0xA71 DUP7 DUP4 PUSH2 0xA2C JUMP JUMPDEST SWAP6 POP DUP1 NOT DUP5 AND SWAP4 POP DUP1 DUP7 AND DUP5 OR SWAP3 POP POP POP SWAP4 SWAP3 POP POP POP JUMP JUMPDEST PUSH0 DUP2 SWAP1 POP SWAP2 SWAP1 POP JUMP JUMPDEST PUSH0 PUSH2 0xAAC PUSH2 0xAA7 PUSH2 0xAA2 DUP5 PUSH2 0x928 JUMP JUMPDEST PUSH2 0xA89 JUMP JUMPDEST PUSH2 0x928 JUMP JUMPDEST SWAP1 POP SWAP2 SWAP1 POP JUMP JUMPDEST PUSH0 DUP2 SWAP1 POP SWAP2 SWAP1 POP JUMP JUMPDEST PUSH2 0xAC5 DUP4 PUSH2 0xA92 JUMP JUMPDEST PUSH2 0xAD9 PUSH2 0xAD1 DUP3 PUSH2 0xAB3 JUMP JUMPDEST DUP5 DUP5 SLOAD PUSH2 0xA38 JUMP JUMPDEST DUP3 SSTORE POP POP POP POP JUMP JUMPDEST PUSH0 PUSH0 SWAP1 POP SWAP1 JUMP JUMPDEST PUSH2 0xAF0 PUSH2 0xAE1 JUMP JUMPDEST PUSH2 0xAFB DUP2 DUP5 DUP5 PUSH2 0xABC JUMP JUMPDEST POP POP POP JUMP JUMPDEST JUMPDEST DUP2 DUP2 LT ISZERO PUSH2 0xB1E JUMPI PUSH2 0xB13 PUSH0 DUP3 PUSH2 0xAE8 JUMP JUMPDEST PUSH1 0x1 DUP2 ADD SWAP1 POP PUSH2 0xB01 JUMP JUMPDEST POP POP JUMP JUMPDEST PUSH1 0x1F DUP3 GT ISZERO PUSH2 0xB63 JUMPI PUSH2 0xB34 DUP2 PUSH2 0xA0B JUMP JUMPDEST PUSH2 0xB3D DUP5 PUSH2 0xA1D JUMP JUMPDEST DUP2 ADD PUSH1 0x20 DUP6 LT ISZERO PUSH2 0xB4C JUMPI DUP2 SWAP1 POP JUMPDEST PUSH2 0xB60 PUSH2 0xB58 DUP6 PUSH2 0xA1D JUMP JUMPDEST DUP4 ADD DUP3 PUSH2 0xB00 JUMP JUMPDEST POP POP JUMPDEST POP POP POP JUMP JUMPDEST PUSH0 DUP3 DUP3 SHR SWAP1 POP SWAP3 SWAP2 POP POP JUMP JUMPDEST PUSH0 PUSH2 0xB83 PUSH0 NOT DUP5 PUSH1 0x8 MUL PUSH2 0xB68 JUMP JUMPDEST NOT DUP1 DUP4 AND SWAP2 POP POP SWAP3 SWAP2 POP POP JUMP JUMPDEST PUSH0 PUSH2 0xB9B DUP4 DUP4 PUSH2 0xB74 JUMP JUMPDEST SWAP2 POP DUP3 PUSH1 0x2 MUL DUP3 OR SWAP1 POP SWAP3 SWAP2 POP POP JUMP JUMPDEST PUSH2 0xBB4 DUP3 PUSH2 0x616 JUMP JUMPDEST PUSH8 0xFFFFFFFFFFFFFFFF DUP2 GT ISZERO PUSH2 0xBCD JUMPI PUSH2 0xBCC PUSH2 0x744 JUMP JUMPDEST JUMPDEST PUSH2 0xBD7 DUP3 SLOAD PUSH2 0x9DB JUMP JUMPDEST PUSH2 0xBE2 DUP3 DUP3 DUP6 PUSH2 0xB22 JUMP JUMPDEST PUSH0 PUSH1 0x20 SWAP1 POP PUSH1 0x1F DUP4 GT PUSH1 0x1 DUP2 EQ PUSH2 0xC13 JUMPI PUSH0 DUP5 ISZERO PUSH2 0xC01 JUMPI DUP3 DUP8 ADD MLOAD SWAP1 POP JUMPDEST PUSH2 0xC0B DUP6 DUP3 PUSH2 0xB90 JUMP JUMPDEST DUP7 SSTORE POP PUSH2 0xC72 JUMP JUMPDEST PUSH1 0x1F NOT DUP5 AND PUSH2 0xC21 DUP7 PUSH2 0xA0B JUMP JUMPDEST PUSH0 JUMPDEST DUP3 DUP2 LT ISZERO PUSH2 0xC48 JUMPI DUP5 DUP10 ADD MLOAD DUP3 SSTORE PUSH1 0x1 DUP3 ADD SWAP2 POP PUSH1 0x20 DUP6 ADD SWAP5 POP PUSH1 0x20 DUP2 ADD SWAP1 POP PUSH2 0xC23 JUMP JUMPDEST DUP7 DUP4 LT ISZERO PUSH2 0xC65 JUMPI DUP5 DUP10 ADD MLOAD PUSH2 0xC61 PUSH1 0x1F DUP10 AND DUP3 PUSH2 0xB74 JUMP JUMPDEST DUP4 SSTORE POP JUMPDEST PUSH1 0x1 PUSH1 0x2 DUP9 MUL ADD DUP9 SSTORE POP POP POP JUMPDEST POP POP POP POP POP POP JUMP JUMPDEST PUSH32 0x496E73756666696369656E742066756E64733A20416D6F756E7420726566756E PUSH0 DUP3 ADD MSTORE PUSH32 0x6465640000000000000000000000000000000000000000000000000000000000 PUSH1 0x20 DUP3 ADD MSTORE POP JUMP JUMPDEST PUSH0 PUSH2 0xCD4 PUSH1 0x23 DUP4 PUSH2 0x620 JUMP JUMPDEST SWAP2 POP PUSH2 0xCDF DUP3 PUSH2 0xC7A JUMP JUMPDEST PUSH1 0x40 DUP3 ADD SWAP1 POP SWAP2 SWAP1 POP JUMP JUMPDEST PUSH0 PUSH1 0x20 DUP3 ADD SWAP1 POP DUP2 DUP2 SUB PUSH0 DUP4 ADD MSTORE PUSH2 0xD01 DUP2 PUSH2 0xCC8 JUMP JUMPDEST SWAP1 POP SWAP2 SWAP1 POP JUMP JUMPDEST PUSH32 0x53656C6C65722061646472657373206973206E6F742073657400000000000000 PUSH0 DUP3 ADD MSTORE POP JUMP JUMPDEST PUSH0 PUSH2 0xD3C PUSH1 0x19 DUP4 PUSH2 0x620 JUMP JUMPDEST SWAP2 POP PUSH2 0xD47 DUP3 PUSH2 0xD08 JUMP JUMPDEST PUSH1 0x20 DUP3 ADD SWAP1 POP SWAP2 SWAP1 POP JUMP JUMPDEST PUSH0 PUSH1 0x20 DUP3 ADD SWAP1 POP DUP2 DUP2 SUB PUSH0 DUP4 ADD MSTORE PUSH2 0xD69 DUP2 PUSH2 0xD30 JUMP JUMPDEST SWAP1 POP SWAP2 SWAP1 POP JUMP JUMPDEST PUSH32 0x4E487B7100000000000000000000000000000000000000000000000000000000 PUSH0 MSTORE PUSH1 0x11 PUSH1 0x4 MSTORE PUSH1 0x24 PUSH0 REVERT JUMPDEST PUSH0 PUSH2 0xDA7 DUP3 PUSH2 0x928 JUMP JUMPDEST SWAP2 POP PUSH2 0xDB2 DUP4 PUSH2 0x928 JUMP JUMPDEST SWAP3 POP DUP3 DUP3 SUB SWAP1 POP DUP2 DUP2 GT ISZERO PUSH2 0xDCA JUMPI PUSH2 0xDC9 PUSH2 0xD70 JUMP JUMPDEST JUMPDEST SWAP3 SWAP2 POP POP JUMP JUMPDEST PUSH0 PUSH2 0xDDA DUP3 PUSH2 0x928 JUMP JUMPDEST SWAP2 POP PUSH2 0xDE5 DUP4 PUSH2 0x928 JUMP JUMPDEST SWAP3 POP DUP3 DUP3 MUL PUSH2 0xDF3 DUP2 PUSH2 0x928 JUMP JUMPDEST SWAP2 POP DUP3 DUP3 DIV DUP5 EQ DUP4 ISZERO OR PUSH2 0xE0A JUMPI PUSH2 0xE09 PUSH2 0xD70 JUMP JUMPDEST JUMPDEST POP SWAP3 SWAP2 POP POP JUMP INVALID LOG2 PUSH5 0x6970667358 0x22 SLT KECCAK256 DUP13 0xC5 0xD0 PUSH13 0xAEC2321F5FE998A2F4F667E827 MULMOD NOT 0x4F 0xB3 CALLER 0xC4 SLT 0xBF BASEFEE 0xDC PUSH25 0x7C2E7DB964736F6C634300081C003300000000000000000000 "
		},
		"gasEstimates": {
			"creation": {
				"codeDepositCost": "731000",
				"executionCost": "764",
				"totalCost": "731764"
			},
			"external": {
				"book()": "infinite",
				"ethTowei(uint256)": "infinite",
				"getBook()": "infinite",
				"paybook()": "infinite",
				"setBook(string,uint16,address)": "infinite"
			}
		},
		"methodIdentifiers": {
			"book()": "05a8da72",
			"ethTowei(uint256)": "d1f3bf1d",
			"getBook()": "3b0c197e",
			"paybook()": "c0f24ce2",
			"setBook(string,uint16,address)": "29422555"
		}
	},
	"abi": [
		{
			"inputs": [],
			"name": "book",
			"outputs": [
				{
					"internalType": "string",
					"name": "title",
					"type": "string"
				},
				{
					"internalType": "uint16",
					"name": "price",
					"type": "uint16"
				},
				{
					"internalType": "address payable",
					"name": "buyerad",
					"type": "address"
				},
				{
					"internalType": "address payable",
					"name": "sellerad",
					"type": "address"
				}
			],
			"stateMutability": "view",
			"type": "function"
		},
		{
			"inputs": [
				{
					"internalType": "uint256",
					"name": "eval",
					"type": "uint256"
				}
			],
			"name": "ethTowei",
			"outputs": [
				{
					"internalType": "uint256",
					"name": "",
					"type": "uint256"
				}
			],
			"stateMutability": "pure",
			"type": "function"
		},
		{
			"inputs": [],
			"name": "getBook",
			"outputs": [
				{
					"internalType": "string",
					"name": "",
					"type": "string"
				},
				{
					"internalType": "uint16",
					"name": "",
					"type": "uint16"
				},
				{
					"internalType": "address payable",
					"name": "",
					"type": "address"
				},
				{
					"internalType": "address payable",
					"name": "",
					"type": "address"
				}
			],
			"stateMutability": "view",
			"type": "function"
		},
		{
			"inputs": [],
			"name": "paybook",
			"outputs": [],
			"stateMutability": "payable",
			"type": "function"
		},
		{
			"inputs": [
				{
					"internalType": "string",
					"name": "_title",
					"type": "string"
				},
				{
					"internalType": "uint16",
					"name": "_price",
					"type": "uint16"
				},
				{
					"internalType": "address payable",
					"name": "_sellerad",
					"type": "address"
				}
			],
			"name": "setBook",
			"outputs": [],
			"stateMutability": "nonpayable",
			"type": "function"
		}
	]
}