{
	"Activitys/aution.sol": {
		"Auction": {
			"abi": [
				{
					"inputs": [
						{
							"internalType": "uint256",
							"name": "",
							"type": "uint256"
						}
					],
					"name": "bikeauctions",
					"outputs": [
						{
							"internalType": "string",
							"name": "ownername",
							"type": "string"
						},
						{
							"internalType": "string",
							"name": "bike",
							"type": "string"
						},
						{
							"internalType": "uint256",
							"name": "price",
							"type": "uint256"
						},
						{
							"internalType": "address payable",
							"name": "owneraddress",
							"type": "address"
						}
					],
					"stateMutability": "view",
					"type": "function"
				},
				{
					"inputs": [
						{
							"internalType": "uint256",
							"name": "_id",
							"type": "uint256"
						},
						{
							"internalType": "string",
							"name": "_newownername",
							"type": "string"
						}
					],
					"name": "changeowner",
					"outputs": [],
					"stateMutability": "payable",
					"type": "function"
				},
				{
					"inputs": [
						{
							"internalType": "uint256",
							"name": "_id",
							"type": "uint256"
						},
						{
							"internalType": "string",
							"name": "_ownername",
							"type": "string"
						},
						{
							"internalType": "string",
							"name": "_bike",
							"type": "string"
						},
						{
							"internalType": "uint256",
							"name": "_price",
							"type": "uint256"
						}
					],
					"name": "issue",
					"outputs": [],
					"stateMutability": "nonpayable",
					"type": "function"
				}
			],
			"devdoc": {
				"kind": "dev",
				"methods": {},
				"version": 1
			},
			"evm": {
				"assembly": "    /* \"Activitys/aution.sol\":57:1357  contract Auction {... */\n  mstore(0x40, 0x80)\n    /* \"Activitys/aution.sol\":248:258  msg.sender */\n  caller\n    /* \"Activitys/aution.sol\":231:258  address  admin = msg.sender */\n  0x00\n  exp(0x0100, 0x00)\n  dup2\n  sload\n  dup2\n  0xffffffffffffffffffffffffffffffffffffffff\n  mul\n  not\n  and\n  swap1\n  dup4\n  0xffffffffffffffffffffffffffffffffffffffff\n  and\n  mul\n  or\n  swap1\n  sstore\n  pop\n    /* \"Activitys/aution.sol\":57:1357  contract Auction {... */\n  callvalue\n  dup1\n  iszero\n  tag_1\n  jumpi\n  revert(0x00, 0x00)\ntag_1:\n  pop\n  dataSize(sub_0)\n  dup1\n  dataOffset(sub_0)\n  0x00\n  codecopy\n  0x00\n  return\nstop\n\nsub_0: assembly {\n        /* \"Activitys/aution.sol\":57:1357  contract Auction {... */\n      mstore(0x40, 0x80)\n      jumpi(tag_1, lt(calldatasize, 0x04))\n      shr(0xe0, calldataload(0x00))\n      dup1\n      0x01aa64cf\n      eq\n      tag_2\n      jumpi\n      dup1\n      0x78803126\n      eq\n      tag_3\n      jumpi\n      dup1\n      0xe305c0fd\n      eq\n      tag_4\n      jumpi\n    tag_1:\n      revert(0x00, 0x00)\n        /* \"Activitys/aution.sol\":767:1355  function changeowner(... */\n    tag_2:\n      tag_5\n      0x04\n      dup1\n      calldatasize\n      sub\n      dup2\n      add\n      swap1\n      tag_6\n      swap2\n      swap1\n      tag_7\n      jump\t// in\n    tag_6:\n      tag_8\n      jump\t// in\n    tag_5:\n      stop\n        /* \"Activitys/aution.sol\":265:316  mapping(uint256 => bikeauction) public bikeauctions */\n    tag_3:\n      callvalue\n      dup1\n      iszero\n      tag_9\n      jumpi\n      revert(0x00, 0x00)\n    tag_9:\n      pop\n      tag_10\n      0x04\n      dup1\n      calldatasize\n      sub\n      dup2\n      add\n      swap1\n      tag_11\n      swap2\n      swap1\n      tag_12\n      jump\t// in\n    tag_11:\n      tag_13\n      jump\t// in\n    tag_10:\n      mload(0x40)\n      tag_14\n      swap5\n      swap4\n      swap3\n      swap2\n      swap1\n      tag_15\n      jump\t// in\n    tag_14:\n      mload(0x40)\n      dup1\n      swap2\n      sub\n      swap1\n      return\n        /* \"Activitys/aution.sol\":355:725  function issue(... */\n    tag_4:\n      callvalue\n      dup1\n      iszero\n      tag_16\n      jumpi\n      revert(0x00, 0x00)\n    tag_16:\n      pop\n      tag_17\n      0x04\n      dup1\n      calldatasize\n      sub\n      dup2\n      add\n      swap1\n      tag_18\n      swap2\n      swap1\n      tag_19\n      jump\t// in\n    tag_18:\n      tag_20\n      jump\t// in\n    tag_17:\n      stop\n        /* \"Activitys/aution.sol\":767:1355  function changeowner(... */\n    tag_8:\n        /* \"Activitys/aution.sol\":877:904  bikeauction storage auction */\n      0x00\n        /* \"Activitys/aution.sol\":907:919  bikeauctions */\n      0x01\n        /* \"Activitys/aution.sol\":907:924  bikeauctions[_id] */\n      0x00\n        /* \"Activitys/aution.sol\":920:923  _id */\n      dup5\n        /* \"Activitys/aution.sol\":907:924  bikeauctions[_id] */\n      dup2\n      mstore\n      0x20\n      add\n      swap1\n      dup2\n      mstore\n      0x20\n      add\n      0x00\n      keccak256\n        /* \"Activitys/aution.sol\":877:924  bikeauction storage auction = bikeauctions[_id] */\n      swap1\n      pop\n        /* \"Activitys/aution.sol\":955:962  auction */\n      dup1\n        /* \"Activitys/aution.sol\":955:968  auction.price */\n      0x02\n      add\n      sload\n        /* \"Activitys/aution.sol\":943:952  msg.value */\n      callvalue\n        /* \"Activitys/aution.sol\":943:968  msg.value > auction.price */\n      gt\n        /* \"Activitys/aution.sol\":935:1016  require(msg.value > auction.price, \"your price is lower than the current price.\") */\n      tag_22\n      jumpi\n      mload(0x40)\n      0x08c379a000000000000000000000000000000000000000000000000000000000\n      dup2\n      mstore\n      0x04\n      add\n      tag_23\n      swap1\n      tag_24\n      jump\t// in\n    tag_23:\n      mload(0x40)\n      dup1\n      swap2\n      sub\n      swap1\n      revert\n    tag_22:\n        /* \"Activitys/aution.sol\":1089:1090  0 */\n      0x00\n        /* \"Activitys/aution.sol\":1073:1080  auction */\n      dup2\n        /* \"Activitys/aution.sol\":1073:1086  auction.price */\n      0x02\n      add\n      sload\n        /* \"Activitys/aution.sol\":1073:1090  auction.price > 0 */\n      gt\n        /* \"Activitys/aution.sol\":1069:1161  if (auction.price > 0) {... */\n      iszero\n      tag_25\n      jumpi\n        /* \"Activitys/aution.sol\":1106:1113  auction */\n      dup1\n        /* \"Activitys/aution.sol\":1106:1126  auction.owneraddress */\n      0x03\n      add\n      0x00\n      swap1\n      sload\n      swap1\n      0x0100\n      exp\n      swap1\n      div\n      0xffffffffffffffffffffffffffffffffffffffff\n      and\n        /* \"Activitys/aution.sol\":1106:1135  auction.owneraddress.transfer */\n      0xffffffffffffffffffffffffffffffffffffffff\n      and\n        /* \"Activitys/aution.sol\":1106:1150  auction.owneraddress.transfer(auction.price) */\n      0x08fc\n        /* \"Activitys/aution.sol\":1136:1143  auction */\n      dup3\n        /* \"Activitys/aution.sol\":1136:1149  auction.price */\n      0x02\n      add\n      sload\n        /* \"Activitys/aution.sol\":1106:1150  auction.owneraddress.transfer(auction.price) */\n      swap1\n      dup2\n      iszero\n      mul\n      swap1\n      mload(0x40)\n      0x00\n      mload(0x40)\n      dup1\n      dup4\n      sub\n      dup2\n      dup6\n      dup9\n      dup9\n      call\n      swap4\n      pop\n      pop\n      pop\n      pop\n      iszero\n      dup1\n      iszero\n      tag_27\n      jumpi\n      returndatacopy(0x00, 0x00, returndatasize)\n      revert(0x00, returndatasize)\n    tag_27:\n      pop\n        /* \"Activitys/aution.sol\":1069:1161  if (auction.price > 0) {... */\n    tag_25:\n        /* \"Activitys/aution.sol\":1248:1261  _newownername */\n      dup2\n        /* \"Activitys/aution.sol\":1228:1235  auction */\n      dup2\n        /* \"Activitys/aution.sol\":1228:1245  auction.ownername */\n      0x00\n      add\n        /* \"Activitys/aution.sol\":1228:1261  auction.ownername = _newownername */\n      swap1\n      dup2\n      tag_28\n      swap2\n      swap1\n      tag_29\n      jump\t// in\n    tag_28:\n      pop\n        /* \"Activitys/aution.sol\":1287:1296  msg.value */\n      callvalue\n        /* \"Activitys/aution.sol\":1271:1278  auction */\n      dup2\n        /* \"Activitys/aution.sol\":1271:1284  auction.price */\n      0x02\n      add\n        /* \"Activitys/aution.sol\":1271:1296  auction.price = msg.value */\n      dup2\n      swap1\n      sstore\n      pop\n        /* \"Activitys/aution.sol\":1337:1347  msg.sender */\n      caller\n        /* \"Activitys/aution.sol\":1306:1313  auction */\n      dup2\n        /* \"Activitys/aution.sol\":1306:1326  auction.owneraddress */\n      0x03\n      add\n      0x00\n        /* \"Activitys/aution.sol\":1306:1348  auction.owneraddress = payable(msg.sender) */\n      0x0100\n      exp\n      dup2\n      sload\n      dup2\n      0xffffffffffffffffffffffffffffffffffffffff\n      mul\n      not\n      and\n      swap1\n      dup4\n      0xffffffffffffffffffffffffffffffffffffffff\n      and\n      mul\n      or\n      swap1\n      sstore\n      pop\n        /* \"Activitys/aution.sol\":867:1355  {... */\n      pop\n        /* \"Activitys/aution.sol\":767:1355  function changeowner(... */\n      pop\n      pop\n      jump\t// out\n        /* \"Activitys/aution.sol\":265:316  mapping(uint256 => bikeauction) public bikeauctions */\n    tag_13:\n      mstore(0x20, 0x01)\n      dup1\n      0x00\n      mstore\n      keccak256(0x00, 0x40)\n      0x00\n      swap2\n      pop\n      swap1\n      pop\n      dup1\n      0x00\n      add\n      dup1\n      sload\n      tag_30\n      swap1\n      tag_31\n      jump\t// in\n    tag_30:\n      dup1\n      0x1f\n      add\n      0x20\n      dup1\n      swap2\n      div\n      mul\n      0x20\n      add\n      mload(0x40)\n      swap1\n      dup2\n      add\n      0x40\n      mstore\n      dup1\n      swap3\n      swap2\n      swap1\n      dup2\n      dup2\n      mstore\n      0x20\n      add\n      dup3\n      dup1\n      sload\n      tag_32\n      swap1\n      tag_31\n      jump\t// in\n    tag_32:\n      dup1\n      iszero\n      tag_33\n      jumpi\n      dup1\n      0x1f\n      lt\n      tag_34\n      jumpi\n      0x0100\n      dup1\n      dup4\n      sload\n      div\n      mul\n      dup4\n      mstore\n      swap2\n      0x20\n      add\n      swap2\n      jump(tag_33)\n    tag_34:\n      dup3\n      add\n      swap2\n      swap1\n      0x00\n      mstore\n      keccak256(0x00, 0x20)\n      swap1\n    tag_35:\n      dup2\n      sload\n      dup2\n      mstore\n      swap1\n      0x01\n      add\n      swap1\n      0x20\n      add\n      dup1\n      dup4\n      gt\n      tag_35\n      jumpi\n      dup3\n      swap1\n      sub\n      0x1f\n      and\n      dup3\n      add\n      swap2\n    tag_33:\n      pop\n      pop\n      pop\n      pop\n      pop\n      swap1\n      dup1\n      0x01\n      add\n      dup1\n      sload\n      tag_36\n      swap1\n      tag_31\n      jump\t// in\n    tag_36:\n      dup1\n      0x1f\n      add\n      0x20\n      dup1\n      swap2\n      div\n      mul\n      0x20\n      add\n      mload(0x40)\n      swap1\n      dup2\n      add\n      0x40\n      mstore\n      dup1\n      swap3\n      swap2\n      swap1\n      dup2\n      dup2\n      mstore\n      0x20\n      add\n      dup3\n      dup1\n      sload\n      tag_37\n      swap1\n      tag_31\n      jump\t// in\n    tag_37:\n      dup1\n      iszero\n      tag_38\n      jumpi\n      dup1\n      0x1f\n      lt\n      tag_39\n      jumpi\n      0x0100\n      dup1\n      dup4\n      sload\n      div\n      mul\n      dup4\n      mstore\n      swap2\n      0x20\n      add\n      swap2\n      jump(tag_38)\n    tag_39:\n      dup3\n      add\n      swap2\n      swap1\n      0x00\n      mstore\n      keccak256(0x00, 0x20)\n      swap1\n    tag_40:\n      dup2\n      sload\n      dup2\n      mstore\n      swap1\n      0x01\n      add\n      swap1\n      0x20\n      add\n      dup1\n      dup4\n      gt\n      tag_40\n      jumpi\n      dup3\n      swap1\n      sub\n      0x1f\n      and\n      dup3\n      add\n      swap2\n    tag_38:\n      pop\n      pop\n      pop\n      pop\n      pop\n      swap1\n      dup1\n      0x02\n      add\n      sload\n      swap1\n      dup1\n      0x03\n      add\n      0x00\n      swap1\n      sload\n      swap1\n      0x0100\n      exp\n      swap1\n      div\n      0xffffffffffffffffffffffffffffffffffffffff\n      and\n      swap1\n      pop\n      dup5\n      jump\t// out\n        /* \"Activitys/aution.sol\":355:725  function issue(... */\n    tag_20:\n        /* \"Activitys/aution.sol\":521:718  bikeauction({... */\n      mload(0x40)\n      dup1\n      0x80\n      add\n      0x40\n      mstore\n      dup1\n        /* \"Activitys/aution.sol\":558:568  _ownername */\n      dup5\n        /* \"Activitys/aution.sol\":521:718  bikeauction({... */\n      dup2\n      mstore\n      0x20\n      add\n        /* \"Activitys/aution.sol\":588:593  _bike */\n      dup4\n        /* \"Activitys/aution.sol\":521:718  bikeauction({... */\n      dup2\n      mstore\n      0x20\n      add\n        /* \"Activitys/aution.sol\":614:620  _price */\n      dup3\n        /* \"Activitys/aution.sol\":521:718  bikeauction({... */\n      dup2\n      mstore\n      0x20\n      add\n        /* \"Activitys/aution.sol\":656:666  msg.sender */\n      caller\n        /* \"Activitys/aution.sol\":521:718  bikeauction({... */\n      0xffffffffffffffffffffffffffffffffffffffff\n      and\n      dup2\n      mstore\n      pop\n        /* \"Activitys/aution.sol\":501:513  bikeauctions */\n      0x01\n        /* \"Activitys/aution.sol\":501:518  bikeauctions[_id] */\n      0x00\n        /* \"Activitys/aution.sol\":514:517  _id */\n      dup7\n        /* \"Activitys/aution.sol\":501:518  bikeauctions[_id] */\n      dup2\n      mstore\n      0x20\n      add\n      swap1\n      dup2\n      mstore\n      0x20\n      add\n      0x00\n      keccak256\n        /* \"Activitys/aution.sol\":501:718  bikeauctions[_id] = bikeauction({... */\n      0x00\n      dup3\n      add\n      mload\n      dup2\n      0x00\n      add\n      swap1\n      dup2\n      tag_42\n      swap2\n      swap1\n      tag_29\n      jump\t// in\n    tag_42:\n      pop\n      0x20\n      dup3\n      add\n      mload\n      dup2\n      0x01\n      add\n      swap1\n      dup2\n      tag_43\n      swap2\n      swap1\n      tag_29\n      jump\t// in\n    tag_43:\n      pop\n      0x40\n      dup3\n      add\n      mload\n      dup2\n      0x02\n      add\n      sstore\n      0x60\n      dup3\n      add\n      mload\n      dup2\n      0x03\n      add\n      exp(0x0100, 0x00)\n      dup2\n      sload\n      dup2\n      0xffffffffffffffffffffffffffffffffffffffff\n      mul\n      not\n      and\n      swap1\n      dup4\n      0xffffffffffffffffffffffffffffffffffffffff\n      and\n      mul\n      or\n      swap1\n      sstore\n      pop\n      swap1\n      pop\n      pop\n        /* \"Activitys/aution.sol\":355:725  function issue(... */\n      pop\n      pop\n      pop\n      pop\n      jump\t// out\n        /* \"#utility.yul\":7:82   */\n    tag_44:\n        /* \"#utility.yul\":40:46   */\n      0x00\n        /* \"#utility.yul\":73:75   */\n      0x40\n        /* \"#utility.yul\":67:76   */\n      mload\n        /* \"#utility.yul\":57:76   */\n      swap1\n      pop\n        /* \"#utility.yul\":7:82   */\n      swap1\n      jump\t// out\n        /* \"#utility.yul\":88:205   */\n    tag_45:\n        /* \"#utility.yul\":197:198   */\n      0x00\n        /* \"#utility.yul\":194:195   */\n      0x00\n        /* \"#utility.yul\":187:199   */\n      revert\n        /* \"#utility.yul\":211:328   */\n    tag_46:\n        /* \"#utility.yul\":320:321   */\n      0x00\n        /* \"#utility.yul\":317:318   */\n      0x00\n        /* \"#utility.yul\":310:322   */\n      revert\n        /* \"#utility.yul\":334:411   */\n    tag_47:\n        /* \"#utility.yul\":371:378   */\n      0x00\n        /* \"#utility.yul\":400:405   */\n      dup2\n        /* \"#utility.yul\":389:405   */\n      swap1\n      pop\n        /* \"#utility.yul\":334:411   */\n      swap2\n      swap1\n      pop\n      jump\t// out\n        /* \"#utility.yul\":417:539   */\n    tag_48:\n        /* \"#utility.yul\":490:514   */\n      tag_92\n        /* \"#utility.yul\":508:513   */\n      dup2\n        /* \"#utility.yul\":490:514   */\n      tag_47\n      jump\t// in\n    tag_92:\n        /* \"#utility.yul\":483:488   */\n      dup2\n        /* \"#utility.yul\":480:515   */\n      eq\n        /* \"#utility.yul\":470:533   */\n      tag_93\n      jumpi\n        /* \"#utility.yul\":529:530   */\n      0x00\n        /* \"#utility.yul\":526:527   */\n      0x00\n        /* \"#utility.yul\":519:531   */\n      revert\n        /* \"#utility.yul\":470:533   */\n    tag_93:\n        /* \"#utility.yul\":417:539   */\n      pop\n      jump\t// out\n        /* \"#utility.yul\":545:684   */\n    tag_49:\n        /* \"#utility.yul\":591:596   */\n      0x00\n        /* \"#utility.yul\":629:635   */\n      dup2\n        /* \"#utility.yul\":616:636   */\n      calldataload\n        /* \"#utility.yul\":607:636   */\n      swap1\n      pop\n        /* \"#utility.yul\":645:678   */\n      tag_95\n        /* \"#utility.yul\":672:677   */\n      dup2\n        /* \"#utility.yul\":645:678   */\n      tag_48\n      jump\t// in\n    tag_95:\n        /* \"#utility.yul\":545:684   */\n      swap3\n      swap2\n      pop\n      pop\n      jump\t// out\n        /* \"#utility.yul\":690:807   */\n    tag_50:\n        /* \"#utility.yul\":799:800   */\n      0x00\n        /* \"#utility.yul\":796:797   */\n      0x00\n        /* \"#utility.yul\":789:801   */\n      revert\n        /* \"#utility.yul\":813:930   */\n    tag_51:\n        /* \"#utility.yul\":922:923   */\n      0x00\n        /* \"#utility.yul\":919:920   */\n      0x00\n        /* \"#utility.yul\":912:924   */\n      revert\n        /* \"#utility.yul\":936:1038   */\n    tag_52:\n        /* \"#utility.yul\":977:983   */\n      0x00\n        /* \"#utility.yul\":1028:1030   */\n      0x1f\n        /* \"#utility.yul\":1024:1031   */\n      not\n        /* \"#utility.yul\":1019:1021   */\n      0x1f\n        /* \"#utility.yul\":1012:1017   */\n      dup4\n        /* \"#utility.yul\":1008:1022   */\n      add\n        /* \"#utility.yul\":1004:1032   */\n      and\n        /* \"#utility.yul\":994:1032   */\n      swap1\n      pop\n        /* \"#utility.yul\":936:1038   */\n      swap2\n      swap1\n      pop\n      jump\t// out\n        /* \"#utility.yul\":1044:1224   */\n    tag_53:\n        /* \"#utility.yul\":1092:1169   */\n      0x4e487b7100000000000000000000000000000000000000000000000000000000\n        /* \"#utility.yul\":1089:1090   */\n      0x00\n        /* \"#utility.yul\":1082:1170   */\n      mstore\n        /* \"#utility.yul\":1189:1193   */\n      0x41\n        /* \"#utility.yul\":1186:1187   */\n      0x04\n        /* \"#utility.yul\":1179:1194   */\n      mstore\n        /* \"#utility.yul\":1213:1217   */\n      0x24\n        /* \"#utility.yul\":1210:1211   */\n      0x00\n        /* \"#utility.yul\":1203:1218   */\n      revert\n        /* \"#utility.yul\":1230:1511   */\n    tag_54:\n        /* \"#utility.yul\":1313:1340   */\n      tag_101\n        /* \"#utility.yul\":1335:1339   */\n      dup3\n        /* \"#utility.yul\":1313:1340   */\n      tag_52\n      jump\t// in\n    tag_101:\n        /* \"#utility.yul\":1305:1311   */\n      dup2\n        /* \"#utility.yul\":1301:1341   */\n      add\n        /* \"#utility.yul\":1443:1449   */\n      dup2\n        /* \"#utility.yul\":1431:1441   */\n      dup2\n        /* \"#utility.yul\":1428:1450   */\n      lt\n        /* \"#utility.yul\":1407:1425   */\n      0xffffffffffffffff\n        /* \"#utility.yul\":1395:1405   */\n      dup3\n        /* \"#utility.yul\":1392:1426   */\n      gt\n        /* \"#utility.yul\":1389:1451   */\n      or\n        /* \"#utility.yul\":1386:1474   */\n      iszero\n      tag_102\n      jumpi\n        /* \"#utility.yul\":1454:1472   */\n      tag_103\n      tag_53\n      jump\t// in\n    tag_103:\n        /* \"#utility.yul\":1386:1474   */\n    tag_102:\n        /* \"#utility.yul\":1494:1504   */\n      dup1\n        /* \"#utility.yul\":1490:1492   */\n      0x40\n        /* \"#utility.yul\":1483:1505   */\n      mstore\n        /* \"#utility.yul\":1273:1511   */\n      pop\n        /* \"#utility.yul\":1230:1511   */\n      pop\n      pop\n      jump\t// out\n        /* \"#utility.yul\":1517:1646   */\n    tag_55:\n        /* \"#utility.yul\":1551:1557   */\n      0x00\n        /* \"#utility.yul\":1578:1598   */\n      tag_105\n      tag_44\n      jump\t// in\n    tag_105:\n        /* \"#utility.yul\":1568:1598   */\n      swap1\n      pop\n        /* \"#utility.yul\":1607:1640   */\n      tag_106\n        /* \"#utility.yul\":1635:1639   */\n      dup3\n        /* \"#utility.yul\":1627:1633   */\n      dup3\n        /* \"#utility.yul\":1607:1640   */\n      tag_54\n      jump\t// in\n    tag_106:\n        /* \"#utility.yul\":1517:1646   */\n      swap2\n      swap1\n      pop\n      jump\t// out\n        /* \"#utility.yul\":1652:1960   */\n    tag_56:\n        /* \"#utility.yul\":1714:1718   */\n      0x00\n        /* \"#utility.yul\":1804:1822   */\n      0xffffffffffffffff\n        /* \"#utility.yul\":1796:1802   */\n      dup3\n        /* \"#utility.yul\":1793:1823   */\n      gt\n        /* \"#utility.yul\":1790:1846   */\n      iszero\n      tag_108\n      jumpi\n        /* \"#utility.yul\":1826:1844   */\n      tag_109\n      tag_53\n      jump\t// in\n    tag_109:\n        /* \"#utility.yul\":1790:1846   */\n    tag_108:\n        /* \"#utility.yul\":1864:1893   */\n      tag_110\n        /* \"#utility.yul\":1886:1892   */\n      dup3\n        /* \"#utility.yul\":1864:1893   */\n      tag_52\n      jump\t// in\n    tag_110:\n        /* \"#utility.yul\":1856:1893   */\n      swap1\n      pop\n        /* \"#utility.yul\":1948:1952   */\n      0x20\n        /* \"#utility.yul\":1942:1946   */\n      dup2\n        /* \"#utility.yul\":1938:1953   */\n      add\n        /* \"#utility.yul\":1930:1953   */\n      swap1\n      pop\n        /* \"#utility.yul\":1652:1960   */\n      swap2\n      swap1\n      pop\n      jump\t// out\n        /* \"#utility.yul\":1966:2114   */\n    tag_57:\n        /* \"#utility.yul\":2064:2070   */\n      dup3\n        /* \"#utility.yul\":2059:2062   */\n      dup2\n        /* \"#utility.yul\":2054:2057   */\n      dup4\n        /* \"#utility.yul\":2041:2071   */\n      calldatacopy\n        /* \"#utility.yul\":2105:2106   */\n      0x00\n        /* \"#utility.yul\":2096:2102   */\n      dup4\n        /* \"#utility.yul\":2091:2094   */\n      dup4\n        /* \"#utility.yul\":2087:2103   */\n      add\n        /* \"#utility.yul\":2080:2107   */\n      mstore\n        /* \"#utility.yul\":1966:2114   */\n      pop\n      pop\n      pop\n      jump\t// out\n        /* \"#utility.yul\":2120:2545   */\n    tag_58:\n        /* \"#utility.yul\":2198:2203   */\n      0x00\n        /* \"#utility.yul\":2223:2289   */\n      tag_113\n        /* \"#utility.yul\":2239:2288   */\n      tag_114\n        /* \"#utility.yul\":2281:2287   */\n      dup5\n        /* \"#utility.yul\":2239:2288   */\n      tag_56\n      jump\t// in\n    tag_114:\n        /* \"#utility.yul\":2223:2289   */\n      tag_55\n      jump\t// in\n    tag_113:\n        /* \"#utility.yul\":2214:2289   */\n      swap1\n      pop\n        /* \"#utility.yul\":2312:2318   */\n      dup3\n        /* \"#utility.yul\":2305:2310   */\n      dup2\n        /* \"#utility.yul\":2298:2319   */\n      mstore\n        /* \"#utility.yul\":2350:2354   */\n      0x20\n        /* \"#utility.yul\":2343:2348   */\n      dup2\n        /* \"#utility.yul\":2339:2355   */\n      add\n        /* \"#utility.yul\":2388:2391   */\n      dup5\n        /* \"#utility.yul\":2379:2385   */\n      dup5\n        /* \"#utility.yul\":2374:2377   */\n      dup5\n        /* \"#utility.yul\":2370:2386   */\n      add\n        /* \"#utility.yul\":2367:2392   */\n      gt\n        /* \"#utility.yul\":2364:2476   */\n      iszero\n      tag_115\n      jumpi\n        /* \"#utility.yul\":2395:2474   */\n      tag_116\n      tag_51\n      jump\t// in\n    tag_116:\n        /* \"#utility.yul\":2364:2476   */\n    tag_115:\n        /* \"#utility.yul\":2485:2539   */\n      tag_117\n        /* \"#utility.yul\":2532:2538   */\n      dup5\n        /* \"#utility.yul\":2527:2530   */\n      dup3\n        /* \"#utility.yul\":2522:2525   */\n      dup6\n        /* \"#utility.yul\":2485:2539   */\n      tag_57\n      jump\t// in\n    tag_117:\n        /* \"#utility.yul\":2204:2545   */\n      pop\n        /* \"#utility.yul\":2120:2545   */\n      swap4\n      swap3\n      pop\n      pop\n      pop\n      jump\t// out\n        /* \"#utility.yul\":2565:2905   */\n    tag_59:\n        /* \"#utility.yul\":2621:2626   */\n      0x00\n        /* \"#utility.yul\":2670:2673   */\n      dup3\n        /* \"#utility.yul\":2663:2667   */\n      0x1f\n        /* \"#utility.yul\":2655:2661   */\n      dup4\n        /* \"#utility.yul\":2651:2668   */\n      add\n        /* \"#utility.yul\":2647:2674   */\n      slt\n        /* \"#utility.yul\":2637:2759   */\n      tag_119\n      jumpi\n        /* \"#utility.yul\":2678:2757   */\n      tag_120\n      tag_50\n      jump\t// in\n    tag_120:\n        /* \"#utility.yul\":2637:2759   */\n    tag_119:\n        /* \"#utility.yul\":2795:2801   */\n      dup2\n        /* \"#utility.yul\":2782:2802   */\n      calldataload\n        /* \"#utility.yul\":2820:2899   */\n      tag_121\n        /* \"#utility.yul\":2895:2898   */\n      dup5\n        /* \"#utility.yul\":2887:2893   */\n      dup3\n        /* \"#utility.yul\":2880:2884   */\n      0x20\n        /* \"#utility.yul\":2872:2878   */\n      dup7\n        /* \"#utility.yul\":2868:2885   */\n      add\n        /* \"#utility.yul\":2820:2899   */\n      tag_58\n      jump\t// in\n    tag_121:\n        /* \"#utility.yul\":2811:2899   */\n      swap2\n      pop\n        /* \"#utility.yul\":2627:2905   */\n      pop\n        /* \"#utility.yul\":2565:2905   */\n      swap3\n      swap2\n      pop\n      pop\n      jump\t// out\n        /* \"#utility.yul\":2911:3565   */\n    tag_7:\n        /* \"#utility.yul\":2989:2995   */\n      0x00\n        /* \"#utility.yul\":2997:3003   */\n      0x00\n        /* \"#utility.yul\":3046:3048   */\n      0x40\n        /* \"#utility.yul\":3034:3043   */\n      dup4\n        /* \"#utility.yul\":3025:3032   */\n      dup6\n        /* \"#utility.yul\":3021:3044   */\n      sub\n        /* \"#utility.yul\":3017:3049   */\n      slt\n        /* \"#utility.yul\":3014:3133   */\n      iszero\n      tag_123\n      jumpi\n        /* \"#utility.yul\":3052:3131   */\n      tag_124\n      tag_45\n      jump\t// in\n    tag_124:\n        /* \"#utility.yul\":3014:3133   */\n    tag_123:\n        /* \"#utility.yul\":3172:3173   */\n      0x00\n        /* \"#utility.yul\":3197:3250   */\n      tag_125\n        /* \"#utility.yul\":3242:3249   */\n      dup6\n        /* \"#utility.yul\":3233:3239   */\n      dup3\n        /* \"#utility.yul\":3222:3231   */\n      dup7\n        /* \"#utility.yul\":3218:3240   */\n      add\n        /* \"#utility.yul\":3197:3250   */\n      tag_49\n      jump\t// in\n    tag_125:\n        /* \"#utility.yul\":3187:3250   */\n      swap3\n      pop\n        /* \"#utility.yul\":3143:3260   */\n      pop\n        /* \"#utility.yul\":3327:3329   */\n      0x20\n        /* \"#utility.yul\":3316:3325   */\n      dup4\n        /* \"#utility.yul\":3312:3330   */\n      add\n        /* \"#utility.yul\":3299:3331   */\n      calldataload\n        /* \"#utility.yul\":3358:3376   */\n      0xffffffffffffffff\n        /* \"#utility.yul\":3350:3356   */\n      dup2\n        /* \"#utility.yul\":3347:3377   */\n      gt\n        /* \"#utility.yul\":3344:3461   */\n      iszero\n      tag_126\n      jumpi\n        /* \"#utility.yul\":3380:3459   */\n      tag_127\n      tag_46\n      jump\t// in\n    tag_127:\n        /* \"#utility.yul\":3344:3461   */\n    tag_126:\n        /* \"#utility.yul\":3485:3548   */\n      tag_128\n        /* \"#utility.yul\":3540:3547   */\n      dup6\n        /* \"#utility.yul\":3531:3537   */\n      dup3\n        /* \"#utility.yul\":3520:3529   */\n      dup7\n        /* \"#utility.yul\":3516:3538   */\n      add\n        /* \"#utility.yul\":3485:3548   */\n      tag_59\n      jump\t// in\n    tag_128:\n        /* \"#utility.yul\":3475:3548   */\n      swap2\n      pop\n        /* \"#utility.yul\":3270:3558   */\n      pop\n        /* \"#utility.yul\":2911:3565   */\n      swap3\n      pop\n      swap3\n      swap1\n      pop\n      jump\t// out\n        /* \"#utility.yul\":3571:3900   */\n    tag_12:\n        /* \"#utility.yul\":3630:3636   */\n      0x00\n        /* \"#utility.yul\":3679:3681   */\n      0x20\n        /* \"#utility.yul\":3667:3676   */\n      dup3\n        /* \"#utility.yul\":3658:3665   */\n      dup5\n        /* \"#utility.yul\":3654:3677   */\n      sub\n        /* \"#utility.yul\":3650:3682   */\n      slt\n        /* \"#utility.yul\":3647:3766   */\n      iszero\n      tag_130\n      jumpi\n        /* \"#utility.yul\":3685:3764   */\n      tag_131\n      tag_45\n      jump\t// in\n    tag_131:\n        /* \"#utility.yul\":3647:3766   */\n    tag_130:\n        /* \"#utility.yul\":3805:3806   */\n      0x00\n        /* \"#utility.yul\":3830:3883   */\n      tag_132\n        /* \"#utility.yul\":3875:3882   */\n      dup5\n        /* \"#utility.yul\":3866:3872   */\n      dup3\n        /* \"#utility.yul\":3855:3864   */\n      dup6\n        /* \"#utility.yul\":3851:3873   */\n      add\n        /* \"#utility.yul\":3830:3883   */\n      tag_49\n      jump\t// in\n    tag_132:\n        /* \"#utility.yul\":3820:3883   */\n      swap2\n      pop\n        /* \"#utility.yul\":3776:3893   */\n      pop\n        /* \"#utility.yul\":3571:3900   */\n      swap3\n      swap2\n      pop\n      pop\n      jump\t// out\n        /* \"#utility.yul\":3906:4005   */\n    tag_60:\n        /* \"#utility.yul\":3958:3964   */\n      0x00\n        /* \"#utility.yul\":3992:3997   */\n      dup2\n        /* \"#utility.yul\":3986:3998   */\n      mload\n        /* \"#utility.yul\":3976:3998   */\n      swap1\n      pop\n        /* \"#utility.yul\":3906:4005   */\n      swap2\n      swap1\n      pop\n      jump\t// out\n        /* \"#utility.yul\":4011:4180   */\n    tag_61:\n        /* \"#utility.yul\":4095:4106   */\n      0x00\n        /* \"#utility.yul\":4129:4135   */\n      dup3\n        /* \"#utility.yul\":4124:4127   */\n      dup3\n        /* \"#utility.yul\":4117:4136   */\n      mstore\n        /* \"#utility.yul\":4169:4173   */\n      0x20\n        /* \"#utility.yul\":4164:4167   */\n      dup3\n        /* \"#utility.yul\":4160:4174   */\n      add\n        /* \"#utility.yul\":4145:4174   */\n      swap1\n      pop\n        /* \"#utility.yul\":4011:4180   */\n      swap3\n      swap2\n      pop\n      pop\n      jump\t// out\n        /* \"#utility.yul\":4186:4325   */\n    tag_62:\n        /* \"#utility.yul\":4275:4281   */\n      dup3\n        /* \"#utility.yul\":4270:4273   */\n      dup2\n        /* \"#utility.yul\":4265:4268   */\n      dup4\n        /* \"#utility.yul\":4259:4282   */\n      mcopy\n        /* \"#utility.yul\":4316:4317   */\n      0x00\n        /* \"#utility.yul\":4307:4313   */\n      dup4\n        /* \"#utility.yul\":4302:4305   */\n      dup4\n        /* \"#utility.yul\":4298:4314   */\n      add\n        /* \"#utility.yul\":4291:4318   */\n      mstore\n        /* \"#utility.yul\":4186:4325   */\n      pop\n      pop\n      pop\n      jump\t// out\n        /* \"#utility.yul\":4331:4708   */\n    tag_63:\n        /* \"#utility.yul\":4419:4422   */\n      0x00\n        /* \"#utility.yul\":4447:4486   */\n      tag_137\n        /* \"#utility.yul\":4480:4485   */\n      dup3\n        /* \"#utility.yul\":4447:4486   */\n      tag_60\n      jump\t// in\n    tag_137:\n        /* \"#utility.yul\":4502:4573   */\n      tag_138\n        /* \"#utility.yul\":4566:4572   */\n      dup2\n        /* \"#utility.yul\":4561:4564   */\n      dup6\n        /* \"#utility.yul\":4502:4573   */\n      tag_61\n      jump\t// in\n    tag_138:\n        /* \"#utility.yul\":4495:4573   */\n      swap4\n      pop\n        /* \"#utility.yul\":4582:4647   */\n      tag_139\n        /* \"#utility.yul\":4640:4646   */\n      dup2\n        /* \"#utility.yul\":4635:4638   */\n      dup6\n        /* \"#utility.yul\":4628:4632   */\n      0x20\n        /* \"#utility.yul\":4621:4626   */\n      dup7\n        /* \"#utility.yul\":4617:4633   */\n      add\n        /* \"#utility.yul\":4582:4647   */\n      tag_62\n      jump\t// in\n    tag_139:\n        /* \"#utility.yul\":4672:4701   */\n      tag_140\n        /* \"#utility.yul\":4694:4700   */\n      dup2\n        /* \"#utility.yul\":4672:4701   */\n      tag_52\n      jump\t// in\n    tag_140:\n        /* \"#utility.yul\":4667:4670   */\n      dup5\n        /* \"#utility.yul\":4663:4702   */\n      add\n        /* \"#utility.yul\":4656:4702   */\n      swap2\n      pop\n        /* \"#utility.yul\":4423:4708   */\n      pop\n        /* \"#utility.yul\":4331:4708   */\n      swap3\n      swap2\n      pop\n      pop\n      jump\t// out\n        /* \"#utility.yul\":4714:4832   */\n    tag_64:\n        /* \"#utility.yul\":4801:4825   */\n      tag_142\n        /* \"#utility.yul\":4819:4824   */\n      dup2\n        /* \"#utility.yul\":4801:4825   */\n      tag_47\n      jump\t// in\n    tag_142:\n        /* \"#utility.yul\":4796:4799   */\n      dup3\n        /* \"#utility.yul\":4789:4826   */\n      mstore\n        /* \"#utility.yul\":4714:4832   */\n      pop\n      pop\n      jump\t// out\n        /* \"#utility.yul\":4838:4964   */\n    tag_65:\n        /* \"#utility.yul\":4875:4882   */\n      0x00\n        /* \"#utility.yul\":4915:4957   */\n      0xffffffffffffffffffffffffffffffffffffffff\n        /* \"#utility.yul\":4908:4913   */\n      dup3\n        /* \"#utility.yul\":4904:4958   */\n      and\n        /* \"#utility.yul\":4893:4958   */\n      swap1\n      pop\n        /* \"#utility.yul\":4838:4964   */\n      swap2\n      swap1\n      pop\n      jump\t// out\n        /* \"#utility.yul\":4970:5074   */\n    tag_66:\n        /* \"#utility.yul\":5015:5022   */\n      0x00\n        /* \"#utility.yul\":5044:5068   */\n      tag_145\n        /* \"#utility.yul\":5062:5067   */\n      dup3\n        /* \"#utility.yul\":5044:5068   */\n      tag_65\n      jump\t// in\n    tag_145:\n        /* \"#utility.yul\":5033:5068   */\n      swap1\n      pop\n        /* \"#utility.yul\":4970:5074   */\n      swap2\n      swap1\n      pop\n      jump\t// out\n        /* \"#utility.yul\":5080:5222   */\n    tag_67:\n        /* \"#utility.yul\":5183:5215   */\n      tag_147\n        /* \"#utility.yul\":5209:5214   */\n      dup2\n        /* \"#utility.yul\":5183:5215   */\n      tag_66\n      jump\t// in\n    tag_147:\n        /* \"#utility.yul\":5178:5181   */\n      dup3\n        /* \"#utility.yul\":5171:5216   */\n      mstore\n        /* \"#utility.yul\":5080:5222   */\n      pop\n      pop\n      jump\t// out\n        /* \"#utility.yul\":5228:5995   */\n    tag_15:\n        /* \"#utility.yul\":5461:5465   */\n      0x00\n        /* \"#utility.yul\":5499:5502   */\n      0x80\n        /* \"#utility.yul\":5488:5497   */\n      dup3\n        /* \"#utility.yul\":5484:5503   */\n      add\n        /* \"#utility.yul\":5476:5503   */\n      swap1\n      pop\n        /* \"#utility.yul\":5549:5558   */\n      dup2\n        /* \"#utility.yul\":5543:5547   */\n      dup2\n        /* \"#utility.yul\":5539:5559   */\n      sub\n        /* \"#utility.yul\":5535:5536   */\n      0x00\n        /* \"#utility.yul\":5524:5533   */\n      dup4\n        /* \"#utility.yul\":5520:5537   */\n      add\n        /* \"#utility.yul\":5513:5560   */\n      mstore\n        /* \"#utility.yul\":5577:5655   */\n      tag_149\n        /* \"#utility.yul\":5650:5654   */\n      dup2\n        /* \"#utility.yul\":5641:5647   */\n      dup8\n        /* \"#utility.yul\":5577:5655   */\n      tag_63\n      jump\t// in\n    tag_149:\n        /* \"#utility.yul\":5569:5655   */\n      swap1\n      pop\n        /* \"#utility.yul\":5702:5711   */\n      dup2\n        /* \"#utility.yul\":5696:5700   */\n      dup2\n        /* \"#utility.yul\":5692:5712   */\n      sub\n        /* \"#utility.yul\":5687:5689   */\n      0x20\n        /* \"#utility.yul\":5676:5685   */\n      dup4\n        /* \"#utility.yul\":5672:5690   */\n      add\n        /* \"#utility.yul\":5665:5713   */\n      mstore\n        /* \"#utility.yul\":5730:5808   */\n      tag_150\n        /* \"#utility.yul\":5803:5807   */\n      dup2\n        /* \"#utility.yul\":5794:5800   */\n      dup7\n        /* \"#utility.yul\":5730:5808   */\n      tag_63\n      jump\t// in\n    tag_150:\n        /* \"#utility.yul\":5722:5808   */\n      swap1\n      pop\n        /* \"#utility.yul\":5818:5890   */\n      tag_151\n        /* \"#utility.yul\":5886:5888   */\n      0x40\n        /* \"#utility.yul\":5875:5884   */\n      dup4\n        /* \"#utility.yul\":5871:5889   */\n      add\n        /* \"#utility.yul\":5862:5868   */\n      dup6\n        /* \"#utility.yul\":5818:5890   */\n      tag_64\n      jump\t// in\n    tag_151:\n        /* \"#utility.yul\":5900:5988   */\n      tag_152\n        /* \"#utility.yul\":5984:5986   */\n      0x60\n        /* \"#utility.yul\":5973:5982   */\n      dup4\n        /* \"#utility.yul\":5969:5987   */\n      add\n        /* \"#utility.yul\":5960:5966   */\n      dup5\n        /* \"#utility.yul\":5900:5988   */\n      tag_67\n      jump\t// in\n    tag_152:\n        /* \"#utility.yul\":5228:5995   */\n      swap6\n      swap5\n      pop\n      pop\n      pop\n      pop\n      pop\n      jump\t// out\n        /* \"#utility.yul\":6001:7126   */\n    tag_19:\n        /* \"#utility.yul\":6107:6113   */\n      0x00\n        /* \"#utility.yul\":6115:6121   */\n      0x00\n        /* \"#utility.yul\":6123:6129   */\n      0x00\n        /* \"#utility.yul\":6131:6137   */\n      0x00\n        /* \"#utility.yul\":6180:6183   */\n      0x80\n        /* \"#utility.yul\":6168:6177   */\n      dup6\n        /* \"#utility.yul\":6159:6166   */\n      dup8\n        /* \"#utility.yul\":6155:6178   */\n      sub\n        /* \"#utility.yul\":6151:6184   */\n      slt\n        /* \"#utility.yul\":6148:6268   */\n      iszero\n      tag_154\n      jumpi\n        /* \"#utility.yul\":6187:6266   */\n      tag_155\n      tag_45\n      jump\t// in\n    tag_155:\n        /* \"#utility.yul\":6148:6268   */\n    tag_154:\n        /* \"#utility.yul\":6307:6308   */\n      0x00\n        /* \"#utility.yul\":6332:6385   */\n      tag_156\n        /* \"#utility.yul\":6377:6384   */\n      dup8\n        /* \"#utility.yul\":6368:6374   */\n      dup3\n        /* \"#utility.yul\":6357:6366   */\n      dup9\n        /* \"#utility.yul\":6353:6375   */\n      add\n        /* \"#utility.yul\":6332:6385   */\n      tag_49\n      jump\t// in\n    tag_156:\n        /* \"#utility.yul\":6322:6385   */\n      swap5\n      pop\n        /* \"#utility.yul\":6278:6395   */\n      pop\n        /* \"#utility.yul\":6462:6464   */\n      0x20\n        /* \"#utility.yul\":6451:6460   */\n      dup6\n        /* \"#utility.yul\":6447:6465   */\n      add\n        /* \"#utility.yul\":6434:6466   */\n      calldataload\n        /* \"#utility.yul\":6493:6511   */\n      0xffffffffffffffff\n        /* \"#utility.yul\":6485:6491   */\n      dup2\n        /* \"#utility.yul\":6482:6512   */\n      gt\n        /* \"#utility.yul\":6479:6596   */\n      iszero\n      tag_157\n      jumpi\n        /* \"#utility.yul\":6515:6594   */\n      tag_158\n      tag_46\n      jump\t// in\n    tag_158:\n        /* \"#utility.yul\":6479:6596   */\n    tag_157:\n        /* \"#utility.yul\":6620:6683   */\n      tag_159\n        /* \"#utility.yul\":6675:6682   */\n      dup8\n        /* \"#utility.yul\":6666:6672   */\n      dup3\n        /* \"#utility.yul\":6655:6664   */\n      dup9\n        /* \"#utility.yul\":6651:6673   */\n      add\n        /* \"#utility.yul\":6620:6683   */\n      tag_59\n      jump\t// in\n    tag_159:\n        /* \"#utility.yul\":6610:6683   */\n      swap4\n      pop\n        /* \"#utility.yul\":6405:6693   */\n      pop\n        /* \"#utility.yul\":6760:6762   */\n      0x40\n        /* \"#utility.yul\":6749:6758   */\n      dup6\n        /* \"#utility.yul\":6745:6763   */\n      add\n        /* \"#utility.yul\":6732:6764   */\n      calldataload\n        /* \"#utility.yul\":6791:6809   */\n      0xffffffffffffffff\n        /* \"#utility.yul\":6783:6789   */\n      dup2\n        /* \"#utility.yul\":6780:6810   */\n      gt\n        /* \"#utility.yul\":6777:6894   */\n      iszero\n      tag_160\n      jumpi\n        /* \"#utility.yul\":6813:6892   */\n      tag_161\n      tag_46\n      jump\t// in\n    tag_161:\n        /* \"#utility.yul\":6777:6894   */\n    tag_160:\n        /* \"#utility.yul\":6918:6981   */\n      tag_162\n        /* \"#utility.yul\":6973:6980   */\n      dup8\n        /* \"#utility.yul\":6964:6970   */\n      dup3\n        /* \"#utility.yul\":6953:6962   */\n      dup9\n        /* \"#utility.yul\":6949:6971   */\n      add\n        /* \"#utility.yul\":6918:6981   */\n      tag_59\n      jump\t// in\n    tag_162:\n        /* \"#utility.yul\":6908:6981   */\n      swap3\n      pop\n        /* \"#utility.yul\":6703:6991   */\n      pop\n        /* \"#utility.yul\":7030:7032   */\n      0x60\n        /* \"#utility.yul\":7056:7109   */\n      tag_163\n        /* \"#utility.yul\":7101:7108   */\n      dup8\n        /* \"#utility.yul\":7092:7098   */\n      dup3\n        /* \"#utility.yul\":7081:7090   */\n      dup9\n        /* \"#utility.yul\":7077:7099   */\n      add\n        /* \"#utility.yul\":7056:7109   */\n      tag_49\n      jump\t// in\n    tag_163:\n        /* \"#utility.yul\":7046:7109   */\n      swap2\n      pop\n        /* \"#utility.yul\":7001:7119   */\n      pop\n        /* \"#utility.yul\":6001:7126   */\n      swap3\n      swap6\n      swap2\n      swap5\n      pop\n      swap3\n      pop\n      jump\t// out\n        /* \"#utility.yul\":7132:7362   */\n    tag_68:\n        /* \"#utility.yul\":7272:7306   */\n      0x796f7572207072696365206973206c6f776572207468616e2074686520637572\n        /* \"#utility.yul\":7268:7269   */\n      0x00\n        /* \"#utility.yul\":7260:7266   */\n      dup3\n        /* \"#utility.yul\":7256:7270   */\n      add\n        /* \"#utility.yul\":7249:7307   */\n      mstore\n        /* \"#utility.yul\":7341:7354   */\n      0x72656e742070726963652e000000000000000000000000000000000000000000\n        /* \"#utility.yul\":7336:7338   */\n      0x20\n        /* \"#utility.yul\":7328:7334   */\n      dup3\n        /* \"#utility.yul\":7324:7339   */\n      add\n        /* \"#utility.yul\":7317:7355   */\n      mstore\n        /* \"#utility.yul\":7132:7362   */\n      pop\n      jump\t// out\n        /* \"#utility.yul\":7368:7734   */\n    tag_69:\n        /* \"#utility.yul\":7510:7513   */\n      0x00\n        /* \"#utility.yul\":7531:7598   */\n      tag_166\n        /* \"#utility.yul\":7595:7597   */\n      0x2b\n        /* \"#utility.yul\":7590:7593   */\n      dup4\n        /* \"#utility.yul\":7531:7598   */\n      tag_61\n      jump\t// in\n    tag_166:\n        /* \"#utility.yul\":7524:7598   */\n      swap2\n      pop\n        /* \"#utility.yul\":7607:7700   */\n      tag_167\n        /* \"#utility.yul\":7696:7699   */\n      dup3\n        /* \"#utility.yul\":7607:7700   */\n      tag_68\n      jump\t// in\n    tag_167:\n        /* \"#utility.yul\":7725:7727   */\n      0x40\n        /* \"#utility.yul\":7720:7723   */\n      dup3\n        /* \"#utility.yul\":7716:7728   */\n      add\n        /* \"#utility.yul\":7709:7728   */\n      swap1\n      pop\n        /* \"#utility.yul\":7368:7734   */\n      swap2\n      swap1\n      pop\n      jump\t// out\n        /* \"#utility.yul\":7740:8159   */\n    tag_24:\n        /* \"#utility.yul\":7906:7910   */\n      0x00\n        /* \"#utility.yul\":7944:7946   */\n      0x20\n        /* \"#utility.yul\":7933:7942   */\n      dup3\n        /* \"#utility.yul\":7929:7947   */\n      add\n        /* \"#utility.yul\":7921:7947   */\n      swap1\n      pop\n        /* \"#utility.yul\":7993:8002   */\n      dup2\n        /* \"#utility.yul\":7987:7991   */\n      dup2\n        /* \"#utility.yul\":7983:8003   */\n      sub\n        /* \"#utility.yul\":7979:7980   */\n      0x00\n        /* \"#utility.yul\":7968:7977   */\n      dup4\n        /* \"#utility.yul\":7964:7981   */\n      add\n        /* \"#utility.yul\":7957:8004   */\n      mstore\n        /* \"#utility.yul\":8021:8152   */\n      tag_169\n        /* \"#utility.yul\":8147:8151   */\n      dup2\n        /* \"#utility.yul\":8021:8152   */\n      tag_69\n      jump\t// in\n    tag_169:\n        /* \"#utility.yul\":8013:8152   */\n      swap1\n      pop\n        /* \"#utility.yul\":7740:8159   */\n      swap2\n      swap1\n      pop\n      jump\t// out\n        /* \"#utility.yul\":8165:8345   */\n    tag_70:\n        /* \"#utility.yul\":8213:8290   */\n      0x4e487b7100000000000000000000000000000000000000000000000000000000\n        /* \"#utility.yul\":8210:8211   */\n      0x00\n        /* \"#utility.yul\":8203:8291   */\n      mstore\n        /* \"#utility.yul\":8310:8314   */\n      0x22\n        /* \"#utility.yul\":8307:8308   */\n      0x04\n        /* \"#utility.yul\":8300:8315   */\n      mstore\n        /* \"#utility.yul\":8334:8338   */\n      0x24\n        /* \"#utility.yul\":8331:8332   */\n      0x00\n        /* \"#utility.yul\":8324:8339   */\n      revert\n        /* \"#utility.yul\":8351:8671   */\n    tag_31:\n        /* \"#utility.yul\":8395:8401   */\n      0x00\n        /* \"#utility.yul\":8432:8433   */\n      0x02\n        /* \"#utility.yul\":8426:8430   */\n      dup3\n        /* \"#utility.yul\":8422:8434   */\n      div\n        /* \"#utility.yul\":8412:8434   */\n      swap1\n      pop\n        /* \"#utility.yul\":8479:8480   */\n      0x01\n        /* \"#utility.yul\":8473:8477   */\n      dup3\n        /* \"#utility.yul\":8469:8481   */\n      and\n        /* \"#utility.yul\":8500:8518   */\n      dup1\n        /* \"#utility.yul\":8490:8571   */\n      tag_172\n      jumpi\n        /* \"#utility.yul\":8556:8560   */\n      0x7f\n        /* \"#utility.yul\":8548:8554   */\n      dup3\n        /* \"#utility.yul\":8544:8561   */\n      and\n        /* \"#utility.yul\":8534:8561   */\n      swap2\n      pop\n        /* \"#utility.yul\":8490:8571   */\n    tag_172:\n        /* \"#utility.yul\":8618:8620   */\n      0x20\n        /* \"#utility.yul\":8610:8616   */\n      dup3\n        /* \"#utility.yul\":8607:8621   */\n      lt\n        /* \"#utility.yul\":8587:8605   */\n      dup2\n        /* \"#utility.yul\":8584:8622   */\n      sub\n        /* \"#utility.yul\":8581:8665   */\n      tag_173\n      jumpi\n        /* \"#utility.yul\":8637:8655   */\n      tag_174\n      tag_70\n      jump\t// in\n    tag_174:\n        /* \"#utility.yul\":8581:8665   */\n    tag_173:\n        /* \"#utility.yul\":8402:8671   */\n      pop\n        /* \"#utility.yul\":8351:8671   */\n      swap2\n      swap1\n      pop\n      jump\t// out\n        /* \"#utility.yul\":8677:8818   */\n    tag_71:\n        /* \"#utility.yul\":8726:8730   */\n      0x00\n        /* \"#utility.yul\":8749:8752   */\n      dup2\n        /* \"#utility.yul\":8741:8752   */\n      swap1\n      pop\n        /* \"#utility.yul\":8772:8775   */\n      dup2\n        /* \"#utility.yul\":8769:8770   */\n      0x00\n        /* \"#utility.yul\":8762:8776   */\n      mstore\n        /* \"#utility.yul\":8806:8810   */\n      0x20\n        /* \"#utility.yul\":8803:8804   */\n      0x00\n        /* \"#utility.yul\":8793:8811   */\n      keccak256\n        /* \"#utility.yul\":8785:8811   */\n      swap1\n      pop\n        /* \"#utility.yul\":8677:8818   */\n      swap2\n      swap1\n      pop\n      jump\t// out\n        /* \"#utility.yul\":8824:8917   */\n    tag_72:\n        /* \"#utility.yul\":8861:8867   */\n      0x00\n        /* \"#utility.yul\":8908:8910   */\n      0x20\n        /* \"#utility.yul\":8903:8905   */\n      0x1f\n        /* \"#utility.yul\":8896:8901   */\n      dup4\n        /* \"#utility.yul\":8892:8906   */\n      add\n        /* \"#utility.yul\":8888:8911   */\n      div\n        /* \"#utility.yul\":8878:8911   */\n      swap1\n      pop\n        /* \"#utility.yul\":8824:8917   */\n      swap2\n      swap1\n      pop\n      jump\t// out\n        /* \"#utility.yul\":8923:9030   */\n    tag_73:\n        /* \"#utility.yul\":8967:8975   */\n      0x00\n        /* \"#utility.yul\":9017:9022   */\n      dup3\n        /* \"#utility.yul\":9011:9015   */\n      dup3\n        /* \"#utility.yul\":9007:9023   */\n      shl\n        /* \"#utility.yul\":8986:9023   */\n      swap1\n      pop\n        /* \"#utility.yul\":8923:9030   */\n      swap3\n      swap2\n      pop\n      pop\n      jump\t// out\n        /* \"#utility.yul\":9036:9429   */\n    tag_74:\n        /* \"#utility.yul\":9105:9111   */\n      0x00\n        /* \"#utility.yul\":9155:9156   */\n      0x08\n        /* \"#utility.yul\":9143:9153   */\n      dup4\n        /* \"#utility.yul\":9139:9157   */\n      mul\n        /* \"#utility.yul\":9178:9275   */\n      tag_179\n        /* \"#utility.yul\":9208:9274   */\n      0xffffffffffffffffffffffffffffffffffffffffffffffffffffffffffffffff\n        /* \"#utility.yul\":9197:9206   */\n      dup3\n        /* \"#utility.yul\":9178:9275   */\n      tag_73\n      jump\t// in\n    tag_179:\n        /* \"#utility.yul\":9296:9335   */\n      tag_180\n        /* \"#utility.yul\":9326:9334   */\n      dup7\n        /* \"#utility.yul\":9315:9324   */\n      dup4\n        /* \"#utility.yul\":9296:9335   */\n      tag_73\n      jump\t// in\n    tag_180:\n        /* \"#utility.yul\":9284:9335   */\n      swap6\n      pop\n        /* \"#utility.yul\":9368:9372   */\n      dup1\n        /* \"#utility.yul\":9364:9373   */\n      not\n        /* \"#utility.yul\":9357:9362   */\n      dup5\n        /* \"#utility.yul\":9353:9374   */\n      and\n        /* \"#utility.yul\":9344:9374   */\n      swap4\n      pop\n        /* \"#utility.yul\":9417:9421   */\n      dup1\n        /* \"#utility.yul\":9407:9415   */\n      dup7\n        /* \"#utility.yul\":9403:9422   */\n      and\n        /* \"#utility.yul\":9396:9401   */\n      dup5\n        /* \"#utility.yul\":9393:9423   */\n      or\n        /* \"#utility.yul\":9383:9423   */\n      swap3\n      pop\n        /* \"#utility.yul\":9112:9429   */\n      pop\n      pop\n        /* \"#utility.yul\":9036:9429   */\n      swap4\n      swap3\n      pop\n      pop\n      pop\n      jump\t// out\n        /* \"#utility.yul\":9435:9495   */\n    tag_75:\n        /* \"#utility.yul\":9463:9466   */\n      0x00\n        /* \"#utility.yul\":9484:9489   */\n      dup2\n        /* \"#utility.yul\":9477:9489   */\n      swap1\n      pop\n        /* \"#utility.yul\":9435:9495   */\n      swap2\n      swap1\n      pop\n      jump\t// out\n        /* \"#utility.yul\":9501:9643   */\n    tag_76:\n        /* \"#utility.yul\":9551:9560   */\n      0x00\n        /* \"#utility.yul\":9584:9637   */\n      tag_183\n        /* \"#utility.yul\":9602:9636   */\n      tag_184\n        /* \"#utility.yul\":9611:9635   */\n      tag_185\n        /* \"#utility.yul\":9629:9634   */\n      dup5\n        /* \"#utility.yul\":9611:9635   */\n      tag_47\n      jump\t// in\n    tag_185:\n        /* \"#utility.yul\":9602:9636   */\n      tag_75\n      jump\t// in\n    tag_184:\n        /* \"#utility.yul\":9584:9637   */\n      tag_47\n      jump\t// in\n    tag_183:\n        /* \"#utility.yul\":9571:9637   */\n      swap1\n      pop\n        /* \"#utility.yul\":9501:9643   */\n      swap2\n      swap1\n      pop\n      jump\t// out\n        /* \"#utility.yul\":9649:9724   */\n    tag_77:\n        /* \"#utility.yul\":9692:9695   */\n      0x00\n        /* \"#utility.yul\":9713:9718   */\n      dup2\n        /* \"#utility.yul\":9706:9718   */\n      swap1\n      pop\n        /* \"#utility.yul\":9649:9724   */\n      swap2\n      swap1\n      pop\n      jump\t// out\n        /* \"#utility.yul\":9730:9999   */\n    tag_78:\n        /* \"#utility.yul\":9840:9879   */\n      tag_188\n        /* \"#utility.yul\":9871:9878   */\n      dup4\n        /* \"#utility.yul\":9840:9879   */\n      tag_76\n      jump\t// in\n    tag_188:\n        /* \"#utility.yul\":9901:9992   */\n      tag_189\n        /* \"#utility.yul\":9950:9991   */\n      tag_190\n        /* \"#utility.yul\":9974:9990   */\n      dup3\n        /* \"#utility.yul\":9950:9991   */\n      tag_77\n      jump\t// in\n    tag_190:\n        /* \"#utility.yul\":9942:9948   */\n      dup5\n        /* \"#utility.yul\":9935:9939   */\n      dup5\n        /* \"#utility.yul\":9929:9940   */\n      sload\n        /* \"#utility.yul\":9901:9992   */\n      tag_74\n      jump\t// in\n    tag_189:\n        /* \"#utility.yul\":9895:9899   */\n      dup3\n        /* \"#utility.yul\":9888:9993   */\n      sstore\n        /* \"#utility.yul\":9806:9999   */\n      pop\n        /* \"#utility.yul\":9730:9999   */\n      pop\n      pop\n      pop\n      jump\t// out\n        /* \"#utility.yul\":10005:10078   */\n    tag_79:\n        /* \"#utility.yul\":10050:10053   */\n      0x00\n        /* \"#utility.yul\":10071:10072   */\n      0x00\n        /* \"#utility.yul\":10064:10072   */\n      swap1\n      pop\n        /* \"#utility.yul\":10005:10078   */\n      swap1\n      jump\t// out\n        /* \"#utility.yul\":10084:10273   */\n    tag_80:\n        /* \"#utility.yul\":10161:10193   */\n      tag_193\n      tag_79\n      jump\t// in\n    tag_193:\n        /* \"#utility.yul\":10202:10267   */\n      tag_194\n        /* \"#utility.yul\":10260:10266   */\n      dup2\n        /* \"#utility.yul\":10252:10258   */\n      dup5\n        /* \"#utility.yul\":10246:10250   */\n      dup5\n        /* \"#utility.yul\":10202:10267   */\n      tag_78\n      jump\t// in\n    tag_194:\n        /* \"#utility.yul\":10137:10273   */\n      pop\n        /* \"#utility.yul\":10084:10273   */\n      pop\n      pop\n      jump\t// out\n        /* \"#utility.yul\":10279:10465   */\n    tag_81:\n        /* \"#utility.yul\":10339:10459   */\n    tag_196:\n        /* \"#utility.yul\":10356:10359   */\n      dup2\n        /* \"#utility.yul\":10349:10354   */\n      dup2\n        /* \"#utility.yul\":10346:10360   */\n      lt\n        /* \"#utility.yul\":10339:10459   */\n      iszero\n      tag_198\n      jumpi\n        /* \"#utility.yul\":10410:10449   */\n      tag_199\n        /* \"#utility.yul\":10447:10448   */\n      0x00\n        /* \"#utility.yul\":10440:10445   */\n      dup3\n        /* \"#utility.yul\":10410:10449   */\n      tag_80\n      jump\t// in\n    tag_199:\n        /* \"#utility.yul\":10383:10384   */\n      0x01\n        /* \"#utility.yul\":10376:10381   */\n      dup2\n        /* \"#utility.yul\":10372:10385   */\n      add\n        /* \"#utility.yul\":10363:10385   */\n      swap1\n      pop\n        /* \"#utility.yul\":10339:10459   */\n      jump(tag_196)\n    tag_198:\n        /* \"#utility.yul\":10279:10465   */\n      pop\n      pop\n      jump\t// out\n        /* \"#utility.yul\":10471:11014   */\n    tag_82:\n        /* \"#utility.yul\":10572:10574   */\n      0x1f\n        /* \"#utility.yul\":10567:10570   */\n      dup3\n        /* \"#utility.yul\":10564:10575   */\n      gt\n        /* \"#utility.yul\":10561:11007   */\n      iszero\n      tag_201\n      jumpi\n        /* \"#utility.yul\":10606:10644   */\n      tag_202\n        /* \"#utility.yul\":10638:10643   */\n      dup2\n        /* \"#utility.yul\":10606:10644   */\n      tag_71\n      jump\t// in\n    tag_202:\n        /* \"#utility.yul\":10690:10719   */\n      tag_203\n        /* \"#utility.yul\":10708:10718   */\n      dup5\n        /* \"#utility.yul\":10690:10719   */\n      tag_72\n      jump\t// in\n    tag_203:\n        /* \"#utility.yul\":10680:10688   */\n      dup2\n        /* \"#utility.yul\":10676:10720   */\n      add\n        /* \"#utility.yul\":10873:10875   */\n      0x20\n        /* \"#utility.yul\":10861:10871   */\n      dup6\n        /* \"#utility.yul\":10858:10876   */\n      lt\n        /* \"#utility.yul\":10855:10904   */\n      iszero\n      tag_204\n      jumpi\n        /* \"#utility.yul\":10894:10902   */\n      dup2\n        /* \"#utility.yul\":10879:10902   */\n      swap1\n      pop\n        /* \"#utility.yul\":10855:10904   */\n    tag_204:\n        /* \"#utility.yul\":10917:10997   */\n      tag_205\n        /* \"#utility.yul\":10973:10995   */\n      tag_206\n        /* \"#utility.yul\":10991:10994   */\n      dup6\n        /* \"#utility.yul\":10973:10995   */\n      tag_72\n      jump\t// in\n    tag_206:\n        /* \"#utility.yul\":10963:10971   */\n      dup4\n        /* \"#utility.yul\":10959:10996   */\n      add\n        /* \"#utility.yul\":10946:10957   */\n      dup3\n        /* \"#utility.yul\":10917:10997   */\n      tag_81\n      jump\t// in\n    tag_205:\n        /* \"#utility.yul\":10576:11007   */\n      pop\n      pop\n        /* \"#utility.yul\":10561:11007   */\n    tag_201:\n        /* \"#utility.yul\":10471:11014   */\n      pop\n      pop\n      pop\n      jump\t// out\n        /* \"#utility.yul\":11020:11137   */\n    tag_83:\n        /* \"#utility.yul\":11074:11082   */\n      0x00\n        /* \"#utility.yul\":11124:11129   */\n      dup3\n        /* \"#utility.yul\":11118:11122   */\n      dup3\n        /* \"#utility.yul\":11114:11130   */\n      shr\n        /* \"#utility.yul\":11093:11130   */\n      swap1\n      pop\n        /* \"#utility.yul\":11020:11137   */\n      swap3\n      swap2\n      pop\n      pop\n      jump\t// out\n        /* \"#utility.yul\":11143:11312   */\n    tag_84:\n        /* \"#utility.yul\":11187:11193   */\n      0x00\n        /* \"#utility.yul\":11220:11271   */\n      tag_209\n        /* \"#utility.yul\":11268:11269   */\n      0x00\n        /* \"#utility.yul\":11264:11270   */\n      not\n        /* \"#utility.yul\":11256:11261   */\n      dup5\n        /* \"#utility.yul\":11253:11254   */\n      0x08\n        /* \"#utility.yul\":11249:11262   */\n      mul\n        /* \"#utility.yul\":11220:11271   */\n      tag_83\n      jump\t// in\n    tag_209:\n        /* \"#utility.yul\":11216:11272   */\n      not\n        /* \"#utility.yul\":11301:11305   */\n      dup1\n        /* \"#utility.yul\":11295:11299   */\n      dup4\n        /* \"#utility.yul\":11291:11306   */\n      and\n        /* \"#utility.yul\":11281:11306   */\n      swap2\n      pop\n        /* \"#utility.yul\":11194:11312   */\n      pop\n        /* \"#utility.yul\":11143:11312   */\n      swap3\n      swap2\n      pop\n      pop\n      jump\t// out\n        /* \"#utility.yul\":11317:11612   */\n    tag_85:\n        /* \"#utility.yul\":11393:11397   */\n      0x00\n        /* \"#utility.yul\":11539:11568   */\n      tag_211\n        /* \"#utility.yul\":11564:11567   */\n      dup4\n        /* \"#utility.yul\":11558:11562   */\n      dup4\n        /* \"#utility.yul\":11539:11568   */\n      tag_84\n      jump\t// in\n    tag_211:\n        /* \"#utility.yul\":11531:11568   */\n      swap2\n      pop\n        /* \"#utility.yul\":11601:11604   */\n      dup3\n        /* \"#utility.yul\":11598:11599   */\n      0x02\n        /* \"#utility.yul\":11594:11605   */\n      mul\n        /* \"#utility.yul\":11588:11592   */\n      dup3\n        /* \"#utility.yul\":11585:11606   */\n      or\n        /* \"#utility.yul\":11577:11606   */\n      swap1\n      pop\n        /* \"#utility.yul\":11317:11612   */\n      swap3\n      swap2\n      pop\n      pop\n      jump\t// out\n        /* \"#utility.yul\":11617:13012   */\n    tag_29:\n        /* \"#utility.yul\":11734:11771   */\n      tag_213\n        /* \"#utility.yul\":11767:11770   */\n      dup3\n        /* \"#utility.yul\":11734:11771   */\n      tag_60\n      jump\t// in\n    tag_213:\n        /* \"#utility.yul\":11836:11854   */\n      0xffffffffffffffff\n        /* \"#utility.yul\":11828:11834   */\n      dup2\n        /* \"#utility.yul\":11825:11855   */\n      gt\n        /* \"#utility.yul\":11822:11878   */\n      iszero\n      tag_214\n      jumpi\n        /* \"#utility.yul\":11858:11876   */\n      tag_215\n      tag_53\n      jump\t// in\n    tag_215:\n        /* \"#utility.yul\":11822:11878   */\n    tag_214:\n        /* \"#utility.yul\":11902:11940   */\n      tag_216\n        /* \"#utility.yul\":11934:11938   */\n      dup3\n        /* \"#utility.yul\":11928:11939   */\n      sload\n        /* \"#utility.yul\":11902:11940   */\n      tag_31\n      jump\t// in\n    tag_216:\n        /* \"#utility.yul\":11987:12054   */\n      tag_217\n        /* \"#utility.yul\":12047:12053   */\n      dup3\n        /* \"#utility.yul\":12039:12045   */\n      dup3\n        /* \"#utility.yul\":12033:12037   */\n      dup6\n        /* \"#utility.yul\":11987:12054   */\n      tag_82\n      jump\t// in\n    tag_217:\n        /* \"#utility.yul\":12081:12082   */\n      0x00\n        /* \"#utility.yul\":12105:12109   */\n      0x20\n        /* \"#utility.yul\":12092:12109   */\n      swap1\n      pop\n        /* \"#utility.yul\":12137:12139   */\n      0x1f\n        /* \"#utility.yul\":12129:12135   */\n      dup4\n        /* \"#utility.yul\":12126:12140   */\n      gt\n        /* \"#utility.yul\":12154:12155   */\n      0x01\n        /* \"#utility.yul\":12149:12767   */\n      dup2\n      eq\n      tag_219\n      jumpi\n        /* \"#utility.yul\":12811:12812   */\n      0x00\n        /* \"#utility.yul\":12828:12834   */\n      dup5\n        /* \"#utility.yul\":12825:12902   */\n      iszero\n      tag_220\n      jumpi\n        /* \"#utility.yul\":12877:12886   */\n      dup3\n        /* \"#utility.yul\":12872:12875   */\n      dup8\n        /* \"#utility.yul\":12868:12887   */\n      add\n        /* \"#utility.yul\":12862:12888   */\n      mload\n        /* \"#utility.yul\":12853:12888   */\n      swap1\n      pop\n        /* \"#utility.yul\":12825:12902   */\n    tag_220:\n        /* \"#utility.yul\":12928:12995   */\n      tag_221\n        /* \"#utility.yul\":12988:12994   */\n      dup6\n        /* \"#utility.yul\":12981:12986   */\n      dup3\n        /* \"#utility.yul\":12928:12995   */\n      tag_85\n      jump\t// in\n    tag_221:\n        /* \"#utility.yul\":12922:12926   */\n      dup7\n        /* \"#utility.yul\":12915:12996   */\n      sstore\n        /* \"#utility.yul\":12784:13006   */\n      pop\n        /* \"#utility.yul\":12119:13006   */\n      jump(tag_218)\n        /* \"#utility.yul\":12149:12767   */\n    tag_219:\n        /* \"#utility.yul\":12201:12205   */\n      0x1f\n        /* \"#utility.yul\":12197:12206   */\n      not\n        /* \"#utility.yul\":12189:12195   */\n      dup5\n        /* \"#utility.yul\":12185:12207   */\n      and\n        /* \"#utility.yul\":12235:12272   */\n      tag_222\n        /* \"#utility.yul\":12267:12271   */\n      dup7\n        /* \"#utility.yul\":12235:12272   */\n      tag_71\n      jump\t// in\n    tag_222:\n        /* \"#utility.yul\":12294:12295   */\n      0x00\n        /* \"#utility.yul\":12308:12516   */\n    tag_223:\n        /* \"#utility.yul\":12322:12329   */\n      dup3\n        /* \"#utility.yul\":12319:12320   */\n      dup2\n        /* \"#utility.yul\":12316:12330   */\n      lt\n        /* \"#utility.yul\":12308:12516   */\n      iszero\n      tag_225\n      jumpi\n        /* \"#utility.yul\":12401:12410   */\n      dup5\n        /* \"#utility.yul\":12396:12399   */\n      dup10\n        /* \"#utility.yul\":12392:12411   */\n      add\n        /* \"#utility.yul\":12386:12412   */\n      mload\n        /* \"#utility.yul\":12378:12384   */\n      dup3\n        /* \"#utility.yul\":12371:12413   */\n      sstore\n        /* \"#utility.yul\":12452:12453   */\n      0x01\n        /* \"#utility.yul\":12444:12450   */\n      dup3\n        /* \"#utility.yul\":12440:12454   */\n      add\n        /* \"#utility.yul\":12430:12454   */\n      swap2\n      pop\n        /* \"#utility.yul\":12499:12501   */\n      0x20\n        /* \"#utility.yul\":12488:12497   */\n      dup6\n        /* \"#utility.yul\":12484:12502   */\n      add\n        /* \"#utility.yul\":12471:12502   */\n      swap5\n      pop\n        /* \"#utility.yul\":12345:12349   */\n      0x20\n        /* \"#utility.yul\":12342:12343   */\n      dup2\n        /* \"#utility.yul\":12338:12350   */\n      add\n        /* \"#utility.yul\":12333:12350   */\n      swap1\n      pop\n        /* \"#utility.yul\":12308:12516   */\n      jump(tag_223)\n    tag_225:\n        /* \"#utility.yul\":12544:12550   */\n      dup7\n        /* \"#utility.yul\":12535:12542   */\n      dup4\n        /* \"#utility.yul\":12532:12551   */\n      lt\n        /* \"#utility.yul\":12529:12708   */\n      iszero\n      tag_226\n      jumpi\n        /* \"#utility.yul\":12602:12611   */\n      dup5\n        /* \"#utility.yul\":12597:12600   */\n      dup10\n        /* \"#utility.yul\":12593:12612   */\n      add\n        /* \"#utility.yul\":12587:12613   */\n      mload\n        /* \"#utility.yul\":12645:12693   */\n      tag_227\n        /* \"#utility.yul\":12687:12691   */\n      0x1f\n        /* \"#utility.yul\":12679:12685   */\n      dup10\n        /* \"#utility.yul\":12675:12692   */\n      and\n        /* \"#utility.yul\":12664:12673   */\n      dup3\n        /* \"#utility.yul\":12645:12693   */\n      tag_84\n      jump\t// in\n    tag_227:\n        /* \"#utility.yul\":12637:12643   */\n      dup4\n        /* \"#utility.yul\":12630:12694   */\n      sstore\n        /* \"#utility.yul\":12552:12708   */\n      pop\n        /* \"#utility.yul\":12529:12708   */\n    tag_226:\n        /* \"#utility.yul\":12754:12755   */\n      0x01\n        /* \"#utility.yul\":12750:12751   */\n      0x02\n        /* \"#utility.yul\":12742:12748   */\n      dup9\n        /* \"#utility.yul\":12738:12752   */\n      mul\n        /* \"#utility.yul\":12734:12756   */\n      add\n        /* \"#utility.yul\":12728:12732   */\n      dup9\n        /* \"#utility.yul\":12721:12757   */\n      sstore\n        /* \"#utility.yul\":12156:12767   */\n      pop\n      pop\n      pop\n        /* \"#utility.yul\":12119:13006   */\n    tag_218:\n      pop\n        /* \"#utility.yul\":11709:13012   */\n      pop\n      pop\n      pop\n        /* \"#utility.yul\":11617:13012   */\n      pop\n      pop\n      jump\t// out\n\n    auxdata: 0xa264697066735822122089d1383be86cd78045076049ee1ab0274bf2f72fae8988a321dc4630df2514ba64736f6c634300081c0033\n}\n",
				"bytecode": {
					"linkReferences": {},
					"object": "6080604052335f5f6101000a81548173ffffffffffffffffffffffffffffffffffffffff021916908373ffffffffffffffffffffffffffffffffffffffff160217905550348015604d575f5ffd5b50610b3f8061005b5f395ff3fe608060405260043610610033575f3560e01c806301aa64cf146100375780637880312614610053578063e305c0fd14610092575b5f5ffd5b610051600480360381019061004c919061058f565b6100ba565b005b34801561005e575f5ffd5b50610079600480360381019061007491906105e9565b6101ed565b60405161008994939291906106c2565b60405180910390f35b34801561009d575f5ffd5b506100b860048036038101906100b39190610713565b610344565b005b5f60015f8481526020019081526020015f20905080600201543411610114576040517f08c379a000000000000000000000000000000000000000000000000000000000815260040161010b9061081f565b60405180910390fd5b5f8160020154111561018c57806003015f9054906101000a900473ffffffffffffffffffffffffffffffffffffffff1673ffffffffffffffffffffffffffffffffffffffff166108fc826002015490811502906040515f60405180830381858888f1935050505015801561018a573d5f5f3e3d5ffd5b505b81815f01908161019c9190610a3a565b5034816002018190555033816003015f6101000a81548173ffffffffffffffffffffffffffffffffffffffff021916908373ffffffffffffffffffffffffffffffffffffffff160217905550505050565b6001602052805f5260405f205f91509050805f01805461020c9061086a565b80601f01602080910402602001604051908101604052809291908181526020018280546102389061086a565b80156102835780601f1061025a57610100808354040283529160200191610283565b820191905f5260205f20905b81548152906001019060200180831161026657829003601f168201915b5050505050908060010180546102989061086a565b80601f01602080910402602001604051908101604052809291908181526020018280546102c49061086a565b801561030f5780601f106102e65761010080835404028352916020019161030f565b820191905f5260205f20905b8154815290600101906020018083116102f257829003601f168201915b505050505090806002015490806003015f9054906101000a900473ffffffffffffffffffffffffffffffffffffffff16905084565b60405180608001604052808481526020018381526020018281526020013373ffffffffffffffffffffffffffffffffffffffff1681525060015f8681526020019081526020015f205f820151815f01908161039f9190610a3a565b5060208201518160010190816103b59190610a3a565b50604082015181600201556060820151816003015f6101000a81548173ffffffffffffffffffffffffffffffffffffffff021916908373ffffffffffffffffffffffffffffffffffffffff16021790555090505050505050565b5f604051905090565b5f5ffd5b5f5ffd5b5f819050919050565b61043281610420565b811461043c575f5ffd5b50565b5f8135905061044d81610429565b92915050565b5f5ffd5b5f5ffd5b5f601f19601f8301169050919050565b7f4e487b71000000000000000000000000000000000000000000000000000000005f52604160045260245ffd5b6104a18261045b565b810181811067ffffffffffffffff821117156104c0576104bf61046b565b5b80604052505050565b5f6104d261040f565b90506104de8282610498565b919050565b5f67ffffffffffffffff8211156104fd576104fc61046b565b5b6105068261045b565b9050602081019050919050565b828183375f83830152505050565b5f61053361052e846104e3565b6104c9565b90508281526020810184848401111561054f5761054e610457565b5b61055a848285610513565b509392505050565b5f82601f83011261057657610575610453565b5b8135610586848260208601610521565b91505092915050565b5f5f604083850312156105a5576105a4610418565b5b5f6105b28582860161043f565b925050602083013567ffffffffffffffff8111156105d3576105d261041c565b5b6105df85828601610562565b9150509250929050565b5f602082840312156105fe576105fd610418565b5b5f61060b8482850161043f565b91505092915050565b5f81519050919050565b5f82825260208201905092915050565b8281835e5f83830152505050565b5f61064682610614565b610650818561061e565b935061066081856020860161062e565b6106698161045b565b840191505092915050565b61067d81610420565b82525050565b5f73ffffffffffffffffffffffffffffffffffffffff82169050919050565b5f6106ac82610683565b9050919050565b6106bc816106a2565b82525050565b5f6080820190508181035f8301526106da818761063c565b905081810360208301526106ee818661063c565b90506106fd6040830185610674565b61070a60608301846106b3565b95945050505050565b5f5f5f5f6080858703121561072b5761072a610418565b5b5f6107388782880161043f565b945050602085013567ffffffffffffffff8111156107595761075861041c565b5b61076587828801610562565b935050604085013567ffffffffffffffff8111156107865761078561041c565b5b61079287828801610562565b92505060606107a38782880161043f565b91505092959194509250565b7f796f7572207072696365206973206c6f776572207468616e20746865206375725f8201527f72656e742070726963652e000000000000000000000000000000000000000000602082015250565b5f610809602b8361061e565b9150610814826107af565b604082019050919050565b5f6020820190508181035f830152610836816107fd565b9050919050565b7f4e487b71000000000000000000000000000000000000000000000000000000005f52602260045260245ffd5b5f600282049050600182168061088157607f821691505b6020821081036108945761089361083d565b5b50919050565b5f819050815f5260205f209050919050565b5f6020601f8301049050919050565b5f82821b905092915050565b5f600883026108f67fffffffffffffffffffffffffffffffffffffffffffffffffffffffffffffffff826108bb565b61090086836108bb565b95508019841693508086168417925050509392505050565b5f819050919050565b5f61093b61093661093184610420565b610918565b610420565b9050919050565b5f819050919050565b61095483610921565b61096861096082610942565b8484546108c7565b825550505050565b5f5f905090565b61097f610970565b61098a81848461094b565b505050565b5b818110156109ad576109a25f82610977565b600181019050610990565b5050565b601f8211156109f2576109c38161089a565b6109cc846108ac565b810160208510156109db578190505b6109ef6109e7856108ac565b83018261098f565b50505b505050565b5f82821c905092915050565b5f610a125f19846008026109f7565b1980831691505092915050565b5f610a2a8383610a03565b9150826002028217905092915050565b610a4382610614565b67ffffffffffffffff811115610a5c57610a5b61046b565b5b610a66825461086a565b610a718282856109b1565b5f60209050601f831160018114610aa2575f8415610a90578287015190505b610a9a8582610a1f565b865550610b01565b601f198416610ab08661089a565b5f5b82811015610ad757848901518255600182019150602085019450602081019050610ab2565b86831015610af45784890151610af0601f891682610a03565b8355505b6001600288020188555050505b50505050505056fea264697066735822122089d1383be86cd78045076049ee1ab0274bf2f72fae8988a321dc4630df2514ba64736f6c634300081c0033",
					"opcodes": "PUSH1 0x80 PUSH1 0x40 MSTORE CALLER PUSH0 PUSH0 PUSH2 0x100 EXP DUP2 SLOAD DUP2 PUSH20 0xFFFFFFFFFFFFFFFFFFFFFFFFFFFFFFFFFFFFFFFF MUL NOT AND SWAP1 DUP4 PUSH20 0xFFFFFFFFFFFFFFFFFFFFFFFFFFFFFFFFFFFFFFFF AND MUL OR SWAP1 SSTORE POP CALLVALUE DUP1 ISZERO PUSH1 0x4D JUMPI PUSH0 PUSH0 REVERT JUMPDEST POP PUSH2 0xB3F DUP1 PUSH2 0x5B PUSH0 CODECOPY PUSH0 RETURN INVALID PUSH1 0x80 PUSH1 0x40 MSTORE PUSH1 0x4 CALLDATASIZE LT PUSH2 0x33 JUMPI PUSH0 CALLDATALOAD PUSH1 0xE0 SHR DUP1 PUSH4 0x1AA64CF EQ PUSH2 0x37 JUMPI DUP1 PUSH4 0x78803126 EQ PUSH2 0x53 JUMPI DUP1 PUSH4 0xE305C0FD EQ PUSH2 0x92 JUMPI JUMPDEST PUSH0 PUSH0 REVERT JUMPDEST PUSH2 0x51 PUSH1 0x4 DUP1 CALLDATASIZE SUB DUP2 ADD SWAP1 PUSH2 0x4C SWAP2 SWAP1 PUSH2 0x58F JUMP JUMPDEST PUSH2 0xBA JUMP JUMPDEST STOP JUMPDEST CALLVALUE DUP1 ISZERO PUSH2 0x5E JUMPI PUSH0 PUSH0 REVERT JUMPDEST POP PUSH2 0x79 PUSH1 0x4 DUP1 CALLDATASIZE SUB DUP2 ADD SWAP1 PUSH2 0x74 SWAP2 SWAP1 PUSH2 0x5E9 JUMP JUMPDEST PUSH2 0x1ED JUMP JUMPDEST PUSH1 0x40 MLOAD PUSH2 0x89 SWAP5 SWAP4 SWAP3 SWAP2 SWAP1 PUSH2 0x6C2 JUMP JUMPDEST PUSH1 0x40 MLOAD DUP1 SWAP2 SUB SWAP1 RETURN JUMPDEST CALLVALUE DUP1 ISZERO PUSH2 0x9D JUMPI PUSH0 PUSH0 REVERT JUMPDEST POP PUSH2 0xB8 PUSH1 0x4 DUP1 CALLDATASIZE SUB DUP2 ADD SWAP1 PUSH2 0xB3 SWAP2 SWAP1 PUSH2 0x713 JUMP JUMPDEST PUSH2 0x344 JUMP JUMPDEST STOP JUMPDEST PUSH0 PUSH1 0x1 PUSH0 DUP5 DUP2 MSTORE PUSH1 0x20 ADD SWAP1 DUP2 MSTORE PUSH1 0x20 ADD PUSH0 KECCAK256 SWAP1 POP DUP1 PUSH1 0x2 ADD SLOAD CALLVALUE GT PUSH2 0x114 JUMPI PUSH1 0x40 MLOAD PUSH32 0x8C379A000000000000000000000000000000000000000000000000000000000 DUP2 MSTORE PUSH1 0x4 ADD PUSH2 0x10B SWAP1 PUSH2 0x81F JUMP JUMPDEST PUSH1 0x40 MLOAD DUP1 SWAP2 SUB SWAP1 REVERT JUMPDEST PUSH0 DUP2 PUSH1 0x2 ADD SLOAD GT ISZERO PUSH2 0x18C JUMPI DUP1 PUSH1 0x3 ADD PUSH0 SWAP1 SLOAD SWAP1 PUSH2 0x100 EXP SWAP1 DIV PUSH20 0xFFFFFFFFFFFFFFFFFFFFFFFFFFFFFFFFFFFFFFFF AND PUSH20 0xFFFFFFFFFFFFFFFFFFFFFFFFFFFFFFFFFFFFFFFF AND PUSH2 0x8FC DUP3 PUSH1 0x2 ADD SLOAD SWAP1 DUP2 ISZERO MUL SWAP1 PUSH1 0x40 MLOAD PUSH0 PUSH1 0x40 MLOAD DUP1 DUP4 SUB DUP2 DUP6 DUP9 DUP9 CALL SWAP4 POP POP POP POP ISZERO DUP1 ISZERO PUSH2 0x18A JUMPI RETURNDATASIZE PUSH0 PUSH0 RETURNDATACOPY RETURNDATASIZE PUSH0 REVERT JUMPDEST POP JUMPDEST DUP2 DUP2 PUSH0 ADD SWAP1 DUP2 PUSH2 0x19C SWAP2 SWAP1 PUSH2 0xA3A JUMP JUMPDEST POP CALLVALUE DUP2 PUSH1 0x2 ADD DUP2 SWAP1 SSTORE POP CALLER DUP2 PUSH1 0x3 ADD PUSH0 PUSH2 0x100 EXP DUP2 SLOAD DUP2 PUSH20 0xFFFFFFFFFFFFFFFFFFFFFFFFFFFFFFFFFFFFFFFF MUL NOT AND SWAP1 DUP4 PUSH20 0xFFFFFFFFFFFFFFFFFFFFFFFFFFFFFFFFFFFFFFFF AND MUL OR SWAP1 SSTORE POP POP POP POP JUMP JUMPDEST PUSH1 0x1 PUSH1 0x20 MSTORE DUP1 PUSH0 MSTORE PUSH1 0x40 PUSH0 KECCAK256 PUSH0 SWAP2 POP SWAP1 POP DUP1 PUSH0 ADD DUP1 SLOAD PUSH2 0x20C SWAP1 PUSH2 0x86A JUMP JUMPDEST DUP1 PUSH1 0x1F ADD PUSH1 0x20 DUP1 SWAP2 DIV MUL PUSH1 0x20 ADD PUSH1 0x40 MLOAD SWAP1 DUP2 ADD PUSH1 0x40 MSTORE DUP1 SWAP3 SWAP2 SWAP1 DUP2 DUP2 MSTORE PUSH1 0x20 ADD DUP3 DUP1 SLOAD PUSH2 0x238 SWAP1 PUSH2 0x86A JUMP JUMPDEST DUP1 ISZERO PUSH2 0x283 JUMPI DUP1 PUSH1 0x1F LT PUSH2 0x25A JUMPI PUSH2 0x100 DUP1 DUP4 SLOAD DIV MUL DUP4 MSTORE SWAP2 PUSH1 0x20 ADD SWAP2 PUSH2 0x283 JUMP JUMPDEST DUP3 ADD SWAP2 SWAP1 PUSH0 MSTORE PUSH1 0x20 PUSH0 KECCAK256 SWAP1 JUMPDEST DUP2 SLOAD DUP2 MSTORE SWAP1 PUSH1 0x1 ADD SWAP1 PUSH1 0x20 ADD DUP1 DUP4 GT PUSH2 0x266 JUMPI DUP3 SWAP1 SUB PUSH1 0x1F AND DUP3 ADD SWAP2 JUMPDEST POP POP POP POP POP SWAP1 DUP1 PUSH1 0x1 ADD DUP1 SLOAD PUSH2 0x298 SWAP1 PUSH2 0x86A JUMP JUMPDEST DUP1 PUSH1 0x1F ADD PUSH1 0x20 DUP1 SWAP2 DIV MUL PUSH1 0x20 ADD PUSH1 0x40 MLOAD SWAP1 DUP2 ADD PUSH1 0x40 MSTORE DUP1 SWAP3 SWAP2 SWAP1 DUP2 DUP2 MSTORE PUSH1 0x20 ADD DUP3 DUP1 SLOAD PUSH2 0x2C4 SWAP1 PUSH2 0x86A JUMP JUMPDEST DUP1 ISZERO PUSH2 0x30F JUMPI DUP1 PUSH1 0x1F LT PUSH2 0x2E6 JUMPI PUSH2 0x100 DUP1 DUP4 SLOAD DIV MUL DUP4 MSTORE SWAP2 PUSH1 0x20 ADD SWAP2 PUSH2 0x30F JUMP JUMPDEST DUP3 ADD SWAP2 SWAP1 PUSH0 MSTORE PUSH1 0x20 PUSH0 KECCAK256 SWAP1 JUMPDEST DUP2 SLOAD DUP2 MSTORE SWAP1 PUSH1 0x1 ADD SWAP1 PUSH1 0x20 ADD DUP1 DUP4 GT PUSH2 0x2F2 JUMPI DUP3 SWAP1 SUB PUSH1 0x1F AND DUP3 ADD SWAP2 JUMPDEST POP POP POP POP POP SWAP1 DUP1 PUSH1 0x2 ADD SLOAD SWAP1 DUP1 PUSH1 0x3 ADD PUSH0 SWAP1 SLOAD SWAP1 PUSH2 0x100 EXP SWAP1 DIV PUSH20 0xFFFFFFFFFFFFFFFFFFFFFFFFFFFFFFFFFFFFFFFF AND SWAP1 POP DUP5 JUMP JUMPDEST PUSH1 0x40 MLOAD DUP1 PUSH1 0x80 ADD PUSH1 0x40 MSTORE DUP1 DUP5 DUP2 MSTORE PUSH1 0x20 ADD DUP4 DUP2 MSTORE PUSH1 0x20 ADD DUP3 DUP2 MSTORE PUSH1 0x20 ADD CALLER PUSH20 0xFFFFFFFFFFFFFFFFFFFFFFFFFFFFFFFFFFFFFFFF AND DUP2 MSTORE POP PUSH1 0x1 PUSH0 DUP7 DUP2 MSTORE PUSH1 0x20 ADD SWAP1 DUP2 MSTORE PUSH1 0x20 ADD PUSH0 KECCAK256 PUSH0 DUP3 ADD MLOAD DUP2 PUSH0 ADD SWAP1 DUP2 PUSH2 0x39F SWAP2 SWAP1 PUSH2 0xA3A JUMP JUMPDEST POP PUSH1 0x20 DUP3 ADD MLOAD DUP2 PUSH1 0x1 ADD SWAP1 DUP2 PUSH2 0x3B5 SWAP2 SWAP1 PUSH2 0xA3A JUMP JUMPDEST POP PUSH1 0x40 DUP3 ADD MLOAD DUP2 PUSH1 0x2 ADD SSTORE PUSH1 0x60 DUP3 ADD MLOAD DUP2 PUSH1 0x3 ADD PUSH0 PUSH2 0x100 EXP DUP2 SLOAD DUP2 PUSH20 0xFFFFFFFFFFFFFFFFFFFFFFFFFFFFFFFFFFFFFFFF MUL NOT AND SWAP1 DUP4 PUSH20 0xFFFFFFFFFFFFFFFFFFFFFFFFFFFFFFFFFFFFFFFF AND MUL OR SWAP1 SSTORE POP SWAP1 POP POP POP POP POP POP JUMP JUMPDEST PUSH0 PUSH1 0x40 MLOAD SWAP1 POP SWAP1 JUMP JUMPDEST PUSH0 PUSH0 REVERT JUMPDEST PUSH0 PUSH0 REVERT JUMPDEST PUSH0 DUP2 SWAP1 POP SWAP2 SWAP1 POP JUMP JUMPDEST PUSH2 0x432 DUP2 PUSH2 0x420 JUMP JUMPDEST DUP2 EQ PUSH2 0x43C JUMPI PUSH0 PUSH0 REVERT JUMPDEST POP JUMP JUMPDEST PUSH0 DUP2 CALLDATALOAD SWAP1 POP PUSH2 0x44D DUP2 PUSH2 0x429 JUMP JUMPDEST SWAP3 SWAP2 POP POP JUMP JUMPDEST PUSH0 PUSH0 REVERT JUMPDEST PUSH0 PUSH0 REVERT JUMPDEST PUSH0 PUSH1 0x1F NOT PUSH1 0x1F DUP4 ADD AND SWAP1 POP SWAP2 SWAP1 POP JUMP JUMPDEST PUSH32 0x4E487B7100000000000000000000000000000000000000000000000000000000 PUSH0 MSTORE PUSH1 0x41 PUSH1 0x4 MSTORE PUSH1 0x24 PUSH0 REVERT JUMPDEST PUSH2 0x4A1 DUP3 PUSH2 0x45B JUMP JUMPDEST DUP2 ADD DUP2 DUP2 LT PUSH8 0xFFFFFFFFFFFFFFFF DUP3 GT OR ISZERO PUSH2 0x4C0 JUMPI PUSH2 0x4BF PUSH2 0x46B JUMP JUMPDEST JUMPDEST DUP1 PUSH1 0x40 MSTORE POP POP POP JUMP JUMPDEST PUSH0 PUSH2 0x4D2 PUSH2 0x40F JUMP JUMPDEST SWAP1 POP PUSH2 0x4DE DUP3 DUP3 PUSH2 0x498 JUMP JUMPDEST SWAP2 SWAP1 POP JUMP JUMPDEST PUSH0 PUSH8 0xFFFFFFFFFFFFFFFF DUP3 GT ISZERO PUSH2 0x4FD JUMPI PUSH2 0x4FC PUSH2 0x46B JUMP JUMPDEST JUMPDEST PUSH2 0x506 DUP3 PUSH2 0x45B JUMP JUMPDEST SWAP1 POP PUSH1 0x20 DUP2 ADD SWAP1 POP SWAP2 SWAP1 POP JUMP JUMPDEST DUP3 DUP2 DUP4 CALLDATACOPY PUSH0 DUP4 DUP4 ADD MSTORE POP POP POP JUMP JUMPDEST PUSH0 PUSH2 0x533 PUSH2 0x52E DUP5 PUSH2 0x4E3 JUMP JUMPDEST PUSH2 0x4C9 JUMP JUMPDEST SWAP1 POP DUP3 DUP2 MSTORE PUSH1 0x20 DUP2 ADD DUP5 DUP5 DUP5 ADD GT ISZERO PUSH2 0x54F JUMPI PUSH2 0x54E PUSH2 0x457 JUMP JUMPDEST JUMPDEST PUSH2 0x55A DUP5 DUP3 DUP6 PUSH2 0x513 JUMP JUMPDEST POP SWAP4 SWAP3 POP POP POP JUMP JUMPDEST PUSH0 DUP3 PUSH1 0x1F DUP4 ADD SLT PUSH2 0x576 JUMPI PUSH2 0x575 PUSH2 0x453 JUMP JUMPDEST JUMPDEST DUP2 CALLDATALOAD PUSH2 0x586 DUP5 DUP3 PUSH1 0x20 DUP7 ADD PUSH2 0x521 JUMP JUMPDEST SWAP2 POP POP SWAP3 SWAP2 POP POP JUMP JUMPDEST PUSH0 PUSH0 PUSH1 0x40 DUP4 DUP6 SUB SLT ISZERO PUSH2 0x5A5 JUMPI PUSH2 0x5A4 PUSH2 0x418 JUMP JUMPDEST JUMPDEST PUSH0 PUSH2 0x5B2 DUP6 DUP3 DUP7 ADD PUSH2 0x43F JUMP JUMPDEST SWAP3 POP POP PUSH1 0x20 DUP4 ADD CALLDATALOAD PUSH8 0xFFFFFFFFFFFFFFFF DUP2 GT ISZERO PUSH2 0x5D3 JUMPI PUSH2 0x5D2 PUSH2 0x41C JUMP JUMPDEST JUMPDEST PUSH2 0x5DF DUP6 DUP3 DUP7 ADD PUSH2 0x562 JUMP JUMPDEST SWAP2 POP POP SWAP3 POP SWAP3 SWAP1 POP JUMP JUMPDEST PUSH0 PUSH1 0x20 DUP3 DUP5 SUB SLT ISZERO PUSH2 0x5FE JUMPI PUSH2 0x5FD PUSH2 0x418 JUMP JUMPDEST JUMPDEST PUSH0 PUSH2 0x60B DUP5 DUP3 DUP6 ADD PUSH2 0x43F JUMP JUMPDEST SWAP2 POP POP SWAP3 SWAP2 POP POP JUMP JUMPDEST PUSH0 DUP2 MLOAD SWAP1 POP SWAP2 SWAP1 POP JUMP JUMPDEST PUSH0 DUP3 DUP3 MSTORE PUSH1 0x20 DUP3 ADD SWAP1 POP SWAP3 SWAP2 POP POP JUMP JUMPDEST DUP3 DUP2 DUP4 MCOPY PUSH0 DUP4 DUP4 ADD MSTORE POP POP POP JUMP JUMPDEST PUSH0 PUSH2 0x646 DUP3 PUSH2 0x614 JUMP JUMPDEST PUSH2 0x650 DUP2 DUP6 PUSH2 0x61E JUMP JUMPDEST SWAP4 POP PUSH2 0x660 DUP2 DUP6 PUSH1 0x20 DUP7 ADD PUSH2 0x62E JUMP JUMPDEST PUSH2 0x669 DUP2 PUSH2 0x45B JUMP JUMPDEST DUP5 ADD SWAP2 POP POP SWAP3 SWAP2 POP POP JUMP JUMPDEST PUSH2 0x67D DUP2 PUSH2 0x420 JUMP JUMPDEST DUP3 MSTORE POP POP JUMP JUMPDEST PUSH0 PUSH20 0xFFFFFFFFFFFFFFFFFFFFFFFFFFFFFFFFFFFFFFFF DUP3 AND SWAP1 POP SWAP2 SWAP1 POP JUMP JUMPDEST PUSH0 PUSH2 0x6AC DUP3 PUSH2 0x683 JUMP JUMPDEST SWAP1 POP SWAP2 SWAP1 POP JUMP JUMPDEST PUSH2 0x6BC DUP2 PUSH2 0x6A2 JUMP JUMPDEST DUP3 MSTORE POP POP JUMP JUMPDEST PUSH0 PUSH1 0x80 DUP3 ADD SWAP1 POP DUP2 DUP2 SUB PUSH0 DUP4 ADD MSTORE PUSH2 0x6DA DUP2 DUP8 PUSH2 0x63C JUMP JUMPDEST SWAP1 POP DUP2 DUP2 SUB PUSH1 0x20 DUP4 ADD MSTORE PUSH2 0x6EE DUP2 DUP7 PUSH2 0x63C JUMP JUMPDEST SWAP1 POP PUSH2 0x6FD PUSH1 0x40 DUP4 ADD DUP6 PUSH2 0x674 JUMP JUMPDEST PUSH2 0x70A PUSH1 0x60 DUP4 ADD DUP5 PUSH2 0x6B3 JUMP JUMPDEST SWAP6 SWAP5 POP POP POP POP POP JUMP JUMPDEST PUSH0 PUSH0 PUSH0 PUSH0 PUSH1 0x80 DUP6 DUP8 SUB SLT ISZERO PUSH2 0x72B JUMPI PUSH2 0x72A PUSH2 0x418 JUMP JUMPDEST JUMPDEST PUSH0 PUSH2 0x738 DUP8 DUP3 DUP9 ADD PUSH2 0x43F JUMP JUMPDEST SWAP5 POP POP PUSH1 0x20 DUP6 ADD CALLDATALOAD PUSH8 0xFFFFFFFFFFFFFFFF DUP2 GT ISZERO PUSH2 0x759 JUMPI PUSH2 0x758 PUSH2 0x41C JUMP JUMPDEST JUMPDEST PUSH2 0x765 DUP8 DUP3 DUP9 ADD PUSH2 0x562 JUMP JUMPDEST SWAP4 POP POP PUSH1 0x40 DUP6 ADD CALLDATALOAD PUSH8 0xFFFFFFFFFFFFFFFF DUP2 GT ISZERO PUSH2 0x786 JUMPI PUSH2 0x785 PUSH2 0x41C JUMP JUMPDEST JUMPDEST PUSH2 0x792 DUP8 DUP3 DUP9 ADD PUSH2 0x562 JUMP JUMPDEST SWAP3 POP POP PUSH1 0x60 PUSH2 0x7A3 DUP8 DUP3 DUP9 ADD PUSH2 0x43F JUMP JUMPDEST SWAP2 POP POP SWAP3 SWAP6 SWAP2 SWAP5 POP SWAP3 POP JUMP JUMPDEST PUSH32 0x796F7572207072696365206973206C6F776572207468616E2074686520637572 PUSH0 DUP3 ADD MSTORE PUSH32 0x72656E742070726963652E000000000000000000000000000000000000000000 PUSH1 0x20 DUP3 ADD MSTORE POP JUMP JUMPDEST PUSH0 PUSH2 0x809 PUSH1 0x2B DUP4 PUSH2 0x61E JUMP JUMPDEST SWAP2 POP PUSH2 0x814 DUP3 PUSH2 0x7AF JUMP JUMPDEST PUSH1 0x40 DUP3 ADD SWAP1 POP SWAP2 SWAP1 POP JUMP JUMPDEST PUSH0 PUSH1 0x20 DUP3 ADD SWAP1 POP DUP2 DUP2 SUB PUSH0 DUP4 ADD MSTORE PUSH2 0x836 DUP2 PUSH2 0x7FD JUMP JUMPDEST SWAP1 POP SWAP2 SWAP1 POP JUMP JUMPDEST PUSH32 0x4E487B7100000000000000000000000000000000000000000000000000000000 PUSH0 MSTORE PUSH1 0x22 PUSH1 0x4 MSTORE PUSH1 0x24 PUSH0 REVERT JUMPDEST PUSH0 PUSH1 0x2 DUP3 DIV SWAP1 POP PUSH1 0x1 DUP3 AND DUP1 PUSH2 0x881 JUMPI PUSH1 0x7F DUP3 AND SWAP2 POP JUMPDEST PUSH1 0x20 DUP3 LT DUP2 SUB PUSH2 0x894 JUMPI PUSH2 0x893 PUSH2 0x83D JUMP JUMPDEST JUMPDEST POP SWAP2 SWAP1 POP JUMP JUMPDEST PUSH0 DUP2 SWAP1 POP DUP2 PUSH0 MSTORE PUSH1 0x20 PUSH0 KECCAK256 SWAP1 POP SWAP2 SWAP1 POP JUMP JUMPDEST PUSH0 PUSH1 0x20 PUSH1 0x1F DUP4 ADD DIV SWAP1 POP SWAP2 SWAP1 POP JUMP JUMPDEST PUSH0 DUP3 DUP3 SHL SWAP1 POP SWAP3 SWAP2 POP POP JUMP JUMPDEST PUSH0 PUSH1 0x8 DUP4 MUL PUSH2 0x8F6 PUSH32 0xFFFFFFFFFFFFFFFFFFFFFFFFFFFFFFFFFFFFFFFFFFFFFFFFFFFFFFFFFFFFFFFF DUP3 PUSH2 0x8BB JUMP JUMPDEST PUSH2 0x900 DUP7 DUP4 PUSH2 0x8BB JUMP JUMPDEST SWAP6 POP DUP1 NOT DUP5 AND SWAP4 POP DUP1 DUP7 AND DUP5 OR SWAP3 POP POP POP SWAP4 SWAP3 POP POP POP JUMP JUMPDEST PUSH0 DUP2 SWAP1 POP SWAP2 SWAP1 POP JUMP JUMPDEST PUSH0 PUSH2 0x93B PUSH2 0x936 PUSH2 0x931 DUP5 PUSH2 0x420 JUMP JUMPDEST PUSH2 0x918 JUMP JUMPDEST PUSH2 0x420 JUMP JUMPDEST SWAP1 POP SWAP2 SWAP1 POP JUMP JUMPDEST PUSH0 DUP2 SWAP1 POP SWAP2 SWAP1 POP JUMP JUMPDEST PUSH2 0x954 DUP4 PUSH2 0x921 JUMP JUMPDEST PUSH2 0x968 PUSH2 0x960 DUP3 PUSH2 0x942 JUMP JUMPDEST DUP5 DUP5 SLOAD PUSH2 0x8C7 JUMP JUMPDEST DUP3 SSTORE POP POP POP POP JUMP JUMPDEST PUSH0 PUSH0 SWAP1 POP SWAP1 JUMP JUMPDEST PUSH2 0x97F PUSH2 0x970 JUMP JUMPDEST PUSH2 0x98A DUP2 DUP5 DUP5 PUSH2 0x94B JUMP JUMPDEST POP POP POP JUMP JUMPDEST JUMPDEST DUP2 DUP2 LT ISZERO PUSH2 0x9AD JUMPI PUSH2 0x9A2 PUSH0 DUP3 PUSH2 0x977 JUMP JUMPDEST PUSH1 0x1 DUP2 ADD SWAP1 POP PUSH2 0x990 JUMP JUMPDEST POP POP JUMP JUMPDEST PUSH1 0x1F DUP3 GT ISZERO PUSH2 0x9F2 JUMPI PUSH2 0x9C3 DUP2 PUSH2 0x89A JUMP JUMPDEST PUSH2 0x9CC DUP5 PUSH2 0x8AC JUMP JUMPDEST DUP2 ADD PUSH1 0x20 DUP6 LT ISZERO PUSH2 0x9DB JUMPI DUP2 SWAP1 POP JUMPDEST PUSH2 0x9EF PUSH2 0x9E7 DUP6 PUSH2 0x8AC JUMP JUMPDEST DUP4 ADD DUP3 PUSH2 0x98F JUMP JUMPDEST POP POP JUMPDEST POP POP POP JUMP JUMPDEST PUSH0 DUP3 DUP3 SHR SWAP1 POP SWAP3 SWAP2 POP POP JUMP JUMPDEST PUSH0 PUSH2 0xA12 PUSH0 NOT DUP5 PUSH1 0x8 MUL PUSH2 0x9F7 JUMP JUMPDEST NOT DUP1 DUP4 AND SWAP2 POP POP SWAP3 SWAP2 POP POP JUMP JUMPDEST PUSH0 PUSH2 0xA2A DUP4 DUP4 PUSH2 0xA03 JUMP JUMPDEST SWAP2 POP DUP3 PUSH1 0x2 MUL DUP3 OR SWAP1 POP SWAP3 SWAP2 POP POP JUMP JUMPDEST PUSH2 0xA43 DUP3 PUSH2 0x614 JUMP JUMPDEST PUSH8 0xFFFFFFFFFFFFFFFF DUP2 GT ISZERO PUSH2 0xA5C JUMPI PUSH2 0xA5B PUSH2 0x46B JUMP JUMPDEST JUMPDEST PUSH2 0xA66 DUP3 SLOAD PUSH2 0x86A JUMP JUMPDEST PUSH2 0xA71 DUP3 DUP3 DUP6 PUSH2 0x9B1 JUMP JUMPDEST PUSH0 PUSH1 0x20 SWAP1 POP PUSH1 0x1F DUP4 GT PUSH1 0x1 DUP2 EQ PUSH2 0xAA2 JUMPI PUSH0 DUP5 ISZERO PUSH2 0xA90 JUMPI DUP3 DUP8 ADD MLOAD SWAP1 POP JUMPDEST PUSH2 0xA9A DUP6 DUP3 PUSH2 0xA1F JUMP JUMPDEST DUP7 SSTORE POP PUSH2 0xB01 JUMP JUMPDEST PUSH1 0x1F NOT DUP5 AND PUSH2 0xAB0 DUP7 PUSH2 0x89A JUMP JUMPDEST PUSH0 JUMPDEST DUP3 DUP2 LT ISZERO PUSH2 0xAD7 JUMPI DUP5 DUP10 ADD MLOAD DUP3 SSTORE PUSH1 0x1 DUP3 ADD SWAP2 POP PUSH1 0x20 DUP6 ADD SWAP5 POP PUSH1 0x20 DUP2 ADD SWAP1 POP PUSH2 0xAB2 JUMP JUMPDEST DUP7 DUP4 LT ISZERO PUSH2 0xAF4 JUMPI DUP5 DUP10 ADD MLOAD PUSH2 0xAF0 PUSH1 0x1F DUP10 AND DUP3 PUSH2 0xA03 JUMP JUMPDEST DUP4 SSTORE POP JUMPDEST PUSH1 0x1 PUSH1 0x2 DUP9 MUL ADD DUP9 SSTORE POP POP POP JUMPDEST POP POP POP POP POP POP JUMP INVALID LOG2 PUSH5 0x6970667358 0x22 SLT KECCAK256 DUP10 0xD1 CODESIZE EXTCODESIZE 0xE8 PUSH13 0xD78045076049EE1AB0274BF2F7 0x2F 0xAE DUP10 DUP9 LOG3 0x21 0xDC CHAINID ADDRESS 0xDF 0x25 EQ 0xBA PUSH5 0x736F6C6343 STOP ADDMOD SHR STOP CALLER "
				},
				"gasEstimates": {
					"creation": {
						"codeDepositCost": "575800",
						"executionCost": "24868",
						"totalCost": "600668"
					},
					"external": {
						"bikeauctions(uint256)": "infinite",
						"changeowner(uint256,string)": "infinite",
						"issue(uint256,string,string,uint256)": "infinite"
					}
				},
				"methodIdentifiers": {
					"bikeauctions(uint256)": "78803126",
					"changeowner(uint256,string)": "01aa64cf",
					"issue(uint256,string,string,uint256)": "e305c0fd"
				}
			},
			"storageLayout": {
				"storage": [
					{
						"astId": 14,
						"contract": "Activitys/aution.sol:Auction",
						"label": "admin",
						"offset": 0,
						"slot": "0",
						"type": "t_address"
					},
					{
						"astId": 19,
						"contract": "Activitys/aution.sol:Auction",
						"label": "bikeauctions",
						"offset": 0,
						"slot": "1",
						"type": "t_mapping(t_uint256,t_struct(bikeauction)10_storage)"
					}
				],
				"types": {
					"t_address": {
						"encoding": "inplace",
						"label": "address",
						"numberOfBytes": "20"
					},
					"t_address_payable": {
						"encoding": "inplace",
						"label": "address payable",
						"numberOfBytes": "20"
					},
					"t_mapping(t_uint256,t_struct(bikeauction)10_storage)": {
						"encoding": "mapping",
						"key": "t_uint256",
						"label": "mapping(uint256 => struct Auction.bikeauction)",
						"numberOfBytes": "32",
						"value": "t_struct(bikeauction)10_storage"
					},
					"t_string_storage": {
						"encoding": "bytes",
						"label": "string",
						"numberOfBytes": "32"
					},
					"t_struct(bikeauction)10_storage": {
						"encoding": "inplace",
						"label": "struct Auction.bikeauction",
						"members": [
							{
								"astId": 3,
								"contract": "Activitys/aution.sol:Auction",
								"label": "ownername",
								"offset": 0,
								"slot": "0",
								"type": "t_string_storage"
							},
							{
								"astId": 5,
								"contract": "Activitys/aution.sol:Auction",
								"label": "bike",
								"offset": 0,
								"slot": "1",
								"type": "t_string_storage"
							},
							{
								"astId": 7,
								"contract": "Activitys/aution.sol:Auction",
								"label": "price",
								"offset": 0,
								"slot": "2",
								"type": "t_uint256"
							},
							{
								"astId": 9,
								"contract": "Activitys/aution.sol:Auction",
								"label": "owneraddress",
								"offset": 0,
								"slot": "3",
								"type": "t_address_payable"
							}
						],
						"numberOfBytes": "128"
					},
					"t_uint256": {
						"encoding": "inplace",
						"label": "uint256",
						"numberOfBytes": "32"
					}
				}
			},
			"userdoc": {
				"kind": "user",
				"methods": {},
				"version": 1
			}
		}
	}
}