{
	"Activitys/certi.sol": {
		"Cert": {
			"abi": [
				{
					"inputs": [],
					"stateMutability": "nonpayable",
					"type": "constructor"
				},
				{
					"inputs": [
						{
							"internalType": "uint256",
							"name": "_id",
							"type": "uint256"
						}
					],
					"name": "certificates",
					"outputs": [
						{
							"internalType": "string",
							"name": "name",
							"type": "string"
						},
						{
							"internalType": "string",
							"name": "course",
							"type": "string"
						},
						{
							"internalType": "string",
							"name": "grade",
							"type": "string"
						},
						{
							"internalType": "string",
							"name": "date",
							"type": "string"
						},
						{
							"internalType": "bool",
							"name": "exist",
							"type": "bool"
						}
					],
					"stateMutability": "view",
					"type": "function"
				},
				{
					"inputs": [
						{
							"internalType": "uint256",
							"name": "_id",
							"type": "uint256"
						},
						{
							"internalType": "string",
							"name": "_name",
							"type": "string"
						},
						{
							"internalType": "string",
							"name": "_course",
							"type": "string"
						},
						{
							"internalType": "string",
							"name": "_grade",
							"type": "string"
						},
						{
							"internalType": "string",
							"name": "_date",
							"type": "string"
						}
					],
					"name": "issue",
					"outputs": [],
					"stateMutability": "nonpayable",
					"type": "function"
				}
			],
			"devdoc": {
				"kind": "dev",
				"methods": {},
				"version": 1
			},
			"evm": {
				"assembly": "    /* \"Activitys/certi.sol\":56:835  contract Cert {... */\n  mstore(0x40, 0x80)\n    /* \"Activitys/certi.sol\":232:278  constructor(){... */\n  callvalue\n  dup1\n  iszero\n  tag_1\n  jumpi\n  revert(0x00, 0x00)\ntag_1:\n  pop\n    /* \"Activitys/certi.sol\":261:271  msg.sender */\n  caller\n    /* \"Activitys/certi.sol\":255:260  admin */\n  0x00\n  0x00\n    /* \"Activitys/certi.sol\":255:271  admin=msg.sender */\n  0x0100\n  exp\n  dup2\n  sload\n  dup2\n  0xffffffffffffffffffffffffffffffffffffffff\n  mul\n  not\n  and\n  swap1\n  dup4\n  0xffffffffffffffffffffffffffffffffffffffff\n  and\n  mul\n  or\n  swap1\n  sstore\n  pop\n    /* \"Activitys/certi.sol\":56:835  contract Cert {... */\n  dataSize(sub_0)\n  dup1\n  dataOffset(sub_0)\n  0x00\n  codecopy\n  0x00\n  return\nstop\n\nsub_0: assembly {\n        /* \"Activitys/certi.sol\":56:835  contract Cert {... */\n      mstore(0x40, 0x80)\n      callvalue\n      dup1\n      iszero\n      tag_1\n      jumpi\n      revert(0x00, 0x00)\n    tag_1:\n      pop\n      jumpi(tag_2, lt(calldatasize, 0x04))\n      shr(0xe0, calldataload(0x00))\n      dup1\n      0x663b3e22\n      eq\n      tag_3\n      jumpi\n      dup1\n      0xd1e7be26\n      eq\n      tag_4\n      jumpi\n    tag_2:\n      revert(0x00, 0x00)\n        /* \"Activitys/certi.sol\":385:439  mapping (uint256 _id=>certificate) public certificates */\n    tag_3:\n      tag_5\n      0x04\n      dup1\n      calldatasize\n      sub\n      dup2\n      add\n      swap1\n      tag_6\n      swap2\n      swap1\n      tag_7\n      jump\t// in\n    tag_6:\n      tag_8\n      jump\t// in\n    tag_5:\n      mload(0x40)\n      tag_9\n      swap6\n      swap5\n      swap4\n      swap3\n      swap2\n      swap1\n      tag_10\n      jump\t// in\n    tag_9:\n      mload(0x40)\n      dup1\n      swap2\n      sub\n      swap1\n      return\n        /* \"Activitys/certi.sol\":446:833  function issue(uint256 _id,... */\n    tag_4:\n      tag_11\n      0x04\n      dup1\n      calldatasize\n      sub\n      dup2\n      add\n      swap1\n      tag_12\n      swap2\n      swap1\n      tag_13\n      jump\t// in\n    tag_12:\n      tag_14\n      jump\t// in\n    tag_11:\n      stop\n        /* \"Activitys/certi.sol\":385:439  mapping (uint256 _id=>certificate) public certificates */\n    tag_8:\n      mstore(0x20, 0x01)\n      dup1\n      0x00\n      mstore\n      keccak256(0x00, 0x40)\n      0x00\n      swap2\n      pop\n      swap1\n      pop\n      dup1\n      0x00\n      add\n      dup1\n      sload\n      tag_15\n      swap1\n      tag_16\n      jump\t// in\n    tag_15:\n      dup1\n      0x1f\n      add\n      0x20\n      dup1\n      swap2\n      div\n      mul\n      0x20\n      add\n      mload(0x40)\n      swap1\n      dup2\n      add\n      0x40\n      mstore\n      dup1\n      swap3\n      swap2\n      swap1\n      dup2\n      dup2\n      mstore\n      0x20\n      add\n      dup3\n      dup1\n      sload\n      tag_17\n      swap1\n      tag_16\n      jump\t// in\n    tag_17:\n      dup1\n      iszero\n      tag_18\n      jumpi\n      dup1\n      0x1f\n      lt\n      tag_19\n      jumpi\n      0x0100\n      dup1\n      dup4\n      sload\n      div\n      mul\n      dup4\n      mstore\n      swap2\n      0x20\n      add\n      swap2\n      jump(tag_18)\n    tag_19:\n      dup3\n      add\n      swap2\n      swap1\n      0x00\n      mstore\n      keccak256(0x00, 0x20)\n      swap1\n    tag_20:\n      dup2\n      sload\n      dup2\n      mstore\n      swap1\n      0x01\n      add\n      swap1\n      0x20\n      add\n      dup1\n      dup4\n      gt\n      tag_20\n      jumpi\n      dup3\n      swap1\n      sub\n      0x1f\n      and\n      dup3\n      add\n      swap2\n    tag_18:\n      pop\n      pop\n      pop\n      pop\n      pop\n      swap1\n      dup1\n      0x01\n      add\n      dup1\n      sload\n      tag_21\n      swap1\n      tag_16\n      jump\t// in\n    tag_21:\n      dup1\n      0x1f\n      add\n      0x20\n      dup1\n      swap2\n      div\n      mul\n      0x20\n      add\n      mload(0x40)\n      swap1\n      dup2\n      add\n      0x40\n      mstore\n      dup1\n      swap3\n      swap2\n      swap1\n      dup2\n      dup2\n      mstore\n      0x20\n      add\n      dup3\n      dup1\n      sload\n      tag_22\n      swap1\n      tag_16\n      jump\t// in\n    tag_22:\n      dup1\n      iszero\n      tag_23\n      jumpi\n      dup1\n      0x1f\n      lt\n      tag_24\n      jumpi\n      0x0100\n      dup1\n      dup4\n      sload\n      div\n      mul\n      dup4\n      mstore\n      swap2\n      0x20\n      add\n      swap2\n      jump(tag_23)\n    tag_24:\n      dup3\n      add\n      swap2\n      swap1\n      0x00\n      mstore\n      keccak256(0x00, 0x20)\n      swap1\n    tag_25:\n      dup2\n      sload\n      dup2\n      mstore\n      swap1\n      0x01\n      add\n      swap1\n      0x20\n      add\n      dup1\n      dup4\n      gt\n      tag_25\n      jumpi\n      dup3\n      swap1\n      sub\n      0x1f\n      and\n      dup3\n      add\n      swap2\n    tag_23:\n      pop\n      pop\n      pop\n      pop\n      pop\n      swap1\n      dup1\n      0x02\n      add\n      dup1\n      sload\n      tag_26\n      swap1\n      tag_16\n      jump\t// in\n    tag_26:\n      dup1\n      0x1f\n      add\n      0x20\n      dup1\n      swap2\n      div\n      mul\n      0x20\n      add\n      mload(0x40)\n      swap1\n      dup2\n      add\n      0x40\n      mstore\n      dup1\n      swap3\n      swap2\n      swap1\n      dup2\n      dup2\n      mstore\n      0x20\n      add\n      dup3\n      dup1\n      sload\n      tag_27\n      swap1\n      tag_16\n      jump\t// in\n    tag_27:\n      dup1\n      iszero\n      tag_28\n      jumpi\n      dup1\n      0x1f\n      lt\n      tag_29\n      jumpi\n      0x0100\n      dup1\n      dup4\n      sload\n      div\n      mul\n      dup4\n      mstore\n      swap2\n      0x20\n      add\n      swap2\n      jump(tag_28)\n    tag_29:\n      dup3\n      add\n      swap2\n      swap1\n      0x00\n      mstore\n      keccak256(0x00, 0x20)\n      swap1\n    tag_30:\n      dup2\n      sload\n      dup2\n      mstore\n      swap1\n      0x01\n      add\n      swap1\n      0x20\n      add\n      dup1\n      dup4\n      gt\n      tag_30\n      jumpi\n      dup3\n      swap1\n      sub\n      0x1f\n      and\n      dup3\n      add\n      swap2\n    tag_28:\n      pop\n      pop\n      pop\n      pop\n      pop\n      swap1\n      dup1\n      0x03\n      add\n      dup1\n      sload\n      tag_31\n      swap1\n      tag_16\n      jump\t// in\n    tag_31:\n      dup1\n      0x1f\n      add\n      0x20\n      dup1\n      swap2\n      div\n      mul\n      0x20\n      add\n      mload(0x40)\n      swap1\n      dup2\n      add\n      0x40\n      mstore\n      dup1\n      swap3\n      swap2\n      swap1\n      dup2\n      dup2\n      mstore\n      0x20\n      add\n      dup3\n      dup1\n      sload\n      tag_32\n      swap1\n      tag_16\n      jump\t// in\n    tag_32:\n      dup1\n      iszero\n      tag_33\n      jumpi\n      dup1\n      0x1f\n      lt\n      tag_34\n      jumpi\n      0x0100\n      dup1\n      dup4\n      sload\n      div\n      mul\n      dup4\n      mstore\n      swap2\n      0x20\n      add\n      swap2\n      jump(tag_33)\n    tag_34:\n      dup3\n      add\n      swap2\n      swap1\n      0x00\n      mstore\n      keccak256(0x00, 0x20)\n      swap1\n    tag_35:\n      dup2\n      sload\n      dup2\n      mstore\n      swap1\n      0x01\n      add\n      swap1\n      0x20\n      add\n      dup1\n      dup4\n      gt\n      tag_35\n      jumpi\n      dup3\n      swap1\n      sub\n      0x1f\n      and\n      dup3\n      add\n      swap2\n    tag_33:\n      pop\n      pop\n      pop\n      pop\n      pop\n      swap1\n      dup1\n      0x04\n      add\n      0x00\n      swap1\n      sload\n      swap1\n      0x0100\n      exp\n      swap1\n      div\n      0xff\n      and\n      swap1\n      pop\n      dup6\n      jump\t// out\n        /* \"Activitys/certi.sol\":446:833  function issue(uint256 _id,... */\n    tag_14:\n        /* \"Activitys/certi.sol\":333:338  admin */\n      0x00\n      0x00\n      swap1\n      sload\n      swap1\n      0x0100\n      exp\n      swap1\n      div\n      0xffffffffffffffffffffffffffffffffffffffff\n      and\n        /* \"Activitys/certi.sol\":321:338  msg.sender==admin */\n      0xffffffffffffffffffffffffffffffffffffffff\n      and\n        /* \"Activitys/certi.sol\":321:331  msg.sender */\n      caller\n        /* \"Activitys/certi.sol\":321:338  msg.sender==admin */\n      0xffffffffffffffffffffffffffffffffffffffff\n      and\n      eq\n        /* \"Activitys/certi.sol\":313:361  require(msg.sender==admin,\"unauthorized access\") */\n      tag_37\n      jumpi\n      mload(0x40)\n      0x08c379a000000000000000000000000000000000000000000000000000000000\n      dup2\n      mstore\n      0x04\n      add\n      tag_38\n      swap1\n      tag_39\n      jump\t// in\n    tag_38:\n      mload(0x40)\n      dup1\n      swap2\n      sub\n      swap1\n      revert\n    tag_37:\n        /* \"Activitys/certi.sol\":688:700  certificates */\n      0x01\n        /* \"Activitys/certi.sol\":688:705  certificates[_id] */\n      0x00\n        /* \"Activitys/certi.sol\":701:704  _id */\n      dup7\n        /* \"Activitys/certi.sol\":688:705  certificates[_id] */\n      dup2\n      mstore\n      0x20\n      add\n      swap1\n      dup2\n      mstore\n      0x20\n      add\n      0x00\n      keccak256\n        /* \"Activitys/certi.sol\":688:711  certificates[_id].exist */\n      0x04\n      add\n      0x00\n      swap1\n      sload\n      swap1\n      0x0100\n      exp\n      swap1\n      div\n      0xff\n      and\n        /* \"Activitys/certi.sol\":687:711  !certificates[_id].exist */\n      iszero\n        /* \"Activitys/certi.sol\":679:736  require(!certificates[_id].exist,\"rollno does not exist\") */\n      tag_41\n      jumpi\n      mload(0x40)\n      0x08c379a000000000000000000000000000000000000000000000000000000000\n      dup2\n      mstore\n      0x04\n      add\n      tag_42\n      swap1\n      tag_43\n      jump\t// in\n    tag_42:\n      mload(0x40)\n      dup1\n      swap2\n      sub\n      swap1\n      revert\n    tag_41:\n        /* \"Activitys/certi.sol\":776:820  certificate(_name,_course,_grade,_date,true) */\n      mload(0x40)\n      dup1\n      0xa0\n      add\n      0x40\n      mstore\n      dup1\n        /* \"Activitys/certi.sol\":788:793  _name */\n      dup6\n        /* \"Activitys/certi.sol\":776:820  certificate(_name,_course,_grade,_date,true) */\n      dup2\n      mstore\n      0x20\n      add\n        /* \"Activitys/certi.sol\":794:801  _course */\n      dup5\n        /* \"Activitys/certi.sol\":776:820  certificate(_name,_course,_grade,_date,true) */\n      dup2\n      mstore\n      0x20\n      add\n        /* \"Activitys/certi.sol\":802:808  _grade */\n      dup4\n        /* \"Activitys/certi.sol\":776:820  certificate(_name,_course,_grade,_date,true) */\n      dup2\n      mstore\n      0x20\n      add\n        /* \"Activitys/certi.sol\":809:814  _date */\n      dup3\n        /* \"Activitys/certi.sol\":776:820  certificate(_name,_course,_grade,_date,true) */\n      dup2\n      mstore\n      0x20\n      add\n        /* \"Activitys/certi.sol\":815:819  true */\n      0x01\n        /* \"Activitys/certi.sol\":776:820  certificate(_name,_course,_grade,_date,true) */\n      iszero\n      iszero\n      dup2\n      mstore\n      pop\n        /* \"Activitys/certi.sol\":758:770  certificates */\n      0x01\n        /* \"Activitys/certi.sol\":758:775  certificates[_id] */\n      0x00\n        /* \"Activitys/certi.sol\":771:774  _id */\n      dup8\n        /* \"Activitys/certi.sol\":758:775  certificates[_id] */\n      dup2\n      mstore\n      0x20\n      add\n      swap1\n      dup2\n      mstore\n      0x20\n      add\n      0x00\n      keccak256\n        /* \"Activitys/certi.sol\":758:820  certificates[_id]=certificate(_name,_course,_grade,_date,true) */\n      0x00\n      dup3\n      add\n      mload\n      dup2\n      0x00\n      add\n      swap1\n      dup2\n      tag_44\n      swap2\n      swap1\n      tag_45\n      jump\t// in\n    tag_44:\n      pop\n      0x20\n      dup3\n      add\n      mload\n      dup2\n      0x01\n      add\n      swap1\n      dup2\n      tag_46\n      swap2\n      swap1\n      tag_45\n      jump\t// in\n    tag_46:\n      pop\n      0x40\n      dup3\n      add\n      mload\n      dup2\n      0x02\n      add\n      swap1\n      dup2\n      tag_47\n      swap2\n      swap1\n      tag_45\n      jump\t// in\n    tag_47:\n      pop\n      0x60\n      dup3\n      add\n      mload\n      dup2\n      0x03\n      add\n      swap1\n      dup2\n      tag_48\n      swap2\n      swap1\n      tag_45\n      jump\t// in\n    tag_48:\n      pop\n      0x80\n      dup3\n      add\n      mload\n      dup2\n      0x04\n      add\n      exp(0x0100, 0x00)\n      dup2\n      sload\n      dup2\n      0xff\n      mul\n      not\n      and\n      swap1\n      dup4\n      iszero\n      iszero\n      mul\n      or\n      swap1\n      sstore\n      pop\n      swap1\n      pop\n      pop\n        /* \"Activitys/certi.sol\":446:833  function issue(uint256 _id,... */\n      pop\n      pop\n      pop\n      pop\n      pop\n      jump\t// out\n        /* \"#utility.yul\":7:82   */\n    tag_49:\n        /* \"#utility.yul\":40:46   */\n      0x00\n        /* \"#utility.yul\":73:75   */\n      0x40\n        /* \"#utility.yul\":67:76   */\n      mload\n        /* \"#utility.yul\":57:76   */\n      swap1\n      pop\n        /* \"#utility.yul\":7:82   */\n      swap1\n      jump\t// out\n        /* \"#utility.yul\":88:205   */\n    tag_50:\n        /* \"#utility.yul\":197:198   */\n      0x00\n        /* \"#utility.yul\":194:195   */\n      0x00\n        /* \"#utility.yul\":187:199   */\n      revert\n        /* \"#utility.yul\":211:328   */\n    tag_51:\n        /* \"#utility.yul\":320:321   */\n      0x00\n        /* \"#utility.yul\":317:318   */\n      0x00\n        /* \"#utility.yul\":310:322   */\n      revert\n        /* \"#utility.yul\":334:411   */\n    tag_52:\n        /* \"#utility.yul\":371:378   */\n      0x00\n        /* \"#utility.yul\":400:405   */\n      dup2\n        /* \"#utility.yul\":389:405   */\n      swap1\n      pop\n        /* \"#utility.yul\":334:411   */\n      swap2\n      swap1\n      pop\n      jump\t// out\n        /* \"#utility.yul\":417:539   */\n    tag_53:\n        /* \"#utility.yul\":490:514   */\n      tag_97\n        /* \"#utility.yul\":508:513   */\n      dup2\n        /* \"#utility.yul\":490:514   */\n      tag_52\n      jump\t// in\n    tag_97:\n        /* \"#utility.yul\":483:488   */\n      dup2\n        /* \"#utility.yul\":480:515   */\n      eq\n        /* \"#utility.yul\":470:533   */\n      tag_98\n      jumpi\n        /* \"#utility.yul\":529:530   */\n      0x00\n        /* \"#utility.yul\":526:527   */\n      0x00\n        /* \"#utility.yul\":519:531   */\n      revert\n        /* \"#utility.yul\":470:533   */\n    tag_98:\n        /* \"#utility.yul\":417:539   */\n      pop\n      jump\t// out\n        /* \"#utility.yul\":545:684   */\n    tag_54:\n        /* \"#utility.yul\":591:596   */\n      0x00\n        /* \"#utility.yul\":629:635   */\n      dup2\n        /* \"#utility.yul\":616:636   */\n      calldataload\n        /* \"#utility.yul\":607:636   */\n      swap1\n      pop\n        /* \"#utility.yul\":645:678   */\n      tag_100\n        /* \"#utility.yul\":672:677   */\n      dup2\n        /* \"#utility.yul\":645:678   */\n      tag_53\n      jump\t// in\n    tag_100:\n        /* \"#utility.yul\":545:684   */\n      swap3\n      swap2\n      pop\n      pop\n      jump\t// out\n        /* \"#utility.yul\":690:1019   */\n    tag_7:\n        /* \"#utility.yul\":749:755   */\n      0x00\n        /* \"#utility.yul\":798:800   */\n      0x20\n        /* \"#utility.yul\":786:795   */\n      dup3\n        /* \"#utility.yul\":777:784   */\n      dup5\n        /* \"#utility.yul\":773:796   */\n      sub\n        /* \"#utility.yul\":769:801   */\n      slt\n        /* \"#utility.yul\":766:885   */\n      iszero\n      tag_102\n      jumpi\n        /* \"#utility.yul\":804:883   */\n      tag_103\n      tag_50\n      jump\t// in\n    tag_103:\n        /* \"#utility.yul\":766:885   */\n    tag_102:\n        /* \"#utility.yul\":924:925   */\n      0x00\n        /* \"#utility.yul\":949:1002   */\n      tag_104\n        /* \"#utility.yul\":994:1001   */\n      dup5\n        /* \"#utility.yul\":985:991   */\n      dup3\n        /* \"#utility.yul\":974:983   */\n      dup6\n        /* \"#utility.yul\":970:992   */\n      add\n        /* \"#utility.yul\":949:1002   */\n      tag_54\n      jump\t// in\n    tag_104:\n        /* \"#utility.yul\":939:1002   */\n      swap2\n      pop\n        /* \"#utility.yul\":895:1012   */\n      pop\n        /* \"#utility.yul\":690:1019   */\n      swap3\n      swap2\n      pop\n      pop\n      jump\t// out\n        /* \"#utility.yul\":1025:1124   */\n    tag_55:\n        /* \"#utility.yul\":1077:1083   */\n      0x00\n        /* \"#utility.yul\":1111:1116   */\n      dup2\n        /* \"#utility.yul\":1105:1117   */\n      mload\n        /* \"#utility.yul\":1095:1117   */\n      swap1\n      pop\n        /* \"#utility.yul\":1025:1124   */\n      swap2\n      swap1\n      pop\n      jump\t// out\n        /* \"#utility.yul\":1130:1299   */\n    tag_56:\n        /* \"#utility.yul\":1214:1225   */\n      0x00\n        /* \"#utility.yul\":1248:1254   */\n      dup3\n        /* \"#utility.yul\":1243:1246   */\n      dup3\n        /* \"#utility.yul\":1236:1255   */\n      mstore\n        /* \"#utility.yul\":1288:1292   */\n      0x20\n        /* \"#utility.yul\":1283:1286   */\n      dup3\n        /* \"#utility.yul\":1279:1293   */\n      add\n        /* \"#utility.yul\":1264:1293   */\n      swap1\n      pop\n        /* \"#utility.yul\":1130:1299   */\n      swap3\n      swap2\n      pop\n      pop\n      jump\t// out\n        /* \"#utility.yul\":1305:1444   */\n    tag_57:\n        /* \"#utility.yul\":1394:1400   */\n      dup3\n        /* \"#utility.yul\":1389:1392   */\n      dup2\n        /* \"#utility.yul\":1384:1387   */\n      dup4\n        /* \"#utility.yul\":1378:1401   */\n      mcopy\n        /* \"#utility.yul\":1435:1436   */\n      0x00\n        /* \"#utility.yul\":1426:1432   */\n      dup4\n        /* \"#utility.yul\":1421:1424   */\n      dup4\n        /* \"#utility.yul\":1417:1433   */\n      add\n        /* \"#utility.yul\":1410:1437   */\n      mstore\n        /* \"#utility.yul\":1305:1444   */\n      pop\n      pop\n      pop\n      jump\t// out\n        /* \"#utility.yul\":1450:1552   */\n    tag_58:\n        /* \"#utility.yul\":1491:1497   */\n      0x00\n        /* \"#utility.yul\":1542:1544   */\n      0x1f\n        /* \"#utility.yul\":1538:1545   */\n      not\n        /* \"#utility.yul\":1533:1535   */\n      0x1f\n        /* \"#utility.yul\":1526:1531   */\n      dup4\n        /* \"#utility.yul\":1522:1536   */\n      add\n        /* \"#utility.yul\":1518:1546   */\n      and\n        /* \"#utility.yul\":1508:1546   */\n      swap1\n      pop\n        /* \"#utility.yul\":1450:1552   */\n      swap2\n      swap1\n      pop\n      jump\t// out\n        /* \"#utility.yul\":1558:1935   */\n    tag_59:\n        /* \"#utility.yul\":1646:1649   */\n      0x00\n        /* \"#utility.yul\":1674:1713   */\n      tag_110\n        /* \"#utility.yul\":1707:1712   */\n      dup3\n        /* \"#utility.yul\":1674:1713   */\n      tag_55\n      jump\t// in\n    tag_110:\n        /* \"#utility.yul\":1729:1800   */\n      tag_111\n        /* \"#utility.yul\":1793:1799   */\n      dup2\n        /* \"#utility.yul\":1788:1791   */\n      dup6\n        /* \"#utility.yul\":1729:1800   */\n      tag_56\n      jump\t// in\n    tag_111:\n        /* \"#utility.yul\":1722:1800   */\n      swap4\n      pop\n        /* \"#utility.yul\":1809:1874   */\n      tag_112\n        /* \"#utility.yul\":1867:1873   */\n      dup2\n        /* \"#utility.yul\":1862:1865   */\n      dup6\n        /* \"#utility.yul\":1855:1859   */\n      0x20\n        /* \"#utility.yul\":1848:1853   */\n      dup7\n        /* \"#utility.yul\":1844:1860   */\n      add\n        /* \"#utility.yul\":1809:1874   */\n      tag_57\n      jump\t// in\n    tag_112:\n        /* \"#utility.yul\":1899:1928   */\n      tag_113\n        /* \"#utility.yul\":1921:1927   */\n      dup2\n        /* \"#utility.yul\":1899:1928   */\n      tag_58\n      jump\t// in\n    tag_113:\n        /* \"#utility.yul\":1894:1897   */\n      dup5\n        /* \"#utility.yul\":1890:1929   */\n      add\n        /* \"#utility.yul\":1883:1929   */\n      swap2\n      pop\n        /* \"#utility.yul\":1650:1935   */\n      pop\n        /* \"#utility.yul\":1558:1935   */\n      swap3\n      swap2\n      pop\n      pop\n      jump\t// out\n        /* \"#utility.yul\":1941:2031   */\n    tag_60:\n        /* \"#utility.yul\":1975:1982   */\n      0x00\n        /* \"#utility.yul\":2018:2023   */\n      dup2\n        /* \"#utility.yul\":2011:2024   */\n      iszero\n        /* \"#utility.yul\":2004:2025   */\n      iszero\n        /* \"#utility.yul\":1993:2025   */\n      swap1\n      pop\n        /* \"#utility.yul\":1941:2031   */\n      swap2\n      swap1\n      pop\n      jump\t// out\n        /* \"#utility.yul\":2037:2146   */\n    tag_61:\n        /* \"#utility.yul\":2118:2139   */\n      tag_116\n        /* \"#utility.yul\":2133:2138   */\n      dup2\n        /* \"#utility.yul\":2118:2139   */\n      tag_60\n      jump\t// in\n    tag_116:\n        /* \"#utility.yul\":2113:2116   */\n      dup3\n        /* \"#utility.yul\":2106:2140   */\n      mstore\n        /* \"#utility.yul\":2037:2146   */\n      pop\n      pop\n      jump\t// out\n        /* \"#utility.yul\":2152:3168   */\n    tag_10:\n        /* \"#utility.yul\":2431:2435   */\n      0x00\n        /* \"#utility.yul\":2469:2472   */\n      0xa0\n        /* \"#utility.yul\":2458:2467   */\n      dup3\n        /* \"#utility.yul\":2454:2473   */\n      add\n        /* \"#utility.yul\":2446:2473   */\n      swap1\n      pop\n        /* \"#utility.yul\":2519:2528   */\n      dup2\n        /* \"#utility.yul\":2513:2517   */\n      dup2\n        /* \"#utility.yul\":2509:2529   */\n      sub\n        /* \"#utility.yul\":2505:2506   */\n      0x00\n        /* \"#utility.yul\":2494:2503   */\n      dup4\n        /* \"#utility.yul\":2490:2507   */\n      add\n        /* \"#utility.yul\":2483:2530   */\n      mstore\n        /* \"#utility.yul\":2547:2625   */\n      tag_118\n        /* \"#utility.yul\":2620:2624   */\n      dup2\n        /* \"#utility.yul\":2611:2617   */\n      dup9\n        /* \"#utility.yul\":2547:2625   */\n      tag_59\n      jump\t// in\n    tag_118:\n        /* \"#utility.yul\":2539:2625   */\n      swap1\n      pop\n        /* \"#utility.yul\":2672:2681   */\n      dup2\n        /* \"#utility.yul\":2666:2670   */\n      dup2\n        /* \"#utility.yul\":2662:2682   */\n      sub\n        /* \"#utility.yul\":2657:2659   */\n      0x20\n        /* \"#utility.yul\":2646:2655   */\n      dup4\n        /* \"#utility.yul\":2642:2660   */\n      add\n        /* \"#utility.yul\":2635:2683   */\n      mstore\n        /* \"#utility.yul\":2700:2778   */\n      tag_119\n        /* \"#utility.yul\":2773:2777   */\n      dup2\n        /* \"#utility.yul\":2764:2770   */\n      dup8\n        /* \"#utility.yul\":2700:2778   */\n      tag_59\n      jump\t// in\n    tag_119:\n        /* \"#utility.yul\":2692:2778   */\n      swap1\n      pop\n        /* \"#utility.yul\":2825:2834   */\n      dup2\n        /* \"#utility.yul\":2819:2823   */\n      dup2\n        /* \"#utility.yul\":2815:2835   */\n      sub\n        /* \"#utility.yul\":2810:2812   */\n      0x40\n        /* \"#utility.yul\":2799:2808   */\n      dup4\n        /* \"#utility.yul\":2795:2813   */\n      add\n        /* \"#utility.yul\":2788:2836   */\n      mstore\n        /* \"#utility.yul\":2853:2931   */\n      tag_120\n        /* \"#utility.yul\":2926:2930   */\n      dup2\n        /* \"#utility.yul\":2917:2923   */\n      dup7\n        /* \"#utility.yul\":2853:2931   */\n      tag_59\n      jump\t// in\n    tag_120:\n        /* \"#utility.yul\":2845:2931   */\n      swap1\n      pop\n        /* \"#utility.yul\":2978:2987   */\n      dup2\n        /* \"#utility.yul\":2972:2976   */\n      dup2\n        /* \"#utility.yul\":2968:2988   */\n      sub\n        /* \"#utility.yul\":2963:2965   */\n      0x60\n        /* \"#utility.yul\":2952:2961   */\n      dup4\n        /* \"#utility.yul\":2948:2966   */\n      add\n        /* \"#utility.yul\":2941:2989   */\n      mstore\n        /* \"#utility.yul\":3006:3084   */\n      tag_121\n        /* \"#utility.yul\":3079:3083   */\n      dup2\n        /* \"#utility.yul\":3070:3076   */\n      dup6\n        /* \"#utility.yul\":3006:3084   */\n      tag_59\n      jump\t// in\n    tag_121:\n        /* \"#utility.yul\":2998:3084   */\n      swap1\n      pop\n        /* \"#utility.yul\":3094:3161   */\n      tag_122\n        /* \"#utility.yul\":3156:3159   */\n      0x80\n        /* \"#utility.yul\":3145:3154   */\n      dup4\n        /* \"#utility.yul\":3141:3160   */\n      add\n        /* \"#utility.yul\":3132:3138   */\n      dup5\n        /* \"#utility.yul\":3094:3161   */\n      tag_61\n      jump\t// in\n    tag_122:\n        /* \"#utility.yul\":2152:3168   */\n      swap7\n      swap6\n      pop\n      pop\n      pop\n      pop\n      pop\n      pop\n      jump\t// out\n        /* \"#utility.yul\":3174:3291   */\n    tag_62:\n        /* \"#utility.yul\":3283:3284   */\n      0x00\n        /* \"#utility.yul\":3280:3281   */\n      0x00\n        /* \"#utility.yul\":3273:3285   */\n      revert\n        /* \"#utility.yul\":3297:3414   */\n    tag_63:\n        /* \"#utility.yul\":3406:3407   */\n      0x00\n        /* \"#utility.yul\":3403:3404   */\n      0x00\n        /* \"#utility.yul\":3396:3408   */\n      revert\n        /* \"#utility.yul\":3420:3600   */\n    tag_64:\n        /* \"#utility.yul\":3468:3545   */\n      0x4e487b7100000000000000000000000000000000000000000000000000000000\n        /* \"#utility.yul\":3465:3466   */\n      0x00\n        /* \"#utility.yul\":3458:3546   */\n      mstore\n        /* \"#utility.yul\":3565:3569   */\n      0x41\n        /* \"#utility.yul\":3562:3563   */\n      0x04\n        /* \"#utility.yul\":3555:3570   */\n      mstore\n        /* \"#utility.yul\":3589:3593   */\n      0x24\n        /* \"#utility.yul\":3586:3587   */\n      0x00\n        /* \"#utility.yul\":3579:3594   */\n      revert\n        /* \"#utility.yul\":3606:3887   */\n    tag_65:\n        /* \"#utility.yul\":3689:3716   */\n      tag_127\n        /* \"#utility.yul\":3711:3715   */\n      dup3\n        /* \"#utility.yul\":3689:3716   */\n      tag_58\n      jump\t// in\n    tag_127:\n        /* \"#utility.yul\":3681:3687   */\n      dup2\n        /* \"#utility.yul\":3677:3717   */\n      add\n        /* \"#utility.yul\":3819:3825   */\n      dup2\n        /* \"#utility.yul\":3807:3817   */\n      dup2\n        /* \"#utility.yul\":3804:3826   */\n      lt\n        /* \"#utility.yul\":3783:3801   */\n      0xffffffffffffffff\n        /* \"#utility.yul\":3771:3781   */\n      dup3\n        /* \"#utility.yul\":3768:3802   */\n      gt\n        /* \"#utility.yul\":3765:3827   */\n      or\n        /* \"#utility.yul\":3762:3850   */\n      iszero\n      tag_128\n      jumpi\n        /* \"#utility.yul\":3830:3848   */\n      tag_129\n      tag_64\n      jump\t// in\n    tag_129:\n        /* \"#utility.yul\":3762:3850   */\n    tag_128:\n        /* \"#utility.yul\":3870:3880   */\n      dup1\n        /* \"#utility.yul\":3866:3868   */\n      0x40\n        /* \"#utility.yul\":3859:3881   */\n      mstore\n        /* \"#utility.yul\":3649:3887   */\n      pop\n        /* \"#utility.yul\":3606:3887   */\n      pop\n      pop\n      jump\t// out\n        /* \"#utility.yul\":3893:4022   */\n    tag_66:\n        /* \"#utility.yul\":3927:3933   */\n      0x00\n        /* \"#utility.yul\":3954:3974   */\n      tag_131\n      tag_49\n      jump\t// in\n    tag_131:\n        /* \"#utility.yul\":3944:3974   */\n      swap1\n      pop\n        /* \"#utility.yul\":3983:4016   */\n      tag_132\n        /* \"#utility.yul\":4011:4015   */\n      dup3\n        /* \"#utility.yul\":4003:4009   */\n      dup3\n        /* \"#utility.yul\":3983:4016   */\n      tag_65\n      jump\t// in\n    tag_132:\n        /* \"#utility.yul\":3893:4022   */\n      swap2\n      swap1\n      pop\n      jump\t// out\n        /* \"#utility.yul\":4028:4336   */\n    tag_67:\n        /* \"#utility.yul\":4090:4094   */\n      0x00\n        /* \"#utility.yul\":4180:4198   */\n      0xffffffffffffffff\n        /* \"#utility.yul\":4172:4178   */\n      dup3\n        /* \"#utility.yul\":4169:4199   */\n      gt\n        /* \"#utility.yul\":4166:4222   */\n      iszero\n      tag_134\n      jumpi\n        /* \"#utility.yul\":4202:4220   */\n      tag_135\n      tag_64\n      jump\t// in\n    tag_135:\n        /* \"#utility.yul\":4166:4222   */\n    tag_134:\n        /* \"#utility.yul\":4240:4269   */\n      tag_136\n        /* \"#utility.yul\":4262:4268   */\n      dup3\n        /* \"#utility.yul\":4240:4269   */\n      tag_58\n      jump\t// in\n    tag_136:\n        /* \"#utility.yul\":4232:4269   */\n      swap1\n      pop\n        /* \"#utility.yul\":4324:4328   */\n      0x20\n        /* \"#utility.yul\":4318:4322   */\n      dup2\n        /* \"#utility.yul\":4314:4329   */\n      add\n        /* \"#utility.yul\":4306:4329   */\n      swap1\n      pop\n        /* \"#utility.yul\":4028:4336   */\n      swap2\n      swap1\n      pop\n      jump\t// out\n        /* \"#utility.yul\":4342:4490   */\n    tag_68:\n        /* \"#utility.yul\":4440:4446   */\n      dup3\n        /* \"#utility.yul\":4435:4438   */\n      dup2\n        /* \"#utility.yul\":4430:4433   */\n      dup4\n        /* \"#utility.yul\":4417:4447   */\n      calldatacopy\n        /* \"#utility.yul\":4481:4482   */\n      0x00\n        /* \"#utility.yul\":4472:4478   */\n      dup4\n        /* \"#utility.yul\":4467:4470   */\n      dup4\n        /* \"#utility.yul\":4463:4479   */\n      add\n        /* \"#utility.yul\":4456:4483   */\n      mstore\n        /* \"#utility.yul\":4342:4490   */\n      pop\n      pop\n      pop\n      jump\t// out\n        /* \"#utility.yul\":4496:4921   */\n    tag_69:\n        /* \"#utility.yul\":4574:4579   */\n      0x00\n        /* \"#utility.yul\":4599:4665   */\n      tag_139\n        /* \"#utility.yul\":4615:4664   */\n      tag_140\n        /* \"#utility.yul\":4657:4663   */\n      dup5\n        /* \"#utility.yul\":4615:4664   */\n      tag_67\n      jump\t// in\n    tag_140:\n        /* \"#utility.yul\":4599:4665   */\n      tag_66\n      jump\t// in\n    tag_139:\n        /* \"#utility.yul\":4590:4665   */\n      swap1\n      pop\n        /* \"#utility.yul\":4688:4694   */\n      dup3\n        /* \"#utility.yul\":4681:4686   */\n      dup2\n        /* \"#utility.yul\":4674:4695   */\n      mstore\n        /* \"#utility.yul\":4726:4730   */\n      0x20\n        /* \"#utility.yul\":4719:4724   */\n      dup2\n        /* \"#utility.yul\":4715:4731   */\n      add\n        /* \"#utility.yul\":4764:4767   */\n      dup5\n        /* \"#utility.yul\":4755:4761   */\n      dup5\n        /* \"#utility.yul\":4750:4753   */\n      dup5\n        /* \"#utility.yul\":4746:4762   */\n      add\n        /* \"#utility.yul\":4743:4768   */\n      gt\n        /* \"#utility.yul\":4740:4852   */\n      iszero\n      tag_141\n      jumpi\n        /* \"#utility.yul\":4771:4850   */\n      tag_142\n      tag_63\n      jump\t// in\n    tag_142:\n        /* \"#utility.yul\":4740:4852   */\n    tag_141:\n        /* \"#utility.yul\":4861:4915   */\n      tag_143\n        /* \"#utility.yul\":4908:4914   */\n      dup5\n        /* \"#utility.yul\":4903:4906   */\n      dup3\n        /* \"#utility.yul\":4898:4901   */\n      dup6\n        /* \"#utility.yul\":4861:4915   */\n      tag_68\n      jump\t// in\n    tag_143:\n        /* \"#utility.yul\":4580:4921   */\n      pop\n        /* \"#utility.yul\":4496:4921   */\n      swap4\n      swap3\n      pop\n      pop\n      pop\n      jump\t// out\n        /* \"#utility.yul\":4941:5281   */\n    tag_70:\n        /* \"#utility.yul\":4997:5002   */\n      0x00\n        /* \"#utility.yul\":5046:5049   */\n      dup3\n        /* \"#utility.yul\":5039:5043   */\n      0x1f\n        /* \"#utility.yul\":5031:5037   */\n      dup4\n        /* \"#utility.yul\":5027:5044   */\n      add\n        /* \"#utility.yul\":5023:5050   */\n      slt\n        /* \"#utility.yul\":5013:5135   */\n      tag_145\n      jumpi\n        /* \"#utility.yul\":5054:5133   */\n      tag_146\n      tag_62\n      jump\t// in\n    tag_146:\n        /* \"#utility.yul\":5013:5135   */\n    tag_145:\n        /* \"#utility.yul\":5171:5177   */\n      dup2\n        /* \"#utility.yul\":5158:5178   */\n      calldataload\n        /* \"#utility.yul\":5196:5275   */\n      tag_147\n        /* \"#utility.yul\":5271:5274   */\n      dup5\n        /* \"#utility.yul\":5263:5269   */\n      dup3\n        /* \"#utility.yul\":5256:5260   */\n      0x20\n        /* \"#utility.yul\":5248:5254   */\n      dup7\n        /* \"#utility.yul\":5244:5261   */\n      add\n        /* \"#utility.yul\":5196:5275   */\n      tag_69\n      jump\t// in\n    tag_147:\n        /* \"#utility.yul\":5187:5275   */\n      swap2\n      pop\n        /* \"#utility.yul\":5003:5281   */\n      pop\n        /* \"#utility.yul\":4941:5281   */\n      swap3\n      swap2\n      pop\n      pop\n      jump\t// out\n        /* \"#utility.yul\":5287:6918   */\n    tag_13:\n        /* \"#utility.yul\":5422:5428   */\n      0x00\n        /* \"#utility.yul\":5430:5436   */\n      0x00\n        /* \"#utility.yul\":5438:5444   */\n      0x00\n        /* \"#utility.yul\":5446:5452   */\n      0x00\n        /* \"#utility.yul\":5454:5460   */\n      0x00\n        /* \"#utility.yul\":5503:5506   */\n      0xa0\n        /* \"#utility.yul\":5491:5500   */\n      dup7\n        /* \"#utility.yul\":5482:5489   */\n      dup9\n        /* \"#utility.yul\":5478:5501   */\n      sub\n        /* \"#utility.yul\":5474:5507   */\n      slt\n        /* \"#utility.yul\":5471:5591   */\n      iszero\n      tag_149\n      jumpi\n        /* \"#utility.yul\":5510:5589   */\n      tag_150\n      tag_50\n      jump\t// in\n    tag_150:\n        /* \"#utility.yul\":5471:5591   */\n    tag_149:\n        /* \"#utility.yul\":5630:5631   */\n      0x00\n        /* \"#utility.yul\":5655:5708   */\n      tag_151\n        /* \"#utility.yul\":5700:5707   */\n      dup9\n        /* \"#utility.yul\":5691:5697   */\n      dup3\n        /* \"#utility.yul\":5680:5689   */\n      dup10\n        /* \"#utility.yul\":5676:5698   */\n      add\n        /* \"#utility.yul\":5655:5708   */\n      tag_54\n      jump\t// in\n    tag_151:\n        /* \"#utility.yul\":5645:5708   */\n      swap6\n      pop\n        /* \"#utility.yul\":5601:5718   */\n      pop\n        /* \"#utility.yul\":5785:5787   */\n      0x20\n        /* \"#utility.yul\":5774:5783   */\n      dup7\n        /* \"#utility.yul\":5770:5788   */\n      add\n        /* \"#utility.yul\":5757:5789   */\n      calldataload\n        /* \"#utility.yul\":5816:5834   */\n      0xffffffffffffffff\n        /* \"#utility.yul\":5808:5814   */\n      dup2\n        /* \"#utility.yul\":5805:5835   */\n      gt\n        /* \"#utility.yul\":5802:5919   */\n      iszero\n      tag_152\n      jumpi\n        /* \"#utility.yul\":5838:5917   */\n      tag_153\n      tag_51\n      jump\t// in\n    tag_153:\n        /* \"#utility.yul\":5802:5919   */\n    tag_152:\n        /* \"#utility.yul\":5943:6006   */\n      tag_154\n        /* \"#utility.yul\":5998:6005   */\n      dup9\n        /* \"#utility.yul\":5989:5995   */\n      dup3\n        /* \"#utility.yul\":5978:5987   */\n      dup10\n        /* \"#utility.yul\":5974:5996   */\n      add\n        /* \"#utility.yul\":5943:6006   */\n      tag_70\n      jump\t// in\n    tag_154:\n        /* \"#utility.yul\":5933:6006   */\n      swap5\n      pop\n        /* \"#utility.yul\":5728:6016   */\n      pop\n        /* \"#utility.yul\":6083:6085   */\n      0x40\n        /* \"#utility.yul\":6072:6081   */\n      dup7\n        /* \"#utility.yul\":6068:6086   */\n      add\n        /* \"#utility.yul\":6055:6087   */\n      calldataload\n        /* \"#utility.yul\":6114:6132   */\n      0xffffffffffffffff\n        /* \"#utility.yul\":6106:6112   */\n      dup2\n        /* \"#utility.yul\":6103:6133   */\n      gt\n        /* \"#utility.yul\":6100:6217   */\n      iszero\n      tag_155\n      jumpi\n        /* \"#utility.yul\":6136:6215   */\n      tag_156\n      tag_51\n      jump\t// in\n    tag_156:\n        /* \"#utility.yul\":6100:6217   */\n    tag_155:\n        /* \"#utility.yul\":6241:6304   */\n      tag_157\n        /* \"#utility.yul\":6296:6303   */\n      dup9\n        /* \"#utility.yul\":6287:6293   */\n      dup3\n        /* \"#utility.yul\":6276:6285   */\n      dup10\n        /* \"#utility.yul\":6272:6294   */\n      add\n        /* \"#utility.yul\":6241:6304   */\n      tag_70\n      jump\t// in\n    tag_157:\n        /* \"#utility.yul\":6231:6304   */\n      swap4\n      pop\n        /* \"#utility.yul\":6026:6314   */\n      pop\n        /* \"#utility.yul\":6381:6383   */\n      0x60\n        /* \"#utility.yul\":6370:6379   */\n      dup7\n        /* \"#utility.yul\":6366:6384   */\n      add\n        /* \"#utility.yul\":6353:6385   */\n      calldataload\n        /* \"#utility.yul\":6412:6430   */\n      0xffffffffffffffff\n        /* \"#utility.yul\":6404:6410   */\n      dup2\n        /* \"#utility.yul\":6401:6431   */\n      gt\n        /* \"#utility.yul\":6398:6515   */\n      iszero\n      tag_158\n      jumpi\n        /* \"#utility.yul\":6434:6513   */\n      tag_159\n      tag_51\n      jump\t// in\n    tag_159:\n        /* \"#utility.yul\":6398:6515   */\n    tag_158:\n        /* \"#utility.yul\":6539:6602   */\n      tag_160\n        /* \"#utility.yul\":6594:6601   */\n      dup9\n        /* \"#utility.yul\":6585:6591   */\n      dup3\n        /* \"#utility.yul\":6574:6583   */\n      dup10\n        /* \"#utility.yul\":6570:6592   */\n      add\n        /* \"#utility.yul\":6539:6602   */\n      tag_70\n      jump\t// in\n    tag_160:\n        /* \"#utility.yul\":6529:6602   */\n      swap3\n      pop\n        /* \"#utility.yul\":6324:6612   */\n      pop\n        /* \"#utility.yul\":6679:6682   */\n      0x80\n        /* \"#utility.yul\":6668:6677   */\n      dup7\n        /* \"#utility.yul\":6664:6683   */\n      add\n        /* \"#utility.yul\":6651:6684   */\n      calldataload\n        /* \"#utility.yul\":6711:6729   */\n      0xffffffffffffffff\n        /* \"#utility.yul\":6703:6709   */\n      dup2\n        /* \"#utility.yul\":6700:6730   */\n      gt\n        /* \"#utility.yul\":6697:6814   */\n      iszero\n      tag_161\n      jumpi\n        /* \"#utility.yul\":6733:6812   */\n      tag_162\n      tag_51\n      jump\t// in\n    tag_162:\n        /* \"#utility.yul\":6697:6814   */\n    tag_161:\n        /* \"#utility.yul\":6838:6901   */\n      tag_163\n        /* \"#utility.yul\":6893:6900   */\n      dup9\n        /* \"#utility.yul\":6884:6890   */\n      dup3\n        /* \"#utility.yul\":6873:6882   */\n      dup10\n        /* \"#utility.yul\":6869:6891   */\n      add\n        /* \"#utility.yul\":6838:6901   */\n      tag_70\n      jump\t// in\n    tag_163:\n        /* \"#utility.yul\":6828:6901   */\n      swap2\n      pop\n        /* \"#utility.yul\":6622:6911   */\n      pop\n        /* \"#utility.yul\":5287:6918   */\n      swap3\n      swap6\n      pop\n      swap3\n      swap6\n      swap1\n      swap4\n      pop\n      jump\t// out\n        /* \"#utility.yul\":6924:7104   */\n    tag_71:\n        /* \"#utility.yul\":6972:7049   */\n      0x4e487b7100000000000000000000000000000000000000000000000000000000\n        /* \"#utility.yul\":6969:6970   */\n      0x00\n        /* \"#utility.yul\":6962:7050   */\n      mstore\n        /* \"#utility.yul\":7069:7073   */\n      0x22\n        /* \"#utility.yul\":7066:7067   */\n      0x04\n        /* \"#utility.yul\":7059:7074   */\n      mstore\n        /* \"#utility.yul\":7093:7097   */\n      0x24\n        /* \"#utility.yul\":7090:7091   */\n      0x00\n        /* \"#utility.yul\":7083:7098   */\n      revert\n        /* \"#utility.yul\":7110:7430   */\n    tag_16:\n        /* \"#utility.yul\":7154:7160   */\n      0x00\n        /* \"#utility.yul\":7191:7192   */\n      0x02\n        /* \"#utility.yul\":7185:7189   */\n      dup3\n        /* \"#utility.yul\":7181:7193   */\n      div\n        /* \"#utility.yul\":7171:7193   */\n      swap1\n      pop\n        /* \"#utility.yul\":7238:7239   */\n      0x01\n        /* \"#utility.yul\":7232:7236   */\n      dup3\n        /* \"#utility.yul\":7228:7240   */\n      and\n        /* \"#utility.yul\":7259:7277   */\n      dup1\n        /* \"#utility.yul\":7249:7330   */\n      tag_166\n      jumpi\n        /* \"#utility.yul\":7315:7319   */\n      0x7f\n        /* \"#utility.yul\":7307:7313   */\n      dup3\n        /* \"#utility.yul\":7303:7320   */\n      and\n        /* \"#utility.yul\":7293:7320   */\n      swap2\n      pop\n        /* \"#utility.yul\":7249:7330   */\n    tag_166:\n        /* \"#utility.yul\":7377:7379   */\n      0x20\n        /* \"#utility.yul\":7369:7375   */\n      dup3\n        /* \"#utility.yul\":7366:7380   */\n      lt\n        /* \"#utility.yul\":7346:7364   */\n      dup2\n        /* \"#utility.yul\":7343:7381   */\n      sub\n        /* \"#utility.yul\":7340:7424   */\n      tag_167\n      jumpi\n        /* \"#utility.yul\":7396:7414   */\n      tag_168\n      tag_71\n      jump\t// in\n    tag_168:\n        /* \"#utility.yul\":7340:7424   */\n    tag_167:\n        /* \"#utility.yul\":7161:7430   */\n      pop\n        /* \"#utility.yul\":7110:7430   */\n      swap2\n      swap1\n      pop\n      jump\t// out\n        /* \"#utility.yul\":7436:7605   */\n    tag_72:\n        /* \"#utility.yul\":7576:7597   */\n      0x756e617574686f72697a65642061636365737300000000000000000000000000\n        /* \"#utility.yul\":7572:7573   */\n      0x00\n        /* \"#utility.yul\":7564:7570   */\n      dup3\n        /* \"#utility.yul\":7560:7574   */\n      add\n        /* \"#utility.yul\":7553:7598   */\n      mstore\n        /* \"#utility.yul\":7436:7605   */\n      pop\n      jump\t// out\n        /* \"#utility.yul\":7611:7977   */\n    tag_73:\n        /* \"#utility.yul\":7753:7756   */\n      0x00\n        /* \"#utility.yul\":7774:7841   */\n      tag_171\n        /* \"#utility.yul\":7838:7840   */\n      0x13\n        /* \"#utility.yul\":7833:7836   */\n      dup4\n        /* \"#utility.yul\":7774:7841   */\n      tag_56\n      jump\t// in\n    tag_171:\n        /* \"#utility.yul\":7767:7841   */\n      swap2\n      pop\n        /* \"#utility.yul\":7850:7943   */\n      tag_172\n        /* \"#utility.yul\":7939:7942   */\n      dup3\n        /* \"#utility.yul\":7850:7943   */\n      tag_72\n      jump\t// in\n    tag_172:\n        /* \"#utility.yul\":7968:7970   */\n      0x20\n        /* \"#utility.yul\":7963:7966   */\n      dup3\n        /* \"#utility.yul\":7959:7971   */\n      add\n        /* \"#utility.yul\":7952:7971   */\n      swap1\n      pop\n        /* \"#utility.yul\":7611:7977   */\n      swap2\n      swap1\n      pop\n      jump\t// out\n        /* \"#utility.yul\":7983:8402   */\n    tag_39:\n        /* \"#utility.yul\":8149:8153   */\n      0x00\n        /* \"#utility.yul\":8187:8189   */\n      0x20\n        /* \"#utility.yul\":8176:8185   */\n      dup3\n        /* \"#utility.yul\":8172:8190   */\n      add\n        /* \"#utility.yul\":8164:8190   */\n      swap1\n      pop\n        /* \"#utility.yul\":8236:8245   */\n      dup2\n        /* \"#utility.yul\":8230:8234   */\n      dup2\n        /* \"#utility.yul\":8226:8246   */\n      sub\n        /* \"#utility.yul\":8222:8223   */\n      0x00\n        /* \"#utility.yul\":8211:8220   */\n      dup4\n        /* \"#utility.yul\":8207:8224   */\n      add\n        /* \"#utility.yul\":8200:8247   */\n      mstore\n        /* \"#utility.yul\":8264:8395   */\n      tag_174\n        /* \"#utility.yul\":8390:8394   */\n      dup2\n        /* \"#utility.yul\":8264:8395   */\n      tag_73\n      jump\t// in\n    tag_174:\n        /* \"#utility.yul\":8256:8395   */\n      swap1\n      pop\n        /* \"#utility.yul\":7983:8402   */\n      swap2\n      swap1\n      pop\n      jump\t// out\n        /* \"#utility.yul\":8408:8579   */\n    tag_74:\n        /* \"#utility.yul\":8548:8571   */\n      0x726f6c6c6e6f20646f6573206e6f742065786973740000000000000000000000\n        /* \"#utility.yul\":8544:8545   */\n      0x00\n        /* \"#utility.yul\":8536:8542   */\n      dup3\n        /* \"#utility.yul\":8532:8546   */\n      add\n        /* \"#utility.yul\":8525:8572   */\n      mstore\n        /* \"#utility.yul\":8408:8579   */\n      pop\n      jump\t// out\n        /* \"#utility.yul\":8585:8951   */\n    tag_75:\n        /* \"#utility.yul\":8727:8730   */\n      0x00\n        /* \"#utility.yul\":8748:8815   */\n      tag_177\n        /* \"#utility.yul\":8812:8814   */\n      0x15\n        /* \"#utility.yul\":8807:8810   */\n      dup4\n        /* \"#utility.yul\":8748:8815   */\n      tag_56\n      jump\t// in\n    tag_177:\n        /* \"#utility.yul\":8741:8815   */\n      swap2\n      pop\n        /* \"#utility.yul\":8824:8917   */\n      tag_178\n        /* \"#utility.yul\":8913:8916   */\n      dup3\n        /* \"#utility.yul\":8824:8917   */\n      tag_74\n      jump\t// in\n    tag_178:\n        /* \"#utility.yul\":8942:8944   */\n      0x20\n        /* \"#utility.yul\":8937:8940   */\n      dup3\n        /* \"#utility.yul\":8933:8945   */\n      add\n        /* \"#utility.yul\":8926:8945   */\n      swap1\n      pop\n        /* \"#utility.yul\":8585:8951   */\n      swap2\n      swap1\n      pop\n      jump\t// out\n        /* \"#utility.yul\":8957:9376   */\n    tag_43:\n        /* \"#utility.yul\":9123:9127   */\n      0x00\n        /* \"#utility.yul\":9161:9163   */\n      0x20\n        /* \"#utility.yul\":9150:9159   */\n      dup3\n        /* \"#utility.yul\":9146:9164   */\n      add\n        /* \"#utility.yul\":9138:9164   */\n      swap1\n      pop\n        /* \"#utility.yul\":9210:9219   */\n      dup2\n        /* \"#utility.yul\":9204:9208   */\n      dup2\n        /* \"#utility.yul\":9200:9220   */\n      sub\n        /* \"#utility.yul\":9196:9197   */\n      0x00\n        /* \"#utility.yul\":9185:9194   */\n      dup4\n        /* \"#utility.yul\":9181:9198   */\n      add\n        /* \"#utility.yul\":9174:9221   */\n      mstore\n        /* \"#utility.yul\":9238:9369   */\n      tag_180\n        /* \"#utility.yul\":9364:9368   */\n      dup2\n        /* \"#utility.yul\":9238:9369   */\n      tag_75\n      jump\t// in\n    tag_180:\n        /* \"#utility.yul\":9230:9369   */\n      swap1\n      pop\n        /* \"#utility.yul\":8957:9376   */\n      swap2\n      swap1\n      pop\n      jump\t// out\n        /* \"#utility.yul\":9382:9523   */\n    tag_76:\n        /* \"#utility.yul\":9431:9435   */\n      0x00\n        /* \"#utility.yul\":9454:9457   */\n      dup2\n        /* \"#utility.yul\":9446:9457   */\n      swap1\n      pop\n        /* \"#utility.yul\":9477:9480   */\n      dup2\n        /* \"#utility.yul\":9474:9475   */\n      0x00\n        /* \"#utility.yul\":9467:9481   */\n      mstore\n        /* \"#utility.yul\":9511:9515   */\n      0x20\n        /* \"#utility.yul\":9508:9509   */\n      0x00\n        /* \"#utility.yul\":9498:9516   */\n      keccak256\n        /* \"#utility.yul\":9490:9516   */\n      swap1\n      pop\n        /* \"#utility.yul\":9382:9523   */\n      swap2\n      swap1\n      pop\n      jump\t// out\n        /* \"#utility.yul\":9529:9622   */\n    tag_77:\n        /* \"#utility.yul\":9566:9572   */\n      0x00\n        /* \"#utility.yul\":9613:9615   */\n      0x20\n        /* \"#utility.yul\":9608:9610   */\n      0x1f\n        /* \"#utility.yul\":9601:9606   */\n      dup4\n        /* \"#utility.yul\":9597:9611   */\n      add\n        /* \"#utility.yul\":9593:9616   */\n      div\n        /* \"#utility.yul\":9583:9616   */\n      swap1\n      pop\n        /* \"#utility.yul\":9529:9622   */\n      swap2\n      swap1\n      pop\n      jump\t// out\n        /* \"#utility.yul\":9628:9735   */\n    tag_78:\n        /* \"#utility.yul\":9672:9680   */\n      0x00\n        /* \"#utility.yul\":9722:9727   */\n      dup3\n        /* \"#utility.yul\":9716:9720   */\n      dup3\n        /* \"#utility.yul\":9712:9728   */\n      shl\n        /* \"#utility.yul\":9691:9728   */\n      swap1\n      pop\n        /* \"#utility.yul\":9628:9735   */\n      swap3\n      swap2\n      pop\n      pop\n      jump\t// out\n        /* \"#utility.yul\":9741:10134   */\n    tag_79:\n        /* \"#utility.yul\":9810:9816   */\n      0x00\n        /* \"#utility.yul\":9860:9861   */\n      0x08\n        /* \"#utility.yul\":9848:9858   */\n      dup4\n        /* \"#utility.yul\":9844:9862   */\n      mul\n        /* \"#utility.yul\":9883:9980   */\n      tag_185\n        /* \"#utility.yul\":9913:9979   */\n      0xffffffffffffffffffffffffffffffffffffffffffffffffffffffffffffffff\n        /* \"#utility.yul\":9902:9911   */\n      dup3\n        /* \"#utility.yul\":9883:9980   */\n      tag_78\n      jump\t// in\n    tag_185:\n        /* \"#utility.yul\":10001:10040   */\n      tag_186\n        /* \"#utility.yul\":10031:10039   */\n      dup7\n        /* \"#utility.yul\":10020:10029   */\n      dup4\n        /* \"#utility.yul\":10001:10040   */\n      tag_78\n      jump\t// in\n    tag_186:\n        /* \"#utility.yul\":9989:10040   */\n      swap6\n      pop\n        /* \"#utility.yul\":10073:10077   */\n      dup1\n        /* \"#utility.yul\":10069:10078   */\n      not\n        /* \"#utility.yul\":10062:10067   */\n      dup5\n        /* \"#utility.yul\":10058:10079   */\n      and\n        /* \"#utility.yul\":10049:10079   */\n      swap4\n      pop\n        /* \"#utility.yul\":10122:10126   */\n      dup1\n        /* \"#utility.yul\":10112:10120   */\n      dup7\n        /* \"#utility.yul\":10108:10127   */\n      and\n        /* \"#utility.yul\":10101:10106   */\n      dup5\n        /* \"#utility.yul\":10098:10128   */\n      or\n        /* \"#utility.yul\":10088:10128   */\n      swap3\n      pop\n        /* \"#utility.yul\":9817:10134   */\n      pop\n      pop\n        /* \"#utility.yul\":9741:10134   */\n      swap4\n      swap3\n      pop\n      pop\n      pop\n      jump\t// out\n        /* \"#utility.yul\":10140:10200   */\n    tag_80:\n        /* \"#utility.yul\":10168:10171   */\n      0x00\n        /* \"#utility.yul\":10189:10194   */\n      dup2\n        /* \"#utility.yul\":10182:10194   */\n      swap1\n      pop\n        /* \"#utility.yul\":10140:10200   */\n      swap2\n      swap1\n      pop\n      jump\t// out\n        /* \"#utility.yul\":10206:10348   */\n    tag_81:\n        /* \"#utility.yul\":10256:10265   */\n      0x00\n        /* \"#utility.yul\":10289:10342   */\n      tag_189\n        /* \"#utility.yul\":10307:10341   */\n      tag_190\n        /* \"#utility.yul\":10316:10340   */\n      tag_191\n        /* \"#utility.yul\":10334:10339   */\n      dup5\n        /* \"#utility.yul\":10316:10340   */\n      tag_52\n      jump\t// in\n    tag_191:\n        /* \"#utility.yul\":10307:10341   */\n      tag_80\n      jump\t// in\n    tag_190:\n        /* \"#utility.yul\":10289:10342   */\n      tag_52\n      jump\t// in\n    tag_189:\n        /* \"#utility.yul\":10276:10342   */\n      swap1\n      pop\n        /* \"#utility.yul\":10206:10348   */\n      swap2\n      swap1\n      pop\n      jump\t// out\n        /* \"#utility.yul\":10354:10429   */\n    tag_82:\n        /* \"#utility.yul\":10397:10400   */\n      0x00\n        /* \"#utility.yul\":10418:10423   */\n      dup2\n        /* \"#utility.yul\":10411:10423   */\n      swap1\n      pop\n        /* \"#utility.yul\":10354:10429   */\n      swap2\n      swap1\n      pop\n      jump\t// out\n        /* \"#utility.yul\":10435:10704   */\n    tag_83:\n        /* \"#utility.yul\":10545:10584   */\n      tag_194\n        /* \"#utility.yul\":10576:10583   */\n      dup4\n        /* \"#utility.yul\":10545:10584   */\n      tag_81\n      jump\t// in\n    tag_194:\n        /* \"#utility.yul\":10606:10697   */\n      tag_195\n        /* \"#utility.yul\":10655:10696   */\n      tag_196\n        /* \"#utility.yul\":10679:10695   */\n      dup3\n        /* \"#utility.yul\":10655:10696   */\n      tag_82\n      jump\t// in\n    tag_196:\n        /* \"#utility.yul\":10647:10653   */\n      dup5\n        /* \"#utility.yul\":10640:10644   */\n      dup5\n        /* \"#utility.yul\":10634:10645   */\n      sload\n        /* \"#utility.yul\":10606:10697   */\n      tag_79\n      jump\t// in\n    tag_195:\n        /* \"#utility.yul\":10600:10604   */\n      dup3\n        /* \"#utility.yul\":10593:10698   */\n      sstore\n        /* \"#utility.yul\":10511:10704   */\n      pop\n        /* \"#utility.yul\":10435:10704   */\n      pop\n      pop\n      pop\n      jump\t// out\n        /* \"#utility.yul\":10710:10783   */\n    tag_84:\n        /* \"#utility.yul\":10755:10758   */\n      0x00\n        /* \"#utility.yul\":10776:10777   */\n      0x00\n        /* \"#utility.yul\":10769:10777   */\n      swap1\n      pop\n        /* \"#utility.yul\":10710:10783   */\n      swap1\n      jump\t// out\n        /* \"#utility.yul\":10789:10978   */\n    tag_85:\n        /* \"#utility.yul\":10866:10898   */\n      tag_199\n      tag_84\n      jump\t// in\n    tag_199:\n        /* \"#utility.yul\":10907:10972   */\n      tag_200\n        /* \"#utility.yul\":10965:10971   */\n      dup2\n        /* \"#utility.yul\":10957:10963   */\n      dup5\n        /* \"#utility.yul\":10951:10955   */\n      dup5\n        /* \"#utility.yul\":10907:10972   */\n      tag_83\n      jump\t// in\n    tag_200:\n        /* \"#utility.yul\":10842:10978   */\n      pop\n        /* \"#utility.yul\":10789:10978   */\n      pop\n      pop\n      jump\t// out\n        /* \"#utility.yul\":10984:11170   */\n    tag_86:\n        /* \"#utility.yul\":11044:11164   */\n    tag_202:\n        /* \"#utility.yul\":11061:11064   */\n      dup2\n        /* \"#utility.yul\":11054:11059   */\n      dup2\n        /* \"#utility.yul\":11051:11065   */\n      lt\n        /* \"#utility.yul\":11044:11164   */\n      iszero\n      tag_204\n      jumpi\n        /* \"#utility.yul\":11115:11154   */\n      tag_205\n        /* \"#utility.yul\":11152:11153   */\n      0x00\n        /* \"#utility.yul\":11145:11150   */\n      dup3\n        /* \"#utility.yul\":11115:11154   */\n      tag_85\n      jump\t// in\n    tag_205:\n        /* \"#utility.yul\":11088:11089   */\n      0x01\n        /* \"#utility.yul\":11081:11086   */\n      dup2\n        /* \"#utility.yul\":11077:11090   */\n      add\n        /* \"#utility.yul\":11068:11090   */\n      swap1\n      pop\n        /* \"#utility.yul\":11044:11164   */\n      jump(tag_202)\n    tag_204:\n        /* \"#utility.yul\":10984:11170   */\n      pop\n      pop\n      jump\t// out\n        /* \"#utility.yul\":11176:11719   */\n    tag_87:\n        /* \"#utility.yul\":11277:11279   */\n      0x1f\n        /* \"#utility.yul\":11272:11275   */\n      dup3\n        /* \"#utility.yul\":11269:11280   */\n      gt\n        /* \"#utility.yul\":11266:11712   */\n      iszero\n      tag_207\n      jumpi\n        /* \"#utility.yul\":11311:11349   */\n      tag_208\n        /* \"#utility.yul\":11343:11348   */\n      dup2\n        /* \"#utility.yul\":11311:11349   */\n      tag_76\n      jump\t// in\n    tag_208:\n        /* \"#utility.yul\":11395:11424   */\n      tag_209\n        /* \"#utility.yul\":11413:11423   */\n      dup5\n        /* \"#utility.yul\":11395:11424   */\n      tag_77\n      jump\t// in\n    tag_209:\n        /* \"#utility.yul\":11385:11393   */\n      dup2\n        /* \"#utility.yul\":11381:11425   */\n      add\n        /* \"#utility.yul\":11578:11580   */\n      0x20\n        /* \"#utility.yul\":11566:11576   */\n      dup6\n        /* \"#utility.yul\":11563:11581   */\n      lt\n        /* \"#utility.yul\":11560:11609   */\n      iszero\n      tag_210\n      jumpi\n        /* \"#utility.yul\":11599:11607   */\n      dup2\n        /* \"#utility.yul\":11584:11607   */\n      swap1\n      pop\n        /* \"#utility.yul\":11560:11609   */\n    tag_210:\n        /* \"#utility.yul\":11622:11702   */\n      tag_211\n        /* \"#utility.yul\":11678:11700   */\n      tag_212\n        /* \"#utility.yul\":11696:11699   */\n      dup6\n        /* \"#utility.yul\":11678:11700   */\n      tag_77\n      jump\t// in\n    tag_212:\n        /* \"#utility.yul\":11668:11676   */\n      dup4\n        /* \"#utility.yul\":11664:11701   */\n      add\n        /* \"#utility.yul\":11651:11662   */\n      dup3\n        /* \"#utility.yul\":11622:11702   */\n      tag_86\n      jump\t// in\n    tag_211:\n        /* \"#utility.yul\":11281:11712   */\n      pop\n      pop\n        /* \"#utility.yul\":11266:11712   */\n    tag_207:\n        /* \"#utility.yul\":11176:11719   */\n      pop\n      pop\n      pop\n      jump\t// out\n        /* \"#utility.yul\":11725:11842   */\n    tag_88:\n        /* \"#utility.yul\":11779:11787   */\n      0x00\n        /* \"#utility.yul\":11829:11834   */\n      dup3\n        /* \"#utility.yul\":11823:11827   */\n      dup3\n        /* \"#utility.yul\":11819:11835   */\n      shr\n        /* \"#utility.yul\":11798:11835   */\n      swap1\n      pop\n        /* \"#utility.yul\":11725:11842   */\n      swap3\n      swap2\n      pop\n      pop\n      jump\t// out\n        /* \"#utility.yul\":11848:12017   */\n    tag_89:\n        /* \"#utility.yul\":11892:11898   */\n      0x00\n        /* \"#utility.yul\":11925:11976   */\n      tag_215\n        /* \"#utility.yul\":11973:11974   */\n      0x00\n        /* \"#utility.yul\":11969:11975   */\n      not\n        /* \"#utility.yul\":11961:11966   */\n      dup5\n        /* \"#utility.yul\":11958:11959   */\n      0x08\n        /* \"#utility.yul\":11954:11967   */\n      mul\n        /* \"#utility.yul\":11925:11976   */\n      tag_88\n      jump\t// in\n    tag_215:\n        /* \"#utility.yul\":11921:11977   */\n      not\n        /* \"#utility.yul\":12006:12010   */\n      dup1\n        /* \"#utility.yul\":12000:12004   */\n      dup4\n        /* \"#utility.yul\":11996:12011   */\n      and\n        /* \"#utility.yul\":11986:12011   */\n      swap2\n      pop\n        /* \"#utility.yul\":11899:12017   */\n      pop\n        /* \"#utility.yul\":11848:12017   */\n      swap3\n      swap2\n      pop\n      pop\n      jump\t// out\n        /* \"#utility.yul\":12022:12317   */\n    tag_90:\n        /* \"#utility.yul\":12098:12102   */\n      0x00\n        /* \"#utility.yul\":12244:12273   */\n      tag_217\n        /* \"#utility.yul\":12269:12272   */\n      dup4\n        /* \"#utility.yul\":12263:12267   */\n      dup4\n        /* \"#utility.yul\":12244:12273   */\n      tag_89\n      jump\t// in\n    tag_217:\n        /* \"#utility.yul\":12236:12273   */\n      swap2\n      pop\n        /* \"#utility.yul\":12306:12309   */\n      dup3\n        /* \"#utility.yul\":12303:12304   */\n      0x02\n        /* \"#utility.yul\":12299:12310   */\n      mul\n        /* \"#utility.yul\":12293:12297   */\n      dup3\n        /* \"#utility.yul\":12290:12311   */\n      or\n        /* \"#utility.yul\":12282:12311   */\n      swap1\n      pop\n        /* \"#utility.yul\":12022:12317   */\n      swap3\n      swap2\n      pop\n      pop\n      jump\t// out\n        /* \"#utility.yul\":12322:13717   */\n    tag_45:\n        /* \"#utility.yul\":12439:12476   */\n      tag_219\n        /* \"#utility.yul\":12472:12475   */\n      dup3\n        /* \"#utility.yul\":12439:12476   */\n      tag_55\n      jump\t// in\n    tag_219:\n        /* \"#utility.yul\":12541:12559   */\n      0xffffffffffffffff\n        /* \"#utility.yul\":12533:12539   */\n      dup2\n        /* \"#utility.yul\":12530:12560   */\n      gt\n        /* \"#utility.yul\":12527:12583   */\n      iszero\n      tag_220\n      jumpi\n        /* \"#utility.yul\":12563:12581   */\n      tag_221\n      tag_64\n      jump\t// in\n    tag_221:\n        /* \"#utility.yul\":12527:12583   */\n    tag_220:\n        /* \"#utility.yul\":12607:12645   */\n      tag_222\n        /* \"#utility.yul\":12639:12643   */\n      dup3\n        /* \"#utility.yul\":12633:12644   */\n      sload\n        /* \"#utility.yul\":12607:12645   */\n      tag_16\n      jump\t// in\n    tag_222:\n        /* \"#utility.yul\":12692:12759   */\n      tag_223\n        /* \"#utility.yul\":12752:12758   */\n      dup3\n        /* \"#utility.yul\":12744:12750   */\n      dup3\n        /* \"#utility.yul\":12738:12742   */\n      dup6\n        /* \"#utility.yul\":12692:12759   */\n      tag_87\n      jump\t// in\n    tag_223:\n        /* \"#utility.yul\":12786:12787   */\n      0x00\n        /* \"#utility.yul\":12810:12814   */\n      0x20\n        /* \"#utility.yul\":12797:12814   */\n      swap1\n      pop\n        /* \"#utility.yul\":12842:12844   */\n      0x1f\n        /* \"#utility.yul\":12834:12840   */\n      dup4\n        /* \"#utility.yul\":12831:12845   */\n      gt\n        /* \"#utility.yul\":12859:12860   */\n      0x01\n        /* \"#utility.yul\":12854:13472   */\n      dup2\n      eq\n      tag_225\n      jumpi\n        /* \"#utility.yul\":13516:13517   */\n      0x00\n        /* \"#utility.yul\":13533:13539   */\n      dup5\n        /* \"#utility.yul\":13530:13607   */\n      iszero\n      tag_226\n      jumpi\n        /* \"#utility.yul\":13582:13591   */\n      dup3\n        /* \"#utility.yul\":13577:13580   */\n      dup8\n        /* \"#utility.yul\":13573:13592   */\n      add\n        /* \"#utility.yul\":13567:13593   */\n      mload\n        /* \"#utility.yul\":13558:13593   */\n      swap1\n      pop\n        /* \"#utility.yul\":13530:13607   */\n    tag_226:\n        /* \"#utility.yul\":13633:13700   */\n      tag_227\n        /* \"#utility.yul\":13693:13699   */\n      dup6\n        /* \"#utility.yul\":13686:13691   */\n      dup3\n        /* \"#utility.yul\":13633:13700   */\n      tag_90\n      jump\t// in\n    tag_227:\n        /* \"#utility.yul\":13627:13631   */\n      dup7\n        /* \"#utility.yul\":13620:13701   */\n      sstore\n        /* \"#utility.yul\":13489:13711   */\n      pop\n        /* \"#utility.yul\":12824:13711   */\n      jump(tag_224)\n        /* \"#utility.yul\":12854:13472   */\n    tag_225:\n        /* \"#utility.yul\":12906:12910   */\n      0x1f\n        /* \"#utility.yul\":12902:12911   */\n      not\n        /* \"#utility.yul\":12894:12900   */\n      dup5\n        /* \"#utility.yul\":12890:12912   */\n      and\n        /* \"#utility.yul\":12940:12977   */\n      tag_228\n        /* \"#utility.yul\":12972:12976   */\n      dup7\n        /* \"#utility.yul\":12940:12977   */\n      tag_76\n      jump\t// in\n    tag_228:\n        /* \"#utility.yul\":12999:13000   */\n      0x00\n        /* \"#utility.yul\":13013:13221   */\n    tag_229:\n        /* \"#utility.yul\":13027:13034   */\n      dup3\n        /* \"#utility.yul\":13024:13025   */\n      dup2\n        /* \"#utility.yul\":13021:13035   */\n      lt\n        /* \"#utility.yul\":13013:13221   */\n      iszero\n      tag_231\n      jumpi\n        /* \"#utility.yul\":13106:13115   */\n      dup5\n        /* \"#utility.yul\":13101:13104   */\n      dup10\n        /* \"#utility.yul\":13097:13116   */\n      add\n        /* \"#utility.yul\":13091:13117   */\n      mload\n        /* \"#utility.yul\":13083:13089   */\n      dup3\n        /* \"#utility.yul\":13076:13118   */\n      sstore\n        /* \"#utility.yul\":13157:13158   */\n      0x01\n        /* \"#utility.yul\":13149:13155   */\n      dup3\n        /* \"#utility.yul\":13145:13159   */\n      add\n        /* \"#utility.yul\":13135:13159   */\n      swap2\n      pop\n        /* \"#utility.yul\":13204:13206   */\n      0x20\n        /* \"#utility.yul\":13193:13202   */\n      dup6\n        /* \"#utility.yul\":13189:13207   */\n      add\n        /* \"#utility.yul\":13176:13207   */\n      swap5\n      pop\n        /* \"#utility.yul\":13050:13054   */\n      0x20\n        /* \"#utility.yul\":13047:13048   */\n      dup2\n        /* \"#utility.yul\":13043:13055   */\n      add\n        /* \"#utility.yul\":13038:13055   */\n      swap1\n      pop\n        /* \"#utility.yul\":13013:13221   */\n      jump(tag_229)\n    tag_231:\n        /* \"#utility.yul\":13249:13255   */\n      dup7\n        /* \"#utility.yul\":13240:13247   */\n      dup4\n        /* \"#utility.yul\":13237:13256   */\n      lt\n        /* \"#utility.yul\":13234:13413   */\n      iszero\n      tag_232\n      jumpi\n        /* \"#utility.yul\":13307:13316   */\n      dup5\n        /* \"#utility.yul\":13302:13305   */\n      dup10\n        /* \"#utility.yul\":13298:13317   */\n      add\n        /* \"#utility.yul\":13292:13318   */\n      mload\n        /* \"#utility.yul\":13350:13398   */\n      tag_233\n        /* \"#utility.yul\":13392:13396   */\n      0x1f\n        /* \"#utility.yul\":13384:13390   */\n      dup10\n        /* \"#utility.yul\":13380:13397   */\n      and\n        /* \"#utility.yul\":13369:13378   */\n      dup3\n        /* \"#utility.yul\":13350:13398   */\n      tag_89\n      jump\t// in\n    tag_233:\n        /* \"#utility.yul\":13342:13348   */\n      dup4\n        /* \"#utility.yul\":13335:13399   */\n      sstore\n        /* \"#utility.yul\":13257:13413   */\n      pop\n        /* \"#utility.yul\":13234:13413   */\n    tag_232:\n        /* \"#utility.yul\":13459:13460   */\n      0x01\n        /* \"#utility.yul\":13455:13456   */\n      0x02\n        /* \"#utility.yul\":13447:13453   */\n      dup9\n        /* \"#utility.yul\":13443:13457   */\n      mul\n        /* \"#utility.yul\":13439:13461   */\n      add\n        /* \"#utility.yul\":13433:13437   */\n      dup9\n        /* \"#utility.yul\":13426:13462   */\n      sstore\n        /* \"#utility.yul\":12861:13472   */\n      pop\n      pop\n      pop\n        /* \"#utility.yul\":12824:13711   */\n    tag_224:\n      pop\n        /* \"#utility.yul\":12414:13717   */\n      pop\n      pop\n      pop\n        /* \"#utility.yul\":12322:13717   */\n      pop\n      pop\n      jump\t// out\n\n    auxdata: 0xa2646970667358221220d918d85b3844821bb967a68038c95816cecc86bb9bf897e4536d99f8015bb8a064736f6c634300081c0033\n}\n",
				"bytecode": {
					"linkReferences": {},
					"object": "6080604052348015600e575f5ffd5b50335f5f6101000a81548173ffffffffffffffffffffffffffffffffffffffff021916908373ffffffffffffffffffffffffffffffffffffffff160217905550610bd28061005b5f395ff3fe608060405234801561000f575f5ffd5b5060043610610034575f3560e01c8063663b3e2214610038578063d1e7be261461006c575b5f5ffd5b610052600480360381019061004d91906104cb565b610088565b604051610063959493929190610580565b60405180910390f35b61008660048036038101906100819190610719565b6102de565b005b6001602052805f5260405f205f91509050805f0180546100a79061082d565b80601f01602080910402602001604051908101604052809291908181526020018280546100d39061082d565b801561011e5780601f106100f55761010080835404028352916020019161011e565b820191905f5260205f20905b81548152906001019060200180831161010157829003601f168201915b5050505050908060010180546101339061082d565b80601f016020809104026020016040519081016040528092919081815260200182805461015f9061082d565b80156101aa5780601f10610181576101008083540402835291602001916101aa565b820191905f5260205f20905b81548152906001019060200180831161018d57829003601f168201915b5050505050908060020180546101bf9061082d565b80601f01602080910402602001604051908101604052809291908181526020018280546101eb9061082d565b80156102365780601f1061020d57610100808354040283529160200191610236565b820191905f5260205f20905b81548152906001019060200180831161021957829003601f168201915b50505050509080600301805461024b9061082d565b80601f01602080910402602001604051908101604052809291908181526020018280546102779061082d565b80156102c25780601f10610299576101008083540402835291602001916102c2565b820191905f5260205f20905b8154815290600101906020018083116102a557829003601f168201915b505050505090806004015f9054906101000a900460ff16905085565b5f5f9054906101000a900473ffffffffffffffffffffffffffffffffffffffff1673ffffffffffffffffffffffffffffffffffffffff163373ffffffffffffffffffffffffffffffffffffffff161461036c576040517f08c379a0000000000000000000000000000000000000000000000000000000008152600401610363906108a7565b60405180910390fd5b60015f8681526020019081526020015f206004015f9054906101000a900460ff16156103cd576040517f08c379a00000000000000000000000000000000000000000000000000000000081526004016103c49061090f565b60405180910390fd5b6040518060a001604052808581526020018481526020018381526020018281526020016001151581525060015f8781526020019081526020015f205f820151815f01908161041b9190610acd565b5060208201518160010190816104319190610acd565b5060408201518160020190816104479190610acd565b50606082015181600301908161045d9190610acd565b506080820151816004015f6101000a81548160ff0219169083151502179055509050505050505050565b5f604051905090565b5f5ffd5b5f5ffd5b5f819050919050565b6104aa81610498565b81146104b4575f5ffd5b50565b5f813590506104c5816104a1565b92915050565b5f602082840312156104e0576104df610490565b5b5f6104ed848285016104b7565b91505092915050565b5f81519050919050565b5f82825260208201905092915050565b8281835e5f83830152505050565b5f601f19601f8301169050919050565b5f610538826104f6565b6105428185610500565b9350610552818560208601610510565b61055b8161051e565b840191505092915050565b5f8115159050919050565b61057a81610566565b82525050565b5f60a0820190508181035f830152610598818861052e565b905081810360208301526105ac818761052e565b905081810360408301526105c0818661052e565b905081810360608301526105d4818561052e565b90506105e36080830184610571565b9695505050505050565b5f5ffd5b5f5ffd5b7f4e487b71000000000000000000000000000000000000000000000000000000005f52604160045260245ffd5b61062b8261051e565b810181811067ffffffffffffffff8211171561064a576106496105f5565b5b80604052505050565b5f61065c610487565b90506106688282610622565b919050565b5f67ffffffffffffffff821115610687576106866105f5565b5b6106908261051e565b9050602081019050919050565b828183375f83830152505050565b5f6106bd6106b88461066d565b610653565b9050828152602081018484840111156106d9576106d86105f1565b5b6106e484828561069d565b509392505050565b5f82601f830112610700576106ff6105ed565b5b81356107108482602086016106ab565b91505092915050565b5f5f5f5f5f60a0868803121561073257610731610490565b5b5f61073f888289016104b7565b955050602086013567ffffffffffffffff8111156107605761075f610494565b5b61076c888289016106ec565b945050604086013567ffffffffffffffff81111561078d5761078c610494565b5b610799888289016106ec565b935050606086013567ffffffffffffffff8111156107ba576107b9610494565b5b6107c6888289016106ec565b925050608086013567ffffffffffffffff8111156107e7576107e6610494565b5b6107f3888289016106ec565b9150509295509295909350565b7f4e487b71000000000000000000000000000000000000000000000000000000005f52602260045260245ffd5b5f600282049050600182168061084457607f821691505b60208210810361085757610856610800565b5b50919050565b7f756e617574686f72697a656420616363657373000000000000000000000000005f82015250565b5f610891601383610500565b915061089c8261085d565b602082019050919050565b5f6020820190508181035f8301526108be81610885565b9050919050565b7f726f6c6c6e6f20646f6573206e6f7420657869737400000000000000000000005f82015250565b5f6108f9601583610500565b9150610904826108c5565b602082019050919050565b5f6020820190508181035f830152610926816108ed565b9050919050565b5f819050815f5260205f209050919050565b5f6020601f8301049050919050565b5f82821b905092915050565b5f600883026109897fffffffffffffffffffffffffffffffffffffffffffffffffffffffffffffffff8261094e565b610993868361094e565b95508019841693508086168417925050509392505050565b5f819050919050565b5f6109ce6109c96109c484610498565b6109ab565b610498565b9050919050565b5f819050919050565b6109e7836109b4565b6109fb6109f3826109d5565b84845461095a565b825550505050565b5f5f905090565b610a12610a03565b610a1d8184846109de565b505050565b5b81811015610a4057610a355f82610a0a565b600181019050610a23565b5050565b601f821115610a8557610a568161092d565b610a5f8461093f565b81016020851015610a6e578190505b610a82610a7a8561093f565b830182610a22565b50505b505050565b5f82821c905092915050565b5f610aa55f1984600802610a8a565b1980831691505092915050565b5f610abd8383610a96565b9150826002028217905092915050565b610ad6826104f6565b67ffffffffffffffff811115610aef57610aee6105f5565b5b610af9825461082d565b610b04828285610a44565b5f60209050601f831160018114610b35575f8415610b23578287015190505b610b2d8582610ab2565b865550610b94565b601f198416610b438661092d565b5f5b82811015610b6a57848901518255600182019150602085019450602081019050610b45565b86831015610b875784890151610b83601f891682610a96565b8355505b6001600288020188555050505b50505050505056fea2646970667358221220d918d85b3844821bb967a68038c95816cecc86bb9bf897e4536d99f8015bb8a064736f6c634300081c0033",
					"opcodes": "PUSH1 0x80 PUSH1 0x40 MSTORE CALLVALUE DUP1 ISZERO PUSH1 0xE JUMPI PUSH0 PUSH0 REVERT JUMPDEST POP CALLER PUSH0 PUSH0 PUSH2 0x100 EXP DUP2 SLOAD DUP2 PUSH20 0xFFFFFFFFFFFFFFFFFFFFFFFFFFFFFFFFFFFFFFFF MUL NOT AND SWAP1 DUP4 PUSH20 0xFFFFFFFFFFFFFFFFFFFFFFFFFFFFFFFFFFFFFFFF AND MUL OR SWAP1 SSTORE POP PUSH2 0xBD2 DUP1 PUSH2 0x5B PUSH0 CODECOPY PUSH0 RETURN INVALID PUSH1 0x80 PUSH1 0x40 MSTORE CALLVALUE DUP1 ISZERO PUSH2 0xF JUMPI PUSH0 PUSH0 REVERT JUMPDEST POP PUSH1 0x4 CALLDATASIZE LT PUSH2 0x34 JUMPI PUSH0 CALLDATALOAD PUSH1 0xE0 SHR DUP1 PUSH4 0x663B3E22 EQ PUSH2 0x38 JUMPI DUP1 PUSH4 0xD1E7BE26 EQ PUSH2 0x6C JUMPI JUMPDEST PUSH0 PUSH0 REVERT JUMPDEST PUSH2 0x52 PUSH1 0x4 DUP1 CALLDATASIZE SUB DUP2 ADD SWAP1 PUSH2 0x4D SWAP2 SWAP1 PUSH2 0x4CB JUMP JUMPDEST PUSH2 0x88 JUMP JUMPDEST PUSH1 0x40 MLOAD PUSH2 0x63 SWAP6 SWAP5 SWAP4 SWAP3 SWAP2 SWAP1 PUSH2 0x580 JUMP JUMPDEST PUSH1 0x40 MLOAD DUP1 SWAP2 SUB SWAP1 RETURN JUMPDEST PUSH2 0x86 PUSH1 0x4 DUP1 CALLDATASIZE SUB DUP2 ADD SWAP1 PUSH2 0x81 SWAP2 SWAP1 PUSH2 0x719 JUMP JUMPDEST PUSH2 0x2DE JUMP JUMPDEST STOP JUMPDEST PUSH1 0x1 PUSH1 0x20 MSTORE DUP1 PUSH0 MSTORE PUSH1 0x40 PUSH0 KECCAK256 PUSH0 SWAP2 POP SWAP1 POP DUP1 PUSH0 ADD DUP1 SLOAD PUSH2 0xA7 SWAP1 PUSH2 0x82D JUMP JUMPDEST DUP1 PUSH1 0x1F ADD PUSH1 0x20 DUP1 SWAP2 DIV MUL PUSH1 0x20 ADD PUSH1 0x40 MLOAD SWAP1 DUP2 ADD PUSH1 0x40 MSTORE DUP1 SWAP3 SWAP2 SWAP1 DUP2 DUP2 MSTORE PUSH1 0x20 ADD DUP3 DUP1 SLOAD PUSH2 0xD3 SWAP1 PUSH2 0x82D JUMP JUMPDEST DUP1 ISZERO PUSH2 0x11E JUMPI DUP1 PUSH1 0x1F LT PUSH2 0xF5 JUMPI PUSH2 0x100 DUP1 DUP4 SLOAD DIV MUL DUP4 MSTORE SWAP2 PUSH1 0x20 ADD SWAP2 PUSH2 0x11E JUMP JUMPDEST DUP3 ADD SWAP2 SWAP1 PUSH0 MSTORE PUSH1 0x20 PUSH0 KECCAK256 SWAP1 JUMPDEST DUP2 SLOAD DUP2 MSTORE SWAP1 PUSH1 0x1 ADD SWAP1 PUSH1 0x20 ADD DUP1 DUP4 GT PUSH2 0x101 JUMPI DUP3 SWAP1 SUB PUSH1 0x1F AND DUP3 ADD SWAP2 JUMPDEST POP POP POP POP POP SWAP1 DUP1 PUSH1 0x1 ADD DUP1 SLOAD PUSH2 0x133 SWAP1 PUSH2 0x82D JUMP JUMPDEST DUP1 PUSH1 0x1F ADD PUSH1 0x20 DUP1 SWAP2 DIV MUL PUSH1 0x20 ADD PUSH1 0x40 MLOAD SWAP1 DUP2 ADD PUSH1 0x40 MSTORE DUP1 SWAP3 SWAP2 SWAP1 DUP2 DUP2 MSTORE PUSH1 0x20 ADD DUP3 DUP1 SLOAD PUSH2 0x15F SWAP1 PUSH2 0x82D JUMP JUMPDEST DUP1 ISZERO PUSH2 0x1AA JUMPI DUP1 PUSH1 0x1F LT PUSH2 0x181 JUMPI PUSH2 0x100 DUP1 DUP4 SLOAD DIV MUL DUP4 MSTORE SWAP2 PUSH1 0x20 ADD SWAP2 PUSH2 0x1AA JUMP JUMPDEST DUP3 ADD SWAP2 SWAP1 PUSH0 MSTORE PUSH1 0x20 PUSH0 KECCAK256 SWAP1 JUMPDEST DUP2 SLOAD DUP2 MSTORE SWAP1 PUSH1 0x1 ADD SWAP1 PUSH1 0x20 ADD DUP1 DUP4 GT PUSH2 0x18D JUMPI DUP3 SWAP1 SUB PUSH1 0x1F AND DUP3 ADD SWAP2 JUMPDEST POP POP POP POP POP SWAP1 DUP1 PUSH1 0x2 ADD DUP1 SLOAD PUSH2 0x1BF SWAP1 PUSH2 0x82D JUMP JUMPDEST DUP1 PUSH1 0x1F ADD PUSH1 0x20 DUP1 SWAP2 DIV MUL PUSH1 0x20 ADD PUSH1 0x40 MLOAD SWAP1 DUP2 ADD PUSH1 0x40 MSTORE DUP1 SWAP3 SWAP2 SWAP1 DUP2 DUP2 MSTORE PUSH1 0x20 ADD DUP3 DUP1 SLOAD PUSH2 0x1EB SWAP1 PUSH2 0x82D JUMP JUMPDEST DUP1 ISZERO PUSH2 0x236 JUMPI DUP1 PUSH1 0x1F LT PUSH2 0x20D JUMPI PUSH2 0x100 DUP1 DUP4 SLOAD DIV MUL DUP4 MSTORE SWAP2 PUSH1 0x20 ADD SWAP2 PUSH2 0x236 JUMP JUMPDEST DUP3 ADD SWAP2 SWAP1 PUSH0 MSTORE PUSH1 0x20 PUSH0 KECCAK256 SWAP1 JUMPDEST DUP2 SLOAD DUP2 MSTORE SWAP1 PUSH1 0x1 ADD SWAP1 PUSH1 0x20 ADD DUP1 DUP4 GT PUSH2 0x219 JUMPI DUP3 SWAP1 SUB PUSH1 0x1F AND DUP3 ADD SWAP2 JUMPDEST POP POP POP POP POP SWAP1 DUP1 PUSH1 0x3 ADD DUP1 SLOAD PUSH2 0x24B SWAP1 PUSH2 0x82D JUMP JUMPDEST DUP1 PUSH1 0x1F ADD PUSH1 0x20 DUP1 SWAP2 DIV MUL PUSH1 0x20 ADD PUSH1 0x40 MLOAD SWAP1 DUP2 ADD PUSH1 0x40 MSTORE DUP1 SWAP3 SWAP2 SWAP1 DUP2 DUP2 MSTORE PUSH1 0x20 ADD DUP3 DUP1 SLOAD PUSH2 0x277 SWAP1 PUSH2 0x82D JUMP JUMPDEST DUP1 ISZERO PUSH2 0x2C2 JUMPI DUP1 PUSH1 0x1F LT PUSH2 0x299 JUMPI PUSH2 0x100 DUP1 DUP4 SLOAD DIV MUL DUP4 MSTORE SWAP2 PUSH1 0x20 ADD SWAP2 PUSH2 0x2C2 JUMP JUMPDEST DUP3 ADD SWAP2 SWAP1 PUSH0 MSTORE PUSH1 0x20 PUSH0 KECCAK256 SWAP1 JUMPDEST DUP2 SLOAD DUP2 MSTORE SWAP1 PUSH1 0x1 ADD SWAP1 PUSH1 0x20 ADD DUP1 DUP4 GT PUSH2 0x2A5 JUMPI DUP3 SWAP1 SUB PUSH1 0x1F AND DUP3 ADD SWAP2 JUMPDEST POP POP POP POP POP SWAP1 DUP1 PUSH1 0x4 ADD PUSH0 SWAP1 SLOAD SWAP1 PUSH2 0x100 EXP SWAP1 DIV PUSH1 0xFF AND SWAP1 POP DUP6 JUMP JUMPDEST PUSH0 PUSH0 SWAP1 SLOAD SWAP1 PUSH2 0x100 EXP SWAP1 DIV PUSH20 0xFFFFFFFFFFFFFFFFFFFFFFFFFFFFFFFFFFFFFFFF AND PUSH20 0xFFFFFFFFFFFFFFFFFFFFFFFFFFFFFFFFFFFFFFFF AND CALLER PUSH20 0xFFFFFFFFFFFFFFFFFFFFFFFFFFFFFFFFFFFFFFFF AND EQ PUSH2 0x36C JUMPI PUSH1 0x40 MLOAD PUSH32 0x8C379A000000000000000000000000000000000000000000000000000000000 DUP2 MSTORE PUSH1 0x4 ADD PUSH2 0x363 SWAP1 PUSH2 0x8A7 JUMP JUMPDEST PUSH1 0x40 MLOAD DUP1 SWAP2 SUB SWAP1 REVERT JUMPDEST PUSH1 0x1 PUSH0 DUP7 DUP2 MSTORE PUSH1 0x20 ADD SWAP1 DUP2 MSTORE PUSH1 0x20 ADD PUSH0 KECCAK256 PUSH1 0x4 ADD PUSH0 SWAP1 SLOAD SWAP1 PUSH2 0x100 EXP SWAP1 DIV PUSH1 0xFF AND ISZERO PUSH2 0x3CD JUMPI PUSH1 0x40 MLOAD PUSH32 0x8C379A000000000000000000000000000000000000000000000000000000000 DUP2 MSTORE PUSH1 0x4 ADD PUSH2 0x3C4 SWAP1 PUSH2 0x90F JUMP JUMPDEST PUSH1 0x40 MLOAD DUP1 SWAP2 SUB SWAP1 REVERT JUMPDEST PUSH1 0x40 MLOAD DUP1 PUSH1 0xA0 ADD PUSH1 0x40 MSTORE DUP1 DUP6 DUP2 MSTORE PUSH1 0x20 ADD DUP5 DUP2 MSTORE PUSH1 0x20 ADD DUP4 DUP2 MSTORE PUSH1 0x20 ADD DUP3 DUP2 MSTORE PUSH1 0x20 ADD PUSH1 0x1 ISZERO ISZERO DUP2 MSTORE POP PUSH1 0x1 PUSH0 DUP8 DUP2 MSTORE PUSH1 0x20 ADD SWAP1 DUP2 MSTORE PUSH1 0x20 ADD PUSH0 KECCAK256 PUSH0 DUP3 ADD MLOAD DUP2 PUSH0 ADD SWAP1 DUP2 PUSH2 0x41B SWAP2 SWAP1 PUSH2 0xACD JUMP JUMPDEST POP PUSH1 0x20 DUP3 ADD MLOAD DUP2 PUSH1 0x1 ADD SWAP1 DUP2 PUSH2 0x431 SWAP2 SWAP1 PUSH2 0xACD JUMP JUMPDEST POP PUSH1 0x40 DUP3 ADD MLOAD DUP2 PUSH1 0x2 ADD SWAP1 DUP2 PUSH2 0x447 SWAP2 SWAP1 PUSH2 0xACD JUMP JUMPDEST POP PUSH1 0x60 DUP3 ADD MLOAD DUP2 PUSH1 0x3 ADD SWAP1 DUP2 PUSH2 0x45D SWAP2 SWAP1 PUSH2 0xACD JUMP JUMPDEST POP PUSH1 0x80 DUP3 ADD MLOAD DUP2 PUSH1 0x4 ADD PUSH0 PUSH2 0x100 EXP DUP2 SLOAD DUP2 PUSH1 0xFF MUL NOT AND SWAP1 DUP4 ISZERO ISZERO MUL OR SWAP1 SSTORE POP SWAP1 POP POP POP POP POP POP POP JUMP JUMPDEST PUSH0 PUSH1 0x40 MLOAD SWAP1 POP SWAP1 JUMP JUMPDEST PUSH0 PUSH0 REVERT JUMPDEST PUSH0 PUSH0 REVERT JUMPDEST PUSH0 DUP2 SWAP1 POP SWAP2 SWAP1 POP JUMP JUMPDEST PUSH2 0x4AA DUP2 PUSH2 0x498 JUMP JUMPDEST DUP2 EQ PUSH2 0x4B4 JUMPI PUSH0 PUSH0 REVERT JUMPDEST POP JUMP JUMPDEST PUSH0 DUP2 CALLDATALOAD SWAP1 POP PUSH2 0x4C5 DUP2 PUSH2 0x4A1 JUMP JUMPDEST SWAP3 SWAP2 POP POP JUMP JUMPDEST PUSH0 PUSH1 0x20 DUP3 DUP5 SUB SLT ISZERO PUSH2 0x4E0 JUMPI PUSH2 0x4DF PUSH2 0x490 JUMP JUMPDEST JUMPDEST PUSH0 PUSH2 0x4ED DUP5 DUP3 DUP6 ADD PUSH2 0x4B7 JUMP JUMPDEST SWAP2 POP POP SWAP3 SWAP2 POP POP JUMP JUMPDEST PUSH0 DUP2 MLOAD SWAP1 POP SWAP2 SWAP1 POP JUMP JUMPDEST PUSH0 DUP3 DUP3 MSTORE PUSH1 0x20 DUP3 ADD SWAP1 POP SWAP3 SWAP2 POP POP JUMP JUMPDEST DUP3 DUP2 DUP4 MCOPY PUSH0 DUP4 DUP4 ADD MSTORE POP POP POP JUMP JUMPDEST PUSH0 PUSH1 0x1F NOT PUSH1 0x1F DUP4 ADD AND SWAP1 POP SWAP2 SWAP1 POP JUMP JUMPDEST PUSH0 PUSH2 0x538 DUP3 PUSH2 0x4F6 JUMP JUMPDEST PUSH2 0x542 DUP2 DUP6 PUSH2 0x500 JUMP JUMPDEST SWAP4 POP PUSH2 0x552 DUP2 DUP6 PUSH1 0x20 DUP7 ADD PUSH2 0x510 JUMP JUMPDEST PUSH2 0x55B DUP2 PUSH2 0x51E JUMP JUMPDEST DUP5 ADD SWAP2 POP POP SWAP3 SWAP2 POP POP JUMP JUMPDEST PUSH0 DUP2 ISZERO ISZERO SWAP1 POP SWAP2 SWAP1 POP JUMP JUMPDEST PUSH2 0x57A DUP2 PUSH2 0x566 JUMP JUMPDEST DUP3 MSTORE POP POP JUMP JUMPDEST PUSH0 PUSH1 0xA0 DUP3 ADD SWAP1 POP DUP2 DUP2 SUB PUSH0 DUP4 ADD MSTORE PUSH2 0x598 DUP2 DUP9 PUSH2 0x52E JUMP JUMPDEST SWAP1 POP DUP2 DUP2 SUB PUSH1 0x20 DUP4 ADD MSTORE PUSH2 0x5AC DUP2 DUP8 PUSH2 0x52E JUMP JUMPDEST SWAP1 POP DUP2 DUP2 SUB PUSH1 0x40 DUP4 ADD MSTORE PUSH2 0x5C0 DUP2 DUP7 PUSH2 0x52E JUMP JUMPDEST SWAP1 POP DUP2 DUP2 SUB PUSH1 0x60 DUP4 ADD MSTORE PUSH2 0x5D4 DUP2 DUP6 PUSH2 0x52E JUMP JUMPDEST SWAP1 POP PUSH2 0x5E3 PUSH1 0x80 DUP4 ADD DUP5 PUSH2 0x571 JUMP JUMPDEST SWAP7 SWAP6 POP POP POP POP POP POP JUMP JUMPDEST PUSH0 PUSH0 REVERT JUMPDEST PUSH0 PUSH0 REVERT JUMPDEST PUSH32 0x4E487B7100000000000000000000000000000000000000000000000000000000 PUSH0 MSTORE PUSH1 0x41 PUSH1 0x4 MSTORE PUSH1 0x24 PUSH0 REVERT JUMPDEST PUSH2 0x62B DUP3 PUSH2 0x51E JUMP JUMPDEST DUP2 ADD DUP2 DUP2 LT PUSH8 0xFFFFFFFFFFFFFFFF DUP3 GT OR ISZERO PUSH2 0x64A JUMPI PUSH2 0x649 PUSH2 0x5F5 JUMP JUMPDEST JUMPDEST DUP1 PUSH1 0x40 MSTORE POP POP POP JUMP JUMPDEST PUSH0 PUSH2 0x65C PUSH2 0x487 JUMP JUMPDEST SWAP1 POP PUSH2 0x668 DUP3 DUP3 PUSH2 0x622 JUMP JUMPDEST SWAP2 SWAP1 POP JUMP JUMPDEST PUSH0 PUSH8 0xFFFFFFFFFFFFFFFF DUP3 GT ISZERO PUSH2 0x687 JUMPI PUSH2 0x686 PUSH2 0x5F5 JUMP JUMPDEST JUMPDEST PUSH2 0x690 DUP3 PUSH2 0x51E JUMP JUMPDEST SWAP1 POP PUSH1 0x20 DUP2 ADD SWAP1 POP SWAP2 SWAP1 POP JUMP JUMPDEST DUP3 DUP2 DUP4 CALLDATACOPY PUSH0 DUP4 DUP4 ADD MSTORE POP POP POP JUMP JUMPDEST PUSH0 PUSH2 0x6BD PUSH2 0x6B8 DUP5 PUSH2 0x66D JUMP JUMPDEST PUSH2 0x653 JUMP JUMPDEST SWAP1 POP DUP3 DUP2 MSTORE PUSH1 0x20 DUP2 ADD DUP5 DUP5 DUP5 ADD GT ISZERO PUSH2 0x6D9 JUMPI PUSH2 0x6D8 PUSH2 0x5F1 JUMP JUMPDEST JUMPDEST PUSH2 0x6E4 DUP5 DUP3 DUP6 PUSH2 0x69D JUMP JUMPDEST POP SWAP4 SWAP3 POP POP POP JUMP JUMPDEST PUSH0 DUP3 PUSH1 0x1F DUP4 ADD SLT PUSH2 0x700 JUMPI PUSH2 0x6FF PUSH2 0x5ED JUMP JUMPDEST JUMPDEST DUP2 CALLDATALOAD PUSH2 0x710 DUP5 DUP3 PUSH1 0x20 DUP7 ADD PUSH2 0x6AB JUMP JUMPDEST SWAP2 POP POP SWAP3 SWAP2 POP POP JUMP JUMPDEST PUSH0 PUSH0 PUSH0 PUSH0 PUSH0 PUSH1 0xA0 DUP7 DUP9 SUB SLT ISZERO PUSH2 0x732 JUMPI PUSH2 0x731 PUSH2 0x490 JUMP JUMPDEST JUMPDEST PUSH0 PUSH2 0x73F DUP9 DUP3 DUP10 ADD PUSH2 0x4B7 JUMP JUMPDEST SWAP6 POP POP PUSH1 0x20 DUP7 ADD CALLDATALOAD PUSH8 0xFFFFFFFFFFFFFFFF DUP2 GT ISZERO PUSH2 0x760 JUMPI PUSH2 0x75F PUSH2 0x494 JUMP JUMPDEST JUMPDEST PUSH2 0x76C DUP9 DUP3 DUP10 ADD PUSH2 0x6EC JUMP JUMPDEST SWAP5 POP POP PUSH1 0x40 DUP7 ADD CALLDATALOAD PUSH8 0xFFFFFFFFFFFFFFFF DUP2 GT ISZERO PUSH2 0x78D JUMPI PUSH2 0x78C PUSH2 0x494 JUMP JUMPDEST JUMPDEST PUSH2 0x799 DUP9 DUP3 DUP10 ADD PUSH2 0x6EC JUMP JUMPDEST SWAP4 POP POP PUSH1 0x60 DUP7 ADD CALLDATALOAD PUSH8 0xFFFFFFFFFFFFFFFF DUP2 GT ISZERO PUSH2 0x7BA JUMPI PUSH2 0x7B9 PUSH2 0x494 JUMP JUMPDEST JUMPDEST PUSH2 0x7C6 DUP9 DUP3 DUP10 ADD PUSH2 0x6EC JUMP JUMPDEST SWAP3 POP POP PUSH1 0x80 DUP7 ADD CALLDATALOAD PUSH8 0xFFFFFFFFFFFFFFFF DUP2 GT ISZERO PUSH2 0x7E7 JUMPI PUSH2 0x7E6 PUSH2 0x494 JUMP JUMPDEST JUMPDEST PUSH2 0x7F3 DUP9 DUP3 DUP10 ADD PUSH2 0x6EC JUMP JUMPDEST SWAP2 POP POP SWAP3 SWAP6 POP SWAP3 SWAP6 SWAP1 SWAP4 POP JUMP JUMPDEST PUSH32 0x4E487B7100000000000000000000000000000000000000000000000000000000 PUSH0 MSTORE PUSH1 0x22 PUSH1 0x4 MSTORE PUSH1 0x24 PUSH0 REVERT JUMPDEST PUSH0 PUSH1 0x2 DUP3 DIV SWAP1 POP PUSH1 0x1 DUP3 AND DUP1 PUSH2 0x844 JUMPI PUSH1 0x7F DUP3 AND SWAP2 POP JUMPDEST PUSH1 0x20 DUP3 LT DUP2 SUB PUSH2 0x857 JUMPI PUSH2 0x856 PUSH2 0x800 JUMP JUMPDEST JUMPDEST POP SWAP2 SWAP1 POP JUMP JUMPDEST PUSH32 0x756E617574686F72697A65642061636365737300000000000000000000000000 PUSH0 DUP3 ADD MSTORE POP JUMP JUMPDEST PUSH0 PUSH2 0x891 PUSH1 0x13 DUP4 PUSH2 0x500 JUMP JUMPDEST SWAP2 POP PUSH2 0x89C DUP3 PUSH2 0x85D JUMP JUMPDEST PUSH1 0x20 DUP3 ADD SWAP1 POP SWAP2 SWAP1 POP JUMP JUMPDEST PUSH0 PUSH1 0x20 DUP3 ADD SWAP1 POP DUP2 DUP2 SUB PUSH0 DUP4 ADD MSTORE PUSH2 0x8BE DUP2 PUSH2 0x885 JUMP JUMPDEST SWAP1 POP SWAP2 SWAP1 POP JUMP JUMPDEST PUSH32 0x726F6C6C6E6F20646F6573206E6F742065786973740000000000000000000000 PUSH0 DUP3 ADD MSTORE POP JUMP JUMPDEST PUSH0 PUSH2 0x8F9 PUSH1 0x15 DUP4 PUSH2 0x500 JUMP JUMPDEST SWAP2 POP PUSH2 0x904 DUP3 PUSH2 0x8C5 JUMP JUMPDEST PUSH1 0x20 DUP3 ADD SWAP1 POP SWAP2 SWAP1 POP JUMP JUMPDEST PUSH0 PUSH1 0x20 DUP3 ADD SWAP1 POP DUP2 DUP2 SUB PUSH0 DUP4 ADD MSTORE PUSH2 0x926 DUP2 PUSH2 0x8ED JUMP JUMPDEST SWAP1 POP SWAP2 SWAP1 POP JUMP JUMPDEST PUSH0 DUP2 SWAP1 POP DUP2 PUSH0 MSTORE PUSH1 0x20 PUSH0 KECCAK256 SWAP1 POP SWAP2 SWAP1 POP JUMP JUMPDEST PUSH0 PUSH1 0x20 PUSH1 0x1F DUP4 ADD DIV SWAP1 POP SWAP2 SWAP1 POP JUMP JUMPDEST PUSH0 DUP3 DUP3 SHL SWAP1 POP SWAP3 SWAP2 POP POP JUMP JUMPDEST PUSH0 PUSH1 0x8 DUP4 MUL PUSH2 0x989 PUSH32 0xFFFFFFFFFFFFFFFFFFFFFFFFFFFFFFFFFFFFFFFFFFFFFFFFFFFFFFFFFFFFFFFF DUP3 PUSH2 0x94E JUMP JUMPDEST PUSH2 0x993 DUP7 DUP4 PUSH2 0x94E JUMP JUMPDEST SWAP6 POP DUP1 NOT DUP5 AND SWAP4 POP DUP1 DUP7 AND DUP5 OR SWAP3 POP POP POP SWAP4 SWAP3 POP POP POP JUMP JUMPDEST PUSH0 DUP2 SWAP1 POP SWAP2 SWAP1 POP JUMP JUMPDEST PUSH0 PUSH2 0x9CE PUSH2 0x9C9 PUSH2 0x9C4 DUP5 PUSH2 0x498 JUMP JUMPDEST PUSH2 0x9AB JUMP JUMPDEST PUSH2 0x498 JUMP JUMPDEST SWAP1 POP SWAP2 SWAP1 POP JUMP JUMPDEST PUSH0 DUP2 SWAP1 POP SWAP2 SWAP1 POP JUMP JUMPDEST PUSH2 0x9E7 DUP4 PUSH2 0x9B4 JUMP JUMPDEST PUSH2 0x9FB PUSH2 0x9F3 DUP3 PUSH2 0x9D5 JUMP JUMPDEST DUP5 DUP5 SLOAD PUSH2 0x95A JUMP JUMPDEST DUP3 SSTORE POP POP POP POP JUMP JUMPDEST PUSH0 PUSH0 SWAP1 POP SWAP1 JUMP JUMPDEST PUSH2 0xA12 PUSH2 0xA03 JUMP JUMPDEST PUSH2 0xA1D DUP2 DUP5 DUP5 PUSH2 0x9DE JUMP JUMPDEST POP POP POP JUMP JUMPDEST JUMPDEST DUP2 DUP2 LT ISZERO PUSH2 0xA40 JUMPI PUSH2 0xA35 PUSH0 DUP3 PUSH2 0xA0A JUMP JUMPDEST PUSH1 0x1 DUP2 ADD SWAP1 POP PUSH2 0xA23 JUMP JUMPDEST POP POP JUMP JUMPDEST PUSH1 0x1F DUP3 GT ISZERO PUSH2 0xA85 JUMPI PUSH2 0xA56 DUP2 PUSH2 0x92D JUMP JUMPDEST PUSH2 0xA5F DUP5 PUSH2 0x93F JUMP JUMPDEST DUP2 ADD PUSH1 0x20 DUP6 LT ISZERO PUSH2 0xA6E JUMPI DUP2 SWAP1 POP JUMPDEST PUSH2 0xA82 PUSH2 0xA7A DUP6 PUSH2 0x93F JUMP JUMPDEST DUP4 ADD DUP3 PUSH2 0xA22 JUMP JUMPDEST POP POP JUMPDEST POP POP POP JUMP JUMPDEST PUSH0 DUP3 DUP3 SHR SWAP1 POP SWAP3 SWAP2 POP POP JUMP JUMPDEST PUSH0 PUSH2 0xAA5 PUSH0 NOT DUP5 PUSH1 0x8 MUL PUSH2 0xA8A JUMP JUMPDEST NOT DUP1 DUP4 AND SWAP2 POP POP SWAP3 SWAP2 POP POP JUMP JUMPDEST PUSH0 PUSH2 0xABD DUP4 DUP4 PUSH2 0xA96 JUMP JUMPDEST SWAP2 POP DUP3 PUSH1 0x2 MUL DUP3 OR SWAP1 POP SWAP3 SWAP2 POP POP JUMP JUMPDEST PUSH2 0xAD6 DUP3 PUSH2 0x4F6 JUMP JUMPDEST PUSH8 0xFFFFFFFFFFFFFFFF DUP2 GT ISZERO PUSH2 0xAEF JUMPI PUSH2 0xAEE PUSH2 0x5F5 JUMP JUMPDEST JUMPDEST PUSH2 0xAF9 DUP3 SLOAD PUSH2 0x82D JUMP JUMPDEST PUSH2 0xB04 DUP3 DUP3 DUP6 PUSH2 0xA44 JUMP JUMPDEST PUSH0 PUSH1 0x20 SWAP1 POP PUSH1 0x1F DUP4 GT PUSH1 0x1 DUP2 EQ PUSH2 0xB35 JUMPI PUSH0 DUP5 ISZERO PUSH2 0xB23 JUMPI DUP3 DUP8 ADD MLOAD SWAP1 POP JUMPDEST PUSH2 0xB2D DUP6 DUP3 PUSH2 0xAB2 JUMP JUMPDEST DUP7 SSTORE POP PUSH2 0xB94 JUMP JUMPDEST PUSH1 0x1F NOT DUP5 AND PUSH2 0xB43 DUP7 PUSH2 0x92D JUMP JUMPDEST PUSH0 JUMPDEST DUP3 DUP2 LT ISZERO PUSH2 0xB6A JUMPI DUP5 DUP10 ADD MLOAD DUP3 SSTORE PUSH1 0x1 DUP3 ADD SWAP2 POP PUSH1 0x20 DUP6 ADD SWAP5 POP PUSH1 0x20 DUP2 ADD SWAP1 POP PUSH2 0xB45 JUMP JUMPDEST DUP7 DUP4 LT ISZERO PUSH2 0xB87 JUMPI DUP5 DUP10 ADD MLOAD PUSH2 0xB83 PUSH1 0x1F DUP10 AND DUP3 PUSH2 0xA96 JUMP JUMPDEST DUP4 SSTORE POP JUMPDEST PUSH1 0x1 PUSH1 0x2 DUP9 MUL ADD DUP9 SSTORE POP POP POP JUMPDEST POP POP POP POP POP POP JUMP INVALID LOG2 PUSH5 0x6970667358 0x22 SLT KECCAK256 0xD9 XOR 0xD8 JUMPDEST CODESIZE PREVRANDAO DUP3 SHL 0xB9 PUSH8 0xA68038C95816CECC DUP7 0xBB SWAP12 0xF8 SWAP8 0xE4 MSTORE8 PUSH14 0x99F8015BB8A064736F6C63430008 SHR STOP CALLER "
				},
				"gasEstimates": {
					"creation": {
						"codeDepositCost": "605200",
						"executionCost": "24900",
						"totalCost": "630100"
					},
					"external": {
						"certificates(uint256)": "infinite",
						"issue(uint256,string,string,string,string)": "infinite"
					}
				},
				"methodIdentifiers": {
					"certificates(uint256)": "663b3e22",
					"issue(uint256,string,string,string,string)": "d1e7be26"
				}
			},
			"storageLayout": {
				"storage": [
					{
						"astId": 14,
						"contract": "Activitys/certi.sol:Cert",
						"label": "admin",
						"offset": 0,
						"slot": "0",
						"type": "t_address"
					},
					{
						"astId": 40,
						"contract": "Activitys/certi.sol:Cert",
						"label": "certificates",
						"offset": 0,
						"slot": "1",
						"type": "t_mapping(t_uint256,t_struct(certificate)12_storage)"
					}
				],
				"types": {
					"t_address": {
						"encoding": "inplace",
						"label": "address",
						"numberOfBytes": "20"
					},
					"t_bool": {
						"encoding": "inplace",
						"label": "bool",
						"numberOfBytes": "1"
					},
					"t_mapping(t_uint256,t_struct(certificate)12_storage)": {
						"encoding": "mapping",
						"key": "t_uint256",
						"label": "mapping(uint256 => struct Cert.certificate)",
						"numberOfBytes": "32",
						"value": "t_struct(certificate)12_storage"
					},
					"t_string_storage": {
						"encoding": "bytes",
						"label": "string",
						"numberOfBytes": "32"
					},
					"t_struct(certificate)12_storage": {
						"encoding": "inplace",
						"label": "struct Cert.certificate",
						"members": [
							{
								"astId": 3,
								"contract": "Activitys/certi.sol:Cert",
								"label": "name",
								"offset": 0,
								"slot": "0",
								"type": "t_string_storage"
							},
							{
								"astId": 5,
								"contract": "Activitys/certi.sol:Cert",
								"label": "course",
								"offset": 0,
								"slot": "1",
								"type": "t_string_storage"
							},
							{
								"astId": 7,
								"contract": "Activitys/certi.sol:Cert",
								"label": "grade",
								"offset": 0,
								"slot": "2",
								"type": "t_string_storage"
							},
							{
								"astId": 9,
								"contract": "Activitys/certi.sol:Cert",
								"label": "date",
								"offset": 0,
								"slot": "3",
								"type": "t_string_storage"
							},
							{
								"astId": 11,
								"contract": "Activitys/certi.sol:Cert",
								"label": "exist",
								"offset": 0,
								"slot": "4",
								"type": "t_bool"
							}
						],
						"numberOfBytes": "160"
					},
					"t_uint256": {
						"encoding": "inplace",
						"label": "uint256",
						"numberOfBytes": "32"
					}
				}
			},
			"userdoc": {
				"kind": "user",
				"methods": {},
				"version": 1
			}
		}
	}
}