{
	"Activitys/aution.sol": {
		"Auction": {
			"abi": [
				{
					"inputs": [],
					"name": "admin",
					"outputs": [
						{
							"internalType": "address",
							"name": "",
							"type": "address"
						}
					],
					"stateMutability": "view",
					"type": "function"
				},
				{
					"inputs": [
						{
							"internalType": "uint256",
							"name": "",
							"type": "uint256"
						}
					],
					"name": "carAuctions",
					"outputs": [
						{
							"internalType": "string",
							"name": "ownerName",
							"type": "string"
						},
						{
							"internalType": "string",
							"name": "car",
							"type": "string"
						},
						{
							"internalType": "string",
							"name": "model",
							"type": "string"
						},
						{
							"internalType": "uint256",
							"name": "price",
							"type": "uint256"
						}
					],
					"stateMutability": "view",
					"type": "function"
				},
				{
					"inputs": [
						{
							"internalType": "uint256",
							"name": "_id",
							"type": "uint256"
						},
						{
							"internalType": "string",
							"name": "_newOwnerName",
							"type": "string"
						},
						{
							"internalType": "uint256",
							"name": "_newPrice",
							"type": "uint256"
						}
					],
					"name": "changeOwner",
					"outputs": [],
					"stateMutability": "payable",
					"type": "function"
				},
				{
					"inputs": [
						{
							"internalType": "uint256",
							"name": "_id",
							"type": "uint256"
						},
						{
							"internalType": "string",
							"name": "_ownerName",
							"type": "string"
						},
						{
							"internalType": "string",
							"name": "_car",
							"type": "string"
						},
						{
							"internalType": "string",
							"name": "_model",
							"type": "string"
						},
						{
							"internalType": "uint256",
							"name": "_price",
							"type": "uint256"
						}
					],
					"name": "issue",
					"outputs": [],
					"stateMutability": "nonpayable",
					"type": "function"
				}
			],
			"devdoc": {
				"kind": "dev",
				"methods": {},
				"version": 1
			},
			"evm": {
				"assembly": "    /* \"Activitys/aution.sol\":57:1480  contract Auction {... */\n  mstore(0x40, 0x80)\n    /* \"Activitys/aution.sol\":317:327  msg.sender */\n  caller\n    /* \"Activitys/aution.sol\":294:327  address public admin = msg.sender */\n  0x00\n  exp(0x0100, 0x00)\n  dup2\n  sload\n  dup2\n  0xffffffffffffffffffffffffffffffffffffffff\n  mul\n  not\n  and\n  swap1\n  dup4\n  0xffffffffffffffffffffffffffffffffffffffff\n  and\n  mul\n  or\n  swap1\n  sstore\n  pop\n    /* \"Activitys/aution.sol\":57:1480  contract Auction {... */\n  callvalue\n  dup1\n  iszero\n  tag_1\n  jumpi\n  revert(0x00, 0x00)\ntag_1:\n  pop\n  dataSize(sub_0)\n  dup1\n  dataOffset(sub_0)\n  0x00\n  codecopy\n  0x00\n  return\nstop\n\nsub_0: assembly {\n        /* \"Activitys/aution.sol\":57:1480  contract Auction {... */\n      mstore(0x40, 0x80)\n      jumpi(tag_1, lt(calldatasize, 0x04))\n      shr(0xe0, calldataload(0x00))\n      dup1\n      0x4342dae5\n      eq\n      tag_2\n      jumpi\n      dup1\n      0x662550f0\n      eq\n      tag_3\n      jumpi\n      dup1\n      0xb0b7755e\n      eq\n      tag_4\n      jumpi\n      dup1\n      0xf851a440\n      eq\n      tag_5\n      jumpi\n    tag_1:\n      revert(0x00, 0x00)\n        /* \"Activitys/aution.sol\":961:1474  function changeOwner(... */\n    tag_2:\n      tag_6\n      0x04\n      dup1\n      calldatasize\n      sub\n      dup2\n      add\n      swap1\n      tag_7\n      swap2\n      swap1\n      tag_8\n      jump\t// in\n    tag_7:\n      tag_9\n      jump\t// in\n    tag_6:\n      stop\n        /* \"Activitys/aution.sol\":614:866  function issue(... */\n    tag_3:\n      callvalue\n      dup1\n      iszero\n      tag_10\n      jumpi\n      revert(0x00, 0x00)\n    tag_10:\n      pop\n      tag_11\n      0x04\n      dup1\n      calldatasize\n      sub\n      dup2\n      add\n      swap1\n      tag_12\n      swap2\n      swap1\n      tag_13\n      jump\t// in\n    tag_12:\n      tag_14\n      jump\t// in\n    tag_11:\n      stop\n        /* \"Activitys/aution.sol\":358:407  mapping(uint256 => CarAuction) public carAuctions */\n    tag_4:\n      callvalue\n      dup1\n      iszero\n      tag_15\n      jumpi\n      revert(0x00, 0x00)\n    tag_15:\n      pop\n      tag_16\n      0x04\n      dup1\n      calldatasize\n      sub\n      dup2\n      add\n      swap1\n      tag_17\n      swap2\n      swap1\n      tag_18\n      jump\t// in\n    tag_17:\n      tag_19\n      jump\t// in\n    tag_16:\n      mload(0x40)\n      tag_20\n      swap5\n      swap4\n      swap3\n      swap2\n      swap1\n      tag_21\n      jump\t// in\n    tag_20:\n      mload(0x40)\n      dup1\n      swap2\n      sub\n      swap1\n      return\n        /* \"Activitys/aution.sol\":294:327  address public admin = msg.sender */\n    tag_5:\n      callvalue\n      dup1\n      iszero\n      tag_22\n      jumpi\n      revert(0x00, 0x00)\n    tag_22:\n      pop\n      tag_23\n      tag_24\n      jump\t// in\n    tag_23:\n      mload(0x40)\n      tag_25\n      swap2\n      swap1\n      tag_26\n      jump\t// in\n    tag_25:\n      mload(0x40)\n      dup1\n      swap2\n      sub\n      swap1\n      return\n        /* \"Activitys/aution.sol\":961:1474  function changeOwner(... */\n    tag_9:\n        /* \"Activitys/aution.sol\":1099:1125  CarAuction storage auction */\n      0x00\n        /* \"Activitys/aution.sol\":1128:1139  carAuctions */\n      0x01\n        /* \"Activitys/aution.sol\":1128:1144  carAuctions[_id] */\n      0x00\n        /* \"Activitys/aution.sol\":1140:1143  _id */\n      dup6\n        /* \"Activitys/aution.sol\":1128:1144  carAuctions[_id] */\n      dup2\n      mstore\n      0x20\n      add\n      swap1\n      dup2\n      mstore\n      0x20\n      add\n      0x00\n      keccak256\n        /* \"Activitys/aution.sol\":1099:1144  CarAuction storage auction = carAuctions[_id] */\n      swap1\n      pop\n        /* \"Activitys/aution.sol\":1179:1186  auction */\n      dup1\n        /* \"Activitys/aution.sol\":1179:1192  auction.price */\n      0x03\n      add\n      sload\n        /* \"Activitys/aution.sol\":1167:1176  msg.value */\n      callvalue\n        /* \"Activitys/aution.sol\":1167:1192  msg.value > auction.price */\n      gt\n        /* \"Activitys/aution.sol\":1162:1452  if  (msg.value > auction.price)... */\n      iszero\n      tag_28\n      jumpi\n        /* \"Activitys/aution.sol\":1224:1234  msg.sender */\n      caller\n        /* \"Activitys/aution.sol\":1215:1244  payable (msg.sender).transfer */\n      0xffffffffffffffffffffffffffffffffffffffff\n      and\n        /* \"Activitys/aution.sol\":1215:1259  payable (msg.sender).transfer(auction.price) */\n      0x08fc\n        /* \"Activitys/aution.sol\":1245:1252  auction */\n      dup3\n        /* \"Activitys/aution.sol\":1245:1258  auction.price */\n      0x03\n      add\n      sload\n        /* \"Activitys/aution.sol\":1215:1259  payable (msg.sender).transfer(auction.price) */\n      swap1\n      dup2\n      iszero\n      mul\n      swap1\n      mload(0x40)\n      0x00\n      mload(0x40)\n      dup1\n      dup4\n      sub\n      dup2\n      dup6\n      dup9\n      dup9\n      call\n      swap4\n      pop\n      pop\n      pop\n      pop\n      iszero\n      dup1\n      iszero\n      tag_30\n      jumpi\n      returndatacopy(0x00, 0x00, returndatasize)\n      revert(0x00, returndatasize)\n    tag_30:\n      pop\n        /* \"Activitys/aution.sol\":1322:1335  _newOwnerName */\n      dup3\n        /* \"Activitys/aution.sol\":1302:1309  auction */\n      dup2\n        /* \"Activitys/aution.sol\":1302:1319  auction.ownerName */\n      0x00\n      add\n        /* \"Activitys/aution.sol\":1302:1335  auction.ownerName = _newOwnerName */\n      swap1\n      dup2\n      tag_31\n      swap2\n      swap1\n      tag_32\n      jump\t// in\n    tag_31:\n      pop\n        /* \"Activitys/aution.sol\":1373:1382  _newPrice */\n      dup2\n        /* \"Activitys/aution.sol\":1357:1364  auction */\n      dup2\n        /* \"Activitys/aution.sol\":1357:1370  auction.price */\n      0x03\n      add\n        /* \"Activitys/aution.sol\":1357:1382  auction.price = _newPrice */\n      dup2\n      swap1\n      sstore\n      pop\n        /* \"Activitys/aution.sol\":1410:1420  msg.sender */\n      caller\n        /* \"Activitys/aution.sol\":1404:1409  admin */\n      0x00\n      0x00\n        /* \"Activitys/aution.sol\":1404:1420  admin=msg.sender */\n      0x0100\n      exp\n      dup2\n      sload\n      dup2\n      0xffffffffffffffffffffffffffffffffffffffff\n      mul\n      not\n      and\n      swap1\n      dup4\n      0xffffffffffffffffffffffffffffffffffffffff\n      and\n      mul\n      or\n      swap1\n      sstore\n      pop\n        /* \"Activitys/aution.sol\":1162:1452  if  (msg.value > auction.price)... */\n    tag_28:\n        /* \"Activitys/aution.sol\":1089:1474  {... */\n      pop\n        /* \"Activitys/aution.sol\":961:1474  function changeOwner(... */\n      pop\n      pop\n      pop\n      jump\t// out\n        /* \"Activitys/aution.sol\":614:866  function issue(... */\n    tag_14:\n        /* \"Activitys/aution.sol\":815:859  CarAuction(_ownerName, _car, _model, _price) */\n      mload(0x40)\n      dup1\n      0x80\n      add\n      0x40\n      mstore\n      dup1\n        /* \"Activitys/aution.sol\":826:836  _ownerName */\n      dup6\n        /* \"Activitys/aution.sol\":815:859  CarAuction(_ownerName, _car, _model, _price) */\n      dup2\n      mstore\n      0x20\n      add\n        /* \"Activitys/aution.sol\":838:842  _car */\n      dup5\n        /* \"Activitys/aution.sol\":815:859  CarAuction(_ownerName, _car, _model, _price) */\n      dup2\n      mstore\n      0x20\n      add\n        /* \"Activitys/aution.sol\":844:850  _model */\n      dup4\n        /* \"Activitys/aution.sol\":815:859  CarAuction(_ownerName, _car, _model, _price) */\n      dup2\n      mstore\n      0x20\n      add\n        /* \"Activitys/aution.sol\":852:858  _price */\n      dup3\n        /* \"Activitys/aution.sol\":815:859  CarAuction(_ownerName, _car, _model, _price) */\n      dup2\n      mstore\n      pop\n        /* \"Activitys/aution.sol\":796:807  carAuctions */\n      0x01\n        /* \"Activitys/aution.sol\":796:812  carAuctions[_id] */\n      0x00\n        /* \"Activitys/aution.sol\":808:811  _id */\n      dup8\n        /* \"Activitys/aution.sol\":796:812  carAuctions[_id] */\n      dup2\n      mstore\n      0x20\n      add\n      swap1\n      dup2\n      mstore\n      0x20\n      add\n      0x00\n      keccak256\n        /* \"Activitys/aution.sol\":796:859  carAuctions[_id] = CarAuction(_ownerName, _car, _model, _price) */\n      0x00\n      dup3\n      add\n      mload\n      dup2\n      0x00\n      add\n      swap1\n      dup2\n      tag_34\n      swap2\n      swap1\n      tag_32\n      jump\t// in\n    tag_34:\n      pop\n      0x20\n      dup3\n      add\n      mload\n      dup2\n      0x01\n      add\n      swap1\n      dup2\n      tag_35\n      swap2\n      swap1\n      tag_32\n      jump\t// in\n    tag_35:\n      pop\n      0x40\n      dup3\n      add\n      mload\n      dup2\n      0x02\n      add\n      swap1\n      dup2\n      tag_36\n      swap2\n      swap1\n      tag_32\n      jump\t// in\n    tag_36:\n      pop\n      0x60\n      dup3\n      add\n      mload\n      dup2\n      0x03\n      add\n      sstore\n      swap1\n      pop\n      pop\n        /* \"Activitys/aution.sol\":614:866  function issue(... */\n      pop\n      pop\n      pop\n      pop\n      pop\n      jump\t// out\n        /* \"Activitys/aution.sol\":358:407  mapping(uint256 => CarAuction) public carAuctions */\n    tag_19:\n      mstore(0x20, 0x01)\n      dup1\n      0x00\n      mstore\n      keccak256(0x00, 0x40)\n      0x00\n      swap2\n      pop\n      swap1\n      pop\n      dup1\n      0x00\n      add\n      dup1\n      sload\n      tag_37\n      swap1\n      tag_38\n      jump\t// in\n    tag_37:\n      dup1\n      0x1f\n      add\n      0x20\n      dup1\n      swap2\n      div\n      mul\n      0x20\n      add\n      mload(0x40)\n      swap1\n      dup2\n      add\n      0x40\n      mstore\n      dup1\n      swap3\n      swap2\n      swap1\n      dup2\n      dup2\n      mstore\n      0x20\n      add\n      dup3\n      dup1\n      sload\n      tag_39\n      swap1\n      tag_38\n      jump\t// in\n    tag_39:\n      dup1\n      iszero\n      tag_40\n      jumpi\n      dup1\n      0x1f\n      lt\n      tag_41\n      jumpi\n      0x0100\n      dup1\n      dup4\n      sload\n      div\n      mul\n      dup4\n      mstore\n      swap2\n      0x20\n      add\n      swap2\n      jump(tag_40)\n    tag_41:\n      dup3\n      add\n      swap2\n      swap1\n      0x00\n      mstore\n      keccak256(0x00, 0x20)\n      swap1\n    tag_42:\n      dup2\n      sload\n      dup2\n      mstore\n      swap1\n      0x01\n      add\n      swap1\n      0x20\n      add\n      dup1\n      dup4\n      gt\n      tag_42\n      jumpi\n      dup3\n      swap1\n      sub\n      0x1f\n      and\n      dup3\n      add\n      swap2\n    tag_40:\n      pop\n      pop\n      pop\n      pop\n      pop\n      swap1\n      dup1\n      0x01\n      add\n      dup1\n      sload\n      tag_43\n      swap1\n      tag_38\n      jump\t// in\n    tag_43:\n      dup1\n      0x1f\n      add\n      0x20\n      dup1\n      swap2\n      div\n      mul\n      0x20\n      add\n      mload(0x40)\n      swap1\n      dup2\n      add\n      0x40\n      mstore\n      dup1\n      swap3\n      swap2\n      swap1\n      dup2\n      dup2\n      mstore\n      0x20\n      add\n      dup3\n      dup1\n      sload\n      tag_44\n      swap1\n      tag_38\n      jump\t// in\n    tag_44:\n      dup1\n      iszero\n      tag_45\n      jumpi\n      dup1\n      0x1f\n      lt\n      tag_46\n      jumpi\n      0x0100\n      dup1\n      dup4\n      sload\n      div\n      mul\n      dup4\n      mstore\n      swap2\n      0x20\n      add\n      swap2\n      jump(tag_45)\n    tag_46:\n      dup3\n      add\n      swap2\n      swap1\n      0x00\n      mstore\n      keccak256(0x00, 0x20)\n      swap1\n    tag_47:\n      dup2\n      sload\n      dup2\n      mstore\n      swap1\n      0x01\n      add\n      swap1\n      0x20\n      add\n      dup1\n      dup4\n      gt\n      tag_47\n      jumpi\n      dup3\n      swap1\n      sub\n      0x1f\n      and\n      dup3\n      add\n      swap2\n    tag_45:\n      pop\n      pop\n      pop\n      pop\n      pop\n      swap1\n      dup1\n      0x02\n      add\n      dup1\n      sload\n      tag_48\n      swap1\n      tag_38\n      jump\t// in\n    tag_48:\n      dup1\n      0x1f\n      add\n      0x20\n      dup1\n      swap2\n      div\n      mul\n      0x20\n      add\n      mload(0x40)\n      swap1\n      dup2\n      add\n      0x40\n      mstore\n      dup1\n      swap3\n      swap2\n      swap1\n      dup2\n      dup2\n      mstore\n      0x20\n      add\n      dup3\n      dup1\n      sload\n      tag_49\n      swap1\n      tag_38\n      jump\t// in\n    tag_49:\n      dup1\n      iszero\n      tag_50\n      jumpi\n      dup1\n      0x1f\n      lt\n      tag_51\n      jumpi\n      0x0100\n      dup1\n      dup4\n      sload\n      div\n      mul\n      dup4\n      mstore\n      swap2\n      0x20\n      add\n      swap2\n      jump(tag_50)\n    tag_51:\n      dup3\n      add\n      swap2\n      swap1\n      0x00\n      mstore\n      keccak256(0x00, 0x20)\n      swap1\n    tag_52:\n      dup2\n      sload\n      dup2\n      mstore\n      swap1\n      0x01\n      add\n      swap1\n      0x20\n      add\n      dup1\n      dup4\n      gt\n      tag_52\n      jumpi\n      dup3\n      swap1\n      sub\n      0x1f\n      and\n      dup3\n      add\n      swap2\n    tag_50:\n      pop\n      pop\n      pop\n      pop\n      pop\n      swap1\n      dup1\n      0x03\n      add\n      sload\n      swap1\n      pop\n      dup5\n      jump\t// out\n        /* \"Activitys/aution.sol\":294:327  address public admin = msg.sender */\n    tag_24:\n      0x00\n      0x00\n      swap1\n      sload\n      swap1\n      0x0100\n      exp\n      swap1\n      div\n      0xffffffffffffffffffffffffffffffffffffffff\n      and\n      dup2\n      jump\t// out\n        /* \"#utility.yul\":7:82   */\n    tag_53:\n        /* \"#utility.yul\":40:46   */\n      0x00\n        /* \"#utility.yul\":73:75   */\n      0x40\n        /* \"#utility.yul\":67:76   */\n      mload\n        /* \"#utility.yul\":57:76   */\n      swap1\n      pop\n        /* \"#utility.yul\":7:82   */\n      swap1\n      jump\t// out\n        /* \"#utility.yul\":88:205   */\n    tag_54:\n        /* \"#utility.yul\":197:198   */\n      0x00\n        /* \"#utility.yul\":194:195   */\n      0x00\n        /* \"#utility.yul\":187:199   */\n      revert\n        /* \"#utility.yul\":211:328   */\n    tag_55:\n        /* \"#utility.yul\":320:321   */\n      0x00\n        /* \"#utility.yul\":317:318   */\n      0x00\n        /* \"#utility.yul\":310:322   */\n      revert\n        /* \"#utility.yul\":334:411   */\n    tag_56:\n        /* \"#utility.yul\":371:378   */\n      0x00\n        /* \"#utility.yul\":400:405   */\n      dup2\n        /* \"#utility.yul\":389:405   */\n      swap1\n      pop\n        /* \"#utility.yul\":334:411   */\n      swap2\n      swap1\n      pop\n      jump\t// out\n        /* \"#utility.yul\":417:539   */\n    tag_57:\n        /* \"#utility.yul\":490:514   */\n      tag_99\n        /* \"#utility.yul\":508:513   */\n      dup2\n        /* \"#utility.yul\":490:514   */\n      tag_56\n      jump\t// in\n    tag_99:\n        /* \"#utility.yul\":483:488   */\n      dup2\n        /* \"#utility.yul\":480:515   */\n      eq\n        /* \"#utility.yul\":470:533   */\n      tag_100\n      jumpi\n        /* \"#utility.yul\":529:530   */\n      0x00\n        /* \"#utility.yul\":526:527   */\n      0x00\n        /* \"#utility.yul\":519:531   */\n      revert\n        /* \"#utility.yul\":470:533   */\n    tag_100:\n        /* \"#utility.yul\":417:539   */\n      pop\n      jump\t// out\n        /* \"#utility.yul\":545:684   */\n    tag_58:\n        /* \"#utility.yul\":591:596   */\n      0x00\n        /* \"#utility.yul\":629:635   */\n      dup2\n        /* \"#utility.yul\":616:636   */\n      calldataload\n        /* \"#utility.yul\":607:636   */\n      swap1\n      pop\n        /* \"#utility.yul\":645:678   */\n      tag_102\n        /* \"#utility.yul\":672:677   */\n      dup2\n        /* \"#utility.yul\":645:678   */\n      tag_57\n      jump\t// in\n    tag_102:\n        /* \"#utility.yul\":545:684   */\n      swap3\n      swap2\n      pop\n      pop\n      jump\t// out\n        /* \"#utility.yul\":690:807   */\n    tag_59:\n        /* \"#utility.yul\":799:800   */\n      0x00\n        /* \"#utility.yul\":796:797   */\n      0x00\n        /* \"#utility.yul\":789:801   */\n      revert\n        /* \"#utility.yul\":813:930   */\n    tag_60:\n        /* \"#utility.yul\":922:923   */\n      0x00\n        /* \"#utility.yul\":919:920   */\n      0x00\n        /* \"#utility.yul\":912:924   */\n      revert\n        /* \"#utility.yul\":936:1038   */\n    tag_61:\n        /* \"#utility.yul\":977:983   */\n      0x00\n        /* \"#utility.yul\":1028:1030   */\n      0x1f\n        /* \"#utility.yul\":1024:1031   */\n      not\n        /* \"#utility.yul\":1019:1021   */\n      0x1f\n        /* \"#utility.yul\":1012:1017   */\n      dup4\n        /* \"#utility.yul\":1008:1022   */\n      add\n        /* \"#utility.yul\":1004:1032   */\n      and\n        /* \"#utility.yul\":994:1032   */\n      swap1\n      pop\n        /* \"#utility.yul\":936:1038   */\n      swap2\n      swap1\n      pop\n      jump\t// out\n        /* \"#utility.yul\":1044:1224   */\n    tag_62:\n        /* \"#utility.yul\":1092:1169   */\n      0x4e487b7100000000000000000000000000000000000000000000000000000000\n        /* \"#utility.yul\":1089:1090   */\n      0x00\n        /* \"#utility.yul\":1082:1170   */\n      mstore\n        /* \"#utility.yul\":1189:1193   */\n      0x41\n        /* \"#utility.yul\":1186:1187   */\n      0x04\n        /* \"#utility.yul\":1179:1194   */\n      mstore\n        /* \"#utility.yul\":1213:1217   */\n      0x24\n        /* \"#utility.yul\":1210:1211   */\n      0x00\n        /* \"#utility.yul\":1203:1218   */\n      revert\n        /* \"#utility.yul\":1230:1511   */\n    tag_63:\n        /* \"#utility.yul\":1313:1340   */\n      tag_108\n        /* \"#utility.yul\":1335:1339   */\n      dup3\n        /* \"#utility.yul\":1313:1340   */\n      tag_61\n      jump\t// in\n    tag_108:\n        /* \"#utility.yul\":1305:1311   */\n      dup2\n        /* \"#utility.yul\":1301:1341   */\n      add\n        /* \"#utility.yul\":1443:1449   */\n      dup2\n        /* \"#utility.yul\":1431:1441   */\n      dup2\n        /* \"#utility.yul\":1428:1450   */\n      lt\n        /* \"#utility.yul\":1407:1425   */\n      0xffffffffffffffff\n        /* \"#utility.yul\":1395:1405   */\n      dup3\n        /* \"#utility.yul\":1392:1426   */\n      gt\n        /* \"#utility.yul\":1389:1451   */\n      or\n        /* \"#utility.yul\":1386:1474   */\n      iszero\n      tag_109\n      jumpi\n        /* \"#utility.yul\":1454:1472   */\n      tag_110\n      tag_62\n      jump\t// in\n    tag_110:\n        /* \"#utility.yul\":1386:1474   */\n    tag_109:\n        /* \"#utility.yul\":1494:1504   */\n      dup1\n        /* \"#utility.yul\":1490:1492   */\n      0x40\n        /* \"#utility.yul\":1483:1505   */\n      mstore\n        /* \"#utility.yul\":1273:1511   */\n      pop\n        /* \"#utility.yul\":1230:1511   */\n      pop\n      pop\n      jump\t// out\n        /* \"#utility.yul\":1517:1646   */\n    tag_64:\n        /* \"#utility.yul\":1551:1557   */\n      0x00\n        /* \"#utility.yul\":1578:1598   */\n      tag_112\n      tag_53\n      jump\t// in\n    tag_112:\n        /* \"#utility.yul\":1568:1598   */\n      swap1\n      pop\n        /* \"#utility.yul\":1607:1640   */\n      tag_113\n        /* \"#utility.yul\":1635:1639   */\n      dup3\n        /* \"#utility.yul\":1627:1633   */\n      dup3\n        /* \"#utility.yul\":1607:1640   */\n      tag_63\n      jump\t// in\n    tag_113:\n        /* \"#utility.yul\":1517:1646   */\n      swap2\n      swap1\n      pop\n      jump\t// out\n        /* \"#utility.yul\":1652:1960   */\n    tag_65:\n        /* \"#utility.yul\":1714:1718   */\n      0x00\n        /* \"#utility.yul\":1804:1822   */\n      0xffffffffffffffff\n        /* \"#utility.yul\":1796:1802   */\n      dup3\n        /* \"#utility.yul\":1793:1823   */\n      gt\n        /* \"#utility.yul\":1790:1846   */\n      iszero\n      tag_115\n      jumpi\n        /* \"#utility.yul\":1826:1844   */\n      tag_116\n      tag_62\n      jump\t// in\n    tag_116:\n        /* \"#utility.yul\":1790:1846   */\n    tag_115:\n        /* \"#utility.yul\":1864:1893   */\n      tag_117\n        /* \"#utility.yul\":1886:1892   */\n      dup3\n        /* \"#utility.yul\":1864:1893   */\n      tag_61\n      jump\t// in\n    tag_117:\n        /* \"#utility.yul\":1856:1893   */\n      swap1\n      pop\n        /* \"#utility.yul\":1948:1952   */\n      0x20\n        /* \"#utility.yul\":1942:1946   */\n      dup2\n        /* \"#utility.yul\":1938:1953   */\n      add\n        /* \"#utility.yul\":1930:1953   */\n      swap1\n      pop\n        /* \"#utility.yul\":1652:1960   */\n      swap2\n      swap1\n      pop\n      jump\t// out\n        /* \"#utility.yul\":1966:2114   */\n    tag_66:\n        /* \"#utility.yul\":2064:2070   */\n      dup3\n        /* \"#utility.yul\":2059:2062   */\n      dup2\n        /* \"#utility.yul\":2054:2057   */\n      dup4\n        /* \"#utility.yul\":2041:2071   */\n      calldatacopy\n        /* \"#utility.yul\":2105:2106   */\n      0x00\n        /* \"#utility.yul\":2096:2102   */\n      dup4\n        /* \"#utility.yul\":2091:2094   */\n      dup4\n        /* \"#utility.yul\":2087:2103   */\n      add\n        /* \"#utility.yul\":2080:2107   */\n      mstore\n        /* \"#utility.yul\":1966:2114   */\n      pop\n      pop\n      pop\n      jump\t// out\n        /* \"#utility.yul\":2120:2545   */\n    tag_67:\n        /* \"#utility.yul\":2198:2203   */\n      0x00\n        /* \"#utility.yul\":2223:2289   */\n      tag_120\n        /* \"#utility.yul\":2239:2288   */\n      tag_121\n        /* \"#utility.yul\":2281:2287   */\n      dup5\n        /* \"#utility.yul\":2239:2288   */\n      tag_65\n      jump\t// in\n    tag_121:\n        /* \"#utility.yul\":2223:2289   */\n      tag_64\n      jump\t// in\n    tag_120:\n        /* \"#utility.yul\":2214:2289   */\n      swap1\n      pop\n        /* \"#utility.yul\":2312:2318   */\n      dup3\n        /* \"#utility.yul\":2305:2310   */\n      dup2\n        /* \"#utility.yul\":2298:2319   */\n      mstore\n        /* \"#utility.yul\":2350:2354   */\n      0x20\n        /* \"#utility.yul\":2343:2348   */\n      dup2\n        /* \"#utility.yul\":2339:2355   */\n      add\n        /* \"#utility.yul\":2388:2391   */\n      dup5\n        /* \"#utility.yul\":2379:2385   */\n      dup5\n        /* \"#utility.yul\":2374:2377   */\n      dup5\n        /* \"#utility.yul\":2370:2386   */\n      add\n        /* \"#utility.yul\":2367:2392   */\n      gt\n        /* \"#utility.yul\":2364:2476   */\n      iszero\n      tag_122\n      jumpi\n        /* \"#utility.yul\":2395:2474   */\n      tag_123\n      tag_60\n      jump\t// in\n    tag_123:\n        /* \"#utility.yul\":2364:2476   */\n    tag_122:\n        /* \"#utility.yul\":2485:2539   */\n      tag_124\n        /* \"#utility.yul\":2532:2538   */\n      dup5\n        /* \"#utility.yul\":2527:2530   */\n      dup3\n        /* \"#utility.yul\":2522:2525   */\n      dup6\n        /* \"#utility.yul\":2485:2539   */\n      tag_66\n      jump\t// in\n    tag_124:\n        /* \"#utility.yul\":2204:2545   */\n      pop\n        /* \"#utility.yul\":2120:2545   */\n      swap4\n      swap3\n      pop\n      pop\n      pop\n      jump\t// out\n        /* \"#utility.yul\":2565:2905   */\n    tag_68:\n        /* \"#utility.yul\":2621:2626   */\n      0x00\n        /* \"#utility.yul\":2670:2673   */\n      dup3\n        /* \"#utility.yul\":2663:2667   */\n      0x1f\n        /* \"#utility.yul\":2655:2661   */\n      dup4\n        /* \"#utility.yul\":2651:2668   */\n      add\n        /* \"#utility.yul\":2647:2674   */\n      slt\n        /* \"#utility.yul\":2637:2759   */\n      tag_126\n      jumpi\n        /* \"#utility.yul\":2678:2757   */\n      tag_127\n      tag_59\n      jump\t// in\n    tag_127:\n        /* \"#utility.yul\":2637:2759   */\n    tag_126:\n        /* \"#utility.yul\":2795:2801   */\n      dup2\n        /* \"#utility.yul\":2782:2802   */\n      calldataload\n        /* \"#utility.yul\":2820:2899   */\n      tag_128\n        /* \"#utility.yul\":2895:2898   */\n      dup5\n        /* \"#utility.yul\":2887:2893   */\n      dup3\n        /* \"#utility.yul\":2880:2884   */\n      0x20\n        /* \"#utility.yul\":2872:2878   */\n      dup7\n        /* \"#utility.yul\":2868:2885   */\n      add\n        /* \"#utility.yul\":2820:2899   */\n      tag_67\n      jump\t// in\n    tag_128:\n        /* \"#utility.yul\":2811:2899   */\n      swap2\n      pop\n        /* \"#utility.yul\":2627:2905   */\n      pop\n        /* \"#utility.yul\":2565:2905   */\n      swap3\n      swap2\n      pop\n      pop\n      jump\t// out\n        /* \"#utility.yul\":2911:3710   */\n    tag_8:\n        /* \"#utility.yul\":2998:3004   */\n      0x00\n        /* \"#utility.yul\":3006:3012   */\n      0x00\n        /* \"#utility.yul\":3014:3020   */\n      0x00\n        /* \"#utility.yul\":3063:3065   */\n      0x60\n        /* \"#utility.yul\":3051:3060   */\n      dup5\n        /* \"#utility.yul\":3042:3049   */\n      dup7\n        /* \"#utility.yul\":3038:3061   */\n      sub\n        /* \"#utility.yul\":3034:3066   */\n      slt\n        /* \"#utility.yul\":3031:3150   */\n      iszero\n      tag_130\n      jumpi\n        /* \"#utility.yul\":3069:3148   */\n      tag_131\n      tag_54\n      jump\t// in\n    tag_131:\n        /* \"#utility.yul\":3031:3150   */\n    tag_130:\n        /* \"#utility.yul\":3189:3190   */\n      0x00\n        /* \"#utility.yul\":3214:3267   */\n      tag_132\n        /* \"#utility.yul\":3259:3266   */\n      dup7\n        /* \"#utility.yul\":3250:3256   */\n      dup3\n        /* \"#utility.yul\":3239:3248   */\n      dup8\n        /* \"#utility.yul\":3235:3257   */\n      add\n        /* \"#utility.yul\":3214:3267   */\n      tag_58\n      jump\t// in\n    tag_132:\n        /* \"#utility.yul\":3204:3267   */\n      swap4\n      pop\n        /* \"#utility.yul\":3160:3277   */\n      pop\n        /* \"#utility.yul\":3344:3346   */\n      0x20\n        /* \"#utility.yul\":3333:3342   */\n      dup5\n        /* \"#utility.yul\":3329:3347   */\n      add\n        /* \"#utility.yul\":3316:3348   */\n      calldataload\n        /* \"#utility.yul\":3375:3393   */\n      0xffffffffffffffff\n        /* \"#utility.yul\":3367:3373   */\n      dup2\n        /* \"#utility.yul\":3364:3394   */\n      gt\n        /* \"#utility.yul\":3361:3478   */\n      iszero\n      tag_133\n      jumpi\n        /* \"#utility.yul\":3397:3476   */\n      tag_134\n      tag_55\n      jump\t// in\n    tag_134:\n        /* \"#utility.yul\":3361:3478   */\n    tag_133:\n        /* \"#utility.yul\":3502:3565   */\n      tag_135\n        /* \"#utility.yul\":3557:3564   */\n      dup7\n        /* \"#utility.yul\":3548:3554   */\n      dup3\n        /* \"#utility.yul\":3537:3546   */\n      dup8\n        /* \"#utility.yul\":3533:3555   */\n      add\n        /* \"#utility.yul\":3502:3565   */\n      tag_68\n      jump\t// in\n    tag_135:\n        /* \"#utility.yul\":3492:3565   */\n      swap3\n      pop\n        /* \"#utility.yul\":3287:3575   */\n      pop\n        /* \"#utility.yul\":3614:3616   */\n      0x40\n        /* \"#utility.yul\":3640:3693   */\n      tag_136\n        /* \"#utility.yul\":3685:3692   */\n      dup7\n        /* \"#utility.yul\":3676:3682   */\n      dup3\n        /* \"#utility.yul\":3665:3674   */\n      dup8\n        /* \"#utility.yul\":3661:3683   */\n      add\n        /* \"#utility.yul\":3640:3693   */\n      tag_58\n      jump\t// in\n    tag_136:\n        /* \"#utility.yul\":3630:3693   */\n      swap2\n      pop\n        /* \"#utility.yul\":3585:3703   */\n      pop\n        /* \"#utility.yul\":2911:3710   */\n      swap3\n      pop\n      swap3\n      pop\n      swap3\n      jump\t// out\n        /* \"#utility.yul\":3716:5167   */\n    tag_13:\n        /* \"#utility.yul\":3841:3847   */\n      0x00\n        /* \"#utility.yul\":3849:3855   */\n      0x00\n        /* \"#utility.yul\":3857:3863   */\n      0x00\n        /* \"#utility.yul\":3865:3871   */\n      0x00\n        /* \"#utility.yul\":3873:3879   */\n      0x00\n        /* \"#utility.yul\":3922:3925   */\n      0xa0\n        /* \"#utility.yul\":3910:3919   */\n      dup7\n        /* \"#utility.yul\":3901:3908   */\n      dup9\n        /* \"#utility.yul\":3897:3920   */\n      sub\n        /* \"#utility.yul\":3893:3926   */\n      slt\n        /* \"#utility.yul\":3890:4010   */\n      iszero\n      tag_138\n      jumpi\n        /* \"#utility.yul\":3929:4008   */\n      tag_139\n      tag_54\n      jump\t// in\n    tag_139:\n        /* \"#utility.yul\":3890:4010   */\n    tag_138:\n        /* \"#utility.yul\":4049:4050   */\n      0x00\n        /* \"#utility.yul\":4074:4127   */\n      tag_140\n        /* \"#utility.yul\":4119:4126   */\n      dup9\n        /* \"#utility.yul\":4110:4116   */\n      dup3\n        /* \"#utility.yul\":4099:4108   */\n      dup10\n        /* \"#utility.yul\":4095:4117   */\n      add\n        /* \"#utility.yul\":4074:4127   */\n      tag_58\n      jump\t// in\n    tag_140:\n        /* \"#utility.yul\":4064:4127   */\n      swap6\n      pop\n        /* \"#utility.yul\":4020:4137   */\n      pop\n        /* \"#utility.yul\":4204:4206   */\n      0x20\n        /* \"#utility.yul\":4193:4202   */\n      dup7\n        /* \"#utility.yul\":4189:4207   */\n      add\n        /* \"#utility.yul\":4176:4208   */\n      calldataload\n        /* \"#utility.yul\":4235:4253   */\n      0xffffffffffffffff\n        /* \"#utility.yul\":4227:4233   */\n      dup2\n        /* \"#utility.yul\":4224:4254   */\n      gt\n        /* \"#utility.yul\":4221:4338   */\n      iszero\n      tag_141\n      jumpi\n        /* \"#utility.yul\":4257:4336   */\n      tag_142\n      tag_55\n      jump\t// in\n    tag_142:\n        /* \"#utility.yul\":4221:4338   */\n    tag_141:\n        /* \"#utility.yul\":4362:4425   */\n      tag_143\n        /* \"#utility.yul\":4417:4424   */\n      dup9\n        /* \"#utility.yul\":4408:4414   */\n      dup3\n        /* \"#utility.yul\":4397:4406   */\n      dup10\n        /* \"#utility.yul\":4393:4415   */\n      add\n        /* \"#utility.yul\":4362:4425   */\n      tag_68\n      jump\t// in\n    tag_143:\n        /* \"#utility.yul\":4352:4425   */\n      swap5\n      pop\n        /* \"#utility.yul\":4147:4435   */\n      pop\n        /* \"#utility.yul\":4502:4504   */\n      0x40\n        /* \"#utility.yul\":4491:4500   */\n      dup7\n        /* \"#utility.yul\":4487:4505   */\n      add\n        /* \"#utility.yul\":4474:4506   */\n      calldataload\n        /* \"#utility.yul\":4533:4551   */\n      0xffffffffffffffff\n        /* \"#utility.yul\":4525:4531   */\n      dup2\n        /* \"#utility.yul\":4522:4552   */\n      gt\n        /* \"#utility.yul\":4519:4636   */\n      iszero\n      tag_144\n      jumpi\n        /* \"#utility.yul\":4555:4634   */\n      tag_145\n      tag_55\n      jump\t// in\n    tag_145:\n        /* \"#utility.yul\":4519:4636   */\n    tag_144:\n        /* \"#utility.yul\":4660:4723   */\n      tag_146\n        /* \"#utility.yul\":4715:4722   */\n      dup9\n        /* \"#utility.yul\":4706:4712   */\n      dup3\n        /* \"#utility.yul\":4695:4704   */\n      dup10\n        /* \"#utility.yul\":4691:4713   */\n      add\n        /* \"#utility.yul\":4660:4723   */\n      tag_68\n      jump\t// in\n    tag_146:\n        /* \"#utility.yul\":4650:4723   */\n      swap4\n      pop\n        /* \"#utility.yul\":4445:4733   */\n      pop\n        /* \"#utility.yul\":4800:4802   */\n      0x60\n        /* \"#utility.yul\":4789:4798   */\n      dup7\n        /* \"#utility.yul\":4785:4803   */\n      add\n        /* \"#utility.yul\":4772:4804   */\n      calldataload\n        /* \"#utility.yul\":4831:4849   */\n      0xffffffffffffffff\n        /* \"#utility.yul\":4823:4829   */\n      dup2\n        /* \"#utility.yul\":4820:4850   */\n      gt\n        /* \"#utility.yul\":4817:4934   */\n      iszero\n      tag_147\n      jumpi\n        /* \"#utility.yul\":4853:4932   */\n      tag_148\n      tag_55\n      jump\t// in\n    tag_148:\n        /* \"#utility.yul\":4817:4934   */\n    tag_147:\n        /* \"#utility.yul\":4958:5021   */\n      tag_149\n        /* \"#utility.yul\":5013:5020   */\n      dup9\n        /* \"#utility.yul\":5004:5010   */\n      dup3\n        /* \"#utility.yul\":4993:5002   */\n      dup10\n        /* \"#utility.yul\":4989:5011   */\n      add\n        /* \"#utility.yul\":4958:5021   */\n      tag_68\n      jump\t// in\n    tag_149:\n        /* \"#utility.yul\":4948:5021   */\n      swap3\n      pop\n        /* \"#utility.yul\":4743:5031   */\n      pop\n        /* \"#utility.yul\":5070:5073   */\n      0x80\n        /* \"#utility.yul\":5097:5150   */\n      tag_150\n        /* \"#utility.yul\":5142:5149   */\n      dup9\n        /* \"#utility.yul\":5133:5139   */\n      dup3\n        /* \"#utility.yul\":5122:5131   */\n      dup10\n        /* \"#utility.yul\":5118:5140   */\n      add\n        /* \"#utility.yul\":5097:5150   */\n      tag_58\n      jump\t// in\n    tag_150:\n        /* \"#utility.yul\":5087:5150   */\n      swap2\n      pop\n        /* \"#utility.yul\":5041:5160   */\n      pop\n        /* \"#utility.yul\":3716:5167   */\n      swap3\n      swap6\n      pop\n      swap3\n      swap6\n      swap1\n      swap4\n      pop\n      jump\t// out\n        /* \"#utility.yul\":5173:5502   */\n    tag_18:\n        /* \"#utility.yul\":5232:5238   */\n      0x00\n        /* \"#utility.yul\":5281:5283   */\n      0x20\n        /* \"#utility.yul\":5269:5278   */\n      dup3\n        /* \"#utility.yul\":5260:5267   */\n      dup5\n        /* \"#utility.yul\":5256:5279   */\n      sub\n        /* \"#utility.yul\":5252:5284   */\n      slt\n        /* \"#utility.yul\":5249:5368   */\n      iszero\n      tag_152\n      jumpi\n        /* \"#utility.yul\":5287:5366   */\n      tag_153\n      tag_54\n      jump\t// in\n    tag_153:\n        /* \"#utility.yul\":5249:5368   */\n    tag_152:\n        /* \"#utility.yul\":5407:5408   */\n      0x00\n        /* \"#utility.yul\":5432:5485   */\n      tag_154\n        /* \"#utility.yul\":5477:5484   */\n      dup5\n        /* \"#utility.yul\":5468:5474   */\n      dup3\n        /* \"#utility.yul\":5457:5466   */\n      dup6\n        /* \"#utility.yul\":5453:5475   */\n      add\n        /* \"#utility.yul\":5432:5485   */\n      tag_58\n      jump\t// in\n    tag_154:\n        /* \"#utility.yul\":5422:5485   */\n      swap2\n      pop\n        /* \"#utility.yul\":5378:5495   */\n      pop\n        /* \"#utility.yul\":5173:5502   */\n      swap3\n      swap2\n      pop\n      pop\n      jump\t// out\n        /* \"#utility.yul\":5508:5607   */\n    tag_69:\n        /* \"#utility.yul\":5560:5566   */\n      0x00\n        /* \"#utility.yul\":5594:5599   */\n      dup2\n        /* \"#utility.yul\":5588:5600   */\n      mload\n        /* \"#utility.yul\":5578:5600   */\n      swap1\n      pop\n        /* \"#utility.yul\":5508:5607   */\n      swap2\n      swap1\n      pop\n      jump\t// out\n        /* \"#utility.yul\":5613:5782   */\n    tag_70:\n        /* \"#utility.yul\":5697:5708   */\n      0x00\n        /* \"#utility.yul\":5731:5737   */\n      dup3\n        /* \"#utility.yul\":5726:5729   */\n      dup3\n        /* \"#utility.yul\":5719:5738   */\n      mstore\n        /* \"#utility.yul\":5771:5775   */\n      0x20\n        /* \"#utility.yul\":5766:5769   */\n      dup3\n        /* \"#utility.yul\":5762:5776   */\n      add\n        /* \"#utility.yul\":5747:5776   */\n      swap1\n      pop\n        /* \"#utility.yul\":5613:5782   */\n      swap3\n      swap2\n      pop\n      pop\n      jump\t// out\n        /* \"#utility.yul\":5788:5927   */\n    tag_71:\n        /* \"#utility.yul\":5877:5883   */\n      dup3\n        /* \"#utility.yul\":5872:5875   */\n      dup2\n        /* \"#utility.yul\":5867:5870   */\n      dup4\n        /* \"#utility.yul\":5861:5884   */\n      mcopy\n        /* \"#utility.yul\":5918:5919   */\n      0x00\n        /* \"#utility.yul\":5909:5915   */\n      dup4\n        /* \"#utility.yul\":5904:5907   */\n      dup4\n        /* \"#utility.yul\":5900:5916   */\n      add\n        /* \"#utility.yul\":5893:5920   */\n      mstore\n        /* \"#utility.yul\":5788:5927   */\n      pop\n      pop\n      pop\n      jump\t// out\n        /* \"#utility.yul\":5933:6310   */\n    tag_72:\n        /* \"#utility.yul\":6021:6024   */\n      0x00\n        /* \"#utility.yul\":6049:6088   */\n      tag_159\n        /* \"#utility.yul\":6082:6087   */\n      dup3\n        /* \"#utility.yul\":6049:6088   */\n      tag_69\n      jump\t// in\n    tag_159:\n        /* \"#utility.yul\":6104:6175   */\n      tag_160\n        /* \"#utility.yul\":6168:6174   */\n      dup2\n        /* \"#utility.yul\":6163:6166   */\n      dup6\n        /* \"#utility.yul\":6104:6175   */\n      tag_70\n      jump\t// in\n    tag_160:\n        /* \"#utility.yul\":6097:6175   */\n      swap4\n      pop\n        /* \"#utility.yul\":6184:6249   */\n      tag_161\n        /* \"#utility.yul\":6242:6248   */\n      dup2\n        /* \"#utility.yul\":6237:6240   */\n      dup6\n        /* \"#utility.yul\":6230:6234   */\n      0x20\n        /* \"#utility.yul\":6223:6228   */\n      dup7\n        /* \"#utility.yul\":6219:6235   */\n      add\n        /* \"#utility.yul\":6184:6249   */\n      tag_71\n      jump\t// in\n    tag_161:\n        /* \"#utility.yul\":6274:6303   */\n      tag_162\n        /* \"#utility.yul\":6296:6302   */\n      dup2\n        /* \"#utility.yul\":6274:6303   */\n      tag_61\n      jump\t// in\n    tag_162:\n        /* \"#utility.yul\":6269:6272   */\n      dup5\n        /* \"#utility.yul\":6265:6304   */\n      add\n        /* \"#utility.yul\":6258:6304   */\n      swap2\n      pop\n        /* \"#utility.yul\":6025:6310   */\n      pop\n        /* \"#utility.yul\":5933:6310   */\n      swap3\n      swap2\n      pop\n      pop\n      jump\t// out\n        /* \"#utility.yul\":6316:6434   */\n    tag_73:\n        /* \"#utility.yul\":6403:6427   */\n      tag_164\n        /* \"#utility.yul\":6421:6426   */\n      dup2\n        /* \"#utility.yul\":6403:6427   */\n      tag_56\n      jump\t// in\n    tag_164:\n        /* \"#utility.yul\":6398:6401   */\n      dup3\n        /* \"#utility.yul\":6391:6428   */\n      mstore\n        /* \"#utility.yul\":6316:6434   */\n      pop\n      pop\n      jump\t// out\n        /* \"#utility.yul\":6440:7266   */\n    tag_21:\n        /* \"#utility.yul\":6677:6681   */\n      0x00\n        /* \"#utility.yul\":6715:6718   */\n      0x80\n        /* \"#utility.yul\":6704:6713   */\n      dup3\n        /* \"#utility.yul\":6700:6719   */\n      add\n        /* \"#utility.yul\":6692:6719   */\n      swap1\n      pop\n        /* \"#utility.yul\":6765:6774   */\n      dup2\n        /* \"#utility.yul\":6759:6763   */\n      dup2\n        /* \"#utility.yul\":6755:6775   */\n      sub\n        /* \"#utility.yul\":6751:6752   */\n      0x00\n        /* \"#utility.yul\":6740:6749   */\n      dup4\n        /* \"#utility.yul\":6736:6753   */\n      add\n        /* \"#utility.yul\":6729:6776   */\n      mstore\n        /* \"#utility.yul\":6793:6871   */\n      tag_166\n        /* \"#utility.yul\":6866:6870   */\n      dup2\n        /* \"#utility.yul\":6857:6863   */\n      dup8\n        /* \"#utility.yul\":6793:6871   */\n      tag_72\n      jump\t// in\n    tag_166:\n        /* \"#utility.yul\":6785:6871   */\n      swap1\n      pop\n        /* \"#utility.yul\":6918:6927   */\n      dup2\n        /* \"#utility.yul\":6912:6916   */\n      dup2\n        /* \"#utility.yul\":6908:6928   */\n      sub\n        /* \"#utility.yul\":6903:6905   */\n      0x20\n        /* \"#utility.yul\":6892:6901   */\n      dup4\n        /* \"#utility.yul\":6888:6906   */\n      add\n        /* \"#utility.yul\":6881:6929   */\n      mstore\n        /* \"#utility.yul\":6946:7024   */\n      tag_167\n        /* \"#utility.yul\":7019:7023   */\n      dup2\n        /* \"#utility.yul\":7010:7016   */\n      dup7\n        /* \"#utility.yul\":6946:7024   */\n      tag_72\n      jump\t// in\n    tag_167:\n        /* \"#utility.yul\":6938:7024   */\n      swap1\n      pop\n        /* \"#utility.yul\":7071:7080   */\n      dup2\n        /* \"#utility.yul\":7065:7069   */\n      dup2\n        /* \"#utility.yul\":7061:7081   */\n      sub\n        /* \"#utility.yul\":7056:7058   */\n      0x40\n        /* \"#utility.yul\":7045:7054   */\n      dup4\n        /* \"#utility.yul\":7041:7059   */\n      add\n        /* \"#utility.yul\":7034:7082   */\n      mstore\n        /* \"#utility.yul\":7099:7177   */\n      tag_168\n        /* \"#utility.yul\":7172:7176   */\n      dup2\n        /* \"#utility.yul\":7163:7169   */\n      dup6\n        /* \"#utility.yul\":7099:7177   */\n      tag_72\n      jump\t// in\n    tag_168:\n        /* \"#utility.yul\":7091:7177   */\n      swap1\n      pop\n        /* \"#utility.yul\":7187:7259   */\n      tag_169\n        /* \"#utility.yul\":7255:7257   */\n      0x60\n        /* \"#utility.yul\":7244:7253   */\n      dup4\n        /* \"#utility.yul\":7240:7258   */\n      add\n        /* \"#utility.yul\":7231:7237   */\n      dup5\n        /* \"#utility.yul\":7187:7259   */\n      tag_73\n      jump\t// in\n    tag_169:\n        /* \"#utility.yul\":6440:7266   */\n      swap6\n      swap5\n      pop\n      pop\n      pop\n      pop\n      pop\n      jump\t// out\n        /* \"#utility.yul\":7272:7398   */\n    tag_74:\n        /* \"#utility.yul\":7309:7316   */\n      0x00\n        /* \"#utility.yul\":7349:7391   */\n      0xffffffffffffffffffffffffffffffffffffffff\n        /* \"#utility.yul\":7342:7347   */\n      dup3\n        /* \"#utility.yul\":7338:7392   */\n      and\n        /* \"#utility.yul\":7327:7392   */\n      swap1\n      pop\n        /* \"#utility.yul\":7272:7398   */\n      swap2\n      swap1\n      pop\n      jump\t// out\n        /* \"#utility.yul\":7404:7500   */\n    tag_75:\n        /* \"#utility.yul\":7441:7448   */\n      0x00\n        /* \"#utility.yul\":7470:7494   */\n      tag_172\n        /* \"#utility.yul\":7488:7493   */\n      dup3\n        /* \"#utility.yul\":7470:7494   */\n      tag_74\n      jump\t// in\n    tag_172:\n        /* \"#utility.yul\":7459:7494   */\n      swap1\n      pop\n        /* \"#utility.yul\":7404:7500   */\n      swap2\n      swap1\n      pop\n      jump\t// out\n        /* \"#utility.yul\":7506:7624   */\n    tag_76:\n        /* \"#utility.yul\":7593:7617   */\n      tag_174\n        /* \"#utility.yul\":7611:7616   */\n      dup2\n        /* \"#utility.yul\":7593:7617   */\n      tag_75\n      jump\t// in\n    tag_174:\n        /* \"#utility.yul\":7588:7591   */\n      dup3\n        /* \"#utility.yul\":7581:7618   */\n      mstore\n        /* \"#utility.yul\":7506:7624   */\n      pop\n      pop\n      jump\t// out\n        /* \"#utility.yul\":7630:7852   */\n    tag_26:\n        /* \"#utility.yul\":7723:7727   */\n      0x00\n        /* \"#utility.yul\":7761:7763   */\n      0x20\n        /* \"#utility.yul\":7750:7759   */\n      dup3\n        /* \"#utility.yul\":7746:7764   */\n      add\n        /* \"#utility.yul\":7738:7764   */\n      swap1\n      pop\n        /* \"#utility.yul\":7774:7845   */\n      tag_176\n        /* \"#utility.yul\":7842:7843   */\n      0x00\n        /* \"#utility.yul\":7831:7840   */\n      dup4\n        /* \"#utility.yul\":7827:7844   */\n      add\n        /* \"#utility.yul\":7818:7824   */\n      dup5\n        /* \"#utility.yul\":7774:7845   */\n      tag_76\n      jump\t// in\n    tag_176:\n        /* \"#utility.yul\":7630:7852   */\n      swap3\n      swap2\n      pop\n      pop\n      jump\t// out\n        /* \"#utility.yul\":7858:8038   */\n    tag_77:\n        /* \"#utility.yul\":7906:7983   */\n      0x4e487b7100000000000000000000000000000000000000000000000000000000\n        /* \"#utility.yul\":7903:7904   */\n      0x00\n        /* \"#utility.yul\":7896:7984   */\n      mstore\n        /* \"#utility.yul\":8003:8007   */\n      0x22\n        /* \"#utility.yul\":8000:8001   */\n      0x04\n        /* \"#utility.yul\":7993:8008   */\n      mstore\n        /* \"#utility.yul\":8027:8031   */\n      0x24\n        /* \"#utility.yul\":8024:8025   */\n      0x00\n        /* \"#utility.yul\":8017:8032   */\n      revert\n        /* \"#utility.yul\":8044:8364   */\n    tag_38:\n        /* \"#utility.yul\":8088:8094   */\n      0x00\n        /* \"#utility.yul\":8125:8126   */\n      0x02\n        /* \"#utility.yul\":8119:8123   */\n      dup3\n        /* \"#utility.yul\":8115:8127   */\n      div\n        /* \"#utility.yul\":8105:8127   */\n      swap1\n      pop\n        /* \"#utility.yul\":8172:8173   */\n      0x01\n        /* \"#utility.yul\":8166:8170   */\n      dup3\n        /* \"#utility.yul\":8162:8174   */\n      and\n        /* \"#utility.yul\":8193:8211   */\n      dup1\n        /* \"#utility.yul\":8183:8264   */\n      tag_179\n      jumpi\n        /* \"#utility.yul\":8249:8253   */\n      0x7f\n        /* \"#utility.yul\":8241:8247   */\n      dup3\n        /* \"#utility.yul\":8237:8254   */\n      and\n        /* \"#utility.yul\":8227:8254   */\n      swap2\n      pop\n        /* \"#utility.yul\":8183:8264   */\n    tag_179:\n        /* \"#utility.yul\":8311:8313   */\n      0x20\n        /* \"#utility.yul\":8303:8309   */\n      dup3\n        /* \"#utility.yul\":8300:8314   */\n      lt\n        /* \"#utility.yul\":8280:8298   */\n      dup2\n        /* \"#utility.yul\":8277:8315   */\n      sub\n        /* \"#utility.yul\":8274:8358   */\n      tag_180\n      jumpi\n        /* \"#utility.yul\":8330:8348   */\n      tag_181\n      tag_77\n      jump\t// in\n    tag_181:\n        /* \"#utility.yul\":8274:8358   */\n    tag_180:\n        /* \"#utility.yul\":8095:8364   */\n      pop\n        /* \"#utility.yul\":8044:8364   */\n      swap2\n      swap1\n      pop\n      jump\t// out\n        /* \"#utility.yul\":8370:8511   */\n    tag_78:\n        /* \"#utility.yul\":8419:8423   */\n      0x00\n        /* \"#utility.yul\":8442:8445   */\n      dup2\n        /* \"#utility.yul\":8434:8445   */\n      swap1\n      pop\n        /* \"#utility.yul\":8465:8468   */\n      dup2\n        /* \"#utility.yul\":8462:8463   */\n      0x00\n        /* \"#utility.yul\":8455:8469   */\n      mstore\n        /* \"#utility.yul\":8499:8503   */\n      0x20\n        /* \"#utility.yul\":8496:8497   */\n      0x00\n        /* \"#utility.yul\":8486:8504   */\n      keccak256\n        /* \"#utility.yul\":8478:8504   */\n      swap1\n      pop\n        /* \"#utility.yul\":8370:8511   */\n      swap2\n      swap1\n      pop\n      jump\t// out\n        /* \"#utility.yul\":8517:8610   */\n    tag_79:\n        /* \"#utility.yul\":8554:8560   */\n      0x00\n        /* \"#utility.yul\":8601:8603   */\n      0x20\n        /* \"#utility.yul\":8596:8598   */\n      0x1f\n        /* \"#utility.yul\":8589:8594   */\n      dup4\n        /* \"#utility.yul\":8585:8599   */\n      add\n        /* \"#utility.yul\":8581:8604   */\n      div\n        /* \"#utility.yul\":8571:8604   */\n      swap1\n      pop\n        /* \"#utility.yul\":8517:8610   */\n      swap2\n      swap1\n      pop\n      jump\t// out\n        /* \"#utility.yul\":8616:8723   */\n    tag_80:\n        /* \"#utility.yul\":8660:8668   */\n      0x00\n        /* \"#utility.yul\":8710:8715   */\n      dup3\n        /* \"#utility.yul\":8704:8708   */\n      dup3\n        /* \"#utility.yul\":8700:8716   */\n      shl\n        /* \"#utility.yul\":8679:8716   */\n      swap1\n      pop\n        /* \"#utility.yul\":8616:8723   */\n      swap3\n      swap2\n      pop\n      pop\n      jump\t// out\n        /* \"#utility.yul\":8729:9122   */\n    tag_81:\n        /* \"#utility.yul\":8798:8804   */\n      0x00\n        /* \"#utility.yul\":8848:8849   */\n      0x08\n        /* \"#utility.yul\":8836:8846   */\n      dup4\n        /* \"#utility.yul\":8832:8850   */\n      mul\n        /* \"#utility.yul\":8871:8968   */\n      tag_186\n        /* \"#utility.yul\":8901:8967   */\n      0xffffffffffffffffffffffffffffffffffffffffffffffffffffffffffffffff\n        /* \"#utility.yul\":8890:8899   */\n      dup3\n        /* \"#utility.yul\":8871:8968   */\n      tag_80\n      jump\t// in\n    tag_186:\n        /* \"#utility.yul\":8989:9028   */\n      tag_187\n        /* \"#utility.yul\":9019:9027   */\n      dup7\n        /* \"#utility.yul\":9008:9017   */\n      dup4\n        /* \"#utility.yul\":8989:9028   */\n      tag_80\n      jump\t// in\n    tag_187:\n        /* \"#utility.yul\":8977:9028   */\n      swap6\n      pop\n        /* \"#utility.yul\":9061:9065   */\n      dup1\n        /* \"#utility.yul\":9057:9066   */\n      not\n        /* \"#utility.yul\":9050:9055   */\n      dup5\n        /* \"#utility.yul\":9046:9067   */\n      and\n        /* \"#utility.yul\":9037:9067   */\n      swap4\n      pop\n        /* \"#utility.yul\":9110:9114   */\n      dup1\n        /* \"#utility.yul\":9100:9108   */\n      dup7\n        /* \"#utility.yul\":9096:9115   */\n      and\n        /* \"#utility.yul\":9089:9094   */\n      dup5\n        /* \"#utility.yul\":9086:9116   */\n      or\n        /* \"#utility.yul\":9076:9116   */\n      swap3\n      pop\n        /* \"#utility.yul\":8805:9122   */\n      pop\n      pop\n        /* \"#utility.yul\":8729:9122   */\n      swap4\n      swap3\n      pop\n      pop\n      pop\n      jump\t// out\n        /* \"#utility.yul\":9128:9188   */\n    tag_82:\n        /* \"#utility.yul\":9156:9159   */\n      0x00\n        /* \"#utility.yul\":9177:9182   */\n      dup2\n        /* \"#utility.yul\":9170:9182   */\n      swap1\n      pop\n        /* \"#utility.yul\":9128:9188   */\n      swap2\n      swap1\n      pop\n      jump\t// out\n        /* \"#utility.yul\":9194:9336   */\n    tag_83:\n        /* \"#utility.yul\":9244:9253   */\n      0x00\n        /* \"#utility.yul\":9277:9330   */\n      tag_190\n        /* \"#utility.yul\":9295:9329   */\n      tag_191\n        /* \"#utility.yul\":9304:9328   */\n      tag_192\n        /* \"#utility.yul\":9322:9327   */\n      dup5\n        /* \"#utility.yul\":9304:9328   */\n      tag_56\n      jump\t// in\n    tag_192:\n        /* \"#utility.yul\":9295:9329   */\n      tag_82\n      jump\t// in\n    tag_191:\n        /* \"#utility.yul\":9277:9330   */\n      tag_56\n      jump\t// in\n    tag_190:\n        /* \"#utility.yul\":9264:9330   */\n      swap1\n      pop\n        /* \"#utility.yul\":9194:9336   */\n      swap2\n      swap1\n      pop\n      jump\t// out\n        /* \"#utility.yul\":9342:9417   */\n    tag_84:\n        /* \"#utility.yul\":9385:9388   */\n      0x00\n        /* \"#utility.yul\":9406:9411   */\n      dup2\n        /* \"#utility.yul\":9399:9411   */\n      swap1\n      pop\n        /* \"#utility.yul\":9342:9417   */\n      swap2\n      swap1\n      pop\n      jump\t// out\n        /* \"#utility.yul\":9423:9692   */\n    tag_85:\n        /* \"#utility.yul\":9533:9572   */\n      tag_195\n        /* \"#utility.yul\":9564:9571   */\n      dup4\n        /* \"#utility.yul\":9533:9572   */\n      tag_83\n      jump\t// in\n    tag_195:\n        /* \"#utility.yul\":9594:9685   */\n      tag_196\n        /* \"#utility.yul\":9643:9684   */\n      tag_197\n        /* \"#utility.yul\":9667:9683   */\n      dup3\n        /* \"#utility.yul\":9643:9684   */\n      tag_84\n      jump\t// in\n    tag_197:\n        /* \"#utility.yul\":9635:9641   */\n      dup5\n        /* \"#utility.yul\":9628:9632   */\n      dup5\n        /* \"#utility.yul\":9622:9633   */\n      sload\n        /* \"#utility.yul\":9594:9685   */\n      tag_81\n      jump\t// in\n    tag_196:\n        /* \"#utility.yul\":9588:9592   */\n      dup3\n        /* \"#utility.yul\":9581:9686   */\n      sstore\n        /* \"#utility.yul\":9499:9692   */\n      pop\n        /* \"#utility.yul\":9423:9692   */\n      pop\n      pop\n      pop\n      jump\t// out\n        /* \"#utility.yul\":9698:9771   */\n    tag_86:\n        /* \"#utility.yul\":9743:9746   */\n      0x00\n        /* \"#utility.yul\":9764:9765   */\n      0x00\n        /* \"#utility.yul\":9757:9765   */\n      swap1\n      pop\n        /* \"#utility.yul\":9698:9771   */\n      swap1\n      jump\t// out\n        /* \"#utility.yul\":9777:9966   */\n    tag_87:\n        /* \"#utility.yul\":9854:9886   */\n      tag_200\n      tag_86\n      jump\t// in\n    tag_200:\n        /* \"#utility.yul\":9895:9960   */\n      tag_201\n        /* \"#utility.yul\":9953:9959   */\n      dup2\n        /* \"#utility.yul\":9945:9951   */\n      dup5\n        /* \"#utility.yul\":9939:9943   */\n      dup5\n        /* \"#utility.yul\":9895:9960   */\n      tag_85\n      jump\t// in\n    tag_201:\n        /* \"#utility.yul\":9830:9966   */\n      pop\n        /* \"#utility.yul\":9777:9966   */\n      pop\n      pop\n      jump\t// out\n        /* \"#utility.yul\":9972:10158   */\n    tag_88:\n        /* \"#utility.yul\":10032:10152   */\n    tag_203:\n        /* \"#utility.yul\":10049:10052   */\n      dup2\n        /* \"#utility.yul\":10042:10047   */\n      dup2\n        /* \"#utility.yul\":10039:10053   */\n      lt\n        /* \"#utility.yul\":10032:10152   */\n      iszero\n      tag_205\n      jumpi\n        /* \"#utility.yul\":10103:10142   */\n      tag_206\n        /* \"#utility.yul\":10140:10141   */\n      0x00\n        /* \"#utility.yul\":10133:10138   */\n      dup3\n        /* \"#utility.yul\":10103:10142   */\n      tag_87\n      jump\t// in\n    tag_206:\n        /* \"#utility.yul\":10076:10077   */\n      0x01\n        /* \"#utility.yul\":10069:10074   */\n      dup2\n        /* \"#utility.yul\":10065:10078   */\n      add\n        /* \"#utility.yul\":10056:10078   */\n      swap1\n      pop\n        /* \"#utility.yul\":10032:10152   */\n      jump(tag_203)\n    tag_205:\n        /* \"#utility.yul\":9972:10158   */\n      pop\n      pop\n      jump\t// out\n        /* \"#utility.yul\":10164:10707   */\n    tag_89:\n        /* \"#utility.yul\":10265:10267   */\n      0x1f\n        /* \"#utility.yul\":10260:10263   */\n      dup3\n        /* \"#utility.yul\":10257:10268   */\n      gt\n        /* \"#utility.yul\":10254:10700   */\n      iszero\n      tag_208\n      jumpi\n        /* \"#utility.yul\":10299:10337   */\n      tag_209\n        /* \"#utility.yul\":10331:10336   */\n      dup2\n        /* \"#utility.yul\":10299:10337   */\n      tag_78\n      jump\t// in\n    tag_209:\n        /* \"#utility.yul\":10383:10412   */\n      tag_210\n        /* \"#utility.yul\":10401:10411   */\n      dup5\n        /* \"#utility.yul\":10383:10412   */\n      tag_79\n      jump\t// in\n    tag_210:\n        /* \"#utility.yul\":10373:10381   */\n      dup2\n        /* \"#utility.yul\":10369:10413   */\n      add\n        /* \"#utility.yul\":10566:10568   */\n      0x20\n        /* \"#utility.yul\":10554:10564   */\n      dup6\n        /* \"#utility.yul\":10551:10569   */\n      lt\n        /* \"#utility.yul\":10548:10597   */\n      iszero\n      tag_211\n      jumpi\n        /* \"#utility.yul\":10587:10595   */\n      dup2\n        /* \"#utility.yul\":10572:10595   */\n      swap1\n      pop\n        /* \"#utility.yul\":10548:10597   */\n    tag_211:\n        /* \"#utility.yul\":10610:10690   */\n      tag_212\n        /* \"#utility.yul\":10666:10688   */\n      tag_213\n        /* \"#utility.yul\":10684:10687   */\n      dup6\n        /* \"#utility.yul\":10666:10688   */\n      tag_79\n      jump\t// in\n    tag_213:\n        /* \"#utility.yul\":10656:10664   */\n      dup4\n        /* \"#utility.yul\":10652:10689   */\n      add\n        /* \"#utility.yul\":10639:10650   */\n      dup3\n        /* \"#utility.yul\":10610:10690   */\n      tag_88\n      jump\t// in\n    tag_212:\n        /* \"#utility.yul\":10269:10700   */\n      pop\n      pop\n        /* \"#utility.yul\":10254:10700   */\n    tag_208:\n        /* \"#utility.yul\":10164:10707   */\n      pop\n      pop\n      pop\n      jump\t// out\n        /* \"#utility.yul\":10713:10830   */\n    tag_90:\n        /* \"#utility.yul\":10767:10775   */\n      0x00\n        /* \"#utility.yul\":10817:10822   */\n      dup3\n        /* \"#utility.yul\":10811:10815   */\n      dup3\n        /* \"#utility.yul\":10807:10823   */\n      shr\n        /* \"#utility.yul\":10786:10823   */\n      swap1\n      pop\n        /* \"#utility.yul\":10713:10830   */\n      swap3\n      swap2\n      pop\n      pop\n      jump\t// out\n        /* \"#utility.yul\":10836:11005   */\n    tag_91:\n        /* \"#utility.yul\":10880:10886   */\n      0x00\n        /* \"#utility.yul\":10913:10964   */\n      tag_216\n        /* \"#utility.yul\":10961:10962   */\n      0x00\n        /* \"#utility.yul\":10957:10963   */\n      not\n        /* \"#utility.yul\":10949:10954   */\n      dup5\n        /* \"#utility.yul\":10946:10947   */\n      0x08\n        /* \"#utility.yul\":10942:10955   */\n      mul\n        /* \"#utility.yul\":10913:10964   */\n      tag_90\n      jump\t// in\n    tag_216:\n        /* \"#utility.yul\":10909:10965   */\n      not\n        /* \"#utility.yul\":10994:10998   */\n      dup1\n        /* \"#utility.yul\":10988:10992   */\n      dup4\n        /* \"#utility.yul\":10984:10999   */\n      and\n        /* \"#utility.yul\":10974:10999   */\n      swap2\n      pop\n        /* \"#utility.yul\":10887:11005   */\n      pop\n        /* \"#utility.yul\":10836:11005   */\n      swap3\n      swap2\n      pop\n      pop\n      jump\t// out\n        /* \"#utility.yul\":11010:11305   */\n    tag_92:\n        /* \"#utility.yul\":11086:11090   */\n      0x00\n        /* \"#utility.yul\":11232:11261   */\n      tag_218\n        /* \"#utility.yul\":11257:11260   */\n      dup4\n        /* \"#utility.yul\":11251:11255   */\n      dup4\n        /* \"#utility.yul\":11232:11261   */\n      tag_91\n      jump\t// in\n    tag_218:\n        /* \"#utility.yul\":11224:11261   */\n      swap2\n      pop\n        /* \"#utility.yul\":11294:11297   */\n      dup3\n        /* \"#utility.yul\":11291:11292   */\n      0x02\n        /* \"#utility.yul\":11287:11298   */\n      mul\n        /* \"#utility.yul\":11281:11285   */\n      dup3\n        /* \"#utility.yul\":11278:11299   */\n      or\n        /* \"#utility.yul\":11270:11299   */\n      swap1\n      pop\n        /* \"#utility.yul\":11010:11305   */\n      swap3\n      swap2\n      pop\n      pop\n      jump\t// out\n        /* \"#utility.yul\":11310:12705   */\n    tag_32:\n        /* \"#utility.yul\":11427:11464   */\n      tag_220\n        /* \"#utility.yul\":11460:11463   */\n      dup3\n        /* \"#utility.yul\":11427:11464   */\n      tag_69\n      jump\t// in\n    tag_220:\n        /* \"#utility.yul\":11529:11547   */\n      0xffffffffffffffff\n        /* \"#utility.yul\":11521:11527   */\n      dup2\n        /* \"#utility.yul\":11518:11548   */\n      gt\n        /* \"#utility.yul\":11515:11571   */\n      iszero\n      tag_221\n      jumpi\n        /* \"#utility.yul\":11551:11569   */\n      tag_222\n      tag_62\n      jump\t// in\n    tag_222:\n        /* \"#utility.yul\":11515:11571   */\n    tag_221:\n        /* \"#utility.yul\":11595:11633   */\n      tag_223\n        /* \"#utility.yul\":11627:11631   */\n      dup3\n        /* \"#utility.yul\":11621:11632   */\n      sload\n        /* \"#utility.yul\":11595:11633   */\n      tag_38\n      jump\t// in\n    tag_223:\n        /* \"#utility.yul\":11680:11747   */\n      tag_224\n        /* \"#utility.yul\":11740:11746   */\n      dup3\n        /* \"#utility.yul\":11732:11738   */\n      dup3\n        /* \"#utility.yul\":11726:11730   */\n      dup6\n        /* \"#utility.yul\":11680:11747   */\n      tag_89\n      jump\t// in\n    tag_224:\n        /* \"#utility.yul\":11774:11775   */\n      0x00\n        /* \"#utility.yul\":11798:11802   */\n      0x20\n        /* \"#utility.yul\":11785:11802   */\n      swap1\n      pop\n        /* \"#utility.yul\":11830:11832   */\n      0x1f\n        /* \"#utility.yul\":11822:11828   */\n      dup4\n        /* \"#utility.yul\":11819:11833   */\n      gt\n        /* \"#utility.yul\":11847:11848   */\n      0x01\n        /* \"#utility.yul\":11842:12460   */\n      dup2\n      eq\n      tag_226\n      jumpi\n        /* \"#utility.yul\":12504:12505   */\n      0x00\n        /* \"#utility.yul\":12521:12527   */\n      dup5\n        /* \"#utility.yul\":12518:12595   */\n      iszero\n      tag_227\n      jumpi\n        /* \"#utility.yul\":12570:12579   */\n      dup3\n        /* \"#utility.yul\":12565:12568   */\n      dup8\n        /* \"#utility.yul\":12561:12580   */\n      add\n        /* \"#utility.yul\":12555:12581   */\n      mload\n        /* \"#utility.yul\":12546:12581   */\n      swap1\n      pop\n        /* \"#utility.yul\":12518:12595   */\n    tag_227:\n        /* \"#utility.yul\":12621:12688   */\n      tag_228\n        /* \"#utility.yul\":12681:12687   */\n      dup6\n        /* \"#utility.yul\":12674:12679   */\n      dup3\n        /* \"#utility.yul\":12621:12688   */\n      tag_92\n      jump\t// in\n    tag_228:\n        /* \"#utility.yul\":12615:12619   */\n      dup7\n        /* \"#utility.yul\":12608:12689   */\n      sstore\n        /* \"#utility.yul\":12477:12699   */\n      pop\n        /* \"#utility.yul\":11812:12699   */\n      jump(tag_225)\n        /* \"#utility.yul\":11842:12460   */\n    tag_226:\n        /* \"#utility.yul\":11894:11898   */\n      0x1f\n        /* \"#utility.yul\":11890:11899   */\n      not\n        /* \"#utility.yul\":11882:11888   */\n      dup5\n        /* \"#utility.yul\":11878:11900   */\n      and\n        /* \"#utility.yul\":11928:11965   */\n      tag_229\n        /* \"#utility.yul\":11960:11964   */\n      dup7\n        /* \"#utility.yul\":11928:11965   */\n      tag_78\n      jump\t// in\n    tag_229:\n        /* \"#utility.yul\":11987:11988   */\n      0x00\n        /* \"#utility.yul\":12001:12209   */\n    tag_230:\n        /* \"#utility.yul\":12015:12022   */\n      dup3\n        /* \"#utility.yul\":12012:12013   */\n      dup2\n        /* \"#utility.yul\":12009:12023   */\n      lt\n        /* \"#utility.yul\":12001:12209   */\n      iszero\n      tag_232\n      jumpi\n        /* \"#utility.yul\":12094:12103   */\n      dup5\n        /* \"#utility.yul\":12089:12092   */\n      dup10\n        /* \"#utility.yul\":12085:12104   */\n      add\n        /* \"#utility.yul\":12079:12105   */\n      mload\n        /* \"#utility.yul\":12071:12077   */\n      dup3\n        /* \"#utility.yul\":12064:12106   */\n      sstore\n        /* \"#utility.yul\":12145:12146   */\n      0x01\n        /* \"#utility.yul\":12137:12143   */\n      dup3\n        /* \"#utility.yul\":12133:12147   */\n      add\n        /* \"#utility.yul\":12123:12147   */\n      swap2\n      pop\n        /* \"#utility.yul\":12192:12194   */\n      0x20\n        /* \"#utility.yul\":12181:12190   */\n      dup6\n        /* \"#utility.yul\":12177:12195   */\n      add\n        /* \"#utility.yul\":12164:12195   */\n      swap5\n      pop\n        /* \"#utility.yul\":12038:12042   */\n      0x20\n        /* \"#utility.yul\":12035:12036   */\n      dup2\n        /* \"#utility.yul\":12031:12043   */\n      add\n        /* \"#utility.yul\":12026:12043   */\n      swap1\n      pop\n        /* \"#utility.yul\":12001:12209   */\n      jump(tag_230)\n    tag_232:\n        /* \"#utility.yul\":12237:12243   */\n      dup7\n        /* \"#utility.yul\":12228:12235   */\n      dup4\n        /* \"#utility.yul\":12225:12244   */\n      lt\n        /* \"#utility.yul\":12222:12401   */\n      iszero\n      tag_233\n      jumpi\n        /* \"#utility.yul\":12295:12304   */\n      dup5\n        /* \"#utility.yul\":12290:12293   */\n      dup10\n        /* \"#utility.yul\":12286:12305   */\n      add\n        /* \"#utility.yul\":12280:12306   */\n      mload\n        /* \"#utility.yul\":12338:12386   */\n      tag_234\n        /* \"#utility.yul\":12380:12384   */\n      0x1f\n        /* \"#utility.yul\":12372:12378   */\n      dup10\n        /* \"#utility.yul\":12368:12385   */\n      and\n        /* \"#utility.yul\":12357:12366   */\n      dup3\n        /* \"#utility.yul\":12338:12386   */\n      tag_91\n      jump\t// in\n    tag_234:\n        /* \"#utility.yul\":12330:12336   */\n      dup4\n        /* \"#utility.yul\":12323:12387   */\n      sstore\n        /* \"#utility.yul\":12245:12401   */\n      pop\n        /* \"#utility.yul\":12222:12401   */\n    tag_233:\n        /* \"#utility.yul\":12447:12448   */\n      0x01\n        /* \"#utility.yul\":12443:12444   */\n      0x02\n        /* \"#utility.yul\":12435:12441   */\n      dup9\n        /* \"#utility.yul\":12431:12445   */\n      mul\n        /* \"#utility.yul\":12427:12449   */\n      add\n        /* \"#utility.yul\":12421:12425   */\n      dup9\n        /* \"#utility.yul\":12414:12450   */\n      sstore\n        /* \"#utility.yul\":11849:12460   */\n      pop\n      pop\n      pop\n        /* \"#utility.yul\":11812:12699   */\n    tag_225:\n      pop\n        /* \"#utility.yul\":11402:12705   */\n      pop\n      pop\n      pop\n        /* \"#utility.yul\":11310:12705   */\n      pop\n      pop\n      jump\t// out\n\n    auxdata: 0xa26469706673582212204c20a4340bbad9f455dc0fb69da101ddb5281353f7f86f9ad320d008f49ad75864736f6c634300081c0033\n}\n",
				"bytecode": {
					"linkReferences": {},
					"object": "6080604052335f5f6101000a81548173ffffffffffffffffffffffffffffffffffffffff021916908373ffffffffffffffffffffffffffffffffffffffff160217905550348015604d575f5ffd5b50610b228061005b5f395ff3fe60806040526004361061003e575f3560e01c80634342dae514610042578063662550f01461005e578063b0b7755e14610086578063f851a440146100c5575b5f5ffd5b61005c6004803603810190610057919061059f565b6100ef565b005b348015610069575f5ffd5b50610084600480360381019061007f919061060b565b6101b7565b005b348015610091575f5ffd5b506100ac60048036038101906100a791906106d6565b61023d565b6040516100bc9493929190610770565b60405180910390f35b3480156100d0575f5ffd5b506100d96103fb565b6040516100e69190610807565b60405180910390f35b5f60015f8581526020019081526020015f20905080600301543411156101b1573373ffffffffffffffffffffffffffffffffffffffff166108fc826003015490811502906040515f60405180830381858888f19350505050158015610156573d5f5f3e3d5ffd5b5082815f0190816101679190610a1d565b50818160030181905550335f5f6101000a81548173ffffffffffffffffffffffffffffffffffffffff021916908373ffffffffffffffffffffffffffffffffffffffff1602179055505b50505050565b60405180608001604052808581526020018481526020018381526020018281525060015f8781526020019081526020015f205f820151815f0190816101fc9190610a1d565b5060208201518160010190816102129190610a1d565b5060408201518160020190816102289190610a1d565b50606082015181600301559050505050505050565b6001602052805f5260405f205f91509050805f01805461025c9061084d565b80601f01602080910402602001604051908101604052809291908181526020018280546102889061084d565b80156102d35780601f106102aa576101008083540402835291602001916102d3565b820191905f5260205f20905b8154815290600101906020018083116102b657829003601f168201915b5050505050908060010180546102e89061084d565b80601f01602080910402602001604051908101604052809291908181526020018280546103149061084d565b801561035f5780601f106103365761010080835404028352916020019161035f565b820191905f5260205f20905b81548152906001019060200180831161034257829003601f168201915b5050505050908060020180546103749061084d565b80601f01602080910402602001604051908101604052809291908181526020018280546103a09061084d565b80156103eb5780601f106103c2576101008083540402835291602001916103eb565b820191905f5260205f20905b8154815290600101906020018083116103ce57829003601f168201915b5050505050908060030154905084565b5f5f9054906101000a900473ffffffffffffffffffffffffffffffffffffffff1681565b5f604051905090565b5f5ffd5b5f5ffd5b5f819050919050565b61044281610430565b811461044c575f5ffd5b50565b5f8135905061045d81610439565b92915050565b5f5ffd5b5f5ffd5b5f601f19601f8301169050919050565b7f4e487b71000000000000000000000000000000000000000000000000000000005f52604160045260245ffd5b6104b18261046b565b810181811067ffffffffffffffff821117156104d0576104cf61047b565b5b80604052505050565b5f6104e261041f565b90506104ee82826104a8565b919050565b5f67ffffffffffffffff82111561050d5761050c61047b565b5b6105168261046b565b9050602081019050919050565b828183375f83830152505050565b5f61054361053e846104f3565b6104d9565b90508281526020810184848401111561055f5761055e610467565b5b61056a848285610523565b509392505050565b5f82601f83011261058657610585610463565b5b8135610596848260208601610531565b91505092915050565b5f5f5f606084860312156105b6576105b5610428565b5b5f6105c38682870161044f565b935050602084013567ffffffffffffffff8111156105e4576105e361042c565b5b6105f086828701610572565b92505060406106018682870161044f565b9150509250925092565b5f5f5f5f5f60a0868803121561062457610623610428565b5b5f6106318882890161044f565b955050602086013567ffffffffffffffff8111156106525761065161042c565b5b61065e88828901610572565b945050604086013567ffffffffffffffff81111561067f5761067e61042c565b5b61068b88828901610572565b935050606086013567ffffffffffffffff8111156106ac576106ab61042c565b5b6106b888828901610572565b92505060806106c98882890161044f565b9150509295509295909350565b5f602082840312156106eb576106ea610428565b5b5f6106f88482850161044f565b91505092915050565b5f81519050919050565b5f82825260208201905092915050565b8281835e5f83830152505050565b5f61073382610701565b61073d818561070b565b935061074d81856020860161071b565b6107568161046b565b840191505092915050565b61076a81610430565b82525050565b5f6080820190508181035f8301526107888187610729565b9050818103602083015261079c8186610729565b905081810360408301526107b08185610729565b90506107bf6060830184610761565b95945050505050565b5f73ffffffffffffffffffffffffffffffffffffffff82169050919050565b5f6107f1826107c8565b9050919050565b610801816107e7565b82525050565b5f60208201905061081a5f8301846107f8565b92915050565b7f4e487b71000000000000000000000000000000000000000000000000000000005f52602260045260245ffd5b5f600282049050600182168061086457607f821691505b60208210810361087757610876610820565b5b50919050565b5f819050815f5260205f209050919050565b5f6020601f8301049050919050565b5f82821b905092915050565b5f600883026108d97fffffffffffffffffffffffffffffffffffffffffffffffffffffffffffffffff8261089e565b6108e3868361089e565b95508019841693508086168417925050509392505050565b5f819050919050565b5f61091e61091961091484610430565b6108fb565b610430565b9050919050565b5f819050919050565b61093783610904565b61094b61094382610925565b8484546108aa565b825550505050565b5f5f905090565b610962610953565b61096d81848461092e565b505050565b5b81811015610990576109855f8261095a565b600181019050610973565b5050565b601f8211156109d5576109a68161087d565b6109af8461088f565b810160208510156109be578190505b6109d26109ca8561088f565b830182610972565b50505b505050565b5f82821c905092915050565b5f6109f55f19846008026109da565b1980831691505092915050565b5f610a0d83836109e6565b9150826002028217905092915050565b610a2682610701565b67ffffffffffffffff811115610a3f57610a3e61047b565b5b610a49825461084d565b610a54828285610994565b5f60209050601f831160018114610a85575f8415610a73578287015190505b610a7d8582610a02565b865550610ae4565b601f198416610a938661087d565b5f5b82811015610aba57848901518255600182019150602085019450602081019050610a95565b86831015610ad75784890151610ad3601f8916826109e6565b8355505b6001600288020188555050505b50505050505056fea26469706673582212204c20a4340bbad9f455dc0fb69da101ddb5281353f7f86f9ad320d008f49ad75864736f6c634300081c0033",
					"opcodes": "PUSH1 0x80 PUSH1 0x40 MSTORE CALLER PUSH0 PUSH0 PUSH2 0x100 EXP DUP2 SLOAD DUP2 PUSH20 0xFFFFFFFFFFFFFFFFFFFFFFFFFFFFFFFFFFFFFFFF MUL NOT AND SWAP1 DUP4 PUSH20 0xFFFFFFFFFFFFFFFFFFFFFFFFFFFFFFFFFFFFFFFF AND MUL OR SWAP1 SSTORE POP CALLVALUE DUP1 ISZERO PUSH1 0x4D JUMPI PUSH0 PUSH0 REVERT JUMPDEST POP PUSH2 0xB22 DUP1 PUSH2 0x5B PUSH0 CODECOPY PUSH0 RETURN INVALID PUSH1 0x80 PUSH1 0x40 MSTORE PUSH1 0x4 CALLDATASIZE LT PUSH2 0x3E JUMPI PUSH0 CALLDATALOAD PUSH1 0xE0 SHR DUP1 PUSH4 0x4342DAE5 EQ PUSH2 0x42 JUMPI DUP1 PUSH4 0x662550F0 EQ PUSH2 0x5E JUMPI DUP1 PUSH4 0xB0B7755E EQ PUSH2 0x86 JUMPI DUP1 PUSH4 0xF851A440 EQ PUSH2 0xC5 JUMPI JUMPDEST PUSH0 PUSH0 REVERT JUMPDEST PUSH2 0x5C PUSH1 0x4 DUP1 CALLDATASIZE SUB DUP2 ADD SWAP1 PUSH2 0x57 SWAP2 SWAP1 PUSH2 0x59F JUMP JUMPDEST PUSH2 0xEF JUMP JUMPDEST STOP JUMPDEST CALLVALUE DUP1 ISZERO PUSH2 0x69 JUMPI PUSH0 PUSH0 REVERT JUMPDEST POP PUSH2 0x84 PUSH1 0x4 DUP1 CALLDATASIZE SUB DUP2 ADD SWAP1 PUSH2 0x7F SWAP2 SWAP1 PUSH2 0x60B JUMP JUMPDEST PUSH2 0x1B7 JUMP JUMPDEST STOP JUMPDEST CALLVALUE DUP1 ISZERO PUSH2 0x91 JUMPI PUSH0 PUSH0 REVERT JUMPDEST POP PUSH2 0xAC PUSH1 0x4 DUP1 CALLDATASIZE SUB DUP2 ADD SWAP1 PUSH2 0xA7 SWAP2 SWAP1 PUSH2 0x6D6 JUMP JUMPDEST PUSH2 0x23D JUMP JUMPDEST PUSH1 0x40 MLOAD PUSH2 0xBC SWAP5 SWAP4 SWAP3 SWAP2 SWAP1 PUSH2 0x770 JUMP JUMPDEST PUSH1 0x40 MLOAD DUP1 SWAP2 SUB SWAP1 RETURN JUMPDEST CALLVALUE DUP1 ISZERO PUSH2 0xD0 JUMPI PUSH0 PUSH0 REVERT JUMPDEST POP PUSH2 0xD9 PUSH2 0x3FB JUMP JUMPDEST PUSH1 0x40 MLOAD PUSH2 0xE6 SWAP2 SWAP1 PUSH2 0x807 JUMP JUMPDEST PUSH1 0x40 MLOAD DUP1 SWAP2 SUB SWAP1 RETURN JUMPDEST PUSH0 PUSH1 0x1 PUSH0 DUP6 DUP2 MSTORE PUSH1 0x20 ADD SWAP1 DUP2 MSTORE PUSH1 0x20 ADD PUSH0 KECCAK256 SWAP1 POP DUP1 PUSH1 0x3 ADD SLOAD CALLVALUE GT ISZERO PUSH2 0x1B1 JUMPI CALLER PUSH20 0xFFFFFFFFFFFFFFFFFFFFFFFFFFFFFFFFFFFFFFFF AND PUSH2 0x8FC DUP3 PUSH1 0x3 ADD SLOAD SWAP1 DUP2 ISZERO MUL SWAP1 PUSH1 0x40 MLOAD PUSH0 PUSH1 0x40 MLOAD DUP1 DUP4 SUB DUP2 DUP6 DUP9 DUP9 CALL SWAP4 POP POP POP POP ISZERO DUP1 ISZERO PUSH2 0x156 JUMPI RETURNDATASIZE PUSH0 PUSH0 RETURNDATACOPY RETURNDATASIZE PUSH0 REVERT JUMPDEST POP DUP3 DUP2 PUSH0 ADD SWAP1 DUP2 PUSH2 0x167 SWAP2 SWAP1 PUSH2 0xA1D JUMP JUMPDEST POP DUP2 DUP2 PUSH1 0x3 ADD DUP2 SWAP1 SSTORE POP CALLER PUSH0 PUSH0 PUSH2 0x100 EXP DUP2 SLOAD DUP2 PUSH20 0xFFFFFFFFFFFFFFFFFFFFFFFFFFFFFFFFFFFFFFFF MUL NOT AND SWAP1 DUP4 PUSH20 0xFFFFFFFFFFFFFFFFFFFFFFFFFFFFFFFFFFFFFFFF AND MUL OR SWAP1 SSTORE POP JUMPDEST POP POP POP POP JUMP JUMPDEST PUSH1 0x40 MLOAD DUP1 PUSH1 0x80 ADD PUSH1 0x40 MSTORE DUP1 DUP6 DUP2 MSTORE PUSH1 0x20 ADD DUP5 DUP2 MSTORE PUSH1 0x20 ADD DUP4 DUP2 MSTORE PUSH1 0x20 ADD DUP3 DUP2 MSTORE POP PUSH1 0x1 PUSH0 DUP8 DUP2 MSTORE PUSH1 0x20 ADD SWAP1 DUP2 MSTORE PUSH1 0x20 ADD PUSH0 KECCAK256 PUSH0 DUP3 ADD MLOAD DUP2 PUSH0 ADD SWAP1 DUP2 PUSH2 0x1FC SWAP2 SWAP1 PUSH2 0xA1D JUMP JUMPDEST POP PUSH1 0x20 DUP3 ADD MLOAD DUP2 PUSH1 0x1 ADD SWAP1 DUP2 PUSH2 0x212 SWAP2 SWAP1 PUSH2 0xA1D JUMP JUMPDEST POP PUSH1 0x40 DUP3 ADD MLOAD DUP2 PUSH1 0x2 ADD SWAP1 DUP2 PUSH2 0x228 SWAP2 SWAP1 PUSH2 0xA1D JUMP JUMPDEST POP PUSH1 0x60 DUP3 ADD MLOAD DUP2 PUSH1 0x3 ADD SSTORE SWAP1 POP POP POP POP POP POP POP JUMP JUMPDEST PUSH1 0x1 PUSH1 0x20 MSTORE DUP1 PUSH0 MSTORE PUSH1 0x40 PUSH0 KECCAK256 PUSH0 SWAP2 POP SWAP1 POP DUP1 PUSH0 ADD DUP1 SLOAD PUSH2 0x25C SWAP1 PUSH2 0x84D JUMP JUMPDEST DUP1 PUSH1 0x1F ADD PUSH1 0x20 DUP1 SWAP2 DIV MUL PUSH1 0x20 ADD PUSH1 0x40 MLOAD SWAP1 DUP2 ADD PUSH1 0x40 MSTORE DUP1 SWAP3 SWAP2 SWAP1 DUP2 DUP2 MSTORE PUSH1 0x20 ADD DUP3 DUP1 SLOAD PUSH2 0x288 SWAP1 PUSH2 0x84D JUMP JUMPDEST DUP1 ISZERO PUSH2 0x2D3 JUMPI DUP1 PUSH1 0x1F LT PUSH2 0x2AA JUMPI PUSH2 0x100 DUP1 DUP4 SLOAD DIV MUL DUP4 MSTORE SWAP2 PUSH1 0x20 ADD SWAP2 PUSH2 0x2D3 JUMP JUMPDEST DUP3 ADD SWAP2 SWAP1 PUSH0 MSTORE PUSH1 0x20 PUSH0 KECCAK256 SWAP1 JUMPDEST DUP2 SLOAD DUP2 MSTORE SWAP1 PUSH1 0x1 ADD SWAP1 PUSH1 0x20 ADD DUP1 DUP4 GT PUSH2 0x2B6 JUMPI DUP3 SWAP1 SUB PUSH1 0x1F AND DUP3 ADD SWAP2 JUMPDEST POP POP POP POP POP SWAP1 DUP1 PUSH1 0x1 ADD DUP1 SLOAD PUSH2 0x2E8 SWAP1 PUSH2 0x84D JUMP JUMPDEST DUP1 PUSH1 0x1F ADD PUSH1 0x20 DUP1 SWAP2 DIV MUL PUSH1 0x20 ADD PUSH1 0x40 MLOAD SWAP1 DUP2 ADD PUSH1 0x40 MSTORE DUP1 SWAP3 SWAP2 SWAP1 DUP2 DUP2 MSTORE PUSH1 0x20 ADD DUP3 DUP1 SLOAD PUSH2 0x314 SWAP1 PUSH2 0x84D JUMP JUMPDEST DUP1 ISZERO PUSH2 0x35F JUMPI DUP1 PUSH1 0x1F LT PUSH2 0x336 JUMPI PUSH2 0x100 DUP1 DUP4 SLOAD DIV MUL DUP4 MSTORE SWAP2 PUSH1 0x20 ADD SWAP2 PUSH2 0x35F JUMP JUMPDEST DUP3 ADD SWAP2 SWAP1 PUSH0 MSTORE PUSH1 0x20 PUSH0 KECCAK256 SWAP1 JUMPDEST DUP2 SLOAD DUP2 MSTORE SWAP1 PUSH1 0x1 ADD SWAP1 PUSH1 0x20 ADD DUP1 DUP4 GT PUSH2 0x342 JUMPI DUP3 SWAP1 SUB PUSH1 0x1F AND DUP3 ADD SWAP2 JUMPDEST POP POP POP POP POP SWAP1 DUP1 PUSH1 0x2 ADD DUP1 SLOAD PUSH2 0x374 SWAP1 PUSH2 0x84D JUMP JUMPDEST DUP1 PUSH1 0x1F ADD PUSH1 0x20 DUP1 SWAP2 DIV MUL PUSH1 0x20 ADD PUSH1 0x40 MLOAD SWAP1 DUP2 ADD PUSH1 0x40 MSTORE DUP1 SWAP3 SWAP2 SWAP1 DUP2 DUP2 MSTORE PUSH1 0x20 ADD DUP3 DUP1 SLOAD PUSH2 0x3A0 SWAP1 PUSH2 0x84D JUMP JUMPDEST DUP1 ISZERO PUSH2 0x3EB JUMPI DUP1 PUSH1 0x1F LT PUSH2 0x3C2 JUMPI PUSH2 0x100 DUP1 DUP4 SLOAD DIV MUL DUP4 MSTORE SWAP2 PUSH1 0x20 ADD SWAP2 PUSH2 0x3EB JUMP JUMPDEST DUP3 ADD SWAP2 SWAP1 PUSH0 MSTORE PUSH1 0x20 PUSH0 KECCAK256 SWAP1 JUMPDEST DUP2 SLOAD DUP2 MSTORE SWAP1 PUSH1 0x1 ADD SWAP1 PUSH1 0x20 ADD DUP1 DUP4 GT PUSH2 0x3CE JUMPI DUP3 SWAP1 SUB PUSH1 0x1F AND DUP3 ADD SWAP2 JUMPDEST POP POP POP POP POP SWAP1 DUP1 PUSH1 0x3 ADD SLOAD SWAP1 POP DUP5 JUMP JUMPDEST PUSH0 PUSH0 SWAP1 SLOAD SWAP1 PUSH2 0x100 EXP SWAP1 DIV PUSH20 0xFFFFFFFFFFFFFFFFFFFFFFFFFFFFFFFFFFFFFFFF AND DUP2 JUMP JUMPDEST PUSH0 PUSH1 0x40 MLOAD SWAP1 POP SWAP1 JUMP JUMPDEST PUSH0 PUSH0 REVERT JUMPDEST PUSH0 PUSH0 REVERT JUMPDEST PUSH0 DUP2 SWAP1 POP SWAP2 SWAP1 POP JUMP JUMPDEST PUSH2 0x442 DUP2 PUSH2 0x430 JUMP JUMPDEST DUP2 EQ PUSH2 0x44C JUMPI PUSH0 PUSH0 REVERT JUMPDEST POP JUMP JUMPDEST PUSH0 DUP2 CALLDATALOAD SWAP1 POP PUSH2 0x45D DUP2 PUSH2 0x439 JUMP JUMPDEST SWAP3 SWAP2 POP POP JUMP JUMPDEST PUSH0 PUSH0 REVERT JUMPDEST PUSH0 PUSH0 REVERT JUMPDEST PUSH0 PUSH1 0x1F NOT PUSH1 0x1F DUP4 ADD AND SWAP1 POP SWAP2 SWAP1 POP JUMP JUMPDEST PUSH32 0x4E487B7100000000000000000000000000000000000000000000000000000000 PUSH0 MSTORE PUSH1 0x41 PUSH1 0x4 MSTORE PUSH1 0x24 PUSH0 REVERT JUMPDEST PUSH2 0x4B1 DUP3 PUSH2 0x46B JUMP JUMPDEST DUP2 ADD DUP2 DUP2 LT PUSH8 0xFFFFFFFFFFFFFFFF DUP3 GT OR ISZERO PUSH2 0x4D0 JUMPI PUSH2 0x4CF PUSH2 0x47B JUMP JUMPDEST JUMPDEST DUP1 PUSH1 0x40 MSTORE POP POP POP JUMP JUMPDEST PUSH0 PUSH2 0x4E2 PUSH2 0x41F JUMP JUMPDEST SWAP1 POP PUSH2 0x4EE DUP3 DUP3 PUSH2 0x4A8 JUMP JUMPDEST SWAP2 SWAP1 POP JUMP JUMPDEST PUSH0 PUSH8 0xFFFFFFFFFFFFFFFF DUP3 GT ISZERO PUSH2 0x50D JUMPI PUSH2 0x50C PUSH2 0x47B JUMP JUMPDEST JUMPDEST PUSH2 0x516 DUP3 PUSH2 0x46B JUMP JUMPDEST SWAP1 POP PUSH1 0x20 DUP2 ADD SWAP1 POP SWAP2 SWAP1 POP JUMP JUMPDEST DUP3 DUP2 DUP4 CALLDATACOPY PUSH0 DUP4 DUP4 ADD MSTORE POP POP POP JUMP JUMPDEST PUSH0 PUSH2 0x543 PUSH2 0x53E DUP5 PUSH2 0x4F3 JUMP JUMPDEST PUSH2 0x4D9 JUMP JUMPDEST SWAP1 POP DUP3 DUP2 MSTORE PUSH1 0x20 DUP2 ADD DUP5 DUP5 DUP5 ADD GT ISZERO PUSH2 0x55F JUMPI PUSH2 0x55E PUSH2 0x467 JUMP JUMPDEST JUMPDEST PUSH2 0x56A DUP5 DUP3 DUP6 PUSH2 0x523 JUMP JUMPDEST POP SWAP4 SWAP3 POP POP POP JUMP JUMPDEST PUSH0 DUP3 PUSH1 0x1F DUP4 ADD SLT PUSH2 0x586 JUMPI PUSH2 0x585 PUSH2 0x463 JUMP JUMPDEST JUMPDEST DUP2 CALLDATALOAD PUSH2 0x596 DUP5 DUP3 PUSH1 0x20 DUP7 ADD PUSH2 0x531 JUMP JUMPDEST SWAP2 POP POP SWAP3 SWAP2 POP POP JUMP JUMPDEST PUSH0 PUSH0 PUSH0 PUSH1 0x60 DUP5 DUP7 SUB SLT ISZERO PUSH2 0x5B6 JUMPI PUSH2 0x5B5 PUSH2 0x428 JUMP JUMPDEST JUMPDEST PUSH0 PUSH2 0x5C3 DUP7 DUP3 DUP8 ADD PUSH2 0x44F JUMP JUMPDEST SWAP4 POP POP PUSH1 0x20 DUP5 ADD CALLDATALOAD PUSH8 0xFFFFFFFFFFFFFFFF DUP2 GT ISZERO PUSH2 0x5E4 JUMPI PUSH2 0x5E3 PUSH2 0x42C JUMP JUMPDEST JUMPDEST PUSH2 0x5F0 DUP7 DUP3 DUP8 ADD PUSH2 0x572 JUMP JUMPDEST SWAP3 POP POP PUSH1 0x40 PUSH2 0x601 DUP7 DUP3 DUP8 ADD PUSH2 0x44F JUMP JUMPDEST SWAP2 POP POP SWAP3 POP SWAP3 POP SWAP3 JUMP JUMPDEST PUSH0 PUSH0 PUSH0 PUSH0 PUSH0 PUSH1 0xA0 DUP7 DUP9 SUB SLT ISZERO PUSH2 0x624 JUMPI PUSH2 0x623 PUSH2 0x428 JUMP JUMPDEST JUMPDEST PUSH0 PUSH2 0x631 DUP9 DUP3 DUP10 ADD PUSH2 0x44F JUMP JUMPDEST SWAP6 POP POP PUSH1 0x20 DUP7 ADD CALLDATALOAD PUSH8 0xFFFFFFFFFFFFFFFF DUP2 GT ISZERO PUSH2 0x652 JUMPI PUSH2 0x651 PUSH2 0x42C JUMP JUMPDEST JUMPDEST PUSH2 0x65E DUP9 DUP3 DUP10 ADD PUSH2 0x572 JUMP JUMPDEST SWAP5 POP POP PUSH1 0x40 DUP7 ADD CALLDATALOAD PUSH8 0xFFFFFFFFFFFFFFFF DUP2 GT ISZERO PUSH2 0x67F JUMPI PUSH2 0x67E PUSH2 0x42C JUMP JUMPDEST JUMPDEST PUSH2 0x68B DUP9 DUP3 DUP10 ADD PUSH2 0x572 JUMP JUMPDEST SWAP4 POP POP PUSH1 0x60 DUP7 ADD CALLDATALOAD PUSH8 0xFFFFFFFFFFFFFFFF DUP2 GT ISZERO PUSH2 0x6AC JUMPI PUSH2 0x6AB PUSH2 0x42C JUMP JUMPDEST JUMPDEST PUSH2 0x6B8 DUP9 DUP3 DUP10 ADD PUSH2 0x572 JUMP JUMPDEST SWAP3 POP POP PUSH1 0x80 PUSH2 0x6C9 DUP9 DUP3 DUP10 ADD PUSH2 0x44F JUMP JUMPDEST SWAP2 POP POP SWAP3 SWAP6 POP SWAP3 SWAP6 SWAP1 SWAP4 POP JUMP JUMPDEST PUSH0 PUSH1 0x20 DUP3 DUP5 SUB SLT ISZERO PUSH2 0x6EB JUMPI PUSH2 0x6EA PUSH2 0x428 JUMP JUMPDEST JUMPDEST PUSH0 PUSH2 0x6F8 DUP5 DUP3 DUP6 ADD PUSH2 0x44F JUMP JUMPDEST SWAP2 POP POP SWAP3 SWAP2 POP POP JUMP JUMPDEST PUSH0 DUP2 MLOAD SWAP1 POP SWAP2 SWAP1 POP JUMP JUMPDEST PUSH0 DUP3 DUP3 MSTORE PUSH1 0x20 DUP3 ADD SWAP1 POP SWAP3 SWAP2 POP POP JUMP JUMPDEST DUP3 DUP2 DUP4 MCOPY PUSH0 DUP4 DUP4 ADD MSTORE POP POP POP JUMP JUMPDEST PUSH0 PUSH2 0x733 DUP3 PUSH2 0x701 JUMP JUMPDEST PUSH2 0x73D DUP2 DUP6 PUSH2 0x70B JUMP JUMPDEST SWAP4 POP PUSH2 0x74D DUP2 DUP6 PUSH1 0x20 DUP7 ADD PUSH2 0x71B JUMP JUMPDEST PUSH2 0x756 DUP2 PUSH2 0x46B JUMP JUMPDEST DUP5 ADD SWAP2 POP POP SWAP3 SWAP2 POP POP JUMP JUMPDEST PUSH2 0x76A DUP2 PUSH2 0x430 JUMP JUMPDEST DUP3 MSTORE POP POP JUMP JUMPDEST PUSH0 PUSH1 0x80 DUP3 ADD SWAP1 POP DUP2 DUP2 SUB PUSH0 DUP4 ADD MSTORE PUSH2 0x788 DUP2 DUP8 PUSH2 0x729 JUMP JUMPDEST SWAP1 POP DUP2 DUP2 SUB PUSH1 0x20 DUP4 ADD MSTORE PUSH2 0x79C DUP2 DUP7 PUSH2 0x729 JUMP JUMPDEST SWAP1 POP DUP2 DUP2 SUB PUSH1 0x40 DUP4 ADD MSTORE PUSH2 0x7B0 DUP2 DUP6 PUSH2 0x729 JUMP JUMPDEST SWAP1 POP PUSH2 0x7BF PUSH1 0x60 DUP4 ADD DUP5 PUSH2 0x761 JUMP JUMPDEST SWAP6 SWAP5 POP POP POP POP POP JUMP JUMPDEST PUSH0 PUSH20 0xFFFFFFFFFFFFFFFFFFFFFFFFFFFFFFFFFFFFFFFF DUP3 AND SWAP1 POP SWAP2 SWAP1 POP JUMP JUMPDEST PUSH0 PUSH2 0x7F1 DUP3 PUSH2 0x7C8 JUMP JUMPDEST SWAP1 POP SWAP2 SWAP1 POP JUMP JUMPDEST PUSH2 0x801 DUP2 PUSH2 0x7E7 JUMP JUMPDEST DUP3 MSTORE POP POP JUMP JUMPDEST PUSH0 PUSH1 0x20 DUP3 ADD SWAP1 POP PUSH2 0x81A PUSH0 DUP4 ADD DUP5 PUSH2 0x7F8 JUMP JUMPDEST SWAP3 SWAP2 POP POP JUMP JUMPDEST PUSH32 0x4E487B7100000000000000000000000000000000000000000000000000000000 PUSH0 MSTORE PUSH1 0x22 PUSH1 0x4 MSTORE PUSH1 0x24 PUSH0 REVERT JUMPDEST PUSH0 PUSH1 0x2 DUP3 DIV SWAP1 POP PUSH1 0x1 DUP3 AND DUP1 PUSH2 0x864 JUMPI PUSH1 0x7F DUP3 AND SWAP2 POP JUMPDEST PUSH1 0x20 DUP3 LT DUP2 SUB PUSH2 0x877 JUMPI PUSH2 0x876 PUSH2 0x820 JUMP JUMPDEST JUMPDEST POP SWAP2 SWAP1 POP JUMP JUMPDEST PUSH0 DUP2 SWAP1 POP DUP2 PUSH0 MSTORE PUSH1 0x20 PUSH0 KECCAK256 SWAP1 POP SWAP2 SWAP1 POP JUMP JUMPDEST PUSH0 PUSH1 0x20 PUSH1 0x1F DUP4 ADD DIV SWAP1 POP SWAP2 SWAP1 POP JUMP JUMPDEST PUSH0 DUP3 DUP3 SHL SWAP1 POP SWAP3 SWAP2 POP POP JUMP JUMPDEST PUSH0 PUSH1 0x8 DUP4 MUL PUSH2 0x8D9 PUSH32 0xFFFFFFFFFFFFFFFFFFFFFFFFFFFFFFFFFFFFFFFFFFFFFFFFFFFFFFFFFFFFFFFF DUP3 PUSH2 0x89E JUMP JUMPDEST PUSH2 0x8E3 DUP7 DUP4 PUSH2 0x89E JUMP JUMPDEST SWAP6 POP DUP1 NOT DUP5 AND SWAP4 POP DUP1 DUP7 AND DUP5 OR SWAP3 POP POP POP SWAP4 SWAP3 POP POP POP JUMP JUMPDEST PUSH0 DUP2 SWAP1 POP SWAP2 SWAP1 POP JUMP JUMPDEST PUSH0 PUSH2 0x91E PUSH2 0x919 PUSH2 0x914 DUP5 PUSH2 0x430 JUMP JUMPDEST PUSH2 0x8FB JUMP JUMPDEST PUSH2 0x430 JUMP JUMPDEST SWAP1 POP SWAP2 SWAP1 POP JUMP JUMPDEST PUSH0 DUP2 SWAP1 POP SWAP2 SWAP1 POP JUMP JUMPDEST PUSH2 0x937 DUP4 PUSH2 0x904 JUMP JUMPDEST PUSH2 0x94B PUSH2 0x943 DUP3 PUSH2 0x925 JUMP JUMPDEST DUP5 DUP5 SLOAD PUSH2 0x8AA JUMP JUMPDEST DUP3 SSTORE POP POP POP POP JUMP JUMPDEST PUSH0 PUSH0 SWAP1 POP SWAP1 JUMP JUMPDEST PUSH2 0x962 PUSH2 0x953 JUMP JUMPDEST PUSH2 0x96D DUP2 DUP5 DUP5 PUSH2 0x92E JUMP JUMPDEST POP POP POP JUMP JUMPDEST JUMPDEST DUP2 DUP2 LT ISZERO PUSH2 0x990 JUMPI PUSH2 0x985 PUSH0 DUP3 PUSH2 0x95A JUMP JUMPDEST PUSH1 0x1 DUP2 ADD SWAP1 POP PUSH2 0x973 JUMP JUMPDEST POP POP JUMP JUMPDEST PUSH1 0x1F DUP3 GT ISZERO PUSH2 0x9D5 JUMPI PUSH2 0x9A6 DUP2 PUSH2 0x87D JUMP JUMPDEST PUSH2 0x9AF DUP5 PUSH2 0x88F JUMP JUMPDEST DUP2 ADD PUSH1 0x20 DUP6 LT ISZERO PUSH2 0x9BE JUMPI DUP2 SWAP1 POP JUMPDEST PUSH2 0x9D2 PUSH2 0x9CA DUP6 PUSH2 0x88F JUMP JUMPDEST DUP4 ADD DUP3 PUSH2 0x972 JUMP JUMPDEST POP POP JUMPDEST POP POP POP JUMP JUMPDEST PUSH0 DUP3 DUP3 SHR SWAP1 POP SWAP3 SWAP2 POP POP JUMP JUMPDEST PUSH0 PUSH2 0x9F5 PUSH0 NOT DUP5 PUSH1 0x8 MUL PUSH2 0x9DA JUMP JUMPDEST NOT DUP1 DUP4 AND SWAP2 POP POP SWAP3 SWAP2 POP POP JUMP JUMPDEST PUSH0 PUSH2 0xA0D DUP4 DUP4 PUSH2 0x9E6 JUMP JUMPDEST SWAP2 POP DUP3 PUSH1 0x2 MUL DUP3 OR SWAP1 POP SWAP3 SWAP2 POP POP JUMP JUMPDEST PUSH2 0xA26 DUP3 PUSH2 0x701 JUMP JUMPDEST PUSH8 0xFFFFFFFFFFFFFFFF DUP2 GT ISZERO PUSH2 0xA3F JUMPI PUSH2 0xA3E PUSH2 0x47B JUMP JUMPDEST JUMPDEST PUSH2 0xA49 DUP3 SLOAD PUSH2 0x84D JUMP JUMPDEST PUSH2 0xA54 DUP3 DUP3 DUP6 PUSH2 0x994 JUMP JUMPDEST PUSH0 PUSH1 0x20 SWAP1 POP PUSH1 0x1F DUP4 GT PUSH1 0x1 DUP2 EQ PUSH2 0xA85 JUMPI PUSH0 DUP5 ISZERO PUSH2 0xA73 JUMPI DUP3 DUP8 ADD MLOAD SWAP1 POP JUMPDEST PUSH2 0xA7D DUP6 DUP3 PUSH2 0xA02 JUMP JUMPDEST DUP7 SSTORE POP PUSH2 0xAE4 JUMP JUMPDEST PUSH1 0x1F NOT DUP5 AND PUSH2 0xA93 DUP7 PUSH2 0x87D JUMP JUMPDEST PUSH0 JUMPDEST DUP3 DUP2 LT ISZERO PUSH2 0xABA JUMPI DUP5 DUP10 ADD MLOAD DUP3 SSTORE PUSH1 0x1 DUP3 ADD SWAP2 POP PUSH1 0x20 DUP6 ADD SWAP5 POP PUSH1 0x20 DUP2 ADD SWAP1 POP PUSH2 0xA95 JUMP JUMPDEST DUP7 DUP4 LT ISZERO PUSH2 0xAD7 JUMPI DUP5 DUP10 ADD MLOAD PUSH2 0xAD3 PUSH1 0x1F DUP10 AND DUP3 PUSH2 0x9E6 JUMP JUMPDEST DUP4 SSTORE POP JUMPDEST PUSH1 0x1 PUSH1 0x2 DUP9 MUL ADD DUP9 SSTORE POP POP POP JUMPDEST POP POP POP POP POP POP JUMP INVALID LOG2 PUSH5 0x6970667358 0x22 SLT KECCAK256 0x4C KECCAK256 LOG4 CALLVALUE SIGNEXTEND 0xBA 0xD9 DELEGATECALL SSTORE 0xDC 0xF 0xB6 SWAP14 LOG1 ADD 0xDD 0xB5 0x28 SGT MSTORE8 0xF7 0xF8 PUSH16 0x9AD320D008F49AD75864736F6C634300 ADDMOD SHR STOP CALLER "
				},
				"gasEstimates": {
					"creation": {
						"codeDepositCost": "570000",
						"executionCost": "24868",
						"totalCost": "594868"
					},
					"external": {
						"admin()": "2551",
						"carAuctions(uint256)": "infinite",
						"changeOwner(uint256,string,uint256)": "infinite",
						"issue(uint256,string,string,string,uint256)": "infinite"
					}
				},
				"methodIdentifiers": {
					"admin()": "f851a440",
					"carAuctions(uint256)": "b0b7755e",
					"changeOwner(uint256,string,uint256)": "4342dae5",
					"issue(uint256,string,string,string,uint256)": "662550f0"
				}
			},
			"storageLayout": {
				"storage": [
					{
						"astId": 14,
						"contract": "Activitys/aution.sol:Auction",
						"label": "admin",
						"offset": 0,
						"slot": "0",
						"type": "t_address"
					},
					{
						"astId": 19,
						"contract": "Activitys/aution.sol:Auction",
						"label": "carAuctions",
						"offset": 0,
						"slot": "1",
						"type": "t_mapping(t_uint256,t_struct(CarAuction)10_storage)"
					}
				],
				"types": {
					"t_address": {
						"encoding": "inplace",
						"label": "address",
						"numberOfBytes": "20"
					},
					"t_mapping(t_uint256,t_struct(CarAuction)10_storage)": {
						"encoding": "mapping",
						"key": "t_uint256",
						"label": "mapping(uint256 => struct Auction.CarAuction)",
						"numberOfBytes": "32",
						"value": "t_struct(CarAuction)10_storage"
					},
					"t_string_storage": {
						"encoding": "bytes",
						"label": "string",
						"numberOfBytes": "32"
					},
					"t_struct(CarAuction)10_storage": {
						"encoding": "inplace",
						"label": "struct Auction.CarAuction",
						"members": [
							{
								"astId": 3,
								"contract": "Activitys/aution.sol:Auction",
								"label": "ownerName",
								"offset": 0,
								"slot": "0",
								"type": "t_string_storage"
							},
							{
								"astId": 5,
								"contract": "Activitys/aution.sol:Auction",
								"label": "car",
								"offset": 0,
								"slot": "1",
								"type": "t_string_storage"
							},
							{
								"astId": 7,
								"contract": "Activitys/aution.sol:Auction",
								"label": "model",
								"offset": 0,
								"slot": "2",
								"type": "t_string_storage"
							},
							{
								"astId": 9,
								"contract": "Activitys/aution.sol:Auction",
								"label": "price",
								"offset": 0,
								"slot": "3",
								"type": "t_uint256"
							}
						],
						"numberOfBytes": "128"
					},
					"t_uint256": {
						"encoding": "inplace",
						"label": "uint256",
						"numberOfBytes": "32"
					}
				}
			},
			"userdoc": {
				"kind": "user",
				"methods": {},
				"version": 1
			}
		}
	}
}