{
	"data": {
		"bytecode": {
			"linkReferences": {},
			"object": "6080604052335f5f6101000a81548173ffffffffffffffffffffffffffffffffffffffff021916908373ffffffffffffffffffffffffffffffffffffffff160217905550348015604d575f5ffd5b50610c2d8061005b5f395ff3fe608060405260043610610033575f3560e01c8063662550f014610037578063898669081461005f578063ed83eeb11461009f575b5f5ffd5b348015610042575f5ffd5b5061005d60048036038101906100589190610639565b6100bb565b005b34801561006a575f5ffd5b5061008560048036038101906100809190610704565b6101a3565b6040516100969594939291906107dd565b60405180910390f35b6100b960048036038101906100b49190610843565b610386565b005b6040518060a001604052808581526020018481526020018381526020018281526020013373ffffffffffffffffffffffffffffffffffffffff1681525060015f8781526020019081526020015f205f820151815f01908161011c9190610a9a565b5060208201518160010190816101329190610a9a565b5060408201518160020190816101489190610a9a565b50606082015181600301556080820151816004015f6101000a81548173ffffffffffffffffffffffffffffffffffffffff021916908373ffffffffffffffffffffffffffffffffffffffff1602179055509050505050505050565b6001602052805f5260405f205f91509050805f0180546101c2906108ca565b80601f01602080910402602001604051908101604052809291908181526020018280546101ee906108ca565b80156102395780601f1061021057610100808354040283529160200191610239565b820191905f5260205f20905b81548152906001019060200180831161021c57829003601f168201915b50505050509080600101805461024e906108ca565b80601f016020809104026020016040519081016040528092919081815260200182805461027a906108ca565b80156102c55780601f1061029c576101008083540402835291602001916102c5565b820191905f5260205f20905b8154815290600101906020018083116102a857829003601f168201915b5050505050908060020180546102da906108ca565b80601f0160208091040260200160405190810160405280929190818152602001828054610306906108ca565b80156103515780601f1061032857610100808354040283529160200191610351565b820191905f5260205f20905b81548152906001019060200180831161033457829003601f168201915b505050505090806003015490806004015f9054906101000a900473ffffffffffffffffffffffffffffffffffffffff16905085565b5f60015f8481526020019081526020015f209050806003015434116103e0576040517f08c379a00000000000000000000000000000000000000000000000000000000081526004016103d790610bd9565b60405180910390fd5b5f8160030154111561045857806004015f9054906101000a900473ffffffffffffffffffffffffffffffffffffffff1673ffffffffffffffffffffffffffffffffffffffff166108fc826003015490811502906040515f60405180830381858888f19350505050158015610456573d5f5f3e3d5ffd5b505b81815f0190816104689190610a9a565b5034816003018190555033816004015f6101000a81548173ffffffffffffffffffffffffffffffffffffffff021916908373ffffffffffffffffffffffffffffffffffffffff160217905550505050565b5f604051905090565b5f5ffd5b5f5ffd5b5f819050919050565b6104dc816104ca565b81146104e6575f5ffd5b50565b5f813590506104f7816104d3565b92915050565b5f5ffd5b5f5ffd5b5f601f19601f8301169050919050565b7f4e487b71000000000000000000000000000000000000000000000000000000005f52604160045260245ffd5b61054b82610505565b810181811067ffffffffffffffff8211171561056a57610569610515565b5b80604052505050565b5f61057c6104b9565b90506105888282610542565b919050565b5f67ffffffffffffffff8211156105a7576105a6610515565b5b6105b082610505565b9050602081019050919050565b828183375f83830152505050565b5f6105dd6105d88461058d565b610573565b9050828152602081018484840111156105f9576105f8610501565b5b6106048482856105bd565b509392505050565b5f82601f8301126106205761061f6104fd565b5b81356106308482602086016105cb565b91505092915050565b5f5f5f5f5f60a08688031215610652576106516104c2565b5b5f61065f888289016104e9565b955050602086013567ffffffffffffffff8111156106805761067f6104c6565b5b61068c8882890161060c565b945050604086013567ffffffffffffffff8111156106ad576106ac6104c6565b5b6106b98882890161060c565b935050606086013567ffffffffffffffff8111156106da576106d96104c6565b5b6106e68882890161060c565b92505060806106f7888289016104e9565b9150509295509295909350565b5f60208284031215610719576107186104c2565b5b5f610726848285016104e9565b91505092915050565b5f81519050919050565b5f82825260208201905092915050565b8281835e5f83830152505050565b5f6107618261072f565b61076b8185610739565b935061077b818560208601610749565b61078481610505565b840191505092915050565b610798816104ca565b82525050565b5f73ffffffffffffffffffffffffffffffffffffffff82169050919050565b5f6107c78261079e565b9050919050565b6107d7816107bd565b82525050565b5f60a0820190508181035f8301526107f58188610757565b905081810360208301526108098187610757565b9050818103604083015261081d8186610757565b905061082c606083018561078f565b61083960808301846107ce565b9695505050505050565b5f5f60408385031215610859576108586104c2565b5b5f610866858286016104e9565b925050602083013567ffffffffffffffff811115610887576108866104c6565b5b6108938582860161060c565b9150509250929050565b7f4e487b71000000000000000000000000000000000000000000000000000000005f52602260045260245ffd5b5f60028204905060018216806108e157607f821691505b6020821081036108f4576108f361089d565b5b50919050565b5f819050815f5260205f209050919050565b5f6020601f8301049050919050565b5f82821b905092915050565b5f600883026109567fffffffffffffffffffffffffffffffffffffffffffffffffffffffffffffffff8261091b565b610960868361091b565b95508019841693508086168417925050509392505050565b5f819050919050565b5f61099b610996610991846104ca565b610978565b6104ca565b9050919050565b5f819050919050565b6109b483610981565b6109c86109c0826109a2565b848454610927565b825550505050565b5f5f905090565b6109df6109d0565b6109ea8184846109ab565b505050565b5b81811015610a0d57610a025f826109d7565b6001810190506109f0565b5050565b601f821115610a5257610a23816108fa565b610a2c8461090c565b81016020851015610a3b578190505b610a4f610a478561090c565b8301826109ef565b50505b505050565b5f82821c905092915050565b5f610a725f1984600802610a57565b1980831691505092915050565b5f610a8a8383610a63565b9150826002028217905092915050565b610aa38261072f565b67ffffffffffffffff811115610abc57610abb610515565b5b610ac682546108ca565b610ad1828285610a11565b5f60209050601f831160018114610b02575f8415610af0578287015190505b610afa8582610a7f565b865550610b61565b601f198416610b10866108fa565b5f5b82811015610b3757848901518255600182019150602085019450602081019050610b12565b86831015610b545784890151610b50601f891682610a63565b8355505b6001600288020188555050505b505050505050565b7f796f7572207072696365206973206c6f776572207468616e20746865206375725f8201527f72656e742070726963652e000000000000000000000000000000000000000000602082015250565b5f610bc3602b83610739565b9150610bce82610b69565b604082019050919050565b5f6020820190508181035f830152610bf081610bb7565b905091905056fea26469706673582212209bc4ef7e5f01bb5f5a0e4415fa20d82be038beed9ff0521a31854ccffa86dca664736f6c634300081c0033",
			"opcodes": "PUSH1 0x80 PUSH1 0x40 MSTORE CALLER PUSH0 PUSH0 PUSH2 0x100 EXP DUP2 SLOAD DUP2 PUSH20 0xFFFFFFFFFFFFFFFFFFFFFFFFFFFFFFFFFFFFFFFF MUL NOT AND SWAP1 DUP4 PUSH20 0xFFFFFFFFFFFFFFFFFFFFFFFFFFFFFFFFFFFFFFFF AND MUL OR SWAP1 SSTORE POP CALLVALUE DUP1 ISZERO PUSH1 0x4D JUMPI PUSH0 PUSH0 REVERT JUMPDEST POP PUSH2 0xC2D DUP1 PUSH2 0x5B PUSH0 CODECOPY PUSH0 RETURN INVALID PUSH1 0x80 PUSH1 0x40 MSTORE PUSH1 0x4 CALLDATASIZE LT PUSH2 0x33 JUMPI PUSH0 CALLDATALOAD PUSH1 0xE0 SHR DUP1 PUSH4 0x662550F0 EQ PUSH2 0x37 JUMPI DUP1 PUSH4 0x89866908 EQ PUSH2 0x5F JUMPI DUP1 PUSH4 0xED83EEB1 EQ PUSH2 0x9F JUMPI JUMPDEST PUSH0 PUSH0 REVERT JUMPDEST CALLVALUE DUP1 ISZERO PUSH2 0x42 JUMPI PUSH0 PUSH0 REVERT JUMPDEST POP PUSH2 0x5D PUSH1 0x4 DUP1 CALLDATASIZE SUB DUP2 ADD SWAP1 PUSH2 0x58 SWAP2 SWAP1 PUSH2 0x639 JUMP JUMPDEST PUSH2 0xBB JUMP JUMPDEST STOP JUMPDEST CALLVALUE DUP1 ISZERO PUSH2 0x6A JUMPI PUSH0 PUSH0 REVERT JUMPDEST POP PUSH2 0x85 PUSH1 0x4 DUP1 CALLDATASIZE SUB DUP2 ADD SWAP1 PUSH2 0x80 SWAP2 SWAP1 PUSH2 0x704 JUMP JUMPDEST PUSH2 0x1A3 JUMP JUMPDEST PUSH1 0x40 MLOAD PUSH2 0x96 SWAP6 SWAP5 SWAP4 SWAP3 SWAP2 SWAP1 PUSH2 0x7DD JUMP JUMPDEST PUSH1 0x40 MLOAD DUP1 SWAP2 SUB SWAP1 RETURN JUMPDEST PUSH2 0xB9 PUSH1 0x4 DUP1 CALLDATASIZE SUB DUP2 ADD SWAP1 PUSH2 0xB4 SWAP2 SWAP1 PUSH2 0x843 JUMP JUMPDEST PUSH2 0x386 JUMP JUMPDEST STOP JUMPDEST PUSH1 0x40 MLOAD DUP1 PUSH1 0xA0 ADD PUSH1 0x40 MSTORE DUP1 DUP6 DUP2 MSTORE PUSH1 0x20 ADD DUP5 DUP2 MSTORE PUSH1 0x20 ADD DUP4 DUP2 MSTORE PUSH1 0x20 ADD DUP3 DUP2 MSTORE PUSH1 0x20 ADD CALLER PUSH20 0xFFFFFFFFFFFFFFFFFFFFFFFFFFFFFFFFFFFFFFFF AND DUP2 MSTORE POP PUSH1 0x1 PUSH0 DUP8 DUP2 MSTORE PUSH1 0x20 ADD SWAP1 DUP2 MSTORE PUSH1 0x20 ADD PUSH0 KECCAK256 PUSH0 DUP3 ADD MLOAD DUP2 PUSH0 ADD SWAP1 DUP2 PUSH2 0x11C SWAP2 SWAP1 PUSH2 0xA9A JUMP JUMPDEST POP PUSH1 0x20 DUP3 ADD MLOAD DUP2 PUSH1 0x1 ADD SWAP1 DUP2 PUSH2 0x132 SWAP2 SWAP1 PUSH2 0xA9A JUMP JUMPDEST POP PUSH1 0x40 DUP3 ADD MLOAD DUP2 PUSH1 0x2 ADD SWAP1 DUP2 PUSH2 0x148 SWAP2 SWAP1 PUSH2 0xA9A JUMP JUMPDEST POP PUSH1 0x60 DUP3 ADD MLOAD DUP2 PUSH1 0x3 ADD SSTORE PUSH1 0x80 DUP3 ADD MLOAD DUP2 PUSH1 0x4 ADD PUSH0 PUSH2 0x100 EXP DUP2 SLOAD DUP2 PUSH20 0xFFFFFFFFFFFFFFFFFFFFFFFFFFFFFFFFFFFFFFFF MUL NOT AND SWAP1 DUP4 PUSH20 0xFFFFFFFFFFFFFFFFFFFFFFFFFFFFFFFFFFFFFFFF AND MUL OR SWAP1 SSTORE POP SWAP1 POP POP POP POP POP POP POP JUMP JUMPDEST PUSH1 0x1 PUSH1 0x20 MSTORE DUP1 PUSH0 MSTORE PUSH1 0x40 PUSH0 KECCAK256 PUSH0 SWAP2 POP SWAP1 POP DUP1 PUSH0 ADD DUP1 SLOAD PUSH2 0x1C2 SWAP1 PUSH2 0x8CA JUMP JUMPDEST DUP1 PUSH1 0x1F ADD PUSH1 0x20 DUP1 SWAP2 DIV MUL PUSH1 0x20 ADD PUSH1 0x40 MLOAD SWAP1 DUP2 ADD PUSH1 0x40 MSTORE DUP1 SWAP3 SWAP2 SWAP1 DUP2 DUP2 MSTORE PUSH1 0x20 ADD DUP3 DUP1 SLOAD PUSH2 0x1EE SWAP1 PUSH2 0x8CA JUMP JUMPDEST DUP1 ISZERO PUSH2 0x239 JUMPI DUP1 PUSH1 0x1F LT PUSH2 0x210 JUMPI PUSH2 0x100 DUP1 DUP4 SLOAD DIV MUL DUP4 MSTORE SWAP2 PUSH1 0x20 ADD SWAP2 PUSH2 0x239 JUMP JUMPDEST DUP3 ADD SWAP2 SWAP1 PUSH0 MSTORE PUSH1 0x20 PUSH0 KECCAK256 SWAP1 JUMPDEST DUP2 SLOAD DUP2 MSTORE SWAP1 PUSH1 0x1 ADD SWAP1 PUSH1 0x20 ADD DUP1 DUP4 GT PUSH2 0x21C JUMPI DUP3 SWAP1 SUB PUSH1 0x1F AND DUP3 ADD SWAP2 JUMPDEST POP POP POP POP POP SWAP1 DUP1 PUSH1 0x1 ADD DUP1 SLOAD PUSH2 0x24E SWAP1 PUSH2 0x8CA JUMP JUMPDEST DUP1 PUSH1 0x1F ADD PUSH1 0x20 DUP1 SWAP2 DIV MUL PUSH1 0x20 ADD PUSH1 0x40 MLOAD SWAP1 DUP2 ADD PUSH1 0x40 MSTORE DUP1 SWAP3 SWAP2 SWAP1 DUP2 DUP2 MSTORE PUSH1 0x20 ADD DUP3 DUP1 SLOAD PUSH2 0x27A SWAP1 PUSH2 0x8CA JUMP JUMPDEST DUP1 ISZERO PUSH2 0x2C5 JUMPI DUP1 PUSH1 0x1F LT PUSH2 0x29C JUMPI PUSH2 0x100 DUP1 DUP4 SLOAD DIV MUL DUP4 MSTORE SWAP2 PUSH1 0x20 ADD SWAP2 PUSH2 0x2C5 JUMP JUMPDEST DUP3 ADD SWAP2 SWAP1 PUSH0 MSTORE PUSH1 0x20 PUSH0 KECCAK256 SWAP1 JUMPDEST DUP2 SLOAD DUP2 MSTORE SWAP1 PUSH1 0x1 ADD SWAP1 PUSH1 0x20 ADD DUP1 DUP4 GT PUSH2 0x2A8 JUMPI DUP3 SWAP1 SUB PUSH1 0x1F AND DUP3 ADD SWAP2 JUMPDEST POP POP POP POP POP SWAP1 DUP1 PUSH1 0x2 ADD DUP1 SLOAD PUSH2 0x2DA SWAP1 PUSH2 0x8CA JUMP JUMPDEST DUP1 PUSH1 0x1F ADD PUSH1 0x20 DUP1 SWAP2 DIV MUL PUSH1 0x20 ADD PUSH1 0x40 MLOAD SWAP1 DUP2 ADD PUSH1 0x40 MSTORE DUP1 SWAP3 SWAP2 SWAP1 DUP2 DUP2 MSTORE PUSH1 0x20 ADD DUP3 DUP1 SLOAD PUSH2 0x306 SWAP1 PUSH2 0x8CA JUMP JUMPDEST DUP1 ISZERO PUSH2 0x351 JUMPI DUP1 PUSH1 0x1F LT PUSH2 0x328 JUMPI PUSH2 0x100 DUP1 DUP4 SLOAD DIV MUL DUP4 MSTORE SWAP2 PUSH1 0x20 ADD SWAP2 PUSH2 0x351 JUMP JUMPDEST DUP3 ADD SWAP2 SWAP1 PUSH0 MSTORE PUSH1 0x20 PUSH0 KECCAK256 SWAP1 JUMPDEST DUP2 SLOAD DUP2 MSTORE SWAP1 PUSH1 0x1 ADD SWAP1 PUSH1 0x20 ADD DUP1 DUP4 GT PUSH2 0x334 JUMPI DUP3 SWAP1 SUB PUSH1 0x1F AND DUP3 ADD SWAP2 JUMPDEST POP POP POP POP POP SWAP1 DUP1 PUSH1 0x3 ADD SLOAD SWAP1 DUP1 PUSH1 0x4 ADD PUSH0 SWAP1 SLOAD SWAP1 PUSH2 0x100 EXP SWAP1 DIV PUSH20 0xFFFFFFFFFFFFFFFFFFFFFFFFFFFFFFFFFFFFFFFF AND SWAP1 POP DUP6 JUMP JUMPDEST PUSH0 PUSH1 0x1 PUSH0 DUP5 DUP2 MSTORE PUSH1 0x20 ADD SWAP1 DUP2 MSTORE PUSH1 0x20 ADD PUSH0 KECCAK256 SWAP1 POP DUP1 PUSH1 0x3 ADD SLOAD CALLVALUE GT PUSH2 0x3E0 JUMPI PUSH1 0x40 MLOAD PUSH32 0x8C379A000000000000000000000000000000000000000000000000000000000 DUP2 MSTORE PUSH1 0x4 ADD PUSH2 0x3D7 SWAP1 PUSH2 0xBD9 JUMP JUMPDEST PUSH1 0x40 MLOAD DUP1 SWAP2 SUB SWAP1 REVERT JUMPDEST PUSH0 DUP2 PUSH1 0x3 ADD SLOAD GT ISZERO PUSH2 0x458 JUMPI DUP1 PUSH1 0x4 ADD PUSH0 SWAP1 SLOAD SWAP1 PUSH2 0x100 EXP SWAP1 DIV PUSH20 0xFFFFFFFFFFFFFFFFFFFFFFFFFFFFFFFFFFFFFFFF AND PUSH20 0xFFFFFFFFFFFFFFFFFFFFFFFFFFFFFFFFFFFFFFFF AND PUSH2 0x8FC DUP3 PUSH1 0x3 ADD SLOAD SWAP1 DUP2 ISZERO MUL SWAP1 PUSH1 0x40 MLOAD PUSH0 PUSH1 0x40 MLOAD DUP1 DUP4 SUB DUP2 DUP6 DUP9 DUP9 CALL SWAP4 POP POP POP POP ISZERO DUP1 ISZERO PUSH2 0x456 JUMPI RETURNDATASIZE PUSH0 PUSH0 RETURNDATACOPY RETURNDATASIZE PUSH0 REVERT JUMPDEST POP JUMPDEST DUP2 DUP2 PUSH0 ADD SWAP1 DUP2 PUSH2 0x468 SWAP2 SWAP1 PUSH2 0xA9A JUMP JUMPDEST POP CALLVALUE DUP2 PUSH1 0x3 ADD DUP2 SWAP1 SSTORE POP CALLER DUP2 PUSH1 0x4 ADD PUSH0 PUSH2 0x100 EXP DUP2 SLOAD DUP2 PUSH20 0xFFFFFFFFFFFFFFFFFFFFFFFFFFFFFFFFFFFFFFFF MUL NOT AND SWAP1 DUP4 PUSH20 0xFFFFFFFFFFFFFFFFFFFFFFFFFFFFFFFFFFFFFFFF AND MUL OR SWAP1 SSTORE POP POP POP POP JUMP JUMPDEST PUSH0 PUSH1 0x40 MLOAD SWAP1 POP SWAP1 JUMP JUMPDEST PUSH0 PUSH0 REVERT JUMPDEST PUSH0 PUSH0 REVERT JUMPDEST PUSH0 DUP2 SWAP1 POP SWAP2 SWAP1 POP JUMP JUMPDEST PUSH2 0x4DC DUP2 PUSH2 0x4CA JUMP JUMPDEST DUP2 EQ PUSH2 0x4E6 JUMPI PUSH0 PUSH0 REVERT JUMPDEST POP JUMP JUMPDEST PUSH0 DUP2 CALLDATALOAD SWAP1 POP PUSH2 0x4F7 DUP2 PUSH2 0x4D3 JUMP JUMPDEST SWAP3 SWAP2 POP POP JUMP JUMPDEST PUSH0 PUSH0 REVERT JUMPDEST PUSH0 PUSH0 REVERT JUMPDEST PUSH0 PUSH1 0x1F NOT PUSH1 0x1F DUP4 ADD AND SWAP1 POP SWAP2 SWAP1 POP JUMP JUMPDEST PUSH32 0x4E487B7100000000000000000000000000000000000000000000000000000000 PUSH0 MSTORE PUSH1 0x41 PUSH1 0x4 MSTORE PUSH1 0x24 PUSH0 REVERT JUMPDEST PUSH2 0x54B DUP3 PUSH2 0x505 JUMP JUMPDEST DUP2 ADD DUP2 DUP2 LT PUSH8 0xFFFFFFFFFFFFFFFF DUP3 GT OR ISZERO PUSH2 0x56A JUMPI PUSH2 0x569 PUSH2 0x515 JUMP JUMPDEST JUMPDEST DUP1 PUSH1 0x40 MSTORE POP POP POP JUMP JUMPDEST PUSH0 PUSH2 0x57C PUSH2 0x4B9 JUMP JUMPDEST SWAP1 POP PUSH2 0x588 DUP3 DUP3 PUSH2 0x542 JUMP JUMPDEST SWAP2 SWAP1 POP JUMP JUMPDEST PUSH0 PUSH8 0xFFFFFFFFFFFFFFFF DUP3 GT ISZERO PUSH2 0x5A7 JUMPI PUSH2 0x5A6 PUSH2 0x515 JUMP JUMPDEST JUMPDEST PUSH2 0x5B0 DUP3 PUSH2 0x505 JUMP JUMPDEST SWAP1 POP PUSH1 0x20 DUP2 ADD SWAP1 POP SWAP2 SWAP1 POP JUMP JUMPDEST DUP3 DUP2 DUP4 CALLDATACOPY PUSH0 DUP4 DUP4 ADD MSTORE POP POP POP JUMP JUMPDEST PUSH0 PUSH2 0x5DD PUSH2 0x5D8 DUP5 PUSH2 0x58D JUMP JUMPDEST PUSH2 0x573 JUMP JUMPDEST SWAP1 POP DUP3 DUP2 MSTORE PUSH1 0x20 DUP2 ADD DUP5 DUP5 DUP5 ADD GT ISZERO PUSH2 0x5F9 JUMPI PUSH2 0x5F8 PUSH2 0x501 JUMP JUMPDEST JUMPDEST PUSH2 0x604 DUP5 DUP3 DUP6 PUSH2 0x5BD JUMP JUMPDEST POP SWAP4 SWAP3 POP POP POP JUMP JUMPDEST PUSH0 DUP3 PUSH1 0x1F DUP4 ADD SLT PUSH2 0x620 JUMPI PUSH2 0x61F PUSH2 0x4FD JUMP JUMPDEST JUMPDEST DUP2 CALLDATALOAD PUSH2 0x630 DUP5 DUP3 PUSH1 0x20 DUP7 ADD PUSH2 0x5CB JUMP JUMPDEST SWAP2 POP POP SWAP3 SWAP2 POP POP JUMP JUMPDEST PUSH0 PUSH0 PUSH0 PUSH0 PUSH0 PUSH1 0xA0 DUP7 DUP9 SUB SLT ISZERO PUSH2 0x652 JUMPI PUSH2 0x651 PUSH2 0x4C2 JUMP JUMPDEST JUMPDEST PUSH0 PUSH2 0x65F DUP9 DUP3 DUP10 ADD PUSH2 0x4E9 JUMP JUMPDEST SWAP6 POP POP PUSH1 0x20 DUP7 ADD CALLDATALOAD PUSH8 0xFFFFFFFFFFFFFFFF DUP2 GT ISZERO PUSH2 0x680 JUMPI PUSH2 0x67F PUSH2 0x4C6 JUMP JUMPDEST JUMPDEST PUSH2 0x68C DUP9 DUP3 DUP10 ADD PUSH2 0x60C JUMP JUMPDEST SWAP5 POP POP PUSH1 0x40 DUP7 ADD CALLDATALOAD PUSH8 0xFFFFFFFFFFFFFFFF DUP2 GT ISZERO PUSH2 0x6AD JUMPI PUSH2 0x6AC PUSH2 0x4C6 JUMP JUMPDEST JUMPDEST PUSH2 0x6B9 DUP9 DUP3 DUP10 ADD PUSH2 0x60C JUMP JUMPDEST SWAP4 POP POP PUSH1 0x60 DUP7 ADD CALLDATALOAD PUSH8 0xFFFFFFFFFFFFFFFF DUP2 GT ISZERO PUSH2 0x6DA JUMPI PUSH2 0x6D9 PUSH2 0x4C6 JUMP JUMPDEST JUMPDEST PUSH2 0x6E6 DUP9 DUP3 DUP10 ADD PUSH2 0x60C JUMP JUMPDEST SWAP3 POP POP PUSH1 0x80 PUSH2 0x6F7 DUP9 DUP3 DUP10 ADD PUSH2 0x4E9 JUMP JUMPDEST SWAP2 POP POP SWAP3 SWAP6 POP SWAP3 SWAP6 SWAP1 SWAP4 POP JUMP JUMPDEST PUSH0 PUSH1 0x20 DUP3 DUP5 SUB SLT ISZERO PUSH2 0x719 JUMPI PUSH2 0x718 PUSH2 0x4C2 JUMP JUMPDEST JUMPDEST PUSH0 PUSH2 0x726 DUP5 DUP3 DUP6 ADD PUSH2 0x4E9 JUMP JUMPDEST SWAP2 POP POP SWAP3 SWAP2 POP POP JUMP JUMPDEST PUSH0 DUP2 MLOAD SWAP1 POP SWAP2 SWAP1 POP JUMP JUMPDEST PUSH0 DUP3 DUP3 MSTORE PUSH1 0x20 DUP3 ADD SWAP1 POP SWAP3 SWAP2 POP POP JUMP JUMPDEST DUP3 DUP2 DUP4 MCOPY PUSH0 DUP4 DUP4 ADD MSTORE POP POP POP JUMP JUMPDEST PUSH0 PUSH2 0x761 DUP3 PUSH2 0x72F JUMP JUMPDEST PUSH2 0x76B DUP2 DUP6 PUSH2 0x739 JUMP JUMPDEST SWAP4 POP PUSH2 0x77B DUP2 DUP6 PUSH1 0x20 DUP7 ADD PUSH2 0x749 JUMP JUMPDEST PUSH2 0x784 DUP2 PUSH2 0x505 JUMP JUMPDEST DUP5 ADD SWAP2 POP POP SWAP3 SWAP2 POP POP JUMP JUMPDEST PUSH2 0x798 DUP2 PUSH2 0x4CA JUMP JUMPDEST DUP3 MSTORE POP POP JUMP JUMPDEST PUSH0 PUSH20 0xFFFFFFFFFFFFFFFFFFFFFFFFFFFFFFFFFFFFFFFF DUP3 AND SWAP1 POP SWAP2 SWAP1 POP JUMP JUMPDEST PUSH0 PUSH2 0x7C7 DUP3 PUSH2 0x79E JUMP JUMPDEST SWAP1 POP SWAP2 SWAP1 POP JUMP JUMPDEST PUSH2 0x7D7 DUP2 PUSH2 0x7BD JUMP JUMPDEST DUP3 MSTORE POP POP JUMP JUMPDEST PUSH0 PUSH1 0xA0 DUP3 ADD SWAP1 POP DUP2 DUP2 SUB PUSH0 DUP4 ADD MSTORE PUSH2 0x7F5 DUP2 DUP9 PUSH2 0x757 JUMP JUMPDEST SWAP1 POP DUP2 DUP2 SUB PUSH1 0x20 DUP4 ADD MSTORE PUSH2 0x809 DUP2 DUP8 PUSH2 0x757 JUMP JUMPDEST SWAP1 POP DUP2 DUP2 SUB PUSH1 0x40 DUP4 ADD MSTORE PUSH2 0x81D DUP2 DUP7 PUSH2 0x757 JUMP JUMPDEST SWAP1 POP PUSH2 0x82C PUSH1 0x60 DUP4 ADD DUP6 PUSH2 0x78F JUMP JUMPDEST PUSH2 0x839 PUSH1 0x80 DUP4 ADD DUP5 PUSH2 0x7CE JUMP JUMPDEST SWAP7 SWAP6 POP POP POP POP POP POP JUMP JUMPDEST PUSH0 PUSH0 PUSH1 0x40 DUP4 DUP6 SUB SLT ISZERO PUSH2 0x859 JUMPI PUSH2 0x858 PUSH2 0x4C2 JUMP JUMPDEST JUMPDEST PUSH0 PUSH2 0x866 DUP6 DUP3 DUP7 ADD PUSH2 0x4E9 JUMP JUMPDEST SWAP3 POP POP PUSH1 0x20 DUP4 ADD CALLDATALOAD PUSH8 0xFFFFFFFFFFFFFFFF DUP2 GT ISZERO PUSH2 0x887 JUMPI PUSH2 0x886 PUSH2 0x4C6 JUMP JUMPDEST JUMPDEST PUSH2 0x893 DUP6 DUP3 DUP7 ADD PUSH2 0x60C JUMP JUMPDEST SWAP2 POP POP SWAP3 POP SWAP3 SWAP1 POP JUMP JUMPDEST PUSH32 0x4E487B7100000000000000000000000000000000000000000000000000000000 PUSH0 MSTORE PUSH1 0x22 PUSH1 0x4 MSTORE PUSH1 0x24 PUSH0 REVERT JUMPDEST PUSH0 PUSH1 0x2 DUP3 DIV SWAP1 POP PUSH1 0x1 DUP3 AND DUP1 PUSH2 0x8E1 JUMPI PUSH1 0x7F DUP3 AND SWAP2 POP JUMPDEST PUSH1 0x20 DUP3 LT DUP2 SUB PUSH2 0x8F4 JUMPI PUSH2 0x8F3 PUSH2 0x89D JUMP JUMPDEST JUMPDEST POP SWAP2 SWAP1 POP JUMP JUMPDEST PUSH0 DUP2 SWAP1 POP DUP2 PUSH0 MSTORE PUSH1 0x20 PUSH0 KECCAK256 SWAP1 POP SWAP2 SWAP1 POP JUMP JUMPDEST PUSH0 PUSH1 0x20 PUSH1 0x1F DUP4 ADD DIV SWAP1 POP SWAP2 SWAP1 POP JUMP JUMPDEST PUSH0 DUP3 DUP3 SHL SWAP1 POP SWAP3 SWAP2 POP POP JUMP JUMPDEST PUSH0 PUSH1 0x8 DUP4 MUL PUSH2 0x956 PUSH32 0xFFFFFFFFFFFFFFFFFFFFFFFFFFFFFFFFFFFFFFFFFFFFFFFFFFFFFFFFFFFFFFFF DUP3 PUSH2 0x91B JUMP JUMPDEST PUSH2 0x960 DUP7 DUP4 PUSH2 0x91B JUMP JUMPDEST SWAP6 POP DUP1 NOT DUP5 AND SWAP4 POP DUP1 DUP7 AND DUP5 OR SWAP3 POP POP POP SWAP4 SWAP3 POP POP POP JUMP JUMPDEST PUSH0 DUP2 SWAP1 POP SWAP2 SWAP1 POP JUMP JUMPDEST PUSH0 PUSH2 0x99B PUSH2 0x996 PUSH2 0x991 DUP5 PUSH2 0x4CA JUMP JUMPDEST PUSH2 0x978 JUMP JUMPDEST PUSH2 0x4CA JUMP JUMPDEST SWAP1 POP SWAP2 SWAP1 POP JUMP JUMPDEST PUSH0 DUP2 SWAP1 POP SWAP2 SWAP1 POP JUMP JUMPDEST PUSH2 0x9B4 DUP4 PUSH2 0x981 JUMP JUMPDEST PUSH2 0x9C8 PUSH2 0x9C0 DUP3 PUSH2 0x9A2 JUMP JUMPDEST DUP5 DUP5 SLOAD PUSH2 0x927 JUMP JUMPDEST DUP3 SSTORE POP POP POP POP JUMP JUMPDEST PUSH0 PUSH0 SWAP1 POP SWAP1 JUMP JUMPDEST PUSH2 0x9DF PUSH2 0x9D0 JUMP JUMPDEST PUSH2 0x9EA DUP2 DUP5 DUP5 PUSH2 0x9AB JUMP JUMPDEST POP POP POP JUMP JUMPDEST JUMPDEST DUP2 DUP2 LT ISZERO PUSH2 0xA0D JUMPI PUSH2 0xA02 PUSH0 DUP3 PUSH2 0x9D7 JUMP JUMPDEST PUSH1 0x1 DUP2 ADD SWAP1 POP PUSH2 0x9F0 JUMP JUMPDEST POP POP JUMP JUMPDEST PUSH1 0x1F DUP3 GT ISZERO PUSH2 0xA52 JUMPI PUSH2 0xA23 DUP2 PUSH2 0x8FA JUMP JUMPDEST PUSH2 0xA2C DUP5 PUSH2 0x90C JUMP JUMPDEST DUP2 ADD PUSH1 0x20 DUP6 LT ISZERO PUSH2 0xA3B JUMPI DUP2 SWAP1 POP JUMPDEST PUSH2 0xA4F PUSH2 0xA47 DUP6 PUSH2 0x90C JUMP JUMPDEST DUP4 ADD DUP3 PUSH2 0x9EF JUMP JUMPDEST POP POP JUMPDEST POP POP POP JUMP JUMPDEST PUSH0 DUP3 DUP3 SHR SWAP1 POP SWAP3 SWAP2 POP POP JUMP JUMPDEST PUSH0 PUSH2 0xA72 PUSH0 NOT DUP5 PUSH1 0x8 MUL PUSH2 0xA57 JUMP JUMPDEST NOT DUP1 DUP4 AND SWAP2 POP POP SWAP3 SWAP2 POP POP JUMP JUMPDEST PUSH0 PUSH2 0xA8A DUP4 DUP4 PUSH2 0xA63 JUMP JUMPDEST SWAP2 POP DUP3 PUSH1 0x2 MUL DUP3 OR SWAP1 POP SWAP3 SWAP2 POP POP JUMP JUMPDEST PUSH2 0xAA3 DUP3 PUSH2 0x72F JUMP JUMPDEST PUSH8 0xFFFFFFFFFFFFFFFF DUP2 GT ISZERO PUSH2 0xABC JUMPI PUSH2 0xABB PUSH2 0x515 JUMP JUMPDEST JUMPDEST PUSH2 0xAC6 DUP3 SLOAD PUSH2 0x8CA JUMP JUMPDEST PUSH2 0xAD1 DUP3 DUP3 DUP6 PUSH2 0xA11 JUMP JUMPDEST PUSH0 PUSH1 0x20 SWAP1 POP PUSH1 0x1F DUP4 GT PUSH1 0x1 DUP2 EQ PUSH2 0xB02 JUMPI PUSH0 DUP5 ISZERO PUSH2 0xAF0 JUMPI DUP3 DUP8 ADD MLOAD SWAP1 POP JUMPDEST PUSH2 0xAFA DUP6 DUP3 PUSH2 0xA7F JUMP JUMPDEST DUP7 SSTORE POP PUSH2 0xB61 JUMP JUMPDEST PUSH1 0x1F NOT DUP5 AND PUSH2 0xB10 DUP7 PUSH2 0x8FA JUMP JUMPDEST PUSH0 JUMPDEST DUP3 DUP2 LT ISZERO PUSH2 0xB37 JUMPI DUP5 DUP10 ADD MLOAD DUP3 SSTORE PUSH1 0x1 DUP3 ADD SWAP2 POP PUSH1 0x20 DUP6 ADD SWAP5 POP PUSH1 0x20 DUP2 ADD SWAP1 POP PUSH2 0xB12 JUMP JUMPDEST DUP7 DUP4 LT ISZERO PUSH2 0xB54 JUMPI DUP5 DUP10 ADD MLOAD PUSH2 0xB50 PUSH1 0x1F DUP10 AND DUP3 PUSH2 0xA63 JUMP JUMPDEST DUP4 SSTORE POP JUMPDEST PUSH1 0x1 PUSH1 0x2 DUP9 MUL ADD DUP9 SSTORE POP POP POP JUMPDEST POP POP POP POP POP POP JUMP JUMPDEST PUSH32 0x796F7572207072696365206973206C6F776572207468616E2074686520637572 PUSH0 DUP3 ADD MSTORE PUSH32 0x72656E742070726963652E000000000000000000000000000000000000000000 PUSH1 0x20 DUP3 ADD MSTORE POP JUMP JUMPDEST PUSH0 PUSH2 0xBC3 PUSH1 0x2B DUP4 PUSH2 0x739 JUMP JUMPDEST SWAP2 POP PUSH2 0xBCE DUP3 PUSH2 0xB69 JUMP JUMPDEST PUSH1 0x40 DUP3 ADD SWAP1 POP SWAP2 SWAP1 POP JUMP JUMPDEST PUSH0 PUSH1 0x20 DUP3 ADD SWAP1 POP DUP2 DUP2 SUB PUSH0 DUP4 ADD MSTORE PUSH2 0xBF0 DUP2 PUSH2 0xBB7 JUMP JUMPDEST SWAP1 POP SWAP2 SWAP1 POP JUMP INVALID LOG2 PUSH5 0x6970667358 0x22 SLT KECCAK256 SWAP12 0xC4 0xEF PUSH31 0x5F01BB5F5A0E4415FA20D82BE038BEED9FF0521A31854CCFFA86DCA664736F PUSH13 0x634300081C0033000000000000 "
		},
		"gasEstimates": {
			"creation": {
				"codeDepositCost": "623400",
				"executionCost": "24919",
				"totalCost": "648319"
			},
			"external": {
				"carauctions(uint256)": "infinite",
				"changeOwner(uint256,string)": "infinite",
				"issue(uint256,string,string,string,uint256)": "infinite"
			}
		},
		"methodIdentifiers": {
			"carauctions(uint256)": "89866908",
			"changeOwner(uint256,string)": "ed83eeb1",
			"issue(uint256,string,string,string,uint256)": "662550f0"
		}
	},
	"abi": [
		{
			"inputs": [
				{
					"internalType": "uint256",
					"name": "",
					"type": "uint256"
				}
			],
			"name": "carauctions",
			"outputs": [
				{
					"internalType": "string",
					"name": "ownername",
					"type": "string"
				},
				{
					"internalType": "string",
					"name": "car",
					"type": "string"
				},
				{
					"internalType": "string",
					"name": "model",
					"type": "string"
				},
				{
					"internalType": "uint256",
					"name": "price",
					"type": "uint256"
				},
				{
					"internalType": "address payable",
					"name": "owneraddress",
					"type": "address"
				}
			],
			"stateMutability": "view",
			"type": "function"
		},
		{
			"inputs": [
				{
					"internalType": "uint256",
					"name": "_id",
					"type": "uint256"
				},
				{
					"internalType": "string",
					"name": "_newownername",
					"type": "string"
				}
			],
			"name": "changeOwner",
			"outputs": [],
			"stateMutability": "payable",
			"type": "function"
		},
		{
			"inputs": [
				{
					"internalType": "uint256",
					"name": "_id",
					"type": "uint256"
				},
				{
					"internalType": "string",
					"name": "_ownername",
					"type": "string"
				},
				{
					"internalType": "string",
					"name": "_car",
					"type": "string"
				},
				{
					"internalType": "string",
					"name": "_model",
					"type": "string"
				},
				{
					"internalType": "uint256",
					"name": "_price",
					"type": "uint256"
				}
			],
			"name": "issue",
			"outputs": [],
			"stateMutability": "nonpayable",
			"type": "function"
		}
	]
}